{
	"homework1/BeggingContract.sol": {
		"BeggingContract": {
			"abi": [
				{
					"inputs": [
						{
							"internalType": "uint256",
							"name": "_startTime",
							"type": "uint256"
						},
						{
							"internalType": "uint256",
							"name": "_endTime",
							"type": "uint256"
						}
					],
					"stateMutability": "nonpayable",
					"type": "constructor"
				},
				{
					"anonymous": false,
					"inputs": [
						{
							"indexed": true,
							"internalType": "address",
							"name": "donor",
							"type": "address"
						},
						{
							"indexed": false,
							"internalType": "uint256",
							"name": "amount",
							"type": "uint256"
						},
						{
							"indexed": false,
							"internalType": "uint256",
							"name": "timestamp",
							"type": "uint256"
						}
					],
					"name": "Donation",
					"type": "event"
				},
				{
					"inputs": [
						{
							"internalType": "uint256",
							"name": "",
							"type": "uint256"
						}
					],
					"name": "allDonors",
					"outputs": [
						{
							"internalType": "address",
							"name": "",
							"type": "address"
						}
					],
					"stateMutability": "view",
					"type": "function"
				},
				{
					"inputs": [],
					"name": "donate",
					"outputs": [],
					"stateMutability": "payable",
					"type": "function"
				},
				{
					"inputs": [],
					"name": "donateEndTime",
					"outputs": [
						{
							"internalType": "uint256",
							"name": "",
							"type": "uint256"
						}
					],
					"stateMutability": "view",
					"type": "function"
				},
				{
					"inputs": [],
					"name": "donateStartTime",
					"outputs": [
						{
							"internalType": "uint256",
							"name": "",
							"type": "uint256"
						}
					],
					"stateMutability": "view",
					"type": "function"
				},
				{
					"inputs": [],
					"name": "donateWithDonorRecord",
					"outputs": [],
					"stateMutability": "payable",
					"type": "function"
				},
				{
					"inputs": [
						{
							"internalType": "address",
							"name": "",
							"type": "address"
						}
					],
					"name": "donationRecords",
					"outputs": [
						{
							"internalType": "uint256",
							"name": "",
							"type": "uint256"
						}
					],
					"stateMutability": "view",
					"type": "function"
				},
				{
					"inputs": [],
					"name": "getAllDonors",
					"outputs": [
						{
							"internalType": "address[]",
							"name": "",
							"type": "address[]"
						}
					],
					"stateMutability": "view",
					"type": "function"
				},
				{
					"inputs": [],
					"name": "getContractBalance",
					"outputs": [
						{
							"internalType": "uint256",
							"name": "",
							"type": "uint256"
						}
					],
					"stateMutability": "view",
					"type": "function"
				},
				{
					"inputs": [
						{
							"internalType": "address",
							"name": "donor",
							"type": "address"
						}
					],
					"name": "getDonation",
					"outputs": [
						{
							"internalType": "uint256",
							"name": "",
							"type": "uint256"
						}
					],
					"stateMutability": "view",
					"type": "function"
				},
				{
					"inputs": [],
					"name": "getTop3Donors",
					"outputs": [
						{
							"internalType": "address[]",
							"name": "",
							"type": "address[]"
						},
						{
							"internalType": "uint256[]",
							"name": "",
							"type": "uint256[]"
						}
					],
					"stateMutability": "view",
					"type": "function"
				},
				{
					"inputs": [],
					"name": "owner",
					"outputs": [
						{
							"internalType": "address",
							"name": "",
							"type": "address"
						}
					],
					"stateMutability": "view",
					"type": "function"
				},
				{
					"inputs": [
						{
							"internalType": "uint256",
							"name": "_newStart",
							"type": "uint256"
						},
						{
							"internalType": "uint256",
							"name": "_newEnd",
							"type": "uint256"
						}
					],
					"name": "updateDonationPeriod",
					"outputs": [],
					"stateMutability": "nonpayable",
					"type": "function"
				},
				{
					"inputs": [],
					"name": "withdraw",
					"outputs": [],
					"stateMutability": "payable",
					"type": "function"
				}
			],
			"devdoc": {
				"kind": "dev",
				"methods": {},
				"version": 1
			},
			"evm": {
				"assembly": "    /* \"homework1/BeggingContract.sol\":61:6747  contract BeggingContract {... */\n  mstore(0x40, 0xa0)\n    /* \"homework1/BeggingContract.sol\":1319:1628  constructor(uint256 _startTime, uint256 _endTime) {... */\n  callvalue\n  dup1\n  iszero\n  tag_1\n  jumpi\n  revert(0x00, 0x00)\ntag_1:\n  pop\n  mload(0x40)\n  sub(codesize, bytecodeSize)\n  dup1\n  bytecodeSize\n  dup4\n  codecopy\n  dup2\n  dup2\n  add\n  0x40\n  mstore\n  dup2\n  add\n  swap1\n  tag_2\n  swap2\n  swap1\n  tag_3\n  jump\t// in\ntag_2:\n    /* \"homework1/BeggingContract.sol\":1388:1398  msg.sender */\n  caller\n    /* \"homework1/BeggingContract.sol\":1380:1398  owner = msg.sender */\n  0xffffffffffffffffffffffffffffffffffffffff\n  and\n  0x80\n  dup2\n  0xffffffffffffffffffffffffffffffffffffffff\n  and\n  dup2\n  mstore\n  pop\n  pop\n    /* \"homework1/BeggingContract.sol\":1498:1508  _startTime */\n  dup2\n    /* \"homework1/BeggingContract.sol\":1487:1495  _endTime */\n  dup2\n    /* \"homework1/BeggingContract.sol\":1487:1508  _endTime > _startTime */\n  gt\n    /* \"homework1/BeggingContract.sol\":1479:1546  require(_endTime > _startTime, \"End time must be after start time\") */\n  tag_6\n  jumpi\n  mload(0x40)\n  0x08c379a000000000000000000000000000000000000000000000000000000000\n  dup2\n  mstore\n  0x04\n  add\n  tag_7\n  swap1\n  tag_8\n  jump\t// in\ntag_7:\n  mload(0x40)\n  dup1\n  swap2\n  sub\n  swap1\n  revert\ntag_6:\n    /* \"homework1/BeggingContract.sol\":1575:1585  _startTime */\n  dup2\n    /* \"homework1/BeggingContract.sol\":1557:1572  donateStartTime */\n  0x01\n    /* \"homework1/BeggingContract.sol\":1557:1585  donateStartTime = _startTime */\n  dup2\n  swap1\n  sstore\n  pop\n    /* \"homework1/BeggingContract.sol\":1612:1620  _endTime */\n  dup1\n    /* \"homework1/BeggingContract.sol\":1596:1609  donateEndTime */\n  0x02\n    /* \"homework1/BeggingContract.sol\":1596:1620  donateEndTime = _endTime */\n  dup2\n  swap1\n  sstore\n  pop\n    /* \"homework1/BeggingContract.sol\":1319:1628  constructor(uint256 _startTime, uint256 _endTime) {... */\n  pop\n  pop\n    /* \"homework1/BeggingContract.sol\":61:6747  contract BeggingContract {... */\n  jump(tag_9)\n    /* \"#utility.yul\":88:205   */\ntag_11:\n    /* \"#utility.yul\":197:198   */\n  0x00\n    /* \"#utility.yul\":194:195   */\n  0x00\n    /* \"#utility.yul\":187:199   */\n  revert\n    /* \"#utility.yul\":334:411   */\ntag_13:\n    /* \"#utility.yul\":371:378   */\n  0x00\n    /* \"#utility.yul\":400:405   */\n  dup2\n    /* \"#utility.yul\":389:405   */\n  swap1\n  pop\n    /* \"#utility.yul\":334:411   */\n  swap2\n  swap1\n  pop\n  jump\t// out\n    /* \"#utility.yul\":417:539   */\ntag_14:\n    /* \"#utility.yul\":490:514   */\n  tag_25\n    /* \"#utility.yul\":508:513   */\n  dup2\n    /* \"#utility.yul\":490:514   */\n  tag_13\n  jump\t// in\ntag_25:\n    /* \"#utility.yul\":483:488   */\n  dup2\n    /* \"#utility.yul\":480:515   */\n  eq\n    /* \"#utility.yul\":470:533   */\n  tag_26\n  jumpi\n    /* \"#utility.yul\":529:530   */\n  0x00\n    /* \"#utility.yul\":526:527   */\n  0x00\n    /* \"#utility.yul\":519:531   */\n  revert\n    /* \"#utility.yul\":470:533   */\ntag_26:\n    /* \"#utility.yul\":417:539   */\n  pop\n  jump\t// out\n    /* \"#utility.yul\":545:688   */\ntag_15:\n    /* \"#utility.yul\":602:607   */\n  0x00\n    /* \"#utility.yul\":633:639   */\n  dup2\n    /* \"#utility.yul\":627:640   */\n  mload\n    /* \"#utility.yul\":618:640   */\n  swap1\n  pop\n    /* \"#utility.yul\":649:682   */\n  tag_28\n    /* \"#utility.yul\":676:681   */\n  dup2\n    /* \"#utility.yul\":649:682   */\n  tag_14\n  jump\t// in\ntag_28:\n    /* \"#utility.yul\":545:688   */\n  swap3\n  swap2\n  pop\n  pop\n  jump\t// out\n    /* \"#utility.yul\":694:1201   */\ntag_3:\n    /* \"#utility.yul\":773:779   */\n  0x00\n    /* \"#utility.yul\":781:787   */\n  0x00\n    /* \"#utility.yul\":830:832   */\n  0x40\n    /* \"#utility.yul\":818:827   */\n  dup4\n    /* \"#utility.yul\":809:816   */\n  dup6\n    /* \"#utility.yul\":805:828   */\n  sub\n    /* \"#utility.yul\":801:833   */\n  slt\n    /* \"#utility.yul\":798:917   */\n  iszero\n  tag_30\n  jumpi\n    /* \"#utility.yul\":836:915   */\n  tag_31\n  tag_11\n  jump\t// in\ntag_31:\n    /* \"#utility.yul\":798:917   */\ntag_30:\n    /* \"#utility.yul\":956:957   */\n  0x00\n    /* \"#utility.yul\":981:1045   */\n  tag_32\n    /* \"#utility.yul\":1037:1044   */\n  dup6\n    /* \"#utility.yul\":1028:1034   */\n  dup3\n    /* \"#utility.yul\":1017:1026   */\n  dup7\n    /* \"#utility.yul\":1013:1035   */\n  add\n    /* \"#utility.yul\":981:1045   */\n  tag_15\n  jump\t// in\ntag_32:\n    /* \"#utility.yul\":971:1045   */\n  swap3\n  pop\n    /* \"#utility.yul\":927:1055   */\n  pop\n    /* \"#utility.yul\":1094:1096   */\n  0x20\n    /* \"#utility.yul\":1120:1184   */\n  tag_33\n    /* \"#utility.yul\":1176:1183   */\n  dup6\n    /* \"#utility.yul\":1167:1173   */\n  dup3\n    /* \"#utility.yul\":1156:1165   */\n  dup7\n    /* \"#utility.yul\":1152:1174   */\n  add\n    /* \"#utility.yul\":1120:1184   */\n  tag_15\n  jump\t// in\ntag_33:\n    /* \"#utility.yul\":1110:1184   */\n  swap2\n  pop\n    /* \"#utility.yul\":1065:1194   */\n  pop\n    /* \"#utility.yul\":694:1201   */\n  swap3\n  pop\n  swap3\n  swap1\n  pop\n  jump\t// out\n    /* \"#utility.yul\":1207:1376   */\ntag_16:\n    /* \"#utility.yul\":1291:1302   */\n  0x00\n    /* \"#utility.yul\":1325:1331   */\n  dup3\n    /* \"#utility.yul\":1320:1323   */\n  dup3\n    /* \"#utility.yul\":1313:1332   */\n  mstore\n    /* \"#utility.yul\":1365:1369   */\n  0x20\n    /* \"#utility.yul\":1360:1363   */\n  dup3\n    /* \"#utility.yul\":1356:1370   */\n  add\n    /* \"#utility.yul\":1341:1370   */\n  swap1\n  pop\n    /* \"#utility.yul\":1207:1376   */\n  swap3\n  swap2\n  pop\n  pop\n  jump\t// out\n    /* \"#utility.yul\":1382:1602   */\ntag_17:\n    /* \"#utility.yul\":1522:1556   */\n  0x456e642074696d65206d7573742062652061667465722073746172742074696d\n    /* \"#utility.yul\":1518:1519   */\n  0x00\n    /* \"#utility.yul\":1510:1516   */\n  dup3\n    /* \"#utility.yul\":1506:1520   */\n  add\n    /* \"#utility.yul\":1499:1557   */\n  mstore\n    /* \"#utility.yul\":1591:1594   */\n  0x6500000000000000000000000000000000000000000000000000000000000000\n    /* \"#utility.yul\":1586:1588   */\n  0x20\n    /* \"#utility.yul\":1578:1584   */\n  dup3\n    /* \"#utility.yul\":1574:1589   */\n  add\n    /* \"#utility.yul\":1567:1595   */\n  mstore\n    /* \"#utility.yul\":1382:1602   */\n  pop\n  jump\t// out\n    /* \"#utility.yul\":1608:1974   */\ntag_18:\n    /* \"#utility.yul\":1750:1753   */\n  0x00\n    /* \"#utility.yul\":1771:1838   */\n  tag_37\n    /* \"#utility.yul\":1835:1837   */\n  0x21\n    /* \"#utility.yul\":1830:1833   */\n  dup4\n    /* \"#utility.yul\":1771:1838   */\n  tag_16\n  jump\t// in\ntag_37:\n    /* \"#utility.yul\":1764:1838   */\n  swap2\n  pop\n    /* \"#utility.yul\":1847:1940   */\n  tag_38\n    /* \"#utility.yul\":1936:1939   */\n  dup3\n    /* \"#utility.yul\":1847:1940   */\n  tag_17\n  jump\t// in\ntag_38:\n    /* \"#utility.yul\":1965:1967   */\n  0x40\n    /* \"#utility.yul\":1960:1963   */\n  dup3\n    /* \"#utility.yul\":1956:1968   */\n  add\n    /* \"#utility.yul\":1949:1968   */\n  swap1\n  pop\n    /* \"#utility.yul\":1608:1974   */\n  swap2\n  swap1\n  pop\n  jump\t// out\n    /* \"#utility.yul\":1980:2399   */\ntag_8:\n    /* \"#utility.yul\":2146:2150   */\n  0x00\n    /* \"#utility.yul\":2184:2186   */\n  0x20\n    /* \"#utility.yul\":2173:2182   */\n  dup3\n    /* \"#utility.yul\":2169:2187   */\n  add\n    /* \"#utility.yul\":2161:2187   */\n  swap1\n  pop\n    /* \"#utility.yul\":2233:2242   */\n  dup2\n    /* \"#utility.yul\":2227:2231   */\n  dup2\n    /* \"#utility.yul\":2223:2243   */\n  sub\n    /* \"#utility.yul\":2219:2220   */\n  0x00\n    /* \"#utility.yul\":2208:2217   */\n  dup4\n    /* \"#utility.yul\":2204:2221   */\n  add\n    /* \"#utility.yul\":2197:2244   */\n  mstore\n    /* \"#utility.yul\":2261:2392   */\n  tag_40\n    /* \"#utility.yul\":2387:2391   */\n  dup2\n    /* \"#utility.yul\":2261:2392   */\n  tag_18\n  jump\t// in\ntag_40:\n    /* \"#utility.yul\":2253:2392   */\n  swap1\n  pop\n    /* \"#utility.yul\":1980:2399   */\n  swap2\n  swap1\n  pop\n  jump\t// out\n    /* \"homework1/BeggingContract.sol\":61:6747  contract BeggingContract {... */\ntag_9:\n  mload(0x80)\n  codecopy(0x00, dataOffset(sub_0), dataSize(sub_0))\n  0x00\n  assignImmutable(\"0x2a80e1ef1d7842f27f2e6be0972bb708b9a135c38860dbe73c27c3486c34f4de\")\n  return(0x00, dataSize(sub_0))\nstop\n\nsub_0: assembly {\n        /* \"homework1/BeggingContract.sol\":61:6747  contract BeggingContract {... */\n      mstore(0x40, 0x80)\n      jumpi(tag_1, lt(calldatasize, 0x04))\n      shr(0xe0, calldataload(0x00))\n      dup1\n      0x84fc42e1\n      gt\n      tag_15\n      jumpi\n      dup1\n      0xa7e3e2b8\n      gt\n      tag_16\n      jumpi\n      dup1\n      0xa7e3e2b8\n      eq\n      tag_11\n      jumpi\n      dup1\n      0xb0208069\n      eq\n      tag_12\n      jumpi\n      dup1\n      0xed88c68e\n      eq\n      tag_13\n      jumpi\n      dup1\n      0xfa6e687f\n      eq\n      tag_14\n      jumpi\n      jump(tag_1)\n    tag_16:\n      dup1\n      0x84fc42e1\n      eq\n      tag_8\n      jumpi\n      dup1\n      0x8da5cb5b\n      eq\n      tag_9\n      jumpi\n      dup1\n      0x98e36b04\n      eq\n      tag_10\n      jumpi\n      jump(tag_1)\n    tag_15:\n      dup1\n      0x2c3e6963\n      eq\n      tag_2\n      jumpi\n      dup1\n      0x2d1e2518\n      eq\n      tag_3\n      jumpi\n      dup1\n      0x3ccfd60b\n      eq\n      tag_4\n      jumpi\n      dup1\n      0x410a1d32\n      eq\n      tag_5\n      jumpi\n      dup1\n      0x54b602ed\n      eq\n      tag_6\n      jumpi\n      dup1\n      0x6f9fb98a\n      eq\n      tag_7\n      jumpi\n    tag_1:\n      revert(0x00, 0x00)\n        /* \"homework1/BeggingContract.sol\":5297:5323  address[] public allDonors */\n    tag_2:\n      callvalue\n      dup1\n      iszero\n      tag_17\n      jumpi\n      revert(0x00, 0x00)\n    tag_17:\n      pop\n      tag_18\n      0x04\n      dup1\n      calldatasize\n      sub\n      dup2\n      add\n      swap1\n      tag_19\n      swap2\n      swap1\n      tag_20\n      jump\t// in\n    tag_19:\n      tag_21\n      jump\t// in\n    tag_18:\n      mload(0x40)\n      tag_22\n      swap2\n      swap1\n      tag_23\n      jump\t// in\n    tag_22:\n      mload(0x40)\n      dup1\n      swap2\n      sub\n      swap1\n      return\n        /* \"homework1/BeggingContract.sol\":2952:5138  function getTop3Donors() public view returns (address[] memory, uint256[] memory) {... */\n    tag_3:\n      callvalue\n      dup1\n      iszero\n      tag_24\n      jumpi\n      revert(0x00, 0x00)\n    tag_24:\n      pop\n      tag_25\n      tag_26\n      jump\t// in\n    tag_25:\n      mload(0x40)\n      tag_27\n      swap3\n      swap2\n      swap1\n      tag_28\n      jump\t// in\n    tag_27:\n      mload(0x40)\n      dup1\n      swap2\n      sub\n      swap1\n      return\n        /* \"homework1/BeggingContract.sol\":2246:2521  function withdraw() public payable onlyOwner {... */\n    tag_4:\n      tag_29\n      tag_30\n      jump\t// in\n    tag_29:\n      stop\n        /* \"homework1/BeggingContract.sol\":2587:2701  function getDonation(address donor) public view returns (uint256) {... */\n    tag_5:\n      callvalue\n      dup1\n      iszero\n      tag_31\n      jumpi\n      revert(0x00, 0x00)\n    tag_31:\n      pop\n      tag_32\n      0x04\n      dup1\n      calldatasize\n      sub\n      dup2\n      add\n      swap1\n      tag_33\n      swap2\n      swap1\n      tag_34\n      jump\t// in\n    tag_33:\n      tag_35\n      jump\t// in\n    tag_32:\n      mload(0x40)\n      tag_36\n      swap2\n      swap1\n      tag_37\n      jump\t// in\n    tag_36:\n      mload(0x40)\n      dup1\n      swap2\n      sub\n      swap1\n      return\n        /* \"homework1/BeggingContract.sol\":6505:6744  function updateDonationPeriod(uint256 _newStart, uint256 _newEnd) public onlyOwner {... */\n    tag_6:\n      callvalue\n      dup1\n      iszero\n      tag_38\n      jumpi\n      revert(0x00, 0x00)\n    tag_38:\n      pop\n      tag_39\n      0x04\n      dup1\n      calldatasize\n      sub\n      dup2\n      add\n      swap1\n      tag_40\n      swap2\n      swap1\n      tag_41\n      jump\t// in\n    tag_40:\n      tag_42\n      jump\t// in\n    tag_39:\n      stop\n        /* \"homework1/BeggingContract.sol\":6315:6422  function getContractBalance() public view returns (uint256) {... */\n    tag_7:\n      callvalue\n      dup1\n      iszero\n      tag_43\n      jumpi\n      revert(0x00, 0x00)\n    tag_43:\n      pop\n      tag_44\n      tag_45\n      jump\t// in\n    tag_44:\n      mload(0x40)\n      tag_46\n      swap2\n      swap1\n      tag_37\n      jump\t// in\n    tag_46:\n      mload(0x40)\n      dup1\n      swap2\n      sub\n      swap1\n      return\n        /* \"homework1/BeggingContract.sol\":470:498  uint256 public donateEndTime */\n    tag_8:\n      callvalue\n      dup1\n      iszero\n      tag_47\n      jumpi\n      revert(0x00, 0x00)\n    tag_47:\n      pop\n      tag_48\n      tag_49\n      jump\t// in\n    tag_48:\n      mload(0x40)\n      tag_50\n      swap2\n      swap1\n      tag_37\n      jump\t// in\n    tag_50:\n      mload(0x40)\n      dup1\n      swap2\n      sub\n      swap1\n      return\n        /* \"homework1/BeggingContract.sol\":183:213  address public immutable owner */\n    tag_9:\n      callvalue\n      dup1\n      iszero\n      tag_51\n      jumpi\n      revert(0x00, 0x00)\n    tag_51:\n      pop\n      tag_52\n      tag_53\n      jump\t// in\n    tag_52:\n      mload(0x40)\n      tag_54\n      swap2\n      swap1\n      tag_23\n      jump\t// in\n    tag_54:\n      mload(0x40)\n      dup1\n      swap2\n      sub\n      swap1\n      return\n        /* \"homework1/BeggingContract.sol\":5376:5474  function getAllDonors() public view returns (address[] memory) {... */\n    tag_10:\n      callvalue\n      dup1\n      iszero\n      tag_55\n      jumpi\n      revert(0x00, 0x00)\n    tag_55:\n      pop\n      tag_56\n      tag_57\n      jump\t// in\n    tag_56:\n      mload(0x40)\n      tag_58\n      swap2\n      swap1\n      tag_59\n      jump\t// in\n    tag_58:\n      mload(0x40)\n      dup1\n      swap2\n      sub\n      swap1\n      return\n        /* \"homework1/BeggingContract.sol\":312:362  mapping(address => uint256) public donationRecords */\n    tag_11:\n      callvalue\n      dup1\n      iszero\n      tag_60\n      jumpi\n      revert(0x00, 0x00)\n    tag_60:\n      pop\n      tag_61\n      0x04\n      dup1\n      calldatasize\n      sub\n      dup2\n      add\n      swap1\n      tag_62\n      swap2\n      swap1\n      tag_34\n      jump\t// in\n    tag_62:\n      tag_63\n      jump\t// in\n    tag_61:\n      mload(0x40)\n      tag_64\n      swap2\n      swap1\n      tag_37\n      jump\t// in\n    tag_64:\n      mload(0x40)\n      dup1\n      swap2\n      sub\n      swap1\n      return\n        /* \"homework1/BeggingContract.sol\":5563:6244  function donateWithDonorRecord() public payable onlyDuringDonationPeriod {... */\n    tag_12:\n      tag_65\n      tag_66\n      jump\t// in\n    tag_65:\n      stop\n        /* \"homework1/BeggingContract.sol\":1741:2151  function donate() public payable onlyDuringDonationPeriod {... */\n    tag_13:\n      tag_67\n      tag_68\n      jump\t// in\n    tag_67:\n      stop\n        /* \"homework1/BeggingContract.sol\":433:463  uint256 public donateStartTime */\n    tag_14:\n      callvalue\n      dup1\n      iszero\n      tag_69\n      jumpi\n      revert(0x00, 0x00)\n    tag_69:\n      pop\n      tag_70\n      tag_71\n      jump\t// in\n    tag_70:\n      mload(0x40)\n      tag_72\n      swap2\n      swap1\n      tag_37\n      jump\t// in\n    tag_72:\n      mload(0x40)\n      dup1\n      swap2\n      sub\n      swap1\n      return\n        /* \"homework1/BeggingContract.sol\":5297:5323  address[] public allDonors */\n    tag_21:\n      0x03\n      dup2\n      dup2\n      sload\n      dup2\n      lt\n      tag_73\n      jumpi\n      0x00\n      dup1\n      revert\n    tag_73:\n      swap1\n      0x00\n      mstore\n      keccak256(0x00, 0x20)\n      add\n      0x00\n      swap2\n      pop\n      sload\n      swap1\n      0x0100\n      exp\n      swap1\n      div\n      0xffffffffffffffffffffffffffffffffffffffff\n      and\n      dup2\n      jump\t// out\n        /* \"homework1/BeggingContract.sol\":2952:5138  function getTop3Donors() public view returns (address[] memory, uint256[] memory) {... */\n    tag_26:\n        /* \"homework1/BeggingContract.sol\":2998:3014  address[] memory */\n      0x60\n        /* \"homework1/BeggingContract.sol\":3016:3032  uint256[] memory */\n      dup1\n        /* \"homework1/BeggingContract.sol\":3115:3145  address[3] memory topAddresses */\n      tag_76\n      tag_77\n      jump\t// in\n    tag_76:\n        /* \"homework1/BeggingContract.sol\":3156:3184  uint256[3] memory topAmounts */\n      tag_78\n      tag_79\n      jump\t// in\n    tag_78:\n        /* \"homework1/BeggingContract.sol\":3642:3665  address[] memory donors */\n      0x00\n        /* \"homework1/BeggingContract.sol\":3668:3682  getAllDonors() */\n      tag_80\n        /* \"homework1/BeggingContract.sol\":3668:3680  getAllDonors */\n      tag_57\n        /* \"homework1/BeggingContract.sol\":3668:3682  getAllDonors() */\n      jump\t// in\n    tag_80:\n        /* \"homework1/BeggingContract.sol\":3642:3682  address[] memory donors = getAllDonors() */\n      swap1\n      pop\n        /* \"homework1/BeggingContract.sol\":3700:3709  uint256 i */\n      0x00\n        /* \"homework1/BeggingContract.sol\":3712:3713  0 */\n      0x00\n        /* \"homework1/BeggingContract.sol\":3700:3713  uint256 i = 0 */\n      swap1\n      pop\n        /* \"homework1/BeggingContract.sol\":3695:4725  for (uint256 i = 0; i < donors.length; i++) {... */\n    tag_81:\n        /* \"homework1/BeggingContract.sol\":3719:3725  donors */\n      dup2\n        /* \"homework1/BeggingContract.sol\":3719:3732  donors.length */\n      mload\n        /* \"homework1/BeggingContract.sol\":3715:3716  i */\n      dup2\n        /* \"homework1/BeggingContract.sol\":3715:3732  i < donors.length */\n      lt\n        /* \"homework1/BeggingContract.sol\":3695:4725  for (uint256 i = 0; i < donors.length; i++) {... */\n      iszero\n      tag_82\n      jumpi\n        /* \"homework1/BeggingContract.sol\":3754:3767  address donor */\n      0x00\n        /* \"homework1/BeggingContract.sol\":3770:3776  donors */\n      dup3\n        /* \"homework1/BeggingContract.sol\":3777:3778  i */\n      dup3\n        /* \"homework1/BeggingContract.sol\":3770:3779  donors[i] */\n      dup2\n      mload\n      dup2\n      lt\n      tag_84\n      jumpi\n      tag_85\n      tag_86\n      jump\t// in\n    tag_85:\n    tag_84:\n      0x20\n      mul\n      0x20\n      add\n      add\n      mload\n        /* \"homework1/BeggingContract.sol\":3754:3779  address donor = donors[i] */\n      swap1\n      pop\n        /* \"homework1/BeggingContract.sol\":3794:3808  uint256 amount */\n      0x00\n        /* \"homework1/BeggingContract.sol\":3811:3826  donationRecords */\n      0x00\n        /* \"homework1/BeggingContract.sol\":3811:3833  donationRecords[donor] */\n      0x00\n        /* \"homework1/BeggingContract.sol\":3827:3832  donor */\n      dup4\n        /* \"homework1/BeggingContract.sol\":3811:3833  donationRecords[donor] */\n      0xffffffffffffffffffffffffffffffffffffffff\n      and\n      0xffffffffffffffffffffffffffffffffffffffff\n      and\n      dup2\n      mstore\n      0x20\n      add\n      swap1\n      dup2\n      mstore\n      0x20\n      add\n      0x00\n      keccak256\n      sload\n        /* \"homework1/BeggingContract.sol\":3794:3833  uint256 amount = donationRecords[donor] */\n      swap1\n      pop\n        /* \"homework1/BeggingContract.sol\":3902:3912  topAmounts */\n      dup5\n        /* \"homework1/BeggingContract.sol\":3913:3914  0 */\n      0x00\n        /* \"homework1/BeggingContract.sol\":3902:3915  topAmounts[0] */\n      0x03\n      dup2\n      lt\n      tag_87\n      jumpi\n      tag_88\n      tag_86\n      jump\t// in\n    tag_88:\n    tag_87:\n      0x20\n      mul\n      add\n      mload\n        /* \"homework1/BeggingContract.sol\":3893:3899  amount */\n      dup2\n        /* \"homework1/BeggingContract.sol\":3893:3915  amount > topAmounts[0] */\n      gt\n        /* \"homework1/BeggingContract.sol\":3889:4714  if (amount > topAmounts[0]) {... */\n      iszero\n      tag_89\n      jumpi\n        /* \"homework1/BeggingContract.sol\":4001:4011  topAmounts */\n      dup5\n        /* \"homework1/BeggingContract.sol\":4012:4013  1 */\n      0x01\n        /* \"homework1/BeggingContract.sol\":4001:4014  topAmounts[1] */\n      0x03\n      dup2\n      lt\n      tag_90\n      jumpi\n      tag_91\n      tag_86\n      jump\t// in\n    tag_91:\n    tag_90:\n      0x20\n      mul\n      add\n      mload\n        /* \"homework1/BeggingContract.sol\":3985:3995  topAmounts */\n      dup6\n        /* \"homework1/BeggingContract.sol\":3996:3997  2 */\n      0x02\n        /* \"homework1/BeggingContract.sol\":3985:3998  topAmounts[2] */\n      0x03\n      dup2\n      lt\n      tag_92\n      jumpi\n      tag_93\n      tag_86\n      jump\t// in\n    tag_93:\n    tag_92:\n      0x20\n      mul\n      add\n        /* \"homework1/BeggingContract.sol\":3985:4014  topAmounts[2] = topAmounts[1] */\n      dup2\n      dup2\n      mstore\n      pop\n      pop\n        /* \"homework1/BeggingContract.sol\":4051:4063  topAddresses */\n      dup6\n        /* \"homework1/BeggingContract.sol\":4064:4065  1 */\n      0x01\n        /* \"homework1/BeggingContract.sol\":4051:4066  topAddresses[1] */\n      0x03\n      dup2\n      lt\n      tag_94\n      jumpi\n      tag_95\n      tag_86\n      jump\t// in\n    tag_95:\n    tag_94:\n      0x20\n      mul\n      add\n      mload\n        /* \"homework1/BeggingContract.sol\":4033:4045  topAddresses */\n      dup7\n        /* \"homework1/BeggingContract.sol\":4046:4047  2 */\n      0x02\n        /* \"homework1/BeggingContract.sol\":4033:4048  topAddresses[2] */\n      0x03\n      dup2\n      lt\n      tag_96\n      jumpi\n      tag_97\n      tag_86\n      jump\t// in\n    tag_97:\n    tag_96:\n      0x20\n      mul\n      add\n        /* \"homework1/BeggingContract.sol\":4033:4066  topAddresses[2] = topAddresses[1] */\n      swap1\n      0xffffffffffffffffffffffffffffffffffffffff\n      and\n      swap1\n      dup2\n      0xffffffffffffffffffffffffffffffffffffffff\n      and\n      dup2\n      mstore\n      pop\n      pop\n        /* \"homework1/BeggingContract.sol\":4101:4111  topAmounts */\n      dup5\n        /* \"homework1/BeggingContract.sol\":4112:4113  0 */\n      0x00\n        /* \"homework1/BeggingContract.sol\":4101:4114  topAmounts[0] */\n      0x03\n      dup2\n      lt\n      tag_98\n      jumpi\n      tag_99\n      tag_86\n      jump\t// in\n    tag_99:\n    tag_98:\n      0x20\n      mul\n      add\n      mload\n        /* \"homework1/BeggingContract.sol\":4085:4095  topAmounts */\n      dup6\n        /* \"homework1/BeggingContract.sol\":4096:4097  1 */\n      0x01\n        /* \"homework1/BeggingContract.sol\":4085:4098  topAmounts[1] */\n      0x03\n      dup2\n      lt\n      tag_100\n      jumpi\n      tag_101\n      tag_86\n      jump\t// in\n    tag_101:\n    tag_100:\n      0x20\n      mul\n      add\n        /* \"homework1/BeggingContract.sol\":4085:4114  topAmounts[1] = topAmounts[0] */\n      dup2\n      dup2\n      mstore\n      pop\n      pop\n        /* \"homework1/BeggingContract.sol\":4151:4163  topAddresses */\n      dup6\n        /* \"homework1/BeggingContract.sol\":4164:4165  0 */\n      0x00\n        /* \"homework1/BeggingContract.sol\":4151:4166  topAddresses[0] */\n      0x03\n      dup2\n      lt\n      tag_102\n      jumpi\n      tag_103\n      tag_86\n      jump\t// in\n    tag_103:\n    tag_102:\n      0x20\n      mul\n      add\n      mload\n        /* \"homework1/BeggingContract.sol\":4133:4145  topAddresses */\n      dup7\n        /* \"homework1/BeggingContract.sol\":4146:4147  1 */\n      0x01\n        /* \"homework1/BeggingContract.sol\":4133:4148  topAddresses[1] */\n      0x03\n      dup2\n      lt\n      tag_104\n      jumpi\n      tag_105\n      tag_86\n      jump\t// in\n    tag_105:\n    tag_104:\n      0x20\n      mul\n      add\n        /* \"homework1/BeggingContract.sol\":4133:4166  topAddresses[1] = topAddresses[0] */\n      swap1\n      0xffffffffffffffffffffffffffffffffffffffff\n      and\n      swap1\n      dup2\n      0xffffffffffffffffffffffffffffffffffffffff\n      and\n      dup2\n      mstore\n      pop\n      pop\n        /* \"homework1/BeggingContract.sol\":4201:4207  amount */\n      dup1\n        /* \"homework1/BeggingContract.sol\":4185:4195  topAmounts */\n      dup6\n        /* \"homework1/BeggingContract.sol\":4196:4197  0 */\n      0x00\n        /* \"homework1/BeggingContract.sol\":4185:4198  topAmounts[0] */\n      0x03\n      dup2\n      lt\n      tag_106\n      jumpi\n      tag_107\n      tag_86\n      jump\t// in\n    tag_107:\n    tag_106:\n      0x20\n      mul\n      add\n        /* \"homework1/BeggingContract.sol\":4185:4207  topAmounts[0] = amount */\n      dup2\n      dup2\n      mstore\n      pop\n      pop\n        /* \"homework1/BeggingContract.sol\":4244:4249  donor */\n      dup2\n        /* \"homework1/BeggingContract.sol\":4226:4238  topAddresses */\n      dup7\n        /* \"homework1/BeggingContract.sol\":4239:4240  0 */\n      0x00\n        /* \"homework1/BeggingContract.sol\":4226:4241  topAddresses[0] */\n      0x03\n      dup2\n      lt\n      tag_108\n      jumpi\n      tag_109\n      tag_86\n      jump\t// in\n    tag_109:\n    tag_108:\n      0x20\n      mul\n      add\n        /* \"homework1/BeggingContract.sol\":4226:4249  topAddresses[0] = donor */\n      swap1\n      0xffffffffffffffffffffffffffffffffffffffff\n      and\n      swap1\n      dup2\n      0xffffffffffffffffffffffffffffffffffffffff\n      and\n      dup2\n      mstore\n      pop\n      pop\n        /* \"homework1/BeggingContract.sol\":3889:4714  if (amount > topAmounts[0]) {... */\n      jump(tag_110)\n    tag_89:\n        /* \"homework1/BeggingContract.sol\":4284:4294  topAmounts */\n      dup5\n        /* \"homework1/BeggingContract.sol\":4295:4296  1 */\n      0x01\n        /* \"homework1/BeggingContract.sol\":4284:4297  topAmounts[1] */\n      0x03\n      dup2\n      lt\n      tag_111\n      jumpi\n      tag_112\n      tag_86\n      jump\t// in\n    tag_112:\n    tag_111:\n      0x20\n      mul\n      add\n      mload\n        /* \"homework1/BeggingContract.sol\":4275:4281  amount */\n      dup2\n        /* \"homework1/BeggingContract.sol\":4275:4297  amount > topAmounts[1] */\n      gt\n        /* \"homework1/BeggingContract.sol\":4271:4714  if (amount > topAmounts[1]) {... */\n      iszero\n      tag_113\n      jumpi\n        /* \"homework1/BeggingContract.sol\":4383:4393  topAmounts */\n      dup5\n        /* \"homework1/BeggingContract.sol\":4394:4395  1 */\n      0x01\n        /* \"homework1/BeggingContract.sol\":4383:4396  topAmounts[1] */\n      0x03\n      dup2\n      lt\n      tag_114\n      jumpi\n      tag_115\n      tag_86\n      jump\t// in\n    tag_115:\n    tag_114:\n      0x20\n      mul\n      add\n      mload\n        /* \"homework1/BeggingContract.sol\":4367:4377  topAmounts */\n      dup6\n        /* \"homework1/BeggingContract.sol\":4378:4379  2 */\n      0x02\n        /* \"homework1/BeggingContract.sol\":4367:4380  topAmounts[2] */\n      0x03\n      dup2\n      lt\n      tag_116\n      jumpi\n      tag_117\n      tag_86\n      jump\t// in\n    tag_117:\n    tag_116:\n      0x20\n      mul\n      add\n        /* \"homework1/BeggingContract.sol\":4367:4396  topAmounts[2] = topAmounts[1] */\n      dup2\n      dup2\n      mstore\n      pop\n      pop\n        /* \"homework1/BeggingContract.sol\":4433:4445  topAddresses */\n      dup6\n        /* \"homework1/BeggingContract.sol\":4446:4447  1 */\n      0x01\n        /* \"homework1/BeggingContract.sol\":4433:4448  topAddresses[1] */\n      0x03\n      dup2\n      lt\n      tag_118\n      jumpi\n      tag_119\n      tag_86\n      jump\t// in\n    tag_119:\n    tag_118:\n      0x20\n      mul\n      add\n      mload\n        /* \"homework1/BeggingContract.sol\":4415:4427  topAddresses */\n      dup7\n        /* \"homework1/BeggingContract.sol\":4428:4429  2 */\n      0x02\n        /* \"homework1/BeggingContract.sol\":4415:4430  topAddresses[2] */\n      0x03\n      dup2\n      lt\n      tag_120\n      jumpi\n      tag_121\n      tag_86\n      jump\t// in\n    tag_121:\n    tag_120:\n      0x20\n      mul\n      add\n        /* \"homework1/BeggingContract.sol\":4415:4448  topAddresses[2] = topAddresses[1] */\n      swap1\n      0xffffffffffffffffffffffffffffffffffffffff\n      and\n      swap1\n      dup2\n      0xffffffffffffffffffffffffffffffffffffffff\n      and\n      dup2\n      mstore\n      pop\n      pop\n        /* \"homework1/BeggingContract.sol\":4483:4489  amount */\n      dup1\n        /* \"homework1/BeggingContract.sol\":4467:4477  topAmounts */\n      dup6\n        /* \"homework1/BeggingContract.sol\":4478:4479  1 */\n      0x01\n        /* \"homework1/BeggingContract.sol\":4467:4480  topAmounts[1] */\n      0x03\n      dup2\n      lt\n      tag_122\n      jumpi\n      tag_123\n      tag_86\n      jump\t// in\n    tag_123:\n    tag_122:\n      0x20\n      mul\n      add\n        /* \"homework1/BeggingContract.sol\":4467:4489  topAmounts[1] = amount */\n      dup2\n      dup2\n      mstore\n      pop\n      pop\n        /* \"homework1/BeggingContract.sol\":4526:4531  donor */\n      dup2\n        /* \"homework1/BeggingContract.sol\":4508:4520  topAddresses */\n      dup7\n        /* \"homework1/BeggingContract.sol\":4521:4522  1 */\n      0x01\n        /* \"homework1/BeggingContract.sol\":4508:4523  topAddresses[1] */\n      0x03\n      dup2\n      lt\n      tag_124\n      jumpi\n      tag_125\n      tag_86\n      jump\t// in\n    tag_125:\n    tag_124:\n      0x20\n      mul\n      add\n        /* \"homework1/BeggingContract.sol\":4508:4531  topAddresses[1] = donor */\n      swap1\n      0xffffffffffffffffffffffffffffffffffffffff\n      and\n      swap1\n      dup2\n      0xffffffffffffffffffffffffffffffffffffffff\n      and\n      dup2\n      mstore\n      pop\n      pop\n        /* \"homework1/BeggingContract.sol\":4271:4714  if (amount > topAmounts[1]) {... */\n      jump(tag_126)\n    tag_113:\n        /* \"homework1/BeggingContract.sol\":4566:4576  topAmounts */\n      dup5\n        /* \"homework1/BeggingContract.sol\":4577:4578  2 */\n      0x02\n        /* \"homework1/BeggingContract.sol\":4566:4579  topAmounts[2] */\n      0x03\n      dup2\n      lt\n      tag_127\n      jumpi\n      tag_128\n      tag_86\n      jump\t// in\n    tag_128:\n    tag_127:\n      0x20\n      mul\n      add\n      mload\n        /* \"homework1/BeggingContract.sol\":4557:4563  amount */\n      dup2\n        /* \"homework1/BeggingContract.sol\":4557:4579  amount > topAmounts[2] */\n      gt\n        /* \"homework1/BeggingContract.sol\":4553:4714  if (amount > topAmounts[2]) {... */\n      iszero\n      tag_129\n      jumpi\n        /* \"homework1/BeggingContract.sol\":4650:4656  amount */\n      dup1\n        /* \"homework1/BeggingContract.sol\":4634:4644  topAmounts */\n      dup6\n        /* \"homework1/BeggingContract.sol\":4645:4646  2 */\n      0x02\n        /* \"homework1/BeggingContract.sol\":4634:4647  topAmounts[2] */\n      0x03\n      dup2\n      lt\n      tag_130\n      jumpi\n      tag_131\n      tag_86\n      jump\t// in\n    tag_131:\n    tag_130:\n      0x20\n      mul\n      add\n        /* \"homework1/BeggingContract.sol\":4634:4656  topAmounts[2] = amount */\n      dup2\n      dup2\n      mstore\n      pop\n      pop\n        /* \"homework1/BeggingContract.sol\":4693:4698  donor */\n      dup2\n        /* \"homework1/BeggingContract.sol\":4675:4687  topAddresses */\n      dup7\n        /* \"homework1/BeggingContract.sol\":4688:4689  2 */\n      0x02\n        /* \"homework1/BeggingContract.sol\":4675:4690  topAddresses[2] */\n      0x03\n      dup2\n      lt\n      tag_132\n      jumpi\n      tag_133\n      tag_86\n      jump\t// in\n    tag_133:\n    tag_132:\n      0x20\n      mul\n      add\n        /* \"homework1/BeggingContract.sol\":4675:4698  topAddresses[2] = donor */\n      swap1\n      0xffffffffffffffffffffffffffffffffffffffff\n      and\n      swap1\n      dup2\n      0xffffffffffffffffffffffffffffffffffffffff\n      and\n      dup2\n      mstore\n      pop\n      pop\n        /* \"homework1/BeggingContract.sol\":4553:4714  if (amount > topAmounts[2]) {... */\n    tag_129:\n        /* \"homework1/BeggingContract.sol\":4271:4714  if (amount > topAmounts[1]) {... */\n    tag_126:\n        /* \"homework1/BeggingContract.sol\":3889:4714  if (amount > topAmounts[0]) {... */\n    tag_110:\n        /* \"homework1/BeggingContract.sol\":3739:4725  {... */\n      pop\n      pop\n        /* \"homework1/BeggingContract.sol\":3734:3737  i++ */\n      dup1\n      dup1\n      0x01\n      add\n      swap2\n      pop\n      pop\n        /* \"homework1/BeggingContract.sol\":3695:4725  for (uint256 i = 0; i < donors.length; i++) {... */\n      jump(tag_81)\n    tag_82:\n      pop\n        /* \"homework1/BeggingContract.sol\":4815:4847  address[] memory resultAddresses */\n      0x00\n        /* \"homework1/BeggingContract.sol\":4864:4865  3 */\n      0x03\n        /* \"homework1/BeggingContract.sol\":4850:4866  new address[](3) */\n      0xffffffffffffffff\n      dup2\n      gt\n      iszero\n      tag_134\n      jumpi\n      tag_135\n      tag_136\n      jump\t// in\n    tag_135:\n    tag_134:\n      mload(0x40)\n      swap1\n      dup1\n      dup3\n      mstore\n      dup1\n      0x20\n      mul\n      0x20\n      add\n      dup3\n      add\n      0x40\n      mstore\n      dup1\n      iszero\n      tag_137\n      jumpi\n      dup2\n      0x20\n      add\n      0x20\n      dup3\n      mul\n      dup1\n      calldatasize\n      dup4\n      calldatacopy\n      dup1\n      dup3\n      add\n      swap2\n      pop\n      pop\n      swap1\n      pop\n    tag_137:\n      pop\n        /* \"homework1/BeggingContract.sol\":4815:4866  address[] memory resultAddresses = new address[](3) */\n      swap1\n      pop\n        /* \"homework1/BeggingContract.sol\":4877:4907  uint256[] memory resultAmounts */\n      0x00\n        /* \"homework1/BeggingContract.sol\":4924:4925  3 */\n      0x03\n        /* \"homework1/BeggingContract.sol\":4910:4926  new uint256[](3) */\n      0xffffffffffffffff\n      dup2\n      gt\n      iszero\n      tag_138\n      jumpi\n      tag_139\n      tag_136\n      jump\t// in\n    tag_139:\n    tag_138:\n      mload(0x40)\n      swap1\n      dup1\n      dup3\n      mstore\n      dup1\n      0x20\n      mul\n      0x20\n      add\n      dup3\n      add\n      0x40\n      mstore\n      dup1\n      iszero\n      tag_140\n      jumpi\n      dup2\n      0x20\n      add\n      0x20\n      dup3\n      mul\n      dup1\n      calldatasize\n      dup4\n      calldatacopy\n      dup1\n      dup3\n      add\n      swap2\n      pop\n      pop\n      swap1\n      pop\n    tag_140:\n      pop\n        /* \"homework1/BeggingContract.sol\":4877:4926  uint256[] memory resultAmounts = new uint256[](3) */\n      swap1\n      pop\n        /* \"homework1/BeggingContract.sol\":4942:4951  uint256 i */\n      0x00\n        /* \"homework1/BeggingContract.sol\":4954:4955  0 */\n      0x00\n        /* \"homework1/BeggingContract.sol\":4942:4955  uint256 i = 0 */\n      swap1\n      pop\n        /* \"homework1/BeggingContract.sol\":4937:5079  for (uint256 i = 0; i < 3; i++) {... */\n    tag_141:\n        /* \"homework1/BeggingContract.sol\":4961:4962  3 */\n      0x03\n        /* \"homework1/BeggingContract.sol\":4957:4958  i */\n      dup2\n        /* \"homework1/BeggingContract.sol\":4957:4962  i < 3 */\n      lt\n        /* \"homework1/BeggingContract.sol\":4937:5079  for (uint256 i = 0; i < 3; i++) {... */\n      iszero\n      tag_142\n      jumpi\n        /* \"homework1/BeggingContract.sol\":5005:5017  topAddresses */\n      dup6\n        /* \"homework1/BeggingContract.sol\":5018:5019  i */\n      dup2\n        /* \"homework1/BeggingContract.sol\":5005:5020  topAddresses[i] */\n      0x03\n      dup2\n      lt\n      tag_144\n      jumpi\n      tag_145\n      tag_86\n      jump\t// in\n    tag_145:\n    tag_144:\n      0x20\n      mul\n      add\n      mload\n        /* \"homework1/BeggingContract.sol\":4984:4999  resultAddresses */\n      dup4\n        /* \"homework1/BeggingContract.sol\":5000:5001  i */\n      dup3\n        /* \"homework1/BeggingContract.sol\":4984:5002  resultAddresses[i] */\n      dup2\n      mload\n      dup2\n      lt\n      tag_146\n      jumpi\n      tag_147\n      tag_86\n      jump\t// in\n    tag_147:\n    tag_146:\n      0x20\n      mul\n      0x20\n      add\n      add\n        /* \"homework1/BeggingContract.sol\":4984:5020  resultAddresses[i] = topAddresses[i] */\n      swap1\n      0xffffffffffffffffffffffffffffffffffffffff\n      and\n      swap1\n      dup2\n      0xffffffffffffffffffffffffffffffffffffffff\n      and\n      dup2\n      mstore\n      pop\n      pop\n        /* \"homework1/BeggingContract.sol\":5054:5064  topAmounts */\n      dup5\n        /* \"homework1/BeggingContract.sol\":5065:5066  i */\n      dup2\n        /* \"homework1/BeggingContract.sol\":5054:5067  topAmounts[i] */\n      0x03\n      dup2\n      lt\n      tag_148\n      jumpi\n      tag_149\n      tag_86\n      jump\t// in\n    tag_149:\n    tag_148:\n      0x20\n      mul\n      add\n      mload\n        /* \"homework1/BeggingContract.sol\":5035:5048  resultAmounts */\n      dup3\n        /* \"homework1/BeggingContract.sol\":5049:5050  i */\n      dup3\n        /* \"homework1/BeggingContract.sol\":5035:5051  resultAmounts[i] */\n      dup2\n      mload\n      dup2\n      lt\n      tag_150\n      jumpi\n      tag_151\n      tag_86\n      jump\t// in\n    tag_151:\n    tag_150:\n      0x20\n      mul\n      0x20\n      add\n      add\n        /* \"homework1/BeggingContract.sol\":5035:5067  resultAmounts[i] = topAmounts[i] */\n      dup2\n      dup2\n      mstore\n      pop\n      pop\n        /* \"homework1/BeggingContract.sol\":4964:4967  i++ */\n      dup1\n      dup1\n      0x01\n      add\n      swap2\n      pop\n      pop\n        /* \"homework1/BeggingContract.sol\":4937:5079  for (uint256 i = 0; i < 3; i++) {... */\n      jump(tag_141)\n    tag_142:\n      pop\n        /* \"homework1/BeggingContract.sol\":5099:5114  resultAddresses */\n      dup2\n        /* \"homework1/BeggingContract.sol\":5116:5129  resultAmounts */\n      dup2\n        /* \"homework1/BeggingContract.sol\":5091:5130  return (resultAddresses, resultAmounts) */\n      swap7\n      pop\n      swap7\n      pop\n      pop\n      pop\n      pop\n      pop\n      pop\n        /* \"homework1/BeggingContract.sol\":2952:5138  function getTop3Donors() public view returns (address[] memory, uint256[] memory) {... */\n      swap1\n      swap2\n      jump\t// out\n        /* \"homework1/BeggingContract.sol\":2246:2521  function withdraw() public payable onlyOwner {... */\n    tag_30:\n        /* \"homework1/BeggingContract.sol\":816:821  owner */\n      immutable(\"0x2a80e1ef1d7842f27f2e6be0972bb708b9a135c38860dbe73c27c3486c34f4de\")\n        /* \"homework1/BeggingContract.sol\":802:821  msg.sender == owner */\n      0xffffffffffffffffffffffffffffffffffffffff\n      and\n        /* \"homework1/BeggingContract.sol\":802:812  msg.sender */\n      caller\n        /* \"homework1/BeggingContract.sol\":802:821  msg.sender == owner */\n      0xffffffffffffffffffffffffffffffffffffffff\n      and\n      eq\n        /* \"homework1/BeggingContract.sol\":794:859  require(msg.sender == owner, \"Only owner can call this function\") */\n      tag_153\n      jumpi\n      mload(0x40)\n      0x08c379a000000000000000000000000000000000000000000000000000000000\n      dup2\n      mstore\n      0x04\n      add\n      tag_154\n      swap1\n      tag_155\n      jump\t// in\n    tag_154:\n      mload(0x40)\n      dup1\n      swap2\n      sub\n      swap1\n      revert\n    tag_153:\n        /* \"homework1/BeggingContract.sol\":2302:2325  uint256 contractBalance */\n      0x00\n        /* \"homework1/BeggingContract.sol\":2328:2349  address(this).balance */\n      selfbalance\n        /* \"homework1/BeggingContract.sol\":2302:2349  uint256 contractBalance = address(this).balance */\n      swap1\n      pop\n        /* \"homework1/BeggingContract.sol\":2386:2387  0 */\n      0x00\n        /* \"homework1/BeggingContract.sol\":2368:2383  contractBalance */\n      dup2\n        /* \"homework1/BeggingContract.sol\":2368:2387  contractBalance > 0 */\n      gt\n        /* \"homework1/BeggingContract.sol\":2360:2425  require(contractBalance > 0, \"Contract has no funds to withdraw\") */\n      tag_157\n      jumpi\n      mload(0x40)\n      0x08c379a000000000000000000000000000000000000000000000000000000000\n      dup2\n      mstore\n      0x04\n      add\n      tag_158\n      swap1\n      tag_159\n      jump\t// in\n    tag_158:\n      mload(0x40)\n      dup1\n      swap2\n      sub\n      swap1\n      revert\n    tag_157:\n        /* \"homework1/BeggingContract.sol\":2481:2486  owner */\n      immutable(\"0x2a80e1ef1d7842f27f2e6be0972bb708b9a135c38860dbe73c27c3486c34f4de\")\n        /* \"homework1/BeggingContract.sol\":2473:2496  payable(owner).transfer */\n      0xffffffffffffffffffffffffffffffffffffffff\n      and\n        /* \"homework1/BeggingContract.sol\":2473:2513  payable(owner).transfer(contractBalance) */\n      0x08fc\n        /* \"homework1/BeggingContract.sol\":2497:2512  contractBalance */\n      dup3\n        /* \"homework1/BeggingContract.sol\":2473:2513  payable(owner).transfer(contractBalance) */\n      swap1\n      dup2\n      iszero\n      mul\n      swap1\n      mload(0x40)\n      0x00\n      mload(0x40)\n      dup1\n      dup4\n      sub\n      dup2\n      dup6\n      dup9\n      dup9\n      call\n      swap4\n      pop\n      pop\n      pop\n      pop\n      iszero\n      dup1\n      iszero\n      tag_161\n      jumpi\n      returndatacopy(0x00, 0x00, returndatasize)\n      revert(0x00, returndatasize)\n    tag_161:\n      pop\n        /* \"homework1/BeggingContract.sol\":2291:2521  {... */\n      pop\n        /* \"homework1/BeggingContract.sol\":2246:2521  function withdraw() public payable onlyOwner {... */\n      jump\t// out\n        /* \"homework1/BeggingContract.sol\":2587:2701  function getDonation(address donor) public view returns (uint256) {... */\n    tag_35:\n        /* \"homework1/BeggingContract.sol\":2644:2651  uint256 */\n      0x00\n        /* \"homework1/BeggingContract.sol\":2671:2686  donationRecords */\n      0x00\n        /* \"homework1/BeggingContract.sol\":2671:2693  donationRecords[donor] */\n      0x00\n        /* \"homework1/BeggingContract.sol\":2687:2692  donor */\n      dup4\n        /* \"homework1/BeggingContract.sol\":2671:2693  donationRecords[donor] */\n      0xffffffffffffffffffffffffffffffffffffffff\n      and\n      0xffffffffffffffffffffffffffffffffffffffff\n      and\n      dup2\n      mstore\n      0x20\n      add\n      swap1\n      dup2\n      mstore\n      0x20\n      add\n      0x00\n      keccak256\n      sload\n        /* \"homework1/BeggingContract.sol\":2664:2693  return donationRecords[donor] */\n      swap1\n      pop\n        /* \"homework1/BeggingContract.sol\":2587:2701  function getDonation(address donor) public view returns (uint256) {... */\n      swap2\n      swap1\n      pop\n      jump\t// out\n        /* \"homework1/BeggingContract.sol\":6505:6744  function updateDonationPeriod(uint256 _newStart, uint256 _newEnd) public onlyOwner {... */\n    tag_42:\n        /* \"homework1/BeggingContract.sol\":816:821  owner */\n      immutable(\"0x2a80e1ef1d7842f27f2e6be0972bb708b9a135c38860dbe73c27c3486c34f4de\")\n        /* \"homework1/BeggingContract.sol\":802:821  msg.sender == owner */\n      0xffffffffffffffffffffffffffffffffffffffff\n      and\n        /* \"homework1/BeggingContract.sol\":802:812  msg.sender */\n      caller\n        /* \"homework1/BeggingContract.sol\":802:821  msg.sender == owner */\n      0xffffffffffffffffffffffffffffffffffffffff\n      and\n      eq\n        /* \"homework1/BeggingContract.sol\":794:859  require(msg.sender == owner, \"Only owner can call this function\") */\n      tag_164\n      jumpi\n      mload(0x40)\n      0x08c379a000000000000000000000000000000000000000000000000000000000\n      dup2\n      mstore\n      0x04\n      add\n      tag_165\n      swap1\n      tag_155\n      jump\t// in\n    tag_165:\n      mload(0x40)\n      dup1\n      swap2\n      sub\n      swap1\n      revert\n    tag_164:\n        /* \"homework1/BeggingContract.sol\":6617:6626  _newStart */\n      dup2\n        /* \"homework1/BeggingContract.sol\":6607:6614  _newEnd */\n      dup2\n        /* \"homework1/BeggingContract.sol\":6607:6626  _newEnd > _newStart */\n      gt\n        /* \"homework1/BeggingContract.sol\":6599:6664  require(_newEnd > _newStart, \"End time must be after start time\") */\n      tag_167\n      jumpi\n      mload(0x40)\n      0x08c379a000000000000000000000000000000000000000000000000000000000\n      dup2\n      mstore\n      0x04\n      add\n      tag_168\n      swap1\n      tag_169\n      jump\t// in\n    tag_168:\n      mload(0x40)\n      dup1\n      swap2\n      sub\n      swap1\n      revert\n    tag_167:\n        /* \"homework1/BeggingContract.sol\":6693:6702  _newStart */\n      dup2\n        /* \"homework1/BeggingContract.sol\":6675:6690  donateStartTime */\n      0x01\n        /* \"homework1/BeggingContract.sol\":6675:6702  donateStartTime = _newStart */\n      dup2\n      swap1\n      sstore\n      pop\n        /* \"homework1/BeggingContract.sol\":6729:6736  _newEnd */\n      dup1\n        /* \"homework1/BeggingContract.sol\":6713:6726  donateEndTime */\n      0x02\n        /* \"homework1/BeggingContract.sol\":6713:6736  donateEndTime = _newEnd */\n      dup2\n      swap1\n      sstore\n      pop\n        /* \"homework1/BeggingContract.sol\":6505:6744  function updateDonationPeriod(uint256 _newStart, uint256 _newEnd) public onlyOwner {... */\n      pop\n      pop\n      jump\t// out\n        /* \"homework1/BeggingContract.sol\":6315:6422  function getContractBalance() public view returns (uint256) {... */\n    tag_45:\n        /* \"homework1/BeggingContract.sol\":6366:6373  uint256 */\n      0x00\n        /* \"homework1/BeggingContract.sol\":6393:6414  address(this).balance */\n      selfbalance\n        /* \"homework1/BeggingContract.sol\":6386:6414  return address(this).balance */\n      swap1\n      pop\n        /* \"homework1/BeggingContract.sol\":6315:6422  function getContractBalance() public view returns (uint256) {... */\n      swap1\n      jump\t// out\n        /* \"homework1/BeggingContract.sol\":470:498  uint256 public donateEndTime */\n    tag_49:\n      sload(0x02)\n      dup2\n      jump\t// out\n        /* \"homework1/BeggingContract.sol\":183:213  address public immutable owner */\n    tag_53:\n      immutable(\"0x2a80e1ef1d7842f27f2e6be0972bb708b9a135c38860dbe73c27c3486c34f4de\")\n      dup2\n      jump\t// out\n        /* \"homework1/BeggingContract.sol\":5376:5474  function getAllDonors() public view returns (address[] memory) {... */\n    tag_57:\n        /* \"homework1/BeggingContract.sol\":5421:5437  address[] memory */\n      0x60\n        /* \"homework1/BeggingContract.sol\":5457:5466  allDonors */\n      0x03\n        /* \"homework1/BeggingContract.sol\":5450:5466  return allDonors */\n      dup1\n      sload\n      dup1\n      0x20\n      mul\n      0x20\n      add\n      mload(0x40)\n      swap1\n      dup2\n      add\n      0x40\n      mstore\n      dup1\n      swap3\n      swap2\n      swap1\n      dup2\n      dup2\n      mstore\n      0x20\n      add\n      dup3\n      dup1\n      sload\n      dup1\n      iszero\n      tag_172\n      jumpi\n      0x20\n      mul\n      dup3\n      add\n      swap2\n      swap1\n      0x00\n      mstore\n      keccak256(0x00, 0x20)\n      swap1\n    tag_173:\n      dup2\n      0x00\n      swap1\n      sload\n      swap1\n      0x0100\n      exp\n      swap1\n      div\n      0xffffffffffffffffffffffffffffffffffffffff\n      and\n      0xffffffffffffffffffffffffffffffffffffffff\n      and\n      dup2\n      mstore\n      0x20\n      add\n      swap1\n      0x01\n      add\n      swap1\n      dup1\n      dup4\n      gt\n      tag_173\n      jumpi\n    tag_172:\n      pop\n      pop\n      pop\n      pop\n      pop\n      swap1\n      pop\n        /* \"homework1/BeggingContract.sol\":5376:5474  function getAllDonors() public view returns (address[] memory) {... */\n      swap1\n      jump\t// out\n        /* \"homework1/BeggingContract.sol\":312:362  mapping(address => uint256) public donationRecords */\n    tag_63:\n      mstore(0x20, 0x00)\n      dup1\n      0x00\n      mstore\n      keccak256(0x00, 0x40)\n      0x00\n      swap2\n      pop\n      swap1\n      pop\n      sload\n      dup2\n      jump\t// out\n        /* \"homework1/BeggingContract.sol\":5563:6244  function donateWithDonorRecord() public payable onlyDuringDonationPeriod {... */\n    tag_66:\n        /* \"homework1/BeggingContract.sol\":974:989  uint256 nowTime */\n      0x00\n        /* \"homework1/BeggingContract.sol\":992:1007  block.timestamp */\n      timestamp\n        /* \"homework1/BeggingContract.sol\":974:1007  uint256 nowTime = block.timestamp */\n      swap1\n      pop\n        /* \"homework1/BeggingContract.sol\":1051:1066  donateStartTime */\n      sload(0x01)\n        /* \"homework1/BeggingContract.sol\":1040:1047  nowTime */\n      dup2\n        /* \"homework1/BeggingContract.sol\":1040:1066  nowTime >= donateStartTime */\n      lt\n      iszero\n        /* \"homework1/BeggingContract.sol\":1040:1094  nowTime >= donateStartTime && nowTime <= donateEndTime */\n      dup1\n      iszero\n      tag_175\n      jumpi\n      pop\n        /* \"homework1/BeggingContract.sol\":1081:1094  donateEndTime */\n      sload(0x02)\n        /* \"homework1/BeggingContract.sol\":1070:1077  nowTime */\n      dup2\n        /* \"homework1/BeggingContract.sol\":1070:1094  nowTime <= donateEndTime */\n      gt\n      iszero\n        /* \"homework1/BeggingContract.sol\":1040:1094  nowTime >= donateStartTime && nowTime <= donateEndTime */\n    tag_175:\n        /* \"homework1/BeggingContract.sol\":1018:1174  require(... */\n      tag_176\n      jumpi\n      mload(0x40)\n      0x08c379a000000000000000000000000000000000000000000000000000000000\n      dup2\n      mstore\n      0x04\n      add\n      tag_177\n      swap1\n      tag_178\n      jump\t// in\n    tag_177:\n      mload(0x40)\n      dup1\n      swap2\n      sub\n      swap1\n      revert\n    tag_176:\n        /* \"homework1/BeggingContract.sol\":5667:5668  0 */\n      0x00\n        /* \"homework1/BeggingContract.sol\":5655:5664  msg.value */\n      callvalue\n        /* \"homework1/BeggingContract.sol\":5655:5668  msg.value > 0 */\n      gt\n        /* \"homework1/BeggingContract.sol\":5647:5711  require(msg.value > 0, \"Donation amount must be greater than 0\") */\n      tag_180\n      jumpi\n      mload(0x40)\n      0x08c379a000000000000000000000000000000000000000000000000000000000\n      dup2\n      mstore\n      0x04\n      add\n      tag_181\n      swap1\n      tag_182\n      jump\t// in\n    tag_181:\n      mload(0x40)\n      dup1\n      swap2\n      sub\n      swap1\n      revert\n    tag_180:\n        /* \"homework1/BeggingContract.sol\":5784:5793  msg.value */\n      callvalue\n        /* \"homework1/BeggingContract.sol\":5753:5768  donationRecords */\n      0x00\n        /* \"homework1/BeggingContract.sol\":5753:5780  donationRecords[msg.sender] */\n      0x00\n        /* \"homework1/BeggingContract.sol\":5769:5779  msg.sender */\n      caller\n        /* \"homework1/BeggingContract.sol\":5753:5780  donationRecords[msg.sender] */\n      0xffffffffffffffffffffffffffffffffffffffff\n      and\n      0xffffffffffffffffffffffffffffffffffffffff\n      and\n      dup2\n      mstore\n      0x20\n      add\n      swap1\n      dup2\n      mstore\n      0x20\n      add\n      0x00\n      keccak256\n      0x00\n        /* \"homework1/BeggingContract.sol\":5753:5793  donationRecords[msg.sender] += msg.value */\n      dup3\n      dup3\n      sload\n      tag_183\n      swap2\n      swap1\n      tag_184\n      jump\t// in\n    tag_183:\n      swap3\n      pop\n      pop\n      dup2\n      swap1\n      sstore\n      pop\n        /* \"homework1/BeggingContract.sol\":5862:5874  bool isExist */\n      0x00\n        /* \"homework1/BeggingContract.sol\":5877:5882  false */\n      0x00\n        /* \"homework1/BeggingContract.sol\":5862:5882  bool isExist = false */\n      swap1\n      pop\n        /* \"homework1/BeggingContract.sol\":5898:5907  uint256 i */\n      0x00\n        /* \"homework1/BeggingContract.sol\":5910:5911  0 */\n      0x00\n        /* \"homework1/BeggingContract.sol\":5898:5911  uint256 i = 0 */\n      swap1\n      pop\n        /* \"homework1/BeggingContract.sol\":5893:6071  for (uint256 i = 0; i < allDonors.length; i++) {... */\n    tag_185:\n        /* \"homework1/BeggingContract.sol\":5917:5926  allDonors */\n      0x03\n        /* \"homework1/BeggingContract.sol\":5917:5933  allDonors.length */\n      dup1\n      sload\n      swap1\n      pop\n        /* \"homework1/BeggingContract.sol\":5913:5914  i */\n      dup2\n        /* \"homework1/BeggingContract.sol\":5913:5933  i < allDonors.length */\n      lt\n        /* \"homework1/BeggingContract.sol\":5893:6071  for (uint256 i = 0; i < allDonors.length; i++) {... */\n      iszero\n      tag_186\n      jumpi\n        /* \"homework1/BeggingContract.sol\":5975:5985  msg.sender */\n      caller\n        /* \"homework1/BeggingContract.sol\":5959:5985  allDonors[i] == msg.sender */\n      0xffffffffffffffffffffffffffffffffffffffff\n      and\n        /* \"homework1/BeggingContract.sol\":5959:5968  allDonors */\n      0x03\n        /* \"homework1/BeggingContract.sol\":5969:5970  i */\n      dup3\n        /* \"homework1/BeggingContract.sol\":5959:5971  allDonors[i] */\n      dup2\n      sload\n      dup2\n      lt\n      tag_188\n      jumpi\n      tag_189\n      tag_86\n      jump\t// in\n    tag_189:\n    tag_188:\n      swap1\n      0x00\n      mstore\n      keccak256(0x00, 0x20)\n      add\n      0x00\n      swap1\n      sload\n      swap1\n      0x0100\n      exp\n      swap1\n      div\n      0xffffffffffffffffffffffffffffffffffffffff\n      and\n        /* \"homework1/BeggingContract.sol\":5959:5985  allDonors[i] == msg.sender */\n      0xffffffffffffffffffffffffffffffffffffffff\n      and\n      sub\n        /* \"homework1/BeggingContract.sol\":5955:6060  if (allDonors[i] == msg.sender) {... */\n      tag_191\n      jumpi\n        /* \"homework1/BeggingContract.sol\":6016:6020  true */\n      0x01\n        /* \"homework1/BeggingContract.sol\":6006:6020  isExist = true */\n      swap2\n      pop\n        /* \"homework1/BeggingContract.sol\":6039:6044  break */\n      jump(tag_186)\n        /* \"homework1/BeggingContract.sol\":5955:6060  if (allDonors[i] == msg.sender) {... */\n    tag_191:\n        /* \"homework1/BeggingContract.sol\":5935:5938  i++ */\n      dup1\n      dup1\n      0x01\n      add\n      swap2\n      pop\n      pop\n        /* \"homework1/BeggingContract.sol\":5893:6071  for (uint256 i = 0; i < allDonors.length; i++) {... */\n      jump(tag_185)\n    tag_186:\n      pop\n        /* \"homework1/BeggingContract.sol\":6086:6093  isExist */\n      dup1\n        /* \"homework1/BeggingContract.sol\":6081:6148  if (!isExist) {... */\n      tag_192\n      jumpi\n        /* \"homework1/BeggingContract.sol\":6110:6119  allDonors */\n      0x03\n        /* \"homework1/BeggingContract.sol\":6125:6135  msg.sender */\n      caller\n        /* \"homework1/BeggingContract.sol\":6110:6136  allDonors.push(msg.sender) */\n      swap1\n      dup1\n      0x01\n      dup2\n      sload\n      add\n      dup1\n      dup3\n      sstore\n      dup1\n      swap2\n      pop\n      pop\n      0x01\n      swap1\n      sub\n      swap1\n      0x00\n      mstore\n      keccak256(0x00, 0x20)\n      add\n      0x00\n      swap1\n      swap2\n      swap1\n      swap2\n      swap1\n      swap2\n      0x0100\n      exp\n      dup2\n      sload\n      dup2\n      0xffffffffffffffffffffffffffffffffffffffff\n      mul\n      not\n      and\n      swap1\n      dup4\n      0xffffffffffffffffffffffffffffffffffffffff\n      and\n      mul\n      or\n      swap1\n      sstore\n      pop\n        /* \"homework1/BeggingContract.sol\":6081:6148  if (!isExist) {... */\n    tag_192:\n        /* \"homework1/BeggingContract.sol\":6197:6207  msg.sender */\n      caller\n        /* \"homework1/BeggingContract.sol\":6188:6236  Donation(msg.sender, msg.value, block.timestamp) */\n      0xffffffffffffffffffffffffffffffffffffffff\n      and\n      0x106aac375bbcf013d1e52338bbf9e740009a1a3a6869f8daa1b72aa1620f5fec\n        /* \"homework1/BeggingContract.sol\":6209:6218  msg.value */\n      callvalue\n        /* \"homework1/BeggingContract.sol\":6220:6235  block.timestamp */\n      timestamp\n        /* \"homework1/BeggingContract.sol\":6188:6236  Donation(msg.sender, msg.value, block.timestamp) */\n      mload(0x40)\n      tag_194\n      swap3\n      swap2\n      swap1\n      tag_195\n      jump\t// in\n    tag_194:\n      mload(0x40)\n      dup1\n      swap2\n      sub\n      swap1\n      log2\n        /* \"homework1/BeggingContract.sol\":5636:6244  {... */\n      pop\n        /* \"homework1/BeggingContract.sol\":963:1194  {... */\n      pop\n        /* \"homework1/BeggingContract.sol\":5563:6244  function donateWithDonorRecord() public payable onlyDuringDonationPeriod {... */\n      jump\t// out\n        /* \"homework1/BeggingContract.sol\":1741:2151  function donate() public payable onlyDuringDonationPeriod {... */\n    tag_68:\n        /* \"homework1/BeggingContract.sol\":974:989  uint256 nowTime */\n      0x00\n        /* \"homework1/BeggingContract.sol\":992:1007  block.timestamp */\n      timestamp\n        /* \"homework1/BeggingContract.sol\":974:1007  uint256 nowTime = block.timestamp */\n      swap1\n      pop\n        /* \"homework1/BeggingContract.sol\":1051:1066  donateStartTime */\n      sload(0x01)\n        /* \"homework1/BeggingContract.sol\":1040:1047  nowTime */\n      dup2\n        /* \"homework1/BeggingContract.sol\":1040:1066  nowTime >= donateStartTime */\n      lt\n      iszero\n        /* \"homework1/BeggingContract.sol\":1040:1094  nowTime >= donateStartTime && nowTime <= donateEndTime */\n      dup1\n      iszero\n      tag_197\n      jumpi\n      pop\n        /* \"homework1/BeggingContract.sol\":1081:1094  donateEndTime */\n      sload(0x02)\n        /* \"homework1/BeggingContract.sol\":1070:1077  nowTime */\n      dup2\n        /* \"homework1/BeggingContract.sol\":1070:1094  nowTime <= donateEndTime */\n      gt\n      iszero\n        /* \"homework1/BeggingContract.sol\":1040:1094  nowTime >= donateStartTime && nowTime <= donateEndTime */\n    tag_197:\n        /* \"homework1/BeggingContract.sol\":1018:1174  require(... */\n      tag_198\n      jumpi\n      mload(0x40)\n      0x08c379a000000000000000000000000000000000000000000000000000000000\n      dup2\n      mstore\n      0x04\n      add\n      tag_199\n      swap1\n      tag_178\n      jump\t// in\n    tag_199:\n      mload(0x40)\n      dup1\n      swap2\n      sub\n      swap1\n      revert\n    tag_198:\n        /* \"homework1/BeggingContract.sol\":1868:1869  0 */\n      0x00\n        /* \"homework1/BeggingContract.sol\":1856:1865  msg.value */\n      callvalue\n        /* \"homework1/BeggingContract.sol\":1856:1869  msg.value > 0 */\n      gt\n        /* \"homework1/BeggingContract.sol\":1848:1912  require(msg.value > 0, \"Donation amount must be greater than 0\") */\n      tag_201\n      jumpi\n      mload(0x40)\n      0x08c379a000000000000000000000000000000000000000000000000000000000\n      dup2\n      mstore\n      0x04\n      add\n      tag_202\n      swap1\n      tag_182\n      jump\t// in\n    tag_202:\n      mload(0x40)\n      dup1\n      swap2\n      sub\n      swap1\n      revert\n    tag_201:\n        /* \"homework1/BeggingContract.sol\":1997:2006  msg.value */\n      callvalue\n        /* \"homework1/BeggingContract.sol\":1966:1981  donationRecords */\n      0x00\n        /* \"homework1/BeggingContract.sol\":1966:1993  donationRecords[msg.sender] */\n      0x00\n        /* \"homework1/BeggingContract.sol\":1982:1992  msg.sender */\n      caller\n        /* \"homework1/BeggingContract.sol\":1966:1993  donationRecords[msg.sender] */\n      0xffffffffffffffffffffffffffffffffffffffff\n      and\n      0xffffffffffffffffffffffffffffffffffffffff\n      and\n      dup2\n      mstore\n      0x20\n      add\n      swap1\n      dup2\n      mstore\n      0x20\n      add\n      0x00\n      keccak256\n      0x00\n        /* \"homework1/BeggingContract.sol\":1966:2006  donationRecords[msg.sender] += msg.value */\n      dup3\n      dup3\n      sload\n      tag_203\n      swap2\n      swap1\n      tag_184\n      jump\t// in\n    tag_203:\n      swap3\n      pop\n      pop\n      dup2\n      swap1\n      sstore\n      pop\n        /* \"homework1/BeggingContract.sol\":2104:2114  msg.sender */\n      caller\n        /* \"homework1/BeggingContract.sol\":2095:2143  Donation(msg.sender, msg.value, block.timestamp) */\n      0xffffffffffffffffffffffffffffffffffffffff\n      and\n      0x106aac375bbcf013d1e52338bbf9e740009a1a3a6869f8daa1b72aa1620f5fec\n        /* \"homework1/BeggingContract.sol\":2116:2125  msg.value */\n      callvalue\n        /* \"homework1/BeggingContract.sol\":2127:2142  block.timestamp */\n      timestamp\n        /* \"homework1/BeggingContract.sol\":2095:2143  Donation(msg.sender, msg.value, block.timestamp) */\n      mload(0x40)\n      tag_204\n      swap3\n      swap2\n      swap1\n      tag_195\n      jump\t// in\n    tag_204:\n      mload(0x40)\n      dup1\n      swap2\n      sub\n      swap1\n      log2\n        /* \"homework1/BeggingContract.sol\":963:1194  {... */\n      pop\n        /* \"homework1/BeggingContract.sol\":1741:2151  function donate() public payable onlyDuringDonationPeriod {... */\n      jump\t// out\n        /* \"homework1/BeggingContract.sol\":433:463  uint256 public donateStartTime */\n    tag_71:\n      sload(0x01)\n      dup2\n      jump\t// out\n    tag_77:\n      mload(0x40)\n      dup1\n      0x60\n      add\n      0x40\n      mstore\n      dup1\n      0x03\n      swap1\n      0x20\n      dup3\n      mul\n      dup1\n      calldatasize\n      dup4\n      calldatacopy\n      dup1\n      dup3\n      add\n      swap2\n      pop\n      pop\n      swap1\n      pop\n      pop\n      swap1\n      jump\t// out\n    tag_79:\n      mload(0x40)\n      dup1\n      0x60\n      add\n      0x40\n      mstore\n      dup1\n      0x03\n      swap1\n      0x20\n      dup3\n      mul\n      dup1\n      calldatasize\n      dup4\n      calldatacopy\n      dup1\n      dup3\n      add\n      swap2\n      pop\n      pop\n      swap1\n      pop\n      pop\n      swap1\n      jump\t// out\n        /* \"#utility.yul\":88:205   */\n    tag_206:\n        /* \"#utility.yul\":197:198   */\n      0x00\n        /* \"#utility.yul\":194:195   */\n      0x00\n        /* \"#utility.yul\":187:199   */\n      revert\n        /* \"#utility.yul\":334:411   */\n    tag_208:\n        /* \"#utility.yul\":371:378   */\n      0x00\n        /* \"#utility.yul\":400:405   */\n      dup2\n        /* \"#utility.yul\":389:405   */\n      swap1\n      pop\n        /* \"#utility.yul\":334:411   */\n      swap2\n      swap1\n      pop\n      jump\t// out\n        /* \"#utility.yul\":417:539   */\n    tag_209:\n        /* \"#utility.yul\":490:514   */\n      tag_249\n        /* \"#utility.yul\":508:513   */\n      dup2\n        /* \"#utility.yul\":490:514   */\n      tag_208\n      jump\t// in\n    tag_249:\n        /* \"#utility.yul\":483:488   */\n      dup2\n        /* \"#utility.yul\":480:515   */\n      eq\n        /* \"#utility.yul\":470:533   */\n      tag_250\n      jumpi\n        /* \"#utility.yul\":529:530   */\n      0x00\n        /* \"#utility.yul\":526:527   */\n      0x00\n        /* \"#utility.yul\":519:531   */\n      revert\n        /* \"#utility.yul\":470:533   */\n    tag_250:\n        /* \"#utility.yul\":417:539   */\n      pop\n      jump\t// out\n        /* \"#utility.yul\":545:684   */\n    tag_210:\n        /* \"#utility.yul\":591:596   */\n      0x00\n        /* \"#utility.yul\":629:635   */\n      dup2\n        /* \"#utility.yul\":616:636   */\n      calldataload\n        /* \"#utility.yul\":607:636   */\n      swap1\n      pop\n        /* \"#utility.yul\":645:678   */\n      tag_252\n        /* \"#utility.yul\":672:677   */\n      dup2\n        /* \"#utility.yul\":645:678   */\n      tag_209\n      jump\t// in\n    tag_252:\n        /* \"#utility.yul\":545:684   */\n      swap3\n      swap2\n      pop\n      pop\n      jump\t// out\n        /* \"#utility.yul\":690:1019   */\n    tag_20:\n        /* \"#utility.yul\":749:755   */\n      0x00\n        /* \"#utility.yul\":798:800   */\n      0x20\n        /* \"#utility.yul\":786:795   */\n      dup3\n        /* \"#utility.yul\":777:784   */\n      dup5\n        /* \"#utility.yul\":773:796   */\n      sub\n        /* \"#utility.yul\":769:801   */\n      slt\n        /* \"#utility.yul\":766:885   */\n      iszero\n      tag_254\n      jumpi\n        /* \"#utility.yul\":804:883   */\n      tag_255\n      tag_206\n      jump\t// in\n    tag_255:\n        /* \"#utility.yul\":766:885   */\n    tag_254:\n        /* \"#utility.yul\":924:925   */\n      0x00\n        /* \"#utility.yul\":949:1002   */\n      tag_256\n        /* \"#utility.yul\":994:1001   */\n      dup5\n        /* \"#utility.yul\":985:991   */\n      dup3\n        /* \"#utility.yul\":974:983   */\n      dup6\n        /* \"#utility.yul\":970:992   */\n      add\n        /* \"#utility.yul\":949:1002   */\n      tag_210\n      jump\t// in\n    tag_256:\n        /* \"#utility.yul\":939:1002   */\n      swap2\n      pop\n        /* \"#utility.yul\":895:1012   */\n      pop\n        /* \"#utility.yul\":690:1019   */\n      swap3\n      swap2\n      pop\n      pop\n      jump\t// out\n        /* \"#utility.yul\":1025:1151   */\n    tag_211:\n        /* \"#utility.yul\":1062:1069   */\n      0x00\n        /* \"#utility.yul\":1102:1144   */\n      0xffffffffffffffffffffffffffffffffffffffff\n        /* \"#utility.yul\":1095:1100   */\n      dup3\n        /* \"#utility.yul\":1091:1145   */\n      and\n        /* \"#utility.yul\":1080:1145   */\n      swap1\n      pop\n        /* \"#utility.yul\":1025:1151   */\n      swap2\n      swap1\n      pop\n      jump\t// out\n        /* \"#utility.yul\":1157:1253   */\n    tag_212:\n        /* \"#utility.yul\":1194:1201   */\n      0x00\n        /* \"#utility.yul\":1223:1247   */\n      tag_259\n        /* \"#utility.yul\":1241:1246   */\n      dup3\n        /* \"#utility.yul\":1223:1247   */\n      tag_211\n      jump\t// in\n    tag_259:\n        /* \"#utility.yul\":1212:1247   */\n      swap1\n      pop\n        /* \"#utility.yul\":1157:1253   */\n      swap2\n      swap1\n      pop\n      jump\t// out\n        /* \"#utility.yul\":1259:1377   */\n    tag_213:\n        /* \"#utility.yul\":1346:1370   */\n      tag_261\n        /* \"#utility.yul\":1364:1369   */\n      dup2\n        /* \"#utility.yul\":1346:1370   */\n      tag_212\n      jump\t// in\n    tag_261:\n        /* \"#utility.yul\":1341:1344   */\n      dup3\n        /* \"#utility.yul\":1334:1371   */\n      mstore\n        /* \"#utility.yul\":1259:1377   */\n      pop\n      pop\n      jump\t// out\n        /* \"#utility.yul\":1383:1605   */\n    tag_23:\n        /* \"#utility.yul\":1476:1480   */\n      0x00\n        /* \"#utility.yul\":1514:1516   */\n      0x20\n        /* \"#utility.yul\":1503:1512   */\n      dup3\n        /* \"#utility.yul\":1499:1517   */\n      add\n        /* \"#utility.yul\":1491:1517   */\n      swap1\n      pop\n        /* \"#utility.yul\":1527:1598   */\n      tag_263\n        /* \"#utility.yul\":1595:1596   */\n      0x00\n        /* \"#utility.yul\":1584:1593   */\n      dup4\n        /* \"#utility.yul\":1580:1597   */\n      add\n        /* \"#utility.yul\":1571:1577   */\n      dup5\n        /* \"#utility.yul\":1527:1598   */\n      tag_213\n      jump\t// in\n    tag_263:\n        /* \"#utility.yul\":1383:1605   */\n      swap3\n      swap2\n      pop\n      pop\n      jump\t// out\n        /* \"#utility.yul\":1611:1725   */\n    tag_214:\n        /* \"#utility.yul\":1678:1684   */\n      0x00\n        /* \"#utility.yul\":1712:1717   */\n      dup2\n        /* \"#utility.yul\":1706:1718   */\n      mload\n        /* \"#utility.yul\":1696:1718   */\n      swap1\n      pop\n        /* \"#utility.yul\":1611:1725   */\n      swap2\n      swap1\n      pop\n      jump\t// out\n        /* \"#utility.yul\":1731:1915   */\n    tag_215:\n        /* \"#utility.yul\":1830:1841   */\n      0x00\n        /* \"#utility.yul\":1864:1870   */\n      dup3\n        /* \"#utility.yul\":1859:1862   */\n      dup3\n        /* \"#utility.yul\":1852:1871   */\n      mstore\n        /* \"#utility.yul\":1904:1908   */\n      0x20\n        /* \"#utility.yul\":1899:1902   */\n      dup3\n        /* \"#utility.yul\":1895:1909   */\n      add\n        /* \"#utility.yul\":1880:1909   */\n      swap1\n      pop\n        /* \"#utility.yul\":1731:1915   */\n      swap3\n      swap2\n      pop\n      pop\n      jump\t// out\n        /* \"#utility.yul\":1921:2053   */\n    tag_216:\n        /* \"#utility.yul\":1988:1992   */\n      0x00\n        /* \"#utility.yul\":2011:2014   */\n      dup2\n        /* \"#utility.yul\":2003:2014   */\n      swap1\n      pop\n        /* \"#utility.yul\":2041:2045   */\n      0x20\n        /* \"#utility.yul\":2036:2039   */\n      dup3\n        /* \"#utility.yul\":2032:2046   */\n      add\n        /* \"#utility.yul\":2024:2046   */\n      swap1\n      pop\n        /* \"#utility.yul\":1921:2053   */\n      swap2\n      swap1\n      pop\n      jump\t// out\n        /* \"#utility.yul\":2059:2167   */\n    tag_217:\n        /* \"#utility.yul\":2136:2160   */\n      tag_268\n        /* \"#utility.yul\":2154:2159   */\n      dup2\n        /* \"#utility.yul\":2136:2160   */\n      tag_212\n      jump\t// in\n    tag_268:\n        /* \"#utility.yul\":2131:2134   */\n      dup3\n        /* \"#utility.yul\":2124:2161   */\n      mstore\n        /* \"#utility.yul\":2059:2167   */\n      pop\n      pop\n      jump\t// out\n        /* \"#utility.yul\":2173:2352   */\n    tag_218:\n        /* \"#utility.yul\":2242:2252   */\n      0x00\n        /* \"#utility.yul\":2263:2309   */\n      tag_270\n        /* \"#utility.yul\":2305:2308   */\n      dup4\n        /* \"#utility.yul\":2297:2303   */\n      dup4\n        /* \"#utility.yul\":2263:2309   */\n      tag_217\n      jump\t// in\n    tag_270:\n        /* \"#utility.yul\":2341:2345   */\n      0x20\n        /* \"#utility.yul\":2336:2339   */\n      dup4\n        /* \"#utility.yul\":2332:2346   */\n      add\n        /* \"#utility.yul\":2318:2346   */\n      swap1\n      pop\n        /* \"#utility.yul\":2173:2352   */\n      swap3\n      swap2\n      pop\n      pop\n      jump\t// out\n        /* \"#utility.yul\":2358:2471   */\n    tag_219:\n        /* \"#utility.yul\":2428:2432   */\n      0x00\n        /* \"#utility.yul\":2460:2464   */\n      0x20\n        /* \"#utility.yul\":2455:2458   */\n      dup3\n        /* \"#utility.yul\":2451:2465   */\n      add\n        /* \"#utility.yul\":2443:2465   */\n      swap1\n      pop\n        /* \"#utility.yul\":2358:2471   */\n      swap2\n      swap1\n      pop\n      jump\t// out\n        /* \"#utility.yul\":2507:3239   */\n    tag_220:\n        /* \"#utility.yul\":2626:2629   */\n      0x00\n        /* \"#utility.yul\":2655:2709   */\n      tag_273\n        /* \"#utility.yul\":2703:2708   */\n      dup3\n        /* \"#utility.yul\":2655:2709   */\n      tag_214\n      jump\t// in\n    tag_273:\n        /* \"#utility.yul\":2725:2811   */\n      tag_274\n        /* \"#utility.yul\":2804:2810   */\n      dup2\n        /* \"#utility.yul\":2799:2802   */\n      dup6\n        /* \"#utility.yul\":2725:2811   */\n      tag_215\n      jump\t// in\n    tag_274:\n        /* \"#utility.yul\":2718:2811   */\n      swap4\n      pop\n        /* \"#utility.yul\":2835:2891   */\n      tag_275\n        /* \"#utility.yul\":2885:2890   */\n      dup4\n        /* \"#utility.yul\":2835:2891   */\n      tag_216\n      jump\t// in\n    tag_275:\n        /* \"#utility.yul\":2914:2921   */\n      dup1\n        /* \"#utility.yul\":2945:2946   */\n      0x00\n        /* \"#utility.yul\":2930:3214   */\n    tag_276:\n        /* \"#utility.yul\":2955:2961   */\n      dup4\n        /* \"#utility.yul\":2952:2953   */\n      dup2\n        /* \"#utility.yul\":2949:2962   */\n      lt\n        /* \"#utility.yul\":2930:3214   */\n      iszero\n      tag_278\n      jumpi\n        /* \"#utility.yul\":3031:3037   */\n      dup2\n        /* \"#utility.yul\":3025:3038   */\n      mload\n        /* \"#utility.yul\":3058:3121   */\n      tag_279\n        /* \"#utility.yul\":3117:3120   */\n      dup9\n        /* \"#utility.yul\":3102:3115   */\n      dup3\n        /* \"#utility.yul\":3058:3121   */\n      tag_218\n      jump\t// in\n    tag_279:\n        /* \"#utility.yul\":3051:3121   */\n      swap8\n      pop\n        /* \"#utility.yul\":3144:3204   */\n      tag_280\n        /* \"#utility.yul\":3197:3203   */\n      dup4\n        /* \"#utility.yul\":3144:3204   */\n      tag_219\n      jump\t// in\n    tag_280:\n        /* \"#utility.yul\":3134:3204   */\n      swap3\n      pop\n        /* \"#utility.yul\":2990:3214   */\n      pop\n        /* \"#utility.yul\":2977:2978   */\n      0x01\n        /* \"#utility.yul\":2974:2975   */\n      dup2\n        /* \"#utility.yul\":2970:2979   */\n      add\n        /* \"#utility.yul\":2965:2979   */\n      swap1\n      pop\n        /* \"#utility.yul\":2930:3214   */\n      jump(tag_276)\n    tag_278:\n        /* \"#utility.yul\":2934:2948   */\n      pop\n        /* \"#utility.yul\":3230:3233   */\n      dup6\n        /* \"#utility.yul\":3223:3233   */\n      swap4\n      pop\n        /* \"#utility.yul\":2631:3239   */\n      pop\n      pop\n      pop\n        /* \"#utility.yul\":2507:3239   */\n      swap3\n      swap2\n      pop\n      pop\n      jump\t// out\n        /* \"#utility.yul\":3245:3359   */\n    tag_221:\n        /* \"#utility.yul\":3312:3318   */\n      0x00\n        /* \"#utility.yul\":3346:3351   */\n      dup2\n        /* \"#utility.yul\":3340:3352   */\n      mload\n        /* \"#utility.yul\":3330:3352   */\n      swap1\n      pop\n        /* \"#utility.yul\":3245:3359   */\n      swap2\n      swap1\n      pop\n      jump\t// out\n        /* \"#utility.yul\":3365:3549   */\n    tag_222:\n        /* \"#utility.yul\":3464:3475   */\n      0x00\n        /* \"#utility.yul\":3498:3504   */\n      dup3\n        /* \"#utility.yul\":3493:3496   */\n      dup3\n        /* \"#utility.yul\":3486:3505   */\n      mstore\n        /* \"#utility.yul\":3538:3542   */\n      0x20\n        /* \"#utility.yul\":3533:3536   */\n      dup3\n        /* \"#utility.yul\":3529:3543   */\n      add\n        /* \"#utility.yul\":3514:3543   */\n      swap1\n      pop\n        /* \"#utility.yul\":3365:3549   */\n      swap3\n      swap2\n      pop\n      pop\n      jump\t// out\n        /* \"#utility.yul\":3555:3687   */\n    tag_223:\n        /* \"#utility.yul\":3622:3626   */\n      0x00\n        /* \"#utility.yul\":3645:3648   */\n      dup2\n        /* \"#utility.yul\":3637:3648   */\n      swap1\n      pop\n        /* \"#utility.yul\":3675:3679   */\n      0x20\n        /* \"#utility.yul\":3670:3673   */\n      dup3\n        /* \"#utility.yul\":3666:3680   */\n      add\n        /* \"#utility.yul\":3658:3680   */\n      swap1\n      pop\n        /* \"#utility.yul\":3555:3687   */\n      swap2\n      swap1\n      pop\n      jump\t// out\n        /* \"#utility.yul\":3693:3801   */\n    tag_224:\n        /* \"#utility.yul\":3770:3794   */\n      tag_285\n        /* \"#utility.yul\":3788:3793   */\n      dup2\n        /* \"#utility.yul\":3770:3794   */\n      tag_208\n      jump\t// in\n    tag_285:\n        /* \"#utility.yul\":3765:3768   */\n      dup3\n        /* \"#utility.yul\":3758:3795   */\n      mstore\n        /* \"#utility.yul\":3693:3801   */\n      pop\n      pop\n      jump\t// out\n        /* \"#utility.yul\":3807:3986   */\n    tag_225:\n        /* \"#utility.yul\":3876:3886   */\n      0x00\n        /* \"#utility.yul\":3897:3943   */\n      tag_287\n        /* \"#utility.yul\":3939:3942   */\n      dup4\n        /* \"#utility.yul\":3931:3937   */\n      dup4\n        /* \"#utility.yul\":3897:3943   */\n      tag_224\n      jump\t// in\n    tag_287:\n        /* \"#utility.yul\":3975:3979   */\n      0x20\n        /* \"#utility.yul\":3970:3973   */\n      dup4\n        /* \"#utility.yul\":3966:3980   */\n      add\n        /* \"#utility.yul\":3952:3980   */\n      swap1\n      pop\n        /* \"#utility.yul\":3807:3986   */\n      swap3\n      swap2\n      pop\n      pop\n      jump\t// out\n        /* \"#utility.yul\":3992:4105   */\n    tag_226:\n        /* \"#utility.yul\":4062:4066   */\n      0x00\n        /* \"#utility.yul\":4094:4098   */\n      0x20\n        /* \"#utility.yul\":4089:4092   */\n      dup3\n        /* \"#utility.yul\":4085:4099   */\n      add\n        /* \"#utility.yul\":4077:4099   */\n      swap1\n      pop\n        /* \"#utility.yul\":3992:4105   */\n      swap2\n      swap1\n      pop\n      jump\t// out\n        /* \"#utility.yul\":4141:4873   */\n    tag_227:\n        /* \"#utility.yul\":4260:4263   */\n      0x00\n        /* \"#utility.yul\":4289:4343   */\n      tag_290\n        /* \"#utility.yul\":4337:4342   */\n      dup3\n        /* \"#utility.yul\":4289:4343   */\n      tag_221\n      jump\t// in\n    tag_290:\n        /* \"#utility.yul\":4359:4445   */\n      tag_291\n        /* \"#utility.yul\":4438:4444   */\n      dup2\n        /* \"#utility.yul\":4433:4436   */\n      dup6\n        /* \"#utility.yul\":4359:4445   */\n      tag_222\n      jump\t// in\n    tag_291:\n        /* \"#utility.yul\":4352:4445   */\n      swap4\n      pop\n        /* \"#utility.yul\":4469:4525   */\n      tag_292\n        /* \"#utility.yul\":4519:4524   */\n      dup4\n        /* \"#utility.yul\":4469:4525   */\n      tag_223\n      jump\t// in\n    tag_292:\n        /* \"#utility.yul\":4548:4555   */\n      dup1\n        /* \"#utility.yul\":4579:4580   */\n      0x00\n        /* \"#utility.yul\":4564:4848   */\n    tag_293:\n        /* \"#utility.yul\":4589:4595   */\n      dup4\n        /* \"#utility.yul\":4586:4587   */\n      dup2\n        /* \"#utility.yul\":4583:4596   */\n      lt\n        /* \"#utility.yul\":4564:4848   */\n      iszero\n      tag_295\n      jumpi\n        /* \"#utility.yul\":4665:4671   */\n      dup2\n        /* \"#utility.yul\":4659:4672   */\n      mload\n        /* \"#utility.yul\":4692:4755   */\n      tag_296\n        /* \"#utility.yul\":4751:4754   */\n      dup9\n        /* \"#utility.yul\":4736:4749   */\n      dup3\n        /* \"#utility.yul\":4692:4755   */\n      tag_225\n      jump\t// in\n    tag_296:\n        /* \"#utility.yul\":4685:4755   */\n      swap8\n      pop\n        /* \"#utility.yul\":4778:4838   */\n      tag_297\n        /* \"#utility.yul\":4831:4837   */\n      dup4\n        /* \"#utility.yul\":4778:4838   */\n      tag_226\n      jump\t// in\n    tag_297:\n        /* \"#utility.yul\":4768:4838   */\n      swap3\n      pop\n        /* \"#utility.yul\":4624:4848   */\n      pop\n        /* \"#utility.yul\":4611:4612   */\n      0x01\n        /* \"#utility.yul\":4608:4609   */\n      dup2\n        /* \"#utility.yul\":4604:4613   */\n      add\n        /* \"#utility.yul\":4599:4613   */\n      swap1\n      pop\n        /* \"#utility.yul\":4564:4848   */\n      jump(tag_293)\n    tag_295:\n        /* \"#utility.yul\":4568:4582   */\n      pop\n        /* \"#utility.yul\":4864:4867   */\n      dup6\n        /* \"#utility.yul\":4857:4867   */\n      swap4\n      pop\n        /* \"#utility.yul\":4265:4873   */\n      pop\n      pop\n      pop\n        /* \"#utility.yul\":4141:4873   */\n      swap3\n      swap2\n      pop\n      pop\n      jump\t// out\n        /* \"#utility.yul\":4879:5513   */\n    tag_28:\n        /* \"#utility.yul\":5100:5104   */\n      0x00\n        /* \"#utility.yul\":5138:5140   */\n      0x40\n        /* \"#utility.yul\":5127:5136   */\n      dup3\n        /* \"#utility.yul\":5123:5141   */\n      add\n        /* \"#utility.yul\":5115:5141   */\n      swap1\n      pop\n        /* \"#utility.yul\":5187:5196   */\n      dup2\n        /* \"#utility.yul\":5181:5185   */\n      dup2\n        /* \"#utility.yul\":5177:5197   */\n      sub\n        /* \"#utility.yul\":5173:5174   */\n      0x00\n        /* \"#utility.yul\":5162:5171   */\n      dup4\n        /* \"#utility.yul\":5158:5175   */\n      add\n        /* \"#utility.yul\":5151:5198   */\n      mstore\n        /* \"#utility.yul\":5215:5323   */\n      tag_299\n        /* \"#utility.yul\":5318:5322   */\n      dup2\n        /* \"#utility.yul\":5309:5315   */\n      dup6\n        /* \"#utility.yul\":5215:5323   */\n      tag_220\n      jump\t// in\n    tag_299:\n        /* \"#utility.yul\":5207:5323   */\n      swap1\n      pop\n        /* \"#utility.yul\":5370:5379   */\n      dup2\n        /* \"#utility.yul\":5364:5368   */\n      dup2\n        /* \"#utility.yul\":5360:5380   */\n      sub\n        /* \"#utility.yul\":5355:5357   */\n      0x20\n        /* \"#utility.yul\":5344:5353   */\n      dup4\n        /* \"#utility.yul\":5340:5358   */\n      add\n        /* \"#utility.yul\":5333:5381   */\n      mstore\n        /* \"#utility.yul\":5398:5506   */\n      tag_300\n        /* \"#utility.yul\":5501:5505   */\n      dup2\n        /* \"#utility.yul\":5492:5498   */\n      dup5\n        /* \"#utility.yul\":5398:5506   */\n      tag_227\n      jump\t// in\n    tag_300:\n        /* \"#utility.yul\":5390:5506   */\n      swap1\n      pop\n        /* \"#utility.yul\":4879:5513   */\n      swap4\n      swap3\n      pop\n      pop\n      pop\n      jump\t// out\n        /* \"#utility.yul\":5519:5641   */\n    tag_228:\n        /* \"#utility.yul\":5592:5616   */\n      tag_302\n        /* \"#utility.yul\":5610:5615   */\n      dup2\n        /* \"#utility.yul\":5592:5616   */\n      tag_212\n      jump\t// in\n    tag_302:\n        /* \"#utility.yul\":5585:5590   */\n      dup2\n        /* \"#utility.yul\":5582:5617   */\n      eq\n        /* \"#utility.yul\":5572:5635   */\n      tag_303\n      jumpi\n        /* \"#utility.yul\":5631:5632   */\n      0x00\n        /* \"#utility.yul\":5628:5629   */\n      0x00\n        /* \"#utility.yul\":5621:5633   */\n      revert\n        /* \"#utility.yul\":5572:5635   */\n    tag_303:\n        /* \"#utility.yul\":5519:5641   */\n      pop\n      jump\t// out\n        /* \"#utility.yul\":5647:5786   */\n    tag_229:\n        /* \"#utility.yul\":5693:5698   */\n      0x00\n        /* \"#utility.yul\":5731:5737   */\n      dup2\n        /* \"#utility.yul\":5718:5738   */\n      calldataload\n        /* \"#utility.yul\":5709:5738   */\n      swap1\n      pop\n        /* \"#utility.yul\":5747:5780   */\n      tag_305\n        /* \"#utility.yul\":5774:5779   */\n      dup2\n        /* \"#utility.yul\":5747:5780   */\n      tag_228\n      jump\t// in\n    tag_305:\n        /* \"#utility.yul\":5647:5786   */\n      swap3\n      swap2\n      pop\n      pop\n      jump\t// out\n        /* \"#utility.yul\":5792:6121   */\n    tag_34:\n        /* \"#utility.yul\":5851:5857   */\n      0x00\n        /* \"#utility.yul\":5900:5902   */\n      0x20\n        /* \"#utility.yul\":5888:5897   */\n      dup3\n        /* \"#utility.yul\":5879:5886   */\n      dup5\n        /* \"#utility.yul\":5875:5898   */\n      sub\n        /* \"#utility.yul\":5871:5903   */\n      slt\n        /* \"#utility.yul\":5868:5987   */\n      iszero\n      tag_307\n      jumpi\n        /* \"#utility.yul\":5906:5985   */\n      tag_308\n      tag_206\n      jump\t// in\n    tag_308:\n        /* \"#utility.yul\":5868:5987   */\n    tag_307:\n        /* \"#utility.yul\":6026:6027   */\n      0x00\n        /* \"#utility.yul\":6051:6104   */\n      tag_309\n        /* \"#utility.yul\":6096:6103   */\n      dup5\n        /* \"#utility.yul\":6087:6093   */\n      dup3\n        /* \"#utility.yul\":6076:6085   */\n      dup6\n        /* \"#utility.yul\":6072:6094   */\n      add\n        /* \"#utility.yul\":6051:6104   */\n      tag_229\n      jump\t// in\n    tag_309:\n        /* \"#utility.yul\":6041:6104   */\n      swap2\n      pop\n        /* \"#utility.yul\":5997:6114   */\n      pop\n        /* \"#utility.yul\":5792:6121   */\n      swap3\n      swap2\n      pop\n      pop\n      jump\t// out\n        /* \"#utility.yul\":6127:6245   */\n    tag_230:\n        /* \"#utility.yul\":6214:6238   */\n      tag_311\n        /* \"#utility.yul\":6232:6237   */\n      dup2\n        /* \"#utility.yul\":6214:6238   */\n      tag_208\n      jump\t// in\n    tag_311:\n        /* \"#utility.yul\":6209:6212   */\n      dup3\n        /* \"#utility.yul\":6202:6239   */\n      mstore\n        /* \"#utility.yul\":6127:6245   */\n      pop\n      pop\n      jump\t// out\n        /* \"#utility.yul\":6251:6473   */\n    tag_37:\n        /* \"#utility.yul\":6344:6348   */\n      0x00\n        /* \"#utility.yul\":6382:6384   */\n      0x20\n        /* \"#utility.yul\":6371:6380   */\n      dup3\n        /* \"#utility.yul\":6367:6385   */\n      add\n        /* \"#utility.yul\":6359:6385   */\n      swap1\n      pop\n        /* \"#utility.yul\":6395:6466   */\n      tag_313\n        /* \"#utility.yul\":6463:6464   */\n      0x00\n        /* \"#utility.yul\":6452:6461   */\n      dup4\n        /* \"#utility.yul\":6448:6465   */\n      add\n        /* \"#utility.yul\":6439:6445   */\n      dup5\n        /* \"#utility.yul\":6395:6466   */\n      tag_230\n      jump\t// in\n    tag_313:\n        /* \"#utility.yul\":6251:6473   */\n      swap3\n      swap2\n      pop\n      pop\n      jump\t// out\n        /* \"#utility.yul\":6479:6953   */\n    tag_41:\n        /* \"#utility.yul\":6547:6553   */\n      0x00\n        /* \"#utility.yul\":6555:6561   */\n      0x00\n        /* \"#utility.yul\":6604:6606   */\n      0x40\n        /* \"#utility.yul\":6592:6601   */\n      dup4\n        /* \"#utility.yul\":6583:6590   */\n      dup6\n        /* \"#utility.yul\":6579:6602   */\n      sub\n        /* \"#utility.yul\":6575:6607   */\n      slt\n        /* \"#utility.yul\":6572:6691   */\n      iszero\n      tag_315\n      jumpi\n        /* \"#utility.yul\":6610:6689   */\n      tag_316\n      tag_206\n      jump\t// in\n    tag_316:\n        /* \"#utility.yul\":6572:6691   */\n    tag_315:\n        /* \"#utility.yul\":6730:6731   */\n      0x00\n        /* \"#utility.yul\":6755:6808   */\n      tag_317\n        /* \"#utility.yul\":6800:6807   */\n      dup6\n        /* \"#utility.yul\":6791:6797   */\n      dup3\n        /* \"#utility.yul\":6780:6789   */\n      dup7\n        /* \"#utility.yul\":6776:6798   */\n      add\n        /* \"#utility.yul\":6755:6808   */\n      tag_210\n      jump\t// in\n    tag_317:\n        /* \"#utility.yul\":6745:6808   */\n      swap3\n      pop\n        /* \"#utility.yul\":6701:6818   */\n      pop\n        /* \"#utility.yul\":6857:6859   */\n      0x20\n        /* \"#utility.yul\":6883:6936   */\n      tag_318\n        /* \"#utility.yul\":6928:6935   */\n      dup6\n        /* \"#utility.yul\":6919:6925   */\n      dup3\n        /* \"#utility.yul\":6908:6917   */\n      dup7\n        /* \"#utility.yul\":6904:6926   */\n      add\n        /* \"#utility.yul\":6883:6936   */\n      tag_210\n      jump\t// in\n    tag_318:\n        /* \"#utility.yul\":6873:6936   */\n      swap2\n      pop\n        /* \"#utility.yul\":6828:6946   */\n      pop\n        /* \"#utility.yul\":6479:6953   */\n      swap3\n      pop\n      swap3\n      swap1\n      pop\n      jump\t// out\n        /* \"#utility.yul\":6959:7332   */\n    tag_59:\n        /* \"#utility.yul\":7102:7106   */\n      0x00\n        /* \"#utility.yul\":7140:7142   */\n      0x20\n        /* \"#utility.yul\":7129:7138   */\n      dup3\n        /* \"#utility.yul\":7125:7143   */\n      add\n        /* \"#utility.yul\":7117:7143   */\n      swap1\n      pop\n        /* \"#utility.yul\":7189:7198   */\n      dup2\n        /* \"#utility.yul\":7183:7187   */\n      dup2\n        /* \"#utility.yul\":7179:7199   */\n      sub\n        /* \"#utility.yul\":7175:7176   */\n      0x00\n        /* \"#utility.yul\":7164:7173   */\n      dup4\n        /* \"#utility.yul\":7160:7177   */\n      add\n        /* \"#utility.yul\":7153:7200   */\n      mstore\n        /* \"#utility.yul\":7217:7325   */\n      tag_320\n        /* \"#utility.yul\":7320:7324   */\n      dup2\n        /* \"#utility.yul\":7311:7317   */\n      dup5\n        /* \"#utility.yul\":7217:7325   */\n      tag_220\n      jump\t// in\n    tag_320:\n        /* \"#utility.yul\":7209:7325   */\n      swap1\n      pop\n        /* \"#utility.yul\":6959:7332   */\n      swap3\n      swap2\n      pop\n      pop\n      jump\t// out\n        /* \"#utility.yul\":7338:7518   */\n    tag_86:\n        /* \"#utility.yul\":7386:7463   */\n      0x4e487b7100000000000000000000000000000000000000000000000000000000\n        /* \"#utility.yul\":7383:7384   */\n      0x00\n        /* \"#utility.yul\":7376:7464   */\n      mstore\n        /* \"#utility.yul\":7483:7487   */\n      0x32\n        /* \"#utility.yul\":7480:7481   */\n      0x04\n        /* \"#utility.yul\":7473:7488   */\n      mstore\n        /* \"#utility.yul\":7507:7511   */\n      0x24\n        /* \"#utility.yul\":7504:7505   */\n      0x00\n        /* \"#utility.yul\":7497:7512   */\n      revert\n        /* \"#utility.yul\":7524:7704   */\n    tag_136:\n        /* \"#utility.yul\":7572:7649   */\n      0x4e487b7100000000000000000000000000000000000000000000000000000000\n        /* \"#utility.yul\":7569:7570   */\n      0x00\n        /* \"#utility.yul\":7562:7650   */\n      mstore\n        /* \"#utility.yul\":7669:7673   */\n      0x41\n        /* \"#utility.yul\":7666:7667   */\n      0x04\n        /* \"#utility.yul\":7659:7674   */\n      mstore\n        /* \"#utility.yul\":7693:7697   */\n      0x24\n        /* \"#utility.yul\":7690:7691   */\n      0x00\n        /* \"#utility.yul\":7683:7698   */\n      revert\n        /* \"#utility.yul\":7710:7879   */\n    tag_231:\n        /* \"#utility.yul\":7794:7805   */\n      0x00\n        /* \"#utility.yul\":7828:7834   */\n      dup3\n        /* \"#utility.yul\":7823:7826   */\n      dup3\n        /* \"#utility.yul\":7816:7835   */\n      mstore\n        /* \"#utility.yul\":7868:7872   */\n      0x20\n        /* \"#utility.yul\":7863:7866   */\n      dup3\n        /* \"#utility.yul\":7859:7873   */\n      add\n        /* \"#utility.yul\":7844:7873   */\n      swap1\n      pop\n        /* \"#utility.yul\":7710:7879   */\n      swap3\n      swap2\n      pop\n      pop\n      jump\t// out\n        /* \"#utility.yul\":7885:8105   */\n    tag_232:\n        /* \"#utility.yul\":8025:8059   */\n      0x4f6e6c79206f776e65722063616e2063616c6c20746869732066756e6374696f\n        /* \"#utility.yul\":8021:8022   */\n      0x00\n        /* \"#utility.yul\":8013:8019   */\n      dup3\n        /* \"#utility.yul\":8009:8023   */\n      add\n        /* \"#utility.yul\":8002:8060   */\n      mstore\n        /* \"#utility.yul\":8094:8097   */\n      0x6e00000000000000000000000000000000000000000000000000000000000000\n        /* \"#utility.yul\":8089:8091   */\n      0x20\n        /* \"#utility.yul\":8081:8087   */\n      dup3\n        /* \"#utility.yul\":8077:8092   */\n      add\n        /* \"#utility.yul\":8070:8098   */\n      mstore\n        /* \"#utility.yul\":7885:8105   */\n      pop\n      jump\t// out\n        /* \"#utility.yul\":8111:8477   */\n    tag_233:\n        /* \"#utility.yul\":8253:8256   */\n      0x00\n        /* \"#utility.yul\":8274:8341   */\n      tag_326\n        /* \"#utility.yul\":8338:8340   */\n      0x21\n        /* \"#utility.yul\":8333:8336   */\n      dup4\n        /* \"#utility.yul\":8274:8341   */\n      tag_231\n      jump\t// in\n    tag_326:\n        /* \"#utility.yul\":8267:8341   */\n      swap2\n      pop\n        /* \"#utility.yul\":8350:8443   */\n      tag_327\n        /* \"#utility.yul\":8439:8442   */\n      dup3\n        /* \"#utility.yul\":8350:8443   */\n      tag_232\n      jump\t// in\n    tag_327:\n        /* \"#utility.yul\":8468:8470   */\n      0x40\n        /* \"#utility.yul\":8463:8466   */\n      dup3\n        /* \"#utility.yul\":8459:8471   */\n      add\n        /* \"#utility.yul\":8452:8471   */\n      swap1\n      pop\n        /* \"#utility.yul\":8111:8477   */\n      swap2\n      swap1\n      pop\n      jump\t// out\n        /* \"#utility.yul\":8483:8902   */\n    tag_155:\n        /* \"#utility.yul\":8649:8653   */\n      0x00\n        /* \"#utility.yul\":8687:8689   */\n      0x20\n        /* \"#utility.yul\":8676:8685   */\n      dup3\n        /* \"#utility.yul\":8672:8690   */\n      add\n        /* \"#utility.yul\":8664:8690   */\n      swap1\n      pop\n        /* \"#utility.yul\":8736:8745   */\n      dup2\n        /* \"#utility.yul\":8730:8734   */\n      dup2\n        /* \"#utility.yul\":8726:8746   */\n      sub\n        /* \"#utility.yul\":8722:8723   */\n      0x00\n        /* \"#utility.yul\":8711:8720   */\n      dup4\n        /* \"#utility.yul\":8707:8724   */\n      add\n        /* \"#utility.yul\":8700:8747   */\n      mstore\n        /* \"#utility.yul\":8764:8895   */\n      tag_329\n        /* \"#utility.yul\":8890:8894   */\n      dup2\n        /* \"#utility.yul\":8764:8895   */\n      tag_233\n      jump\t// in\n    tag_329:\n        /* \"#utility.yul\":8756:8895   */\n      swap1\n      pop\n        /* \"#utility.yul\":8483:8902   */\n      swap2\n      swap1\n      pop\n      jump\t// out\n        /* \"#utility.yul\":8908:9128   */\n    tag_234:\n        /* \"#utility.yul\":9048:9082   */\n      0x436f6e747261637420686173206e6f2066756e647320746f2077697468647261\n        /* \"#utility.yul\":9044:9045   */\n      0x00\n        /* \"#utility.yul\":9036:9042   */\n      dup3\n        /* \"#utility.yul\":9032:9046   */\n      add\n        /* \"#utility.yul\":9025:9083   */\n      mstore\n        /* \"#utility.yul\":9117:9120   */\n      0x7700000000000000000000000000000000000000000000000000000000000000\n        /* \"#utility.yul\":9112:9114   */\n      0x20\n        /* \"#utility.yul\":9104:9110   */\n      dup3\n        /* \"#utility.yul\":9100:9115   */\n      add\n        /* \"#utility.yul\":9093:9121   */\n      mstore\n        /* \"#utility.yul\":8908:9128   */\n      pop\n      jump\t// out\n        /* \"#utility.yul\":9134:9500   */\n    tag_235:\n        /* \"#utility.yul\":9276:9279   */\n      0x00\n        /* \"#utility.yul\":9297:9364   */\n      tag_332\n        /* \"#utility.yul\":9361:9363   */\n      0x21\n        /* \"#utility.yul\":9356:9359   */\n      dup4\n        /* \"#utility.yul\":9297:9364   */\n      tag_231\n      jump\t// in\n    tag_332:\n        /* \"#utility.yul\":9290:9364   */\n      swap2\n      pop\n        /* \"#utility.yul\":9373:9466   */\n      tag_333\n        /* \"#utility.yul\":9462:9465   */\n      dup3\n        /* \"#utility.yul\":9373:9466   */\n      tag_234\n      jump\t// in\n    tag_333:\n        /* \"#utility.yul\":9491:9493   */\n      0x40\n        /* \"#utility.yul\":9486:9489   */\n      dup3\n        /* \"#utility.yul\":9482:9494   */\n      add\n        /* \"#utility.yul\":9475:9494   */\n      swap1\n      pop\n        /* \"#utility.yul\":9134:9500   */\n      swap2\n      swap1\n      pop\n      jump\t// out\n        /* \"#utility.yul\":9506:9925   */\n    tag_159:\n        /* \"#utility.yul\":9672:9676   */\n      0x00\n        /* \"#utility.yul\":9710:9712   */\n      0x20\n        /* \"#utility.yul\":9699:9708   */\n      dup3\n        /* \"#utility.yul\":9695:9713   */\n      add\n        /* \"#utility.yul\":9687:9713   */\n      swap1\n      pop\n        /* \"#utility.yul\":9759:9768   */\n      dup2\n        /* \"#utility.yul\":9753:9757   */\n      dup2\n        /* \"#utility.yul\":9749:9769   */\n      sub\n        /* \"#utility.yul\":9745:9746   */\n      0x00\n        /* \"#utility.yul\":9734:9743   */\n      dup4\n        /* \"#utility.yul\":9730:9747   */\n      add\n        /* \"#utility.yul\":9723:9770   */\n      mstore\n        /* \"#utility.yul\":9787:9918   */\n      tag_335\n        /* \"#utility.yul\":9913:9917   */\n      dup2\n        /* \"#utility.yul\":9787:9918   */\n      tag_235\n      jump\t// in\n    tag_335:\n        /* \"#utility.yul\":9779:9918   */\n      swap1\n      pop\n        /* \"#utility.yul\":9506:9925   */\n      swap2\n      swap1\n      pop\n      jump\t// out\n        /* \"#utility.yul\":9931:10151   */\n    tag_236:\n        /* \"#utility.yul\":10071:10105   */\n      0x456e642074696d65206d7573742062652061667465722073746172742074696d\n        /* \"#utility.yul\":10067:10068   */\n      0x00\n        /* \"#utility.yul\":10059:10065   */\n      dup3\n        /* \"#utility.yul\":10055:10069   */\n      add\n        /* \"#utility.yul\":10048:10106   */\n      mstore\n        /* \"#utility.yul\":10140:10143   */\n      0x6500000000000000000000000000000000000000000000000000000000000000\n        /* \"#utility.yul\":10135:10137   */\n      0x20\n        /* \"#utility.yul\":10127:10133   */\n      dup3\n        /* \"#utility.yul\":10123:10138   */\n      add\n        /* \"#utility.yul\":10116:10144   */\n      mstore\n        /* \"#utility.yul\":9931:10151   */\n      pop\n      jump\t// out\n        /* \"#utility.yul\":10157:10523   */\n    tag_237:\n        /* \"#utility.yul\":10299:10302   */\n      0x00\n        /* \"#utility.yul\":10320:10387   */\n      tag_338\n        /* \"#utility.yul\":10384:10386   */\n      0x21\n        /* \"#utility.yul\":10379:10382   */\n      dup4\n        /* \"#utility.yul\":10320:10387   */\n      tag_231\n      jump\t// in\n    tag_338:\n        /* \"#utility.yul\":10313:10387   */\n      swap2\n      pop\n        /* \"#utility.yul\":10396:10489   */\n      tag_339\n        /* \"#utility.yul\":10485:10488   */\n      dup3\n        /* \"#utility.yul\":10396:10489   */\n      tag_236\n      jump\t// in\n    tag_339:\n        /* \"#utility.yul\":10514:10516   */\n      0x40\n        /* \"#utility.yul\":10509:10512   */\n      dup3\n        /* \"#utility.yul\":10505:10517   */\n      add\n        /* \"#utility.yul\":10498:10517   */\n      swap1\n      pop\n        /* \"#utility.yul\":10157:10523   */\n      swap2\n      swap1\n      pop\n      jump\t// out\n        /* \"#utility.yul\":10529:10948   */\n    tag_169:\n        /* \"#utility.yul\":10695:10699   */\n      0x00\n        /* \"#utility.yul\":10733:10735   */\n      0x20\n        /* \"#utility.yul\":10722:10731   */\n      dup3\n        /* \"#utility.yul\":10718:10736   */\n      add\n        /* \"#utility.yul\":10710:10736   */\n      swap1\n      pop\n        /* \"#utility.yul\":10782:10791   */\n      dup2\n        /* \"#utility.yul\":10776:10780   */\n      dup2\n        /* \"#utility.yul\":10772:10792   */\n      sub\n        /* \"#utility.yul\":10768:10769   */\n      0x00\n        /* \"#utility.yul\":10757:10766   */\n      dup4\n        /* \"#utility.yul\":10753:10770   */\n      add\n        /* \"#utility.yul\":10746:10793   */\n      mstore\n        /* \"#utility.yul\":10810:10941   */\n      tag_341\n        /* \"#utility.yul\":10936:10940   */\n      dup2\n        /* \"#utility.yul\":10810:10941   */\n      tag_237\n      jump\t// in\n    tag_341:\n        /* \"#utility.yul\":10802:10941   */\n      swap1\n      pop\n        /* \"#utility.yul\":10529:10948   */\n      swap2\n      swap1\n      pop\n      jump\t// out\n        /* \"#utility.yul\":10954:11193   */\n    tag_238:\n        /* \"#utility.yul\":11094:11128   */\n      0x446f6e6174696f6e206973206e6f7420616c6c6f776564206174207468697320\n        /* \"#utility.yul\":11090:11091   */\n      0x00\n        /* \"#utility.yul\":11082:11088   */\n      dup3\n        /* \"#utility.yul\":11078:11092   */\n      add\n        /* \"#utility.yul\":11071:11129   */\n      mstore\n        /* \"#utility.yul\":11163:11185   */\n      0x74696d6520286f7574206f6620706572696f6429000000000000000000000000\n        /* \"#utility.yul\":11158:11160   */\n      0x20\n        /* \"#utility.yul\":11150:11156   */\n      dup3\n        /* \"#utility.yul\":11146:11161   */\n      add\n        /* \"#utility.yul\":11139:11186   */\n      mstore\n        /* \"#utility.yul\":10954:11193   */\n      pop\n      jump\t// out\n        /* \"#utility.yul\":11199:11565   */\n    tag_239:\n        /* \"#utility.yul\":11341:11344   */\n      0x00\n        /* \"#utility.yul\":11362:11429   */\n      tag_344\n        /* \"#utility.yul\":11426:11428   */\n      0x34\n        /* \"#utility.yul\":11421:11424   */\n      dup4\n        /* \"#utility.yul\":11362:11429   */\n      tag_231\n      jump\t// in\n    tag_344:\n        /* \"#utility.yul\":11355:11429   */\n      swap2\n      pop\n        /* \"#utility.yul\":11438:11531   */\n      tag_345\n        /* \"#utility.yul\":11527:11530   */\n      dup3\n        /* \"#utility.yul\":11438:11531   */\n      tag_238\n      jump\t// in\n    tag_345:\n        /* \"#utility.yul\":11556:11558   */\n      0x40\n        /* \"#utility.yul\":11551:11554   */\n      dup3\n        /* \"#utility.yul\":11547:11559   */\n      add\n        /* \"#utility.yul\":11540:11559   */\n      swap1\n      pop\n        /* \"#utility.yul\":11199:11565   */\n      swap2\n      swap1\n      pop\n      jump\t// out\n        /* \"#utility.yul\":11571:11990   */\n    tag_178:\n        /* \"#utility.yul\":11737:11741   */\n      0x00\n        /* \"#utility.yul\":11775:11777   */\n      0x20\n        /* \"#utility.yul\":11764:11773   */\n      dup3\n        /* \"#utility.yul\":11760:11778   */\n      add\n        /* \"#utility.yul\":11752:11778   */\n      swap1\n      pop\n        /* \"#utility.yul\":11824:11833   */\n      dup2\n        /* \"#utility.yul\":11818:11822   */\n      dup2\n        /* \"#utility.yul\":11814:11834   */\n      sub\n        /* \"#utility.yul\":11810:11811   */\n      0x00\n        /* \"#utility.yul\":11799:11808   */\n      dup4\n        /* \"#utility.yul\":11795:11812   */\n      add\n        /* \"#utility.yul\":11788:11835   */\n      mstore\n        /* \"#utility.yul\":11852:11983   */\n      tag_347\n        /* \"#utility.yul\":11978:11982   */\n      dup2\n        /* \"#utility.yul\":11852:11983   */\n      tag_239\n      jump\t// in\n    tag_347:\n        /* \"#utility.yul\":11844:11983   */\n      swap1\n      pop\n        /* \"#utility.yul\":11571:11990   */\n      swap2\n      swap1\n      pop\n      jump\t// out\n        /* \"#utility.yul\":11996:12221   */\n    tag_240:\n        /* \"#utility.yul\":12136:12170   */\n      0x446f6e6174696f6e20616d6f756e74206d757374206265206772656174657220\n        /* \"#utility.yul\":12132:12133   */\n      0x00\n        /* \"#utility.yul\":12124:12130   */\n      dup3\n        /* \"#utility.yul\":12120:12134   */\n      add\n        /* \"#utility.yul\":12113:12171   */\n      mstore\n        /* \"#utility.yul\":12205:12213   */\n      0x7468616e20300000000000000000000000000000000000000000000000000000\n        /* \"#utility.yul\":12200:12202   */\n      0x20\n        /* \"#utility.yul\":12192:12198   */\n      dup3\n        /* \"#utility.yul\":12188:12203   */\n      add\n        /* \"#utility.yul\":12181:12214   */\n      mstore\n        /* \"#utility.yul\":11996:12221   */\n      pop\n      jump\t// out\n        /* \"#utility.yul\":12227:12593   */\n    tag_241:\n        /* \"#utility.yul\":12369:12372   */\n      0x00\n        /* \"#utility.yul\":12390:12457   */\n      tag_350\n        /* \"#utility.yul\":12454:12456   */\n      0x26\n        /* \"#utility.yul\":12449:12452   */\n      dup4\n        /* \"#utility.yul\":12390:12457   */\n      tag_231\n      jump\t// in\n    tag_350:\n        /* \"#utility.yul\":12383:12457   */\n      swap2\n      pop\n        /* \"#utility.yul\":12466:12559   */\n      tag_351\n        /* \"#utility.yul\":12555:12558   */\n      dup3\n        /* \"#utility.yul\":12466:12559   */\n      tag_240\n      jump\t// in\n    tag_351:\n        /* \"#utility.yul\":12584:12586   */\n      0x40\n        /* \"#utility.yul\":12579:12582   */\n      dup3\n        /* \"#utility.yul\":12575:12587   */\n      add\n        /* \"#utility.yul\":12568:12587   */\n      swap1\n      pop\n        /* \"#utility.yul\":12227:12593   */\n      swap2\n      swap1\n      pop\n      jump\t// out\n        /* \"#utility.yul\":12599:13018   */\n    tag_182:\n        /* \"#utility.yul\":12765:12769   */\n      0x00\n        /* \"#utility.yul\":12803:12805   */\n      0x20\n        /* \"#utility.yul\":12792:12801   */\n      dup3\n        /* \"#utility.yul\":12788:12806   */\n      add\n        /* \"#utility.yul\":12780:12806   */\n      swap1\n      pop\n        /* \"#utility.yul\":12852:12861   */\n      dup2\n        /* \"#utility.yul\":12846:12850   */\n      dup2\n        /* \"#utility.yul\":12842:12862   */\n      sub\n        /* \"#utility.yul\":12838:12839   */\n      0x00\n        /* \"#utility.yul\":12827:12836   */\n      dup4\n        /* \"#utility.yul\":12823:12840   */\n      add\n        /* \"#utility.yul\":12816:12863   */\n      mstore\n        /* \"#utility.yul\":12880:13011   */\n      tag_353\n        /* \"#utility.yul\":13006:13010   */\n      dup2\n        /* \"#utility.yul\":12880:13011   */\n      tag_241\n      jump\t// in\n    tag_353:\n        /* \"#utility.yul\":12872:13011   */\n      swap1\n      pop\n        /* \"#utility.yul\":12599:13018   */\n      swap2\n      swap1\n      pop\n      jump\t// out\n        /* \"#utility.yul\":13024:13204   */\n    tag_242:\n        /* \"#utility.yul\":13072:13149   */\n      0x4e487b7100000000000000000000000000000000000000000000000000000000\n        /* \"#utility.yul\":13069:13070   */\n      0x00\n        /* \"#utility.yul\":13062:13150   */\n      mstore\n        /* \"#utility.yul\":13169:13173   */\n      0x11\n        /* \"#utility.yul\":13166:13167   */\n      0x04\n        /* \"#utility.yul\":13159:13174   */\n      mstore\n        /* \"#utility.yul\":13193:13197   */\n      0x24\n        /* \"#utility.yul\":13190:13191   */\n      0x00\n        /* \"#utility.yul\":13183:13198   */\n      revert\n        /* \"#utility.yul\":13210:13401   */\n    tag_184:\n        /* \"#utility.yul\":13250:13253   */\n      0x00\n        /* \"#utility.yul\":13269:13289   */\n      tag_356\n        /* \"#utility.yul\":13287:13288   */\n      dup3\n        /* \"#utility.yul\":13269:13289   */\n      tag_208\n      jump\t// in\n    tag_356:\n        /* \"#utility.yul\":13264:13289   */\n      swap2\n      pop\n        /* \"#utility.yul\":13303:13323   */\n      tag_357\n        /* \"#utility.yul\":13321:13322   */\n      dup4\n        /* \"#utility.yul\":13303:13323   */\n      tag_208\n      jump\t// in\n    tag_357:\n        /* \"#utility.yul\":13298:13323   */\n      swap3\n      pop\n        /* \"#utility.yul\":13346:13347   */\n      dup3\n        /* \"#utility.yul\":13343:13344   */\n      dup3\n        /* \"#utility.yul\":13339:13348   */\n      add\n        /* \"#utility.yul\":13332:13348   */\n      swap1\n      pop\n        /* \"#utility.yul\":13367:13370   */\n      dup1\n        /* \"#utility.yul\":13364:13365   */\n      dup3\n        /* \"#utility.yul\":13361:13371   */\n      gt\n        /* \"#utility.yul\":13358:13394   */\n      iszero\n      tag_358\n      jumpi\n        /* \"#utility.yul\":13374:13392   */\n      tag_359\n      tag_242\n      jump\t// in\n    tag_359:\n        /* \"#utility.yul\":13358:13394   */\n    tag_358:\n        /* \"#utility.yul\":13210:13401   */\n      swap3\n      swap2\n      pop\n      pop\n      jump\t// out\n        /* \"#utility.yul\":13407:13739   */\n    tag_195:\n        /* \"#utility.yul\":13528:13532   */\n      0x00\n        /* \"#utility.yul\":13566:13568   */\n      0x40\n        /* \"#utility.yul\":13555:13564   */\n      dup3\n        /* \"#utility.yul\":13551:13569   */\n      add\n        /* \"#utility.yul\":13543:13569   */\n      swap1\n      pop\n        /* \"#utility.yul\":13579:13650   */\n      tag_361\n        /* \"#utility.yul\":13647:13648   */\n      0x00\n        /* \"#utility.yul\":13636:13645   */\n      dup4\n        /* \"#utility.yul\":13632:13649   */\n      add\n        /* \"#utility.yul\":13623:13629   */\n      dup6\n        /* \"#utility.yul\":13579:13650   */\n      tag_230\n      jump\t// in\n    tag_361:\n        /* \"#utility.yul\":13660:13732   */\n      tag_362\n        /* \"#utility.yul\":13728:13730   */\n      0x20\n        /* \"#utility.yul\":13717:13726   */\n      dup4\n        /* \"#utility.yul\":13713:13731   */\n      add\n        /* \"#utility.yul\":13704:13710   */\n      dup5\n        /* \"#utility.yul\":13660:13732   */\n      tag_230\n      jump\t// in\n    tag_362:\n        /* \"#utility.yul\":13407:13739   */\n      swap4\n      swap3\n      pop\n      pop\n      pop\n      jump\t// out\n\n    auxdata: 0xa26469706673582212209789b584d031a31d1953a4de4a161753f3638049f905733c2ad2c22f348128c764736f6c634300081e0033\n}\n",
				"bytecode": {
					"linkReferences": {},
					"object": "60a060405234801561000f575f5ffd5b50604051611881380380611881833981810160405281019061003191906100f3565b3373ffffffffffffffffffffffffffffffffffffffff1660808173ffffffffffffffffffffffffffffffffffffffff16815250508181116100a7576040517f08c379a000000000000000000000000000000000000000000000000000000000815260040161009e906101b1565b60405180910390fd5b816001819055508060028190555050506101cf565b5f5ffd5b5f819050919050565b6100d2816100c0565b81146100dc575f5ffd5b50565b5f815190506100ed816100c9565b92915050565b5f5f60408385031215610109576101086100bc565b5b5f610116858286016100df565b9250506020610127858286016100df565b9150509250929050565b5f82825260208201905092915050565b7f456e642074696d65206d7573742062652061667465722073746172742074696d5f8201527f6500000000000000000000000000000000000000000000000000000000000000602082015250565b5f61019b602183610131565b91506101a682610141565b604082019050919050565b5f6020820190508181035f8301526101c88161018f565b9050919050565b6080516116856101fc5f395f81816108680152818161093c015281816109e80152610ad701526116855ff3fe6080604052600436106100c1575f3560e01c806384fc42e11161007e578063a7e3e2b811610058578063a7e3e2b814610242578063b02080691461027e578063ed88c68e14610288578063fa6e687f14610292576100c1565b806384fc42e1146101c45780638da5cb5b146101ee57806398e36b0414610218576100c1565b80632c3e6963146100c55780632d1e2518146101015780633ccfd60b1461012c578063410a1d321461013657806354b602ed146101725780636f9fb98a1461019a575b5f5ffd5b3480156100d0575f5ffd5b506100eb60048036038101906100e69190610f97565b6102bc565b6040516100f89190611001565b60405180910390f35b34801561010c575f5ffd5b506101156102f7565b604051610123929190611188565b60405180910390f35b610134610866565b005b348015610141575f5ffd5b5061015c600480360381019061015791906111e7565b6109a1565b6040516101699190611221565b60405180910390f35b34801561017d575f5ffd5b506101986004803603810190610193919061123a565b6109e6565b005b3480156101a5575f5ffd5b506101ae610ac8565b6040516101bb9190611221565b60405180910390f35b3480156101cf575f5ffd5b506101d8610acf565b6040516101e59190611221565b60405180910390f35b3480156101f9575f5ffd5b50610202610ad5565b60405161020f9190611001565b60405180910390f35b348015610223575f5ffd5b5061022c610af9565b6040516102399190611278565b60405180910390f35b34801561024d575f5ffd5b50610268600480360381019061026391906111e7565b610b84565b6040516102759190611221565b60405180910390f35b610286610b98565b005b610290610dd8565b005b34801561029d575f5ffd5b506102a6610f16565b6040516102b39190611221565b60405180910390f35b600381815481106102cb575f80fd5b905f5260205f20015f915054906101000a900473ffffffffffffffffffffffffffffffffffffffff1681565b606080610302610f1c565b61030a610f3e565b5f610313610af9565b90505f5f90505b8151811015610704575f82828151811061033757610336611298565b5b602002602001015190505f5f5f8373ffffffffffffffffffffffffffffffffffffffff1673ffffffffffffffffffffffffffffffffffffffff1681526020019081526020015f20549050845f6003811061039457610393611298565b5b602002015181111561053f57846001600381106103b4576103b3611298565b5b6020020151856002600381106103cd576103cc611298565b5b602002018181525050856001600381106103ea576103e9611298565b5b60200201518660026003811061040357610402611298565b5b602002019073ffffffffffffffffffffffffffffffffffffffff16908173ffffffffffffffffffffffffffffffffffffffff1681525050845f6003811061044d5761044c611298565b5b60200201518560016003811061046657610465611298565b5b602002018181525050855f6003811061048257610481611298565b5b60200201518660016003811061049b5761049a611298565b5b602002019073ffffffffffffffffffffffffffffffffffffffff16908173ffffffffffffffffffffffffffffffffffffffff168152505080855f600381106104e6576104e5611298565b5b60200201818152505081865f6003811061050357610502611298565b5b602002019073ffffffffffffffffffffffffffffffffffffffff16908173ffffffffffffffffffffffffffffffffffffffff16815250506106f5565b8460016003811061055357610552611298565b5b6020020151811115610668578460016003811061057357610572611298565b5b60200201518560026003811061058c5761058b611298565b5b602002018181525050856001600381106105a9576105a8611298565b5b6020020151866002600381106105c2576105c1611298565b5b602002019073ffffffffffffffffffffffffffffffffffffffff16908173ffffffffffffffffffffffffffffffffffffffff1681525050808560016003811061060e5761060d611298565b5b602002018181525050818660016003811061062c5761062b611298565b5b602002019073ffffffffffffffffffffffffffffffffffffffff16908173ffffffffffffffffffffffffffffffffffffffff16815250506106f4565b8460026003811061067c5761067b611298565b5b60200201518111156106f357808560026003811061069d5761069c611298565b5b60200201818152505081866002600381106106bb576106ba611298565b5b602002019073ffffffffffffffffffffffffffffffffffffffff16908173ffffffffffffffffffffffffffffffffffffffff16815250505b5b5b5050808060010191505061031a565b505f600367ffffffffffffffff811115610721576107206112c5565b5b60405190808252806020026020018201604052801561074f5781602001602082028036833780820191505090505b5090505f600367ffffffffffffffff81111561076e5761076d6112c5565b5b60405190808252806020026020018201604052801561079c5781602001602082028036833780820191505090505b5090505f5f90505b6003811015610856578581600381106107c0576107bf611298565b5b60200201518382815181106107d8576107d7611298565b5b602002602001019073ffffffffffffffffffffffffffffffffffffffff16908173ffffffffffffffffffffffffffffffffffffffff168152505084816003811061082557610824611298565b5b602002015182828151811061083d5761083c611298565b5b60200260200101818152505080806001019150506107a4565b5081819650965050505050509091565b7f000000000000000000000000000000000000000000000000000000000000000073ffffffffffffffffffffffffffffffffffffffff163373ffffffffffffffffffffffffffffffffffffffff16146108f4576040517f08c379a00000000000000000000000000000000000000000000000000000000081526004016108eb90611372565b60405180910390fd5b5f4790505f811161093a576040517f08c379a000000000000000000000000000000000000000000000000000000000815260040161093190611400565b60405180910390fd5b7f000000000000000000000000000000000000000000000000000000000000000073ffffffffffffffffffffffffffffffffffffffff166108fc8290811502906040515f60405180830381858888f1935050505015801561099d573d5f5f3e3d5ffd5b5050565b5f5f5f8373ffffffffffffffffffffffffffffffffffffffff1673ffffffffffffffffffffffffffffffffffffffff1681526020019081526020015f20549050919050565b7f000000000000000000000000000000000000000000000000000000000000000073ffffffffffffffffffffffffffffffffffffffff163373ffffffffffffffffffffffffffffffffffffffff1614610a74576040517f08c379a0000000000000000000000000000000000000000000000000000000008152600401610a6b90611372565b60405180910390fd5b818111610ab6576040517f08c379a0000000000000000000000000000000000000000000000000000000008152600401610aad9061148e565b60405180910390fd5b81600181905550806002819055505050565b5f47905090565b60025481565b7f000000000000000000000000000000000000000000000000000000000000000081565b60606003805480602002602001604051908101604052809291908181526020018280548015610b7a57602002820191905f5260205f20905b815f9054906101000a900473ffffffffffffffffffffffffffffffffffffffff1673ffffffffffffffffffffffffffffffffffffffff1681526020019060010190808311610b31575b5050505050905090565b5f602052805f5260405f205f915090505481565b5f4290506001548110158015610bb057506002548111155b610bef576040517f08c379a0000000000000000000000000000000000000000000000000000000008152600401610be69061151c565b60405180910390fd5b5f3411610c31576040517f08c379a0000000000000000000000000000000000000000000000000000000008152600401610c28906115aa565b60405180910390fd5b345f5f3373ffffffffffffffffffffffffffffffffffffffff1673ffffffffffffffffffffffffffffffffffffffff1681526020019081526020015f205f828254610c7c91906115f5565b925050819055505f5f90505f5f90505b600380549050811015610d1d573373ffffffffffffffffffffffffffffffffffffffff1660038281548110610cc457610cc3611298565b5b905f5260205f20015f9054906101000a900473ffffffffffffffffffffffffffffffffffffffff1673ffffffffffffffffffffffffffffffffffffffff1603610d105760019150610d1d565b8080600101915050610c8c565b5080610d8457600333908060018154018082558091505060019003905f5260205f20015f9091909190916101000a81548173ffffffffffffffffffffffffffffffffffffffff021916908373ffffffffffffffffffffffffffffffffffffffff1602179055505b3373ffffffffffffffffffffffffffffffffffffffff167f106aac375bbcf013d1e52338bbf9e740009a1a3a6869f8daa1b72aa1620f5fec3442604051610dcc929190611628565b60405180910390a25050565b5f4290506001548110158015610df057506002548111155b610e2f576040517f08c379a0000000000000000000000000000000000000000000000000000000008152600401610e269061151c565b60405180910390fd5b5f3411610e71576040517f08c379a0000000000000000000000000000000000000000000000000000000008152600401610e68906115aa565b60405180910390fd5b345f5f3373ffffffffffffffffffffffffffffffffffffffff1673ffffffffffffffffffffffffffffffffffffffff1681526020019081526020015f205f828254610ebc91906115f5565b925050819055503373ffffffffffffffffffffffffffffffffffffffff167f106aac375bbcf013d1e52338bbf9e740009a1a3a6869f8daa1b72aa1620f5fec3442604051610f0b929190611628565b60405180910390a250565b60015481565b6040518060600160405280600390602082028036833780820191505090505090565b6040518060600160405280600390602082028036833780820191505090505090565b5f5ffd5b5f819050919050565b610f7681610f64565b8114610f80575f5ffd5b50565b5f81359050610f9181610f6d565b92915050565b5f60208284031215610fac57610fab610f60565b5b5f610fb984828501610f83565b91505092915050565b5f73ffffffffffffffffffffffffffffffffffffffff82169050919050565b5f610feb82610fc2565b9050919050565b610ffb81610fe1565b82525050565b5f6020820190506110145f830184610ff2565b92915050565b5f81519050919050565b5f82825260208201905092915050565b5f819050602082019050919050565b61104c81610fe1565b82525050565b5f61105d8383611043565b60208301905092915050565b5f602082019050919050565b5f61107f8261101a565b6110898185611024565b935061109483611034565b805f5b838110156110c45781516110ab8882611052565b97506110b683611069565b925050600181019050611097565b5085935050505092915050565b5f81519050919050565b5f82825260208201905092915050565b5f819050602082019050919050565b61110381610f64565b82525050565b5f61111483836110fa565b60208301905092915050565b5f602082019050919050565b5f611136826110d1565b61114081856110db565b935061114b836110eb565b805f5b8381101561117b5781516111628882611109565b975061116d83611120565b92505060018101905061114e565b5085935050505092915050565b5f6040820190508181035f8301526111a08185611075565b905081810360208301526111b4818461112c565b90509392505050565b6111c681610fe1565b81146111d0575f5ffd5b50565b5f813590506111e1816111bd565b92915050565b5f602082840312156111fc576111fb610f60565b5b5f611209848285016111d3565b91505092915050565b61121b81610f64565b82525050565b5f6020820190506112345f830184611212565b92915050565b5f5f604083850312156112505761124f610f60565b5b5f61125d85828601610f83565b925050602061126e85828601610f83565b9150509250929050565b5f6020820190508181035f8301526112908184611075565b905092915050565b7f4e487b71000000000000000000000000000000000000000000000000000000005f52603260045260245ffd5b7f4e487b71000000000000000000000000000000000000000000000000000000005f52604160045260245ffd5b5f82825260208201905092915050565b7f4f6e6c79206f776e65722063616e2063616c6c20746869732066756e6374696f5f8201527f6e00000000000000000000000000000000000000000000000000000000000000602082015250565b5f61135c6021836112f2565b915061136782611302565b604082019050919050565b5f6020820190508181035f83015261138981611350565b9050919050565b7f436f6e747261637420686173206e6f2066756e647320746f20776974686472615f8201527f7700000000000000000000000000000000000000000000000000000000000000602082015250565b5f6113ea6021836112f2565b91506113f582611390565b604082019050919050565b5f6020820190508181035f830152611417816113de565b9050919050565b7f456e642074696d65206d7573742062652061667465722073746172742074696d5f8201527f6500000000000000000000000000000000000000000000000000000000000000602082015250565b5f6114786021836112f2565b91506114838261141e565b604082019050919050565b5f6020820190508181035f8301526114a58161146c565b9050919050565b7f446f6e6174696f6e206973206e6f7420616c6c6f7765642061742074686973205f8201527f74696d6520286f7574206f6620706572696f6429000000000000000000000000602082015250565b5f6115066034836112f2565b9150611511826114ac565b604082019050919050565b5f6020820190508181035f830152611533816114fa565b9050919050565b7f446f6e6174696f6e20616d6f756e74206d7573742062652067726561746572205f8201527f7468616e20300000000000000000000000000000000000000000000000000000602082015250565b5f6115946026836112f2565b915061159f8261153a565b604082019050919050565b5f6020820190508181035f8301526115c181611588565b9050919050565b7f4e487b71000000000000000000000000000000000000000000000000000000005f52601160045260245ffd5b5f6115ff82610f64565b915061160a83610f64565b9250828201905080821115611622576116216115c8565b5b92915050565b5f60408201905061163b5f830185611212565b6116486020830184611212565b939250505056fea26469706673582212209789b584d031a31d1953a4de4a161753f3638049f905733c2ad2c22f348128c764736f6c634300081e0033",
					"opcodes": "PUSH1 0xA0 PUSH1 0x40 MSTORE CALLVALUE DUP1 ISZERO PUSH2 0xF JUMPI PUSH0 PUSH0 REVERT JUMPDEST POP PUSH1 0x40 MLOAD PUSH2 0x1881 CODESIZE SUB DUP1 PUSH2 0x1881 DUP4 CODECOPY DUP2 DUP2 ADD PUSH1 0x40 MSTORE DUP2 ADD SWAP1 PUSH2 0x31 SWAP2 SWAP1 PUSH2 0xF3 JUMP JUMPDEST CALLER PUSH20 0xFFFFFFFFFFFFFFFFFFFFFFFFFFFFFFFFFFFFFFFF AND PUSH1 0x80 DUP2 PUSH20 0xFFFFFFFFFFFFFFFFFFFFFFFFFFFFFFFFFFFFFFFF AND DUP2 MSTORE POP POP DUP2 DUP2 GT PUSH2 0xA7 JUMPI PUSH1 0x40 MLOAD PUSH32 0x8C379A000000000000000000000000000000000000000000000000000000000 DUP2 MSTORE PUSH1 0x4 ADD PUSH2 0x9E SWAP1 PUSH2 0x1B1 JUMP JUMPDEST PUSH1 0x40 MLOAD DUP1 SWAP2 SUB SWAP1 REVERT JUMPDEST DUP2 PUSH1 0x1 DUP2 SWAP1 SSTORE POP DUP1 PUSH1 0x2 DUP2 SWAP1 SSTORE POP POP POP PUSH2 0x1CF JUMP JUMPDEST PUSH0 PUSH0 REVERT JUMPDEST PUSH0 DUP2 SWAP1 POP SWAP2 SWAP1 POP JUMP JUMPDEST PUSH2 0xD2 DUP2 PUSH2 0xC0 JUMP JUMPDEST DUP2 EQ PUSH2 0xDC JUMPI PUSH0 PUSH0 REVERT JUMPDEST POP JUMP JUMPDEST PUSH0 DUP2 MLOAD SWAP1 POP PUSH2 0xED DUP2 PUSH2 0xC9 JUMP JUMPDEST SWAP3 SWAP2 POP POP JUMP JUMPDEST PUSH0 PUSH0 PUSH1 0x40 DUP4 DUP6 SUB SLT ISZERO PUSH2 0x109 JUMPI PUSH2 0x108 PUSH2 0xBC JUMP JUMPDEST JUMPDEST PUSH0 PUSH2 0x116 DUP6 DUP3 DUP7 ADD PUSH2 0xDF JUMP JUMPDEST SWAP3 POP POP PUSH1 0x20 PUSH2 0x127 DUP6 DUP3 DUP7 ADD PUSH2 0xDF JUMP JUMPDEST SWAP2 POP POP SWAP3 POP SWAP3 SWAP1 POP JUMP JUMPDEST PUSH0 DUP3 DUP3 MSTORE PUSH1 0x20 DUP3 ADD SWAP1 POP SWAP3 SWAP2 POP POP JUMP JUMPDEST PUSH32 0x456E642074696D65206D7573742062652061667465722073746172742074696D PUSH0 DUP3 ADD MSTORE PUSH32 0x6500000000000000000000000000000000000000000000000000000000000000 PUSH1 0x20 DUP3 ADD MSTORE POP JUMP JUMPDEST PUSH0 PUSH2 0x19B PUSH1 0x21 DUP4 PUSH2 0x131 JUMP JUMPDEST SWAP2 POP PUSH2 0x1A6 DUP3 PUSH2 0x141 JUMP JUMPDEST PUSH1 0x40 DUP3 ADD SWAP1 POP SWAP2 SWAP1 POP JUMP JUMPDEST PUSH0 PUSH1 0x20 DUP3 ADD SWAP1 POP DUP2 DUP2 SUB PUSH0 DUP4 ADD MSTORE PUSH2 0x1C8 DUP2 PUSH2 0x18F JUMP JUMPDEST SWAP1 POP SWAP2 SWAP1 POP JUMP JUMPDEST PUSH1 0x80 MLOAD PUSH2 0x1685 PUSH2 0x1FC PUSH0 CODECOPY PUSH0 DUP2 DUP2 PUSH2 0x868 ADD MSTORE DUP2 DUP2 PUSH2 0x93C ADD MSTORE DUP2 DUP2 PUSH2 0x9E8 ADD MSTORE PUSH2 0xAD7 ADD MSTORE PUSH2 0x1685 PUSH0 RETURN INVALID PUSH1 0x80 PUSH1 0x40 MSTORE PUSH1 0x4 CALLDATASIZE LT PUSH2 0xC1 JUMPI PUSH0 CALLDATALOAD PUSH1 0xE0 SHR DUP1 PUSH4 0x84FC42E1 GT PUSH2 0x7E JUMPI DUP1 PUSH4 0xA7E3E2B8 GT PUSH2 0x58 JUMPI DUP1 PUSH4 0xA7E3E2B8 EQ PUSH2 0x242 JUMPI DUP1 PUSH4 0xB0208069 EQ PUSH2 0x27E JUMPI DUP1 PUSH4 0xED88C68E EQ PUSH2 0x288 JUMPI DUP1 PUSH4 0xFA6E687F EQ PUSH2 0x292 JUMPI PUSH2 0xC1 JUMP JUMPDEST DUP1 PUSH4 0x84FC42E1 EQ PUSH2 0x1C4 JUMPI DUP1 PUSH4 0x8DA5CB5B EQ PUSH2 0x1EE JUMPI DUP1 PUSH4 0x98E36B04 EQ PUSH2 0x218 JUMPI PUSH2 0xC1 JUMP JUMPDEST DUP1 PUSH4 0x2C3E6963 EQ PUSH2 0xC5 JUMPI DUP1 PUSH4 0x2D1E2518 EQ PUSH2 0x101 JUMPI DUP1 PUSH4 0x3CCFD60B EQ PUSH2 0x12C JUMPI DUP1 PUSH4 0x410A1D32 EQ PUSH2 0x136 JUMPI DUP1 PUSH4 0x54B602ED EQ PUSH2 0x172 JUMPI DUP1 PUSH4 0x6F9FB98A EQ PUSH2 0x19A JUMPI JUMPDEST PUSH0 PUSH0 REVERT JUMPDEST CALLVALUE DUP1 ISZERO PUSH2 0xD0 JUMPI PUSH0 PUSH0 REVERT JUMPDEST POP PUSH2 0xEB PUSH1 0x4 DUP1 CALLDATASIZE SUB DUP2 ADD SWAP1 PUSH2 0xE6 SWAP2 SWAP1 PUSH2 0xF97 JUMP JUMPDEST PUSH2 0x2BC JUMP JUMPDEST PUSH1 0x40 MLOAD PUSH2 0xF8 SWAP2 SWAP1 PUSH2 0x1001 JUMP JUMPDEST PUSH1 0x40 MLOAD DUP1 SWAP2 SUB SWAP1 RETURN JUMPDEST CALLVALUE DUP1 ISZERO PUSH2 0x10C JUMPI PUSH0 PUSH0 REVERT JUMPDEST POP PUSH2 0x115 PUSH2 0x2F7 JUMP JUMPDEST PUSH1 0x40 MLOAD PUSH2 0x123 SWAP3 SWAP2 SWAP1 PUSH2 0x1188 JUMP JUMPDEST PUSH1 0x40 MLOAD DUP1 SWAP2 SUB SWAP1 RETURN JUMPDEST PUSH2 0x134 PUSH2 0x866 JUMP JUMPDEST STOP JUMPDEST CALLVALUE DUP1 ISZERO PUSH2 0x141 JUMPI PUSH0 PUSH0 REVERT JUMPDEST POP PUSH2 0x15C PUSH1 0x4 DUP1 CALLDATASIZE SUB DUP2 ADD SWAP1 PUSH2 0x157 SWAP2 SWAP1 PUSH2 0x11E7 JUMP JUMPDEST PUSH2 0x9A1 JUMP JUMPDEST PUSH1 0x40 MLOAD PUSH2 0x169 SWAP2 SWAP1 PUSH2 0x1221 JUMP JUMPDEST PUSH1 0x40 MLOAD DUP1 SWAP2 SUB SWAP1 RETURN JUMPDEST CALLVALUE DUP1 ISZERO PUSH2 0x17D JUMPI PUSH0 PUSH0 REVERT JUMPDEST POP PUSH2 0x198 PUSH1 0x4 DUP1 CALLDATASIZE SUB DUP2 ADD SWAP1 PUSH2 0x193 SWAP2 SWAP1 PUSH2 0x123A JUMP JUMPDEST PUSH2 0x9E6 JUMP JUMPDEST STOP JUMPDEST CALLVALUE DUP1 ISZERO PUSH2 0x1A5 JUMPI PUSH0 PUSH0 REVERT JUMPDEST POP PUSH2 0x1AE PUSH2 0xAC8 JUMP JUMPDEST PUSH1 0x40 MLOAD PUSH2 0x1BB SWAP2 SWAP1 PUSH2 0x1221 JUMP JUMPDEST PUSH1 0x40 MLOAD DUP1 SWAP2 SUB SWAP1 RETURN JUMPDEST CALLVALUE DUP1 ISZERO PUSH2 0x1CF JUMPI PUSH0 PUSH0 REVERT JUMPDEST POP PUSH2 0x1D8 PUSH2 0xACF JUMP JUMPDEST PUSH1 0x40 MLOAD PUSH2 0x1E5 SWAP2 SWAP1 PUSH2 0x1221 JUMP JUMPDEST PUSH1 0x40 MLOAD DUP1 SWAP2 SUB SWAP1 RETURN JUMPDEST CALLVALUE DUP1 ISZERO PUSH2 0x1F9 JUMPI PUSH0 PUSH0 REVERT JUMPDEST POP PUSH2 0x202 PUSH2 0xAD5 JUMP JUMPDEST PUSH1 0x40 MLOAD PUSH2 0x20F SWAP2 SWAP1 PUSH2 0x1001 JUMP JUMPDEST PUSH1 0x40 MLOAD DUP1 SWAP2 SUB SWAP1 RETURN JUMPDEST CALLVALUE DUP1 ISZERO PUSH2 0x223 JUMPI PUSH0 PUSH0 REVERT JUMPDEST POP PUSH2 0x22C PUSH2 0xAF9 JUMP JUMPDEST PUSH1 0x40 MLOAD PUSH2 0x239 SWAP2 SWAP1 PUSH2 0x1278 JUMP JUMPDEST PUSH1 0x40 MLOAD DUP1 SWAP2 SUB SWAP1 RETURN JUMPDEST CALLVALUE DUP1 ISZERO PUSH2 0x24D JUMPI PUSH0 PUSH0 REVERT JUMPDEST POP PUSH2 0x268 PUSH1 0x4 DUP1 CALLDATASIZE SUB DUP2 ADD SWAP1 PUSH2 0x263 SWAP2 SWAP1 PUSH2 0x11E7 JUMP JUMPDEST PUSH2 0xB84 JUMP JUMPDEST PUSH1 0x40 MLOAD PUSH2 0x275 SWAP2 SWAP1 PUSH2 0x1221 JUMP JUMPDEST PUSH1 0x40 MLOAD DUP1 SWAP2 SUB SWAP1 RETURN JUMPDEST PUSH2 0x286 PUSH2 0xB98 JUMP JUMPDEST STOP JUMPDEST PUSH2 0x290 PUSH2 0xDD8 JUMP JUMPDEST STOP JUMPDEST CALLVALUE DUP1 ISZERO PUSH2 0x29D JUMPI PUSH0 PUSH0 REVERT JUMPDEST POP PUSH2 0x2A6 PUSH2 0xF16 JUMP JUMPDEST PUSH1 0x40 MLOAD PUSH2 0x2B3 SWAP2 SWAP1 PUSH2 0x1221 JUMP JUMPDEST PUSH1 0x40 MLOAD DUP1 SWAP2 SUB SWAP1 RETURN JUMPDEST PUSH1 0x3 DUP2 DUP2 SLOAD DUP2 LT PUSH2 0x2CB JUMPI PUSH0 DUP1 REVERT JUMPDEST SWAP1 PUSH0 MSTORE PUSH1 0x20 PUSH0 KECCAK256 ADD PUSH0 SWAP2 POP SLOAD SWAP1 PUSH2 0x100 EXP SWAP1 DIV PUSH20 0xFFFFFFFFFFFFFFFFFFFFFFFFFFFFFFFFFFFFFFFF AND DUP2 JUMP JUMPDEST PUSH1 0x60 DUP1 PUSH2 0x302 PUSH2 0xF1C JUMP JUMPDEST PUSH2 0x30A PUSH2 0xF3E JUMP JUMPDEST PUSH0 PUSH2 0x313 PUSH2 0xAF9 JUMP JUMPDEST SWAP1 POP PUSH0 PUSH0 SWAP1 POP JUMPDEST DUP2 MLOAD DUP2 LT ISZERO PUSH2 0x704 JUMPI PUSH0 DUP3 DUP3 DUP2 MLOAD DUP2 LT PUSH2 0x337 JUMPI PUSH2 0x336 PUSH2 0x1298 JUMP JUMPDEST JUMPDEST PUSH1 0x20 MUL PUSH1 0x20 ADD ADD MLOAD SWAP1 POP PUSH0 PUSH0 PUSH0 DUP4 PUSH20 0xFFFFFFFFFFFFFFFFFFFFFFFFFFFFFFFFFFFFFFFF AND PUSH20 0xFFFFFFFFFFFFFFFFFFFFFFFFFFFFFFFFFFFFFFFF AND DUP2 MSTORE PUSH1 0x20 ADD SWAP1 DUP2 MSTORE PUSH1 0x20 ADD PUSH0 KECCAK256 SLOAD SWAP1 POP DUP5 PUSH0 PUSH1 0x3 DUP2 LT PUSH2 0x394 JUMPI PUSH2 0x393 PUSH2 0x1298 JUMP JUMPDEST JUMPDEST PUSH1 0x20 MUL ADD MLOAD DUP2 GT ISZERO PUSH2 0x53F JUMPI DUP5 PUSH1 0x1 PUSH1 0x3 DUP2 LT PUSH2 0x3B4 JUMPI PUSH2 0x3B3 PUSH2 0x1298 JUMP JUMPDEST JUMPDEST PUSH1 0x20 MUL ADD MLOAD DUP6 PUSH1 0x2 PUSH1 0x3 DUP2 LT PUSH2 0x3CD JUMPI PUSH2 0x3CC PUSH2 0x1298 JUMP JUMPDEST JUMPDEST PUSH1 0x20 MUL ADD DUP2 DUP2 MSTORE POP POP DUP6 PUSH1 0x1 PUSH1 0x3 DUP2 LT PUSH2 0x3EA JUMPI PUSH2 0x3E9 PUSH2 0x1298 JUMP JUMPDEST JUMPDEST PUSH1 0x20 MUL ADD MLOAD DUP7 PUSH1 0x2 PUSH1 0x3 DUP2 LT PUSH2 0x403 JUMPI PUSH2 0x402 PUSH2 0x1298 JUMP JUMPDEST JUMPDEST PUSH1 0x20 MUL ADD SWAP1 PUSH20 0xFFFFFFFFFFFFFFFFFFFFFFFFFFFFFFFFFFFFFFFF AND SWAP1 DUP2 PUSH20 0xFFFFFFFFFFFFFFFFFFFFFFFFFFFFFFFFFFFFFFFF AND DUP2 MSTORE POP POP DUP5 PUSH0 PUSH1 0x3 DUP2 LT PUSH2 0x44D JUMPI PUSH2 0x44C PUSH2 0x1298 JUMP JUMPDEST JUMPDEST PUSH1 0x20 MUL ADD MLOAD DUP6 PUSH1 0x1 PUSH1 0x3 DUP2 LT PUSH2 0x466 JUMPI PUSH2 0x465 PUSH2 0x1298 JUMP JUMPDEST JUMPDEST PUSH1 0x20 MUL ADD DUP2 DUP2 MSTORE POP POP DUP6 PUSH0 PUSH1 0x3 DUP2 LT PUSH2 0x482 JUMPI PUSH2 0x481 PUSH2 0x1298 JUMP JUMPDEST JUMPDEST PUSH1 0x20 MUL ADD MLOAD DUP7 PUSH1 0x1 PUSH1 0x3 DUP2 LT PUSH2 0x49B JUMPI PUSH2 0x49A PUSH2 0x1298 JUMP JUMPDEST JUMPDEST PUSH1 0x20 MUL ADD SWAP1 PUSH20 0xFFFFFFFFFFFFFFFFFFFFFFFFFFFFFFFFFFFFFFFF AND SWAP1 DUP2 PUSH20 0xFFFFFFFFFFFFFFFFFFFFFFFFFFFFFFFFFFFFFFFF AND DUP2 MSTORE POP POP DUP1 DUP6 PUSH0 PUSH1 0x3 DUP2 LT PUSH2 0x4E6 JUMPI PUSH2 0x4E5 PUSH2 0x1298 JUMP JUMPDEST JUMPDEST PUSH1 0x20 MUL ADD DUP2 DUP2 MSTORE POP POP DUP2 DUP7 PUSH0 PUSH1 0x3 DUP2 LT PUSH2 0x503 JUMPI PUSH2 0x502 PUSH2 0x1298 JUMP JUMPDEST JUMPDEST PUSH1 0x20 MUL ADD SWAP1 PUSH20 0xFFFFFFFFFFFFFFFFFFFFFFFFFFFFFFFFFFFFFFFF AND SWAP1 DUP2 PUSH20 0xFFFFFFFFFFFFFFFFFFFFFFFFFFFFFFFFFFFFFFFF AND DUP2 MSTORE POP POP PUSH2 0x6F5 JUMP JUMPDEST DUP5 PUSH1 0x1 PUSH1 0x3 DUP2 LT PUSH2 0x553 JUMPI PUSH2 0x552 PUSH2 0x1298 JUMP JUMPDEST JUMPDEST PUSH1 0x20 MUL ADD MLOAD DUP2 GT ISZERO PUSH2 0x668 JUMPI DUP5 PUSH1 0x1 PUSH1 0x3 DUP2 LT PUSH2 0x573 JUMPI PUSH2 0x572 PUSH2 0x1298 JUMP JUMPDEST JUMPDEST PUSH1 0x20 MUL ADD MLOAD DUP6 PUSH1 0x2 PUSH1 0x3 DUP2 LT PUSH2 0x58C JUMPI PUSH2 0x58B PUSH2 0x1298 JUMP JUMPDEST JUMPDEST PUSH1 0x20 MUL ADD DUP2 DUP2 MSTORE POP POP DUP6 PUSH1 0x1 PUSH1 0x3 DUP2 LT PUSH2 0x5A9 JUMPI PUSH2 0x5A8 PUSH2 0x1298 JUMP JUMPDEST JUMPDEST PUSH1 0x20 MUL ADD MLOAD DUP7 PUSH1 0x2 PUSH1 0x3 DUP2 LT PUSH2 0x5C2 JUMPI PUSH2 0x5C1 PUSH2 0x1298 JUMP JUMPDEST JUMPDEST PUSH1 0x20 MUL ADD SWAP1 PUSH20 0xFFFFFFFFFFFFFFFFFFFFFFFFFFFFFFFFFFFFFFFF AND SWAP1 DUP2 PUSH20 0xFFFFFFFFFFFFFFFFFFFFFFFFFFFFFFFFFFFFFFFF AND DUP2 MSTORE POP POP DUP1 DUP6 PUSH1 0x1 PUSH1 0x3 DUP2 LT PUSH2 0x60E JUMPI PUSH2 0x60D PUSH2 0x1298 JUMP JUMPDEST JUMPDEST PUSH1 0x20 MUL ADD DUP2 DUP2 MSTORE POP POP DUP2 DUP7 PUSH1 0x1 PUSH1 0x3 DUP2 LT PUSH2 0x62C JUMPI PUSH2 0x62B PUSH2 0x1298 JUMP JUMPDEST JUMPDEST PUSH1 0x20 MUL ADD SWAP1 PUSH20 0xFFFFFFFFFFFFFFFFFFFFFFFFFFFFFFFFFFFFFFFF AND SWAP1 DUP2 PUSH20 0xFFFFFFFFFFFFFFFFFFFFFFFFFFFFFFFFFFFFFFFF AND DUP2 MSTORE POP POP PUSH2 0x6F4 JUMP JUMPDEST DUP5 PUSH1 0x2 PUSH1 0x3 DUP2 LT PUSH2 0x67C JUMPI PUSH2 0x67B PUSH2 0x1298 JUMP JUMPDEST JUMPDEST PUSH1 0x20 MUL ADD MLOAD DUP2 GT ISZERO PUSH2 0x6F3 JUMPI DUP1 DUP6 PUSH1 0x2 PUSH1 0x3 DUP2 LT PUSH2 0x69D JUMPI PUSH2 0x69C PUSH2 0x1298 JUMP JUMPDEST JUMPDEST PUSH1 0x20 MUL ADD DUP2 DUP2 MSTORE POP POP DUP2 DUP7 PUSH1 0x2 PUSH1 0x3 DUP2 LT PUSH2 0x6BB JUMPI PUSH2 0x6BA PUSH2 0x1298 JUMP JUMPDEST JUMPDEST PUSH1 0x20 MUL ADD SWAP1 PUSH20 0xFFFFFFFFFFFFFFFFFFFFFFFFFFFFFFFFFFFFFFFF AND SWAP1 DUP2 PUSH20 0xFFFFFFFFFFFFFFFFFFFFFFFFFFFFFFFFFFFFFFFF AND DUP2 MSTORE POP POP JUMPDEST JUMPDEST JUMPDEST POP POP DUP1 DUP1 PUSH1 0x1 ADD SWAP2 POP POP PUSH2 0x31A JUMP JUMPDEST POP PUSH0 PUSH1 0x3 PUSH8 0xFFFFFFFFFFFFFFFF DUP2 GT ISZERO PUSH2 0x721 JUMPI PUSH2 0x720 PUSH2 0x12C5 JUMP JUMPDEST JUMPDEST PUSH1 0x40 MLOAD SWAP1 DUP1 DUP3 MSTORE DUP1 PUSH1 0x20 MUL PUSH1 0x20 ADD DUP3 ADD PUSH1 0x40 MSTORE DUP1 ISZERO PUSH2 0x74F JUMPI DUP2 PUSH1 0x20 ADD PUSH1 0x20 DUP3 MUL DUP1 CALLDATASIZE DUP4 CALLDATACOPY DUP1 DUP3 ADD SWAP2 POP POP SWAP1 POP JUMPDEST POP SWAP1 POP PUSH0 PUSH1 0x3 PUSH8 0xFFFFFFFFFFFFFFFF DUP2 GT ISZERO PUSH2 0x76E JUMPI PUSH2 0x76D PUSH2 0x12C5 JUMP JUMPDEST JUMPDEST PUSH1 0x40 MLOAD SWAP1 DUP1 DUP3 MSTORE DUP1 PUSH1 0x20 MUL PUSH1 0x20 ADD DUP3 ADD PUSH1 0x40 MSTORE DUP1 ISZERO PUSH2 0x79C JUMPI DUP2 PUSH1 0x20 ADD PUSH1 0x20 DUP3 MUL DUP1 CALLDATASIZE DUP4 CALLDATACOPY DUP1 DUP3 ADD SWAP2 POP POP SWAP1 POP JUMPDEST POP SWAP1 POP PUSH0 PUSH0 SWAP1 POP JUMPDEST PUSH1 0x3 DUP2 LT ISZERO PUSH2 0x856 JUMPI DUP6 DUP2 PUSH1 0x3 DUP2 LT PUSH2 0x7C0 JUMPI PUSH2 0x7BF PUSH2 0x1298 JUMP JUMPDEST JUMPDEST PUSH1 0x20 MUL ADD MLOAD DUP4 DUP3 DUP2 MLOAD DUP2 LT PUSH2 0x7D8 JUMPI PUSH2 0x7D7 PUSH2 0x1298 JUMP JUMPDEST JUMPDEST PUSH1 0x20 MUL PUSH1 0x20 ADD ADD SWAP1 PUSH20 0xFFFFFFFFFFFFFFFFFFFFFFFFFFFFFFFFFFFFFFFF AND SWAP1 DUP2 PUSH20 0xFFFFFFFFFFFFFFFFFFFFFFFFFFFFFFFFFFFFFFFF AND DUP2 MSTORE POP POP DUP5 DUP2 PUSH1 0x3 DUP2 LT PUSH2 0x825 JUMPI PUSH2 0x824 PUSH2 0x1298 JUMP JUMPDEST JUMPDEST PUSH1 0x20 MUL ADD MLOAD DUP3 DUP3 DUP2 MLOAD DUP2 LT PUSH2 0x83D JUMPI PUSH2 0x83C PUSH2 0x1298 JUMP JUMPDEST JUMPDEST PUSH1 0x20 MUL PUSH1 0x20 ADD ADD DUP2 DUP2 MSTORE POP POP DUP1 DUP1 PUSH1 0x1 ADD SWAP2 POP POP PUSH2 0x7A4 JUMP JUMPDEST POP DUP2 DUP2 SWAP7 POP SWAP7 POP POP POP POP POP POP SWAP1 SWAP2 JUMP JUMPDEST PUSH32 0x0 PUSH20 0xFFFFFFFFFFFFFFFFFFFFFFFFFFFFFFFFFFFFFFFF AND CALLER PUSH20 0xFFFFFFFFFFFFFFFFFFFFFFFFFFFFFFFFFFFFFFFF AND EQ PUSH2 0x8F4 JUMPI PUSH1 0x40 MLOAD PUSH32 0x8C379A000000000000000000000000000000000000000000000000000000000 DUP2 MSTORE PUSH1 0x4 ADD PUSH2 0x8EB SWAP1 PUSH2 0x1372 JUMP JUMPDEST PUSH1 0x40 MLOAD DUP1 SWAP2 SUB SWAP1 REVERT JUMPDEST PUSH0 SELFBALANCE SWAP1 POP PUSH0 DUP2 GT PUSH2 0x93A JUMPI PUSH1 0x40 MLOAD PUSH32 0x8C379A000000000000000000000000000000000000000000000000000000000 DUP2 MSTORE PUSH1 0x4 ADD PUSH2 0x931 SWAP1 PUSH2 0x1400 JUMP JUMPDEST PUSH1 0x40 MLOAD DUP1 SWAP2 SUB SWAP1 REVERT JUMPDEST PUSH32 0x0 PUSH20 0xFFFFFFFFFFFFFFFFFFFFFFFFFFFFFFFFFFFFFFFF AND PUSH2 0x8FC DUP3 SWAP1 DUP2 ISZERO MUL SWAP1 PUSH1 0x40 MLOAD PUSH0 PUSH1 0x40 MLOAD DUP1 DUP4 SUB DUP2 DUP6 DUP9 DUP9 CALL SWAP4 POP POP POP POP ISZERO DUP1 ISZERO PUSH2 0x99D JUMPI RETURNDATASIZE PUSH0 PUSH0 RETURNDATACOPY RETURNDATASIZE PUSH0 REVERT JUMPDEST POP POP JUMP JUMPDEST PUSH0 PUSH0 PUSH0 DUP4 PUSH20 0xFFFFFFFFFFFFFFFFFFFFFFFFFFFFFFFFFFFFFFFF AND PUSH20 0xFFFFFFFFFFFFFFFFFFFFFFFFFFFFFFFFFFFFFFFF AND DUP2 MSTORE PUSH1 0x20 ADD SWAP1 DUP2 MSTORE PUSH1 0x20 ADD PUSH0 KECCAK256 SLOAD SWAP1 POP SWAP2 SWAP1 POP JUMP JUMPDEST PUSH32 0x0 PUSH20 0xFFFFFFFFFFFFFFFFFFFFFFFFFFFFFFFFFFFFFFFF AND CALLER PUSH20 0xFFFFFFFFFFFFFFFFFFFFFFFFFFFFFFFFFFFFFFFF AND EQ PUSH2 0xA74 JUMPI PUSH1 0x40 MLOAD PUSH32 0x8C379A000000000000000000000000000000000000000000000000000000000 DUP2 MSTORE PUSH1 0x4 ADD PUSH2 0xA6B SWAP1 PUSH2 0x1372 JUMP JUMPDEST PUSH1 0x40 MLOAD DUP1 SWAP2 SUB SWAP1 REVERT JUMPDEST DUP2 DUP2 GT PUSH2 0xAB6 JUMPI PUSH1 0x40 MLOAD PUSH32 0x8C379A000000000000000000000000000000000000000000000000000000000 DUP2 MSTORE PUSH1 0x4 ADD PUSH2 0xAAD SWAP1 PUSH2 0x148E JUMP JUMPDEST PUSH1 0x40 MLOAD DUP1 SWAP2 SUB SWAP1 REVERT JUMPDEST DUP2 PUSH1 0x1 DUP2 SWAP1 SSTORE POP DUP1 PUSH1 0x2 DUP2 SWAP1 SSTORE POP POP POP JUMP JUMPDEST PUSH0 SELFBALANCE SWAP1 POP SWAP1 JUMP JUMPDEST PUSH1 0x2 SLOAD DUP2 JUMP JUMPDEST PUSH32 0x0 DUP2 JUMP JUMPDEST PUSH1 0x60 PUSH1 0x3 DUP1 SLOAD DUP1 PUSH1 0x20 MUL PUSH1 0x20 ADD PUSH1 0x40 MLOAD SWAP1 DUP2 ADD PUSH1 0x40 MSTORE DUP1 SWAP3 SWAP2 SWAP1 DUP2 DUP2 MSTORE PUSH1 0x20 ADD DUP3 DUP1 SLOAD DUP1 ISZERO PUSH2 0xB7A JUMPI PUSH1 0x20 MUL DUP3 ADD SWAP2 SWAP1 PUSH0 MSTORE PUSH1 0x20 PUSH0 KECCAK256 SWAP1 JUMPDEST DUP2 PUSH0 SWAP1 SLOAD SWAP1 PUSH2 0x100 EXP SWAP1 DIV PUSH20 0xFFFFFFFFFFFFFFFFFFFFFFFFFFFFFFFFFFFFFFFF AND PUSH20 0xFFFFFFFFFFFFFFFFFFFFFFFFFFFFFFFFFFFFFFFF AND DUP2 MSTORE PUSH1 0x20 ADD SWAP1 PUSH1 0x1 ADD SWAP1 DUP1 DUP4 GT PUSH2 0xB31 JUMPI JUMPDEST POP POP POP POP POP SWAP1 POP SWAP1 JUMP JUMPDEST PUSH0 PUSH1 0x20 MSTORE DUP1 PUSH0 MSTORE PUSH1 0x40 PUSH0 KECCAK256 PUSH0 SWAP2 POP SWAP1 POP SLOAD DUP2 JUMP JUMPDEST PUSH0 TIMESTAMP SWAP1 POP PUSH1 0x1 SLOAD DUP2 LT ISZERO DUP1 ISZERO PUSH2 0xBB0 JUMPI POP PUSH1 0x2 SLOAD DUP2 GT ISZERO JUMPDEST PUSH2 0xBEF JUMPI PUSH1 0x40 MLOAD PUSH32 0x8C379A000000000000000000000000000000000000000000000000000000000 DUP2 MSTORE PUSH1 0x4 ADD PUSH2 0xBE6 SWAP1 PUSH2 0x151C JUMP JUMPDEST PUSH1 0x40 MLOAD DUP1 SWAP2 SUB SWAP1 REVERT JUMPDEST PUSH0 CALLVALUE GT PUSH2 0xC31 JUMPI PUSH1 0x40 MLOAD PUSH32 0x8C379A000000000000000000000000000000000000000000000000000000000 DUP2 MSTORE PUSH1 0x4 ADD PUSH2 0xC28 SWAP1 PUSH2 0x15AA JUMP JUMPDEST PUSH1 0x40 MLOAD DUP1 SWAP2 SUB SWAP1 REVERT JUMPDEST CALLVALUE PUSH0 PUSH0 CALLER PUSH20 0xFFFFFFFFFFFFFFFFFFFFFFFFFFFFFFFFFFFFFFFF AND PUSH20 0xFFFFFFFFFFFFFFFFFFFFFFFFFFFFFFFFFFFFFFFF AND DUP2 MSTORE PUSH1 0x20 ADD SWAP1 DUP2 MSTORE PUSH1 0x20 ADD PUSH0 KECCAK256 PUSH0 DUP3 DUP3 SLOAD PUSH2 0xC7C SWAP2 SWAP1 PUSH2 0x15F5 JUMP JUMPDEST SWAP3 POP POP DUP2 SWAP1 SSTORE POP PUSH0 PUSH0 SWAP1 POP PUSH0 PUSH0 SWAP1 POP JUMPDEST PUSH1 0x3 DUP1 SLOAD SWAP1 POP DUP2 LT ISZERO PUSH2 0xD1D JUMPI CALLER PUSH20 0xFFFFFFFFFFFFFFFFFFFFFFFFFFFFFFFFFFFFFFFF AND PUSH1 0x3 DUP3 DUP2 SLOAD DUP2 LT PUSH2 0xCC4 JUMPI PUSH2 0xCC3 PUSH2 0x1298 JUMP JUMPDEST JUMPDEST SWAP1 PUSH0 MSTORE PUSH1 0x20 PUSH0 KECCAK256 ADD PUSH0 SWAP1 SLOAD SWAP1 PUSH2 0x100 EXP SWAP1 DIV PUSH20 0xFFFFFFFFFFFFFFFFFFFFFFFFFFFFFFFFFFFFFFFF AND PUSH20 0xFFFFFFFFFFFFFFFFFFFFFFFFFFFFFFFFFFFFFFFF AND SUB PUSH2 0xD10 JUMPI PUSH1 0x1 SWAP2 POP PUSH2 0xD1D JUMP JUMPDEST DUP1 DUP1 PUSH1 0x1 ADD SWAP2 POP POP PUSH2 0xC8C JUMP JUMPDEST POP DUP1 PUSH2 0xD84 JUMPI PUSH1 0x3 CALLER SWAP1 DUP1 PUSH1 0x1 DUP2 SLOAD ADD DUP1 DUP3 SSTORE DUP1 SWAP2 POP POP PUSH1 0x1 SWAP1 SUB SWAP1 PUSH0 MSTORE PUSH1 0x20 PUSH0 KECCAK256 ADD PUSH0 SWAP1 SWAP2 SWAP1 SWAP2 SWAP1 SWAP2 PUSH2 0x100 EXP DUP2 SLOAD DUP2 PUSH20 0xFFFFFFFFFFFFFFFFFFFFFFFFFFFFFFFFFFFFFFFF MUL NOT AND SWAP1 DUP4 PUSH20 0xFFFFFFFFFFFFFFFFFFFFFFFFFFFFFFFFFFFFFFFF AND MUL OR SWAP1 SSTORE POP JUMPDEST CALLER PUSH20 0xFFFFFFFFFFFFFFFFFFFFFFFFFFFFFFFFFFFFFFFF AND PUSH32 0x106AAC375BBCF013D1E52338BBF9E740009A1A3A6869F8DAA1B72AA1620F5FEC CALLVALUE TIMESTAMP PUSH1 0x40 MLOAD PUSH2 0xDCC SWAP3 SWAP2 SWAP1 PUSH2 0x1628 JUMP JUMPDEST PUSH1 0x40 MLOAD DUP1 SWAP2 SUB SWAP1 LOG2 POP POP JUMP JUMPDEST PUSH0 TIMESTAMP SWAP1 POP PUSH1 0x1 SLOAD DUP2 LT ISZERO DUP1 ISZERO PUSH2 0xDF0 JUMPI POP PUSH1 0x2 SLOAD DUP2 GT ISZERO JUMPDEST PUSH2 0xE2F JUMPI PUSH1 0x40 MLOAD PUSH32 0x8C379A000000000000000000000000000000000000000000000000000000000 DUP2 MSTORE PUSH1 0x4 ADD PUSH2 0xE26 SWAP1 PUSH2 0x151C JUMP JUMPDEST PUSH1 0x40 MLOAD DUP1 SWAP2 SUB SWAP1 REVERT JUMPDEST PUSH0 CALLVALUE GT PUSH2 0xE71 JUMPI PUSH1 0x40 MLOAD PUSH32 0x8C379A000000000000000000000000000000000000000000000000000000000 DUP2 MSTORE PUSH1 0x4 ADD PUSH2 0xE68 SWAP1 PUSH2 0x15AA JUMP JUMPDEST PUSH1 0x40 MLOAD DUP1 SWAP2 SUB SWAP1 REVERT JUMPDEST CALLVALUE PUSH0 PUSH0 CALLER PUSH20 0xFFFFFFFFFFFFFFFFFFFFFFFFFFFFFFFFFFFFFFFF AND PUSH20 0xFFFFFFFFFFFFFFFFFFFFFFFFFFFFFFFFFFFFFFFF AND DUP2 MSTORE PUSH1 0x20 ADD SWAP1 DUP2 MSTORE PUSH1 0x20 ADD PUSH0 KECCAK256 PUSH0 DUP3 DUP3 SLOAD PUSH2 0xEBC SWAP2 SWAP1 PUSH2 0x15F5 JUMP JUMPDEST SWAP3 POP POP DUP2 SWAP1 SSTORE POP CALLER PUSH20 0xFFFFFFFFFFFFFFFFFFFFFFFFFFFFFFFFFFFFFFFF AND PUSH32 0x106AAC375BBCF013D1E52338BBF9E740009A1A3A6869F8DAA1B72AA1620F5FEC CALLVALUE TIMESTAMP PUSH1 0x40 MLOAD PUSH2 0xF0B SWAP3 SWAP2 SWAP1 PUSH2 0x1628 JUMP JUMPDEST PUSH1 0x40 MLOAD DUP1 SWAP2 SUB SWAP1 LOG2 POP JUMP JUMPDEST PUSH1 0x1 SLOAD DUP2 JUMP JUMPDEST PUSH1 0x40 MLOAD DUP1 PUSH1 0x60 ADD PUSH1 0x40 MSTORE DUP1 PUSH1 0x3 SWAP1 PUSH1 0x20 DUP3 MUL DUP1 CALLDATASIZE DUP4 CALLDATACOPY DUP1 DUP3 ADD SWAP2 POP POP SWAP1 POP POP SWAP1 JUMP JUMPDEST PUSH1 0x40 MLOAD DUP1 PUSH1 0x60 ADD PUSH1 0x40 MSTORE DUP1 PUSH1 0x3 SWAP1 PUSH1 0x20 DUP3 MUL DUP1 CALLDATASIZE DUP4 CALLDATACOPY DUP1 DUP3 ADD SWAP2 POP POP SWAP1 POP POP SWAP1 JUMP JUMPDEST PUSH0 PUSH0 REVERT JUMPDEST PUSH0 DUP2 SWAP1 POP SWAP2 SWAP1 POP JUMP JUMPDEST PUSH2 0xF76 DUP2 PUSH2 0xF64 JUMP JUMPDEST DUP2 EQ PUSH2 0xF80 JUMPI PUSH0 PUSH0 REVERT JUMPDEST POP JUMP JUMPDEST PUSH0 DUP2 CALLDATALOAD SWAP1 POP PUSH2 0xF91 DUP2 PUSH2 0xF6D JUMP JUMPDEST SWAP3 SWAP2 POP POP JUMP JUMPDEST PUSH0 PUSH1 0x20 DUP3 DUP5 SUB SLT ISZERO PUSH2 0xFAC JUMPI PUSH2 0xFAB PUSH2 0xF60 JUMP JUMPDEST JUMPDEST PUSH0 PUSH2 0xFB9 DUP5 DUP3 DUP6 ADD PUSH2 0xF83 JUMP JUMPDEST SWAP2 POP POP SWAP3 SWAP2 POP POP JUMP JUMPDEST PUSH0 PUSH20 0xFFFFFFFFFFFFFFFFFFFFFFFFFFFFFFFFFFFFFFFF DUP3 AND SWAP1 POP SWAP2 SWAP1 POP JUMP JUMPDEST PUSH0 PUSH2 0xFEB DUP3 PUSH2 0xFC2 JUMP JUMPDEST SWAP1 POP SWAP2 SWAP1 POP JUMP JUMPDEST PUSH2 0xFFB DUP2 PUSH2 0xFE1 JUMP JUMPDEST DUP3 MSTORE POP POP JUMP JUMPDEST PUSH0 PUSH1 0x20 DUP3 ADD SWAP1 POP PUSH2 0x1014 PUSH0 DUP4 ADD DUP5 PUSH2 0xFF2 JUMP JUMPDEST SWAP3 SWAP2 POP POP JUMP JUMPDEST PUSH0 DUP2 MLOAD SWAP1 POP SWAP2 SWAP1 POP JUMP JUMPDEST PUSH0 DUP3 DUP3 MSTORE PUSH1 0x20 DUP3 ADD SWAP1 POP SWAP3 SWAP2 POP POP JUMP JUMPDEST PUSH0 DUP2 SWAP1 POP PUSH1 0x20 DUP3 ADD SWAP1 POP SWAP2 SWAP1 POP JUMP JUMPDEST PUSH2 0x104C DUP2 PUSH2 0xFE1 JUMP JUMPDEST DUP3 MSTORE POP POP JUMP JUMPDEST PUSH0 PUSH2 0x105D DUP4 DUP4 PUSH2 0x1043 JUMP JUMPDEST PUSH1 0x20 DUP4 ADD SWAP1 POP SWAP3 SWAP2 POP POP JUMP JUMPDEST PUSH0 PUSH1 0x20 DUP3 ADD SWAP1 POP SWAP2 SWAP1 POP JUMP JUMPDEST PUSH0 PUSH2 0x107F DUP3 PUSH2 0x101A JUMP JUMPDEST PUSH2 0x1089 DUP2 DUP6 PUSH2 0x1024 JUMP JUMPDEST SWAP4 POP PUSH2 0x1094 DUP4 PUSH2 0x1034 JUMP JUMPDEST DUP1 PUSH0 JUMPDEST DUP4 DUP2 LT ISZERO PUSH2 0x10C4 JUMPI DUP2 MLOAD PUSH2 0x10AB DUP9 DUP3 PUSH2 0x1052 JUMP JUMPDEST SWAP8 POP PUSH2 0x10B6 DUP4 PUSH2 0x1069 JUMP JUMPDEST SWAP3 POP POP PUSH1 0x1 DUP2 ADD SWAP1 POP PUSH2 0x1097 JUMP JUMPDEST POP DUP6 SWAP4 POP POP POP POP SWAP3 SWAP2 POP POP JUMP JUMPDEST PUSH0 DUP2 MLOAD SWAP1 POP SWAP2 SWAP1 POP JUMP JUMPDEST PUSH0 DUP3 DUP3 MSTORE PUSH1 0x20 DUP3 ADD SWAP1 POP SWAP3 SWAP2 POP POP JUMP JUMPDEST PUSH0 DUP2 SWAP1 POP PUSH1 0x20 DUP3 ADD SWAP1 POP SWAP2 SWAP1 POP JUMP JUMPDEST PUSH2 0x1103 DUP2 PUSH2 0xF64 JUMP JUMPDEST DUP3 MSTORE POP POP JUMP JUMPDEST PUSH0 PUSH2 0x1114 DUP4 DUP4 PUSH2 0x10FA JUMP JUMPDEST PUSH1 0x20 DUP4 ADD SWAP1 POP SWAP3 SWAP2 POP POP JUMP JUMPDEST PUSH0 PUSH1 0x20 DUP3 ADD SWAP1 POP SWAP2 SWAP1 POP JUMP JUMPDEST PUSH0 PUSH2 0x1136 DUP3 PUSH2 0x10D1 JUMP JUMPDEST PUSH2 0x1140 DUP2 DUP6 PUSH2 0x10DB JUMP JUMPDEST SWAP4 POP PUSH2 0x114B DUP4 PUSH2 0x10EB JUMP JUMPDEST DUP1 PUSH0 JUMPDEST DUP4 DUP2 LT ISZERO PUSH2 0x117B JUMPI DUP2 MLOAD PUSH2 0x1162 DUP9 DUP3 PUSH2 0x1109 JUMP JUMPDEST SWAP8 POP PUSH2 0x116D DUP4 PUSH2 0x1120 JUMP JUMPDEST SWAP3 POP POP PUSH1 0x1 DUP2 ADD SWAP1 POP PUSH2 0x114E JUMP JUMPDEST POP DUP6 SWAP4 POP POP POP POP SWAP3 SWAP2 POP POP JUMP JUMPDEST PUSH0 PUSH1 0x40 DUP3 ADD SWAP1 POP DUP2 DUP2 SUB PUSH0 DUP4 ADD MSTORE PUSH2 0x11A0 DUP2 DUP6 PUSH2 0x1075 JUMP JUMPDEST SWAP1 POP DUP2 DUP2 SUB PUSH1 0x20 DUP4 ADD MSTORE PUSH2 0x11B4 DUP2 DUP5 PUSH2 0x112C JUMP JUMPDEST SWAP1 POP SWAP4 SWAP3 POP POP POP JUMP JUMPDEST PUSH2 0x11C6 DUP2 PUSH2 0xFE1 JUMP JUMPDEST DUP2 EQ PUSH2 0x11D0 JUMPI PUSH0 PUSH0 REVERT JUMPDEST POP JUMP JUMPDEST PUSH0 DUP2 CALLDATALOAD SWAP1 POP PUSH2 0x11E1 DUP2 PUSH2 0x11BD JUMP JUMPDEST SWAP3 SWAP2 POP POP JUMP JUMPDEST PUSH0 PUSH1 0x20 DUP3 DUP5 SUB SLT ISZERO PUSH2 0x11FC JUMPI PUSH2 0x11FB PUSH2 0xF60 JUMP JUMPDEST JUMPDEST PUSH0 PUSH2 0x1209 DUP5 DUP3 DUP6 ADD PUSH2 0x11D3 JUMP JUMPDEST SWAP2 POP POP SWAP3 SWAP2 POP POP JUMP JUMPDEST PUSH2 0x121B DUP2 PUSH2 0xF64 JUMP JUMPDEST DUP3 MSTORE POP POP JUMP JUMPDEST PUSH0 PUSH1 0x20 DUP3 ADD SWAP1 POP PUSH2 0x1234 PUSH0 DUP4 ADD DUP5 PUSH2 0x1212 JUMP JUMPDEST SWAP3 SWAP2 POP POP JUMP JUMPDEST PUSH0 PUSH0 PUSH1 0x40 DUP4 DUP6 SUB SLT ISZERO PUSH2 0x1250 JUMPI PUSH2 0x124F PUSH2 0xF60 JUMP JUMPDEST JUMPDEST PUSH0 PUSH2 0x125D DUP6 DUP3 DUP7 ADD PUSH2 0xF83 JUMP JUMPDEST SWAP3 POP POP PUSH1 0x20 PUSH2 0x126E DUP6 DUP3 DUP7 ADD PUSH2 0xF83 JUMP JUMPDEST SWAP2 POP POP SWAP3 POP SWAP3 SWAP1 POP JUMP JUMPDEST PUSH0 PUSH1 0x20 DUP3 ADD SWAP1 POP DUP2 DUP2 SUB PUSH0 DUP4 ADD MSTORE PUSH2 0x1290 DUP2 DUP5 PUSH2 0x1075 JUMP JUMPDEST SWAP1 POP SWAP3 SWAP2 POP POP JUMP JUMPDEST PUSH32 0x4E487B7100000000000000000000000000000000000000000000000000000000 PUSH0 MSTORE PUSH1 0x32 PUSH1 0x4 MSTORE PUSH1 0x24 PUSH0 REVERT JUMPDEST PUSH32 0x4E487B7100000000000000000000000000000000000000000000000000000000 PUSH0 MSTORE PUSH1 0x41 PUSH1 0x4 MSTORE PUSH1 0x24 PUSH0 REVERT JUMPDEST PUSH0 DUP3 DUP3 MSTORE PUSH1 0x20 DUP3 ADD SWAP1 POP SWAP3 SWAP2 POP POP JUMP JUMPDEST PUSH32 0x4F6E6C79206F776E65722063616E2063616C6C20746869732066756E6374696F PUSH0 DUP3 ADD MSTORE PUSH32 0x6E00000000000000000000000000000000000000000000000000000000000000 PUSH1 0x20 DUP3 ADD MSTORE POP JUMP JUMPDEST PUSH0 PUSH2 0x135C PUSH1 0x21 DUP4 PUSH2 0x12F2 JUMP JUMPDEST SWAP2 POP PUSH2 0x1367 DUP3 PUSH2 0x1302 JUMP JUMPDEST PUSH1 0x40 DUP3 ADD SWAP1 POP SWAP2 SWAP1 POP JUMP JUMPDEST PUSH0 PUSH1 0x20 DUP3 ADD SWAP1 POP DUP2 DUP2 SUB PUSH0 DUP4 ADD MSTORE PUSH2 0x1389 DUP2 PUSH2 0x1350 JUMP JUMPDEST SWAP1 POP SWAP2 SWAP1 POP JUMP JUMPDEST PUSH32 0x436F6E747261637420686173206E6F2066756E647320746F2077697468647261 PUSH0 DUP3 ADD MSTORE PUSH32 0x7700000000000000000000000000000000000000000000000000000000000000 PUSH1 0x20 DUP3 ADD MSTORE POP JUMP JUMPDEST PUSH0 PUSH2 0x13EA PUSH1 0x21 DUP4 PUSH2 0x12F2 JUMP JUMPDEST SWAP2 POP PUSH2 0x13F5 DUP3 PUSH2 0x1390 JUMP JUMPDEST PUSH1 0x40 DUP3 ADD SWAP1 POP SWAP2 SWAP1 POP JUMP JUMPDEST PUSH0 PUSH1 0x20 DUP3 ADD SWAP1 POP DUP2 DUP2 SUB PUSH0 DUP4 ADD MSTORE PUSH2 0x1417 DUP2 PUSH2 0x13DE JUMP JUMPDEST SWAP1 POP SWAP2 SWAP1 POP JUMP JUMPDEST PUSH32 0x456E642074696D65206D7573742062652061667465722073746172742074696D PUSH0 DUP3 ADD MSTORE PUSH32 0x6500000000000000000000000000000000000000000000000000000000000000 PUSH1 0x20 DUP3 ADD MSTORE POP JUMP JUMPDEST PUSH0 PUSH2 0x1478 PUSH1 0x21 DUP4 PUSH2 0x12F2 JUMP JUMPDEST SWAP2 POP PUSH2 0x1483 DUP3 PUSH2 0x141E JUMP JUMPDEST PUSH1 0x40 DUP3 ADD SWAP1 POP SWAP2 SWAP1 POP JUMP JUMPDEST PUSH0 PUSH1 0x20 DUP3 ADD SWAP1 POP DUP2 DUP2 SUB PUSH0 DUP4 ADD MSTORE PUSH2 0x14A5 DUP2 PUSH2 0x146C JUMP JUMPDEST SWAP1 POP SWAP2 SWAP1 POP JUMP JUMPDEST PUSH32 0x446F6E6174696F6E206973206E6F7420616C6C6F776564206174207468697320 PUSH0 DUP3 ADD MSTORE PUSH32 0x74696D6520286F7574206F6620706572696F6429000000000000000000000000 PUSH1 0x20 DUP3 ADD MSTORE POP JUMP JUMPDEST PUSH0 PUSH2 0x1506 PUSH1 0x34 DUP4 PUSH2 0x12F2 JUMP JUMPDEST SWAP2 POP PUSH2 0x1511 DUP3 PUSH2 0x14AC JUMP JUMPDEST PUSH1 0x40 DUP3 ADD SWAP1 POP SWAP2 SWAP1 POP JUMP JUMPDEST PUSH0 PUSH1 0x20 DUP3 ADD SWAP1 POP DUP2 DUP2 SUB PUSH0 DUP4 ADD MSTORE PUSH2 0x1533 DUP2 PUSH2 0x14FA JUMP JUMPDEST SWAP1 POP SWAP2 SWAP1 POP JUMP JUMPDEST PUSH32 0x446F6E6174696F6E20616D6F756E74206D757374206265206772656174657220 PUSH0 DUP3 ADD MSTORE PUSH32 0x7468616E20300000000000000000000000000000000000000000000000000000 PUSH1 0x20 DUP3 ADD MSTORE POP JUMP JUMPDEST PUSH0 PUSH2 0x1594 PUSH1 0x26 DUP4 PUSH2 0x12F2 JUMP JUMPDEST SWAP2 POP PUSH2 0x159F DUP3 PUSH2 0x153A JUMP JUMPDEST PUSH1 0x40 DUP3 ADD SWAP1 POP SWAP2 SWAP1 POP JUMP JUMPDEST PUSH0 PUSH1 0x20 DUP3 ADD SWAP1 POP DUP2 DUP2 SUB PUSH0 DUP4 ADD MSTORE PUSH2 0x15C1 DUP2 PUSH2 0x1588 JUMP JUMPDEST SWAP1 POP SWAP2 SWAP1 POP JUMP JUMPDEST PUSH32 0x4E487B7100000000000000000000000000000000000000000000000000000000 PUSH0 MSTORE PUSH1 0x11 PUSH1 0x4 MSTORE PUSH1 0x24 PUSH0 REVERT JUMPDEST PUSH0 PUSH2 0x15FF DUP3 PUSH2 0xF64 JUMP JUMPDEST SWAP2 POP PUSH2 0x160A DUP4 PUSH2 0xF64 JUMP JUMPDEST SWAP3 POP DUP3 DUP3 ADD SWAP1 POP DUP1 DUP3 GT ISZERO PUSH2 0x1622 JUMPI PUSH2 0x1621 PUSH2 0x15C8 JUMP JUMPDEST JUMPDEST SWAP3 SWAP2 POP POP JUMP JUMPDEST PUSH0 PUSH1 0x40 DUP3 ADD SWAP1 POP PUSH2 0x163B PUSH0 DUP4 ADD DUP6 PUSH2 0x1212 JUMP JUMPDEST PUSH2 0x1648 PUSH1 0x20 DUP4 ADD DUP5 PUSH2 0x1212 JUMP JUMPDEST SWAP4 SWAP3 POP POP POP JUMP INVALID LOG2 PUSH5 0x6970667358 0x22 SLT KECCAK256 SWAP8 DUP10 0xB5 DUP5 0xD0 BALANCE LOG3 SAR NOT MSTORE8 LOG4 0xDE BLOBBASEFEE AND OR MSTORE8 RETURN PUSH4 0x8049F905 PUSH20 0x3C2AD2C22F348128C764736F6C634300081E0033 "
				},
				"gasEstimates": {
					"creation": {
						"codeDepositCost": "1153000",
						"executionCost": "infinite",
						"totalCost": "infinite"
					},
					"external": {
						"allDonors(uint256)": "4945",
						"donate()": "infinite",
						"donateEndTime()": "2448",
						"donateStartTime()": "2513",
						"donateWithDonorRecord()": "infinite",
						"donationRecords(address)": "2823",
						"getAllDonors()": "infinite",
						"getContractBalance()": "445",
						"getDonation(address)": "2895",
						"getTop3Donors()": "infinite",
						"owner()": "infinite",
						"updateDonationPeriod(uint256,uint256)": "infinite",
						"withdraw()": "infinite"
					}
				},
				"methodIdentifiers": {
					"allDonors(uint256)": "2c3e6963",
					"donate()": "ed88c68e",
					"donateEndTime()": "84fc42e1",
					"donateStartTime()": "fa6e687f",
					"donateWithDonorRecord()": "b0208069",
					"donationRecords(address)": "a7e3e2b8",
					"getAllDonors()": "98e36b04",
					"getContractBalance()": "6f9fb98a",
					"getDonation(address)": "410a1d32",
					"getTop3Donors()": "2d1e2518",
					"owner()": "8da5cb5b",
					"updateDonationPeriod(uint256,uint256)": "54b602ed",
					"withdraw()": "3ccfd60b"
				}
			},
			"storageLayout": {
				"storage": [
					{
						"astId": 7,
						"contract": "homework1/BeggingContract.sol:BeggingContract",
						"label": "donationRecords",
						"offset": 0,
						"slot": "0",
						"type": "t_mapping(t_address,t_uint256)"
					},
					{
						"astId": 9,
						"contract": "homework1/BeggingContract.sol:BeggingContract",
						"label": "donateStartTime",
						"offset": 0,
						"slot": "1",
						"type": "t_uint256"
					},
					{
						"astId": 11,
						"contract": "homework1/BeggingContract.sol:BeggingContract",
						"label": "donateEndTime",
						"offset": 0,
						"slot": "2",
						"type": "t_uint256"
					},
					{
						"astId": 375,
						"contract": "homework1/BeggingContract.sol:BeggingContract",
						"label": "allDonors",
						"offset": 0,
						"slot": "3",
						"type": "t_array(t_address)dyn_storage"
					}
				],
				"types": {
					"t_address": {
						"encoding": "inplace",
						"label": "address",
						"numberOfBytes": "20"
					},
					"t_array(t_address)dyn_storage": {
						"base": "t_address",
						"encoding": "dynamic_array",
						"label": "address[]",
						"numberOfBytes": "32"
					},
					"t_mapping(t_address,t_uint256)": {
						"encoding": "mapping",
						"key": "t_address",
						"label": "mapping(address => uint256)",
						"numberOfBytes": "32",
						"value": "t_uint256"
					},
					"t_uint256": {
						"encoding": "inplace",
						"label": "uint256",
						"numberOfBytes": "32"
					}
				}
			},
			"userdoc": {
				"kind": "user",
				"methods": {
					"allDonors(uint256)": {
						"notice": "获取所有捐赠者列表（解决mapping无法遍历的问题） 注：需在donate函数中同步维护此列表"
					},
					"donate()": {
						"notice": "捐赠函数：仅在指定时间段内可捐赠，记录金额并触发事件"
					},
					"getContractBalance()": {
						"notice": "辅助：查询合约当前总余额"
					},
					"getDonation(address)": {
						"notice": "查询单个地址捐赠金额"
					},
					"getTop3Donors()": {
						"notice": "捐赠排行榜：返回捐赠金额最多的前3个地址及对应金额 返回格式：[地址1, 地址2, 地址3], [金额1, 金额2, 金额3] 若捐赠者不足3个，空缺位置返回空地址+0"
					},
					"updateDonationPeriod(uint256,uint256)": {
						"notice": "辅助：更新捐赠时间段（仅所有者）"
					},
					"withdraw()": {
						"notice": "提取资金函数：仅所有者可提取合约所有资金"
					}
				},
				"version": 1
			}
		}
	}
}