{
	"homework1/homework01.sol": {
		"RomanToInteger": {
			"abi": [
				{
					"inputs": [
						{
							"internalType": "string",
							"name": "roman",
							"type": "string"
						}
					],
					"name": "romanToInt",
					"outputs": [
						{
							"internalType": "uint256",
							"name": "",
							"type": "uint256"
						}
					],
					"stateMutability": "pure",
					"type": "function"
				}
			],
			"devdoc": {
				"kind": "dev",
				"methods": {},
				"version": 1
			},
			"evm": {
				"assembly": "    /* \"homework1/homework01.sol\":3835:5174  contract RomanToInteger {... */\n  mstore(0x40, 0x80)\n  callvalue\n  dup1\n  iszero\n  tag_1\n  jumpi\n  revert(0x00, 0x00)\ntag_1:\n  pop\n  dataSize(sub_0)\n  dup1\n  dataOffset(sub_0)\n  0x00\n  codecopy\n  0x00\n  return\nstop\n\nsub_0: assembly {\n        /* \"homework1/homework01.sol\":3835:5174  contract RomanToInteger {... */\n      mstore(0x40, 0x80)\n      callvalue\n      dup1\n      iszero\n      tag_1\n      jumpi\n      revert(0x00, 0x00)\n    tag_1:\n      pop\n      jumpi(tag_2, lt(calldatasize, 0x04))\n      shr(0xe0, calldataload(0x00))\n      dup1\n      0xcb159dfe\n      eq\n      tag_3\n      jumpi\n    tag_2:\n      revert(0x00, 0x00)\n        /* \"homework1/homework01.sol\":4364:5171  function romanToInt(string memory roman) public pure returns (uint256) {... */\n    tag_3:\n      tag_4\n      0x04\n      dup1\n      calldatasize\n      sub\n      dup2\n      add\n      swap1\n      tag_5\n      swap2\n      swap1\n      tag_6\n      jump\t// in\n    tag_5:\n      tag_7\n      jump\t// in\n    tag_4:\n      mload(0x40)\n      tag_8\n      swap2\n      swap1\n      tag_9\n      jump\t// in\n    tag_8:\n      mload(0x40)\n      dup1\n      swap2\n      sub\n      swap1\n      return\n    tag_7:\n        /* \"homework1/homework01.sol\":4426:4433  uint256 */\n      0x00\n        /* \"homework1/homework01.sol\":4446:4469  bytes memory romanBytes */\n      0x00\n        /* \"homework1/homework01.sol\":4478:4483  roman */\n      dup3\n        /* \"homework1/homework01.sol\":4446:4484  bytes memory romanBytes = bytes(roman) */\n      swap1\n      pop\n        /* \"homework1/homework01.sol\":4531:4544  uint256 total */\n      0x00\n        /* \"homework1/homework01.sol\":4547:4548  0 */\n      0x00\n        /* \"homework1/homework01.sol\":4531:4548  uint256 total = 0 */\n      swap1\n      pop\n        /* \"homework1/homework01.sol\":4559:4573  uint256 length */\n      0x00\n        /* \"homework1/homework01.sol\":4576:4586  romanBytes */\n      dup3\n        /* \"homework1/homework01.sol\":4576:4593  romanBytes.length */\n      mload\n        /* \"homework1/homework01.sol\":4559:4593  uint256 length = romanBytes.length */\n      swap1\n      pop\n        /* \"homework1/homework01.sol\":4670:4679  uint256 i */\n      0x00\n        /* \"homework1/homework01.sol\":4682:4683  0 */\n      0x00\n        /* \"homework1/homework01.sol\":4670:4683  uint256 i = 0 */\n      swap1\n      pop\n        /* \"homework1/homework01.sol\":4665:5139  for (uint256 i = 0; i < length; i++) {... */\n    tag_11:\n        /* \"homework1/homework01.sol\":4689:4695  length */\n      dup2\n        /* \"homework1/homework01.sol\":4685:4686  i */\n      dup2\n        /* \"homework1/homework01.sol\":4685:4695  i < length */\n      lt\n        /* \"homework1/homework01.sol\":4665:5139  for (uint256 i = 0; i < length; i++) {... */\n      iszero\n      tag_12\n      jumpi\n        /* \"homework1/homework01.sol\":4717:4732  uint256 current */\n      0x00\n        /* \"homework1/homework01.sol\":4735:4758  getValue(romanBytes[i]) */\n      tag_14\n        /* \"homework1/homework01.sol\":4744:4754  romanBytes */\n      dup6\n        /* \"homework1/homework01.sol\":4755:4756  i */\n      dup4\n        /* \"homework1/homework01.sol\":4744:4757  romanBytes[i] */\n      dup2\n      mload\n      dup2\n      lt\n      tag_15\n      jumpi\n      tag_16\n      tag_17\n      jump\t// in\n    tag_16:\n    tag_15:\n      0x20\n      add\n      add\n      mload\n      0xf8\n      shr\n      0xf8\n      shl\n        /* \"homework1/homework01.sol\":4735:4743  getValue */\n      tag_18\n        /* \"homework1/homework01.sol\":4735:4758  getValue(romanBytes[i]) */\n      jump\t// in\n    tag_14:\n        /* \"homework1/homework01.sol\":4717:4758  uint256 current = getValue(romanBytes[i]) */\n      swap1\n      pop\n        /* \"homework1/homework01.sol\":4901:4902  1 */\n      0x01\n        /* \"homework1/homework01.sol\":4892:4898  length */\n      dup4\n        /* \"homework1/homework01.sol\":4892:4902  length - 1 */\n      tag_19\n      swap2\n      swap1\n      tag_20\n      jump\t// in\n    tag_19:\n        /* \"homework1/homework01.sol\":4888:4889  i */\n      dup3\n        /* \"homework1/homework01.sol\":4888:4902  i < length - 1 */\n      lt\n        /* \"homework1/homework01.sol\":4888:4941  i < length - 1 && current < getValue(romanBytes[i+1]) */\n      dup1\n      iszero\n      tag_21\n      jumpi\n      pop\n        /* \"homework1/homework01.sol\":4916:4941  getValue(romanBytes[i+1]) */\n      tag_22\n        /* \"homework1/homework01.sol\":4925:4935  romanBytes */\n      dup6\n        /* \"homework1/homework01.sol\":4938:4939  1 */\n      0x01\n        /* \"homework1/homework01.sol\":4936:4937  i */\n      dup5\n        /* \"homework1/homework01.sol\":4936:4939  i+1 */\n      tag_23\n      swap2\n      swap1\n      tag_24\n      jump\t// in\n    tag_23:\n        /* \"homework1/homework01.sol\":4925:4940  romanBytes[i+1] */\n      dup2\n      mload\n      dup2\n      lt\n      tag_25\n      jumpi\n      tag_26\n      tag_17\n      jump\t// in\n    tag_26:\n    tag_25:\n      0x20\n      add\n      add\n      mload\n      0xf8\n      shr\n      0xf8\n      shl\n        /* \"homework1/homework01.sol\":4916:4924  getValue */\n      tag_18\n        /* \"homework1/homework01.sol\":4916:4941  getValue(romanBytes[i+1]) */\n      jump\t// in\n    tag_22:\n        /* \"homework1/homework01.sol\":4906:4913  current */\n      dup2\n        /* \"homework1/homework01.sol\":4906:4941  current < getValue(romanBytes[i+1]) */\n      lt\n        /* \"homework1/homework01.sol\":4888:4941  i < length - 1 && current < getValue(romanBytes[i+1]) */\n    tag_21:\n        /* \"homework1/homework01.sol\":4884:5128  if (i < length - 1 && current < getValue(romanBytes[i+1])) {... */\n      iszero\n      tag_27\n      jumpi\n        /* \"homework1/homework01.sol\":4971:4978  current */\n      dup1\n        /* \"homework1/homework01.sol\":4962:4978  total -= current */\n      dup5\n      tag_28\n      swap2\n      swap1\n      tag_20\n      jump\t// in\n    tag_28:\n      swap4\n      pop\n        /* \"homework1/homework01.sol\":4884:5128  if (i < length - 1 && current < getValue(romanBytes[i+1])) {... */\n      jump(tag_29)\n    tag_27:\n        /* \"homework1/homework01.sol\":5068:5075  current */\n      dup1\n        /* \"homework1/homework01.sol\":5059:5075  total += current */\n      dup5\n      tag_30\n      swap2\n      swap1\n      tag_24\n      jump\t// in\n    tag_30:\n      swap4\n      pop\n        /* \"homework1/homework01.sol\":4884:5128  if (i < length - 1 && current < getValue(romanBytes[i+1])) {... */\n    tag_29:\n        /* \"homework1/homework01.sol\":4702:5139  {... */\n      pop\n        /* \"homework1/homework01.sol\":4697:4700  i++ */\n      dup1\n      dup1\n      0x01\n      add\n      swap2\n      pop\n      pop\n        /* \"homework1/homework01.sol\":4665:5139  for (uint256 i = 0; i < length; i++) {... */\n      jump(tag_11)\n    tag_12:\n      pop\n        /* \"homework1/homework01.sol\":5158:5163  total */\n      dup2\n        /* \"homework1/homework01.sol\":5151:5163  return total */\n      swap4\n      pop\n      pop\n      pop\n      pop\n        /* \"homework1/homework01.sol\":4364:5171  function romanToInt(string memory roman) public pure returns (uint256) {... */\n      swap2\n      swap1\n      pop\n      jump\t// out\n        /* \"homework1/homework01.sol\":3929:4326  function getValue(bytes1 char) private pure returns (uint256) {... */\n    tag_18:\n        /* \"homework1/homework01.sol\":3982:3989  uint256 */\n      0x00\n        /* \"homework1/homework01.sol\":4006:4017  char == 'I' */\n      0x4900000000000000000000000000000000000000000000000000000000000000\n        /* \"homework1/homework01.sol\":4006:4010  char */\n      dup3\n        /* \"homework1/homework01.sol\":4006:4017  char == 'I' */\n      not(0xffffffffffffffffffffffffffffffffffffffffffffffffffffffffffffff)\n      and\n      sub\n        /* \"homework1/homework01.sol\":4002:4027  if (char == 'I') return 1 */\n      tag_32\n      jumpi\n        /* \"homework1/homework01.sol\":4026:4027  1 */\n      0x01\n        /* \"homework1/homework01.sol\":4019:4027  return 1 */\n      swap1\n      pop\n      jump(tag_31)\n        /* \"homework1/homework01.sol\":4002:4027  if (char == 'I') return 1 */\n    tag_32:\n        /* \"homework1/homework01.sol\":4042:4053  char == 'V' */\n      0x5600000000000000000000000000000000000000000000000000000000000000\n        /* \"homework1/homework01.sol\":4042:4046  char */\n      dup3\n        /* \"homework1/homework01.sol\":4042:4053  char == 'V' */\n      not(0xffffffffffffffffffffffffffffffffffffffffffffffffffffffffffffff)\n      and\n      sub\n        /* \"homework1/homework01.sol\":4038:4063  if (char == 'V') return 5 */\n      tag_33\n      jumpi\n        /* \"homework1/homework01.sol\":4062:4063  5 */\n      0x05\n        /* \"homework1/homework01.sol\":4055:4063  return 5 */\n      swap1\n      pop\n      jump(tag_31)\n        /* \"homework1/homework01.sol\":4038:4063  if (char == 'V') return 5 */\n    tag_33:\n        /* \"homework1/homework01.sol\":4078:4089  char == 'X' */\n      0x5800000000000000000000000000000000000000000000000000000000000000\n        /* \"homework1/homework01.sol\":4078:4082  char */\n      dup3\n        /* \"homework1/homework01.sol\":4078:4089  char == 'X' */\n      not(0xffffffffffffffffffffffffffffffffffffffffffffffffffffffffffffff)\n      and\n      sub\n        /* \"homework1/homework01.sol\":4074:4100  if (char == 'X') return 10 */\n      tag_34\n      jumpi\n        /* \"homework1/homework01.sol\":4098:4100  10 */\n      0x0a\n        /* \"homework1/homework01.sol\":4091:4100  return 10 */\n      swap1\n      pop\n      jump(tag_31)\n        /* \"homework1/homework01.sol\":4074:4100  if (char == 'X') return 10 */\n    tag_34:\n        /* \"homework1/homework01.sol\":4115:4126  char == 'L' */\n      0x4c00000000000000000000000000000000000000000000000000000000000000\n        /* \"homework1/homework01.sol\":4115:4119  char */\n      dup3\n        /* \"homework1/homework01.sol\":4115:4126  char == 'L' */\n      not(0xffffffffffffffffffffffffffffffffffffffffffffffffffffffffffffff)\n      and\n      sub\n        /* \"homework1/homework01.sol\":4111:4137  if (char == 'L') return 50 */\n      tag_35\n      jumpi\n        /* \"homework1/homework01.sol\":4135:4137  50 */\n      0x32\n        /* \"homework1/homework01.sol\":4128:4137  return 50 */\n      swap1\n      pop\n      jump(tag_31)\n        /* \"homework1/homework01.sol\":4111:4137  if (char == 'L') return 50 */\n    tag_35:\n        /* \"homework1/homework01.sol\":4152:4163  char == 'C' */\n      0x4300000000000000000000000000000000000000000000000000000000000000\n        /* \"homework1/homework01.sol\":4152:4156  char */\n      dup3\n        /* \"homework1/homework01.sol\":4152:4163  char == 'C' */\n      not(0xffffffffffffffffffffffffffffffffffffffffffffffffffffffffffffff)\n      and\n      sub\n        /* \"homework1/homework01.sol\":4148:4175  if (char == 'C') return 100 */\n      tag_36\n      jumpi\n        /* \"homework1/homework01.sol\":4172:4175  100 */\n      0x64\n        /* \"homework1/homework01.sol\":4165:4175  return 100 */\n      swap1\n      pop\n      jump(tag_31)\n        /* \"homework1/homework01.sol\":4148:4175  if (char == 'C') return 100 */\n    tag_36:\n        /* \"homework1/homework01.sol\":4190:4201  char == 'D' */\n      0x4400000000000000000000000000000000000000000000000000000000000000\n        /* \"homework1/homework01.sol\":4190:4194  char */\n      dup3\n        /* \"homework1/homework01.sol\":4190:4201  char == 'D' */\n      not(0xffffffffffffffffffffffffffffffffffffffffffffffffffffffffffffff)\n      and\n      sub\n        /* \"homework1/homework01.sol\":4186:4213  if (char == 'D') return 500 */\n      tag_37\n      jumpi\n        /* \"homework1/homework01.sol\":4210:4213  500 */\n      0x01f4\n        /* \"homework1/homework01.sol\":4203:4213  return 500 */\n      swap1\n      pop\n      jump(tag_31)\n        /* \"homework1/homework01.sol\":4186:4213  if (char == 'D') return 500 */\n    tag_37:\n        /* \"homework1/homework01.sol\":4228:4239  char == 'M' */\n      0x4d00000000000000000000000000000000000000000000000000000000000000\n        /* \"homework1/homework01.sol\":4228:4232  char */\n      dup3\n        /* \"homework1/homework01.sol\":4228:4239  char == 'M' */\n      not(0xffffffffffffffffffffffffffffffffffffffffffffffffffffffffffffff)\n      and\n      sub\n        /* \"homework1/homework01.sol\":4224:4252  if (char == 'M') return 1000 */\n      tag_38\n      jumpi\n        /* \"homework1/homework01.sol\":4248:4252  1000 */\n      0x03e8\n        /* \"homework1/homework01.sol\":4241:4252  return 1000 */\n      swap1\n      pop\n      jump(tag_31)\n        /* \"homework1/homework01.sol\":4224:4252  if (char == 'M') return 1000 */\n    tag_38:\n        /* \"homework1/homework01.sol\":4263:4296  revert(\"Invalid Roman character\") */\n      mload(0x40)\n      0x08c379a000000000000000000000000000000000000000000000000000000000\n      dup2\n      mstore\n      0x04\n      add\n      tag_39\n      swap1\n      tag_40\n      jump\t// in\n    tag_39:\n      mload(0x40)\n      dup1\n      swap2\n      sub\n      swap1\n      revert\n        /* \"homework1/homework01.sol\":3929:4326  function getValue(bytes1 char) private pure returns (uint256) {... */\n    tag_31:\n      swap2\n      swap1\n      pop\n      jump\t// out\n        /* \"#utility.yul\":7:82   */\n    tag_41:\n        /* \"#utility.yul\":40:46   */\n      0x00\n        /* \"#utility.yul\":73:75   */\n      0x40\n        /* \"#utility.yul\":67:76   */\n      mload\n        /* \"#utility.yul\":57:76   */\n      swap1\n      pop\n        /* \"#utility.yul\":7:82   */\n      swap1\n      jump\t// out\n        /* \"#utility.yul\":88:205   */\n    tag_42:\n        /* \"#utility.yul\":197:198   */\n      0x00\n        /* \"#utility.yul\":194:195   */\n      0x00\n        /* \"#utility.yul\":187:199   */\n      revert\n        /* \"#utility.yul\":211:328   */\n    tag_43:\n        /* \"#utility.yul\":320:321   */\n      0x00\n        /* \"#utility.yul\":317:318   */\n      0x00\n        /* \"#utility.yul\":310:322   */\n      revert\n        /* \"#utility.yul\":334:451   */\n    tag_44:\n        /* \"#utility.yul\":443:444   */\n      0x00\n        /* \"#utility.yul\":440:441   */\n      0x00\n        /* \"#utility.yul\":433:445   */\n      revert\n        /* \"#utility.yul\":457:574   */\n    tag_45:\n        /* \"#utility.yul\":566:567   */\n      0x00\n        /* \"#utility.yul\":563:564   */\n      0x00\n        /* \"#utility.yul\":556:568   */\n      revert\n        /* \"#utility.yul\":580:682   */\n    tag_46:\n        /* \"#utility.yul\":621:627   */\n      0x00\n        /* \"#utility.yul\":672:674   */\n      0x1f\n        /* \"#utility.yul\":668:675   */\n      not\n        /* \"#utility.yul\":663:665   */\n      0x1f\n        /* \"#utility.yul\":656:661   */\n      dup4\n        /* \"#utility.yul\":652:666   */\n      add\n        /* \"#utility.yul\":648:676   */\n      and\n        /* \"#utility.yul\":638:676   */\n      swap1\n      pop\n        /* \"#utility.yul\":580:682   */\n      swap2\n      swap1\n      pop\n      jump\t// out\n        /* \"#utility.yul\":688:868   */\n    tag_47:\n        /* \"#utility.yul\":736:813   */\n      0x4e487b7100000000000000000000000000000000000000000000000000000000\n        /* \"#utility.yul\":733:734   */\n      0x00\n        /* \"#utility.yul\":726:814   */\n      mstore\n        /* \"#utility.yul\":833:837   */\n      0x41\n        /* \"#utility.yul\":830:831   */\n      0x04\n        /* \"#utility.yul\":823:838   */\n      mstore\n        /* \"#utility.yul\":857:861   */\n      0x24\n        /* \"#utility.yul\":854:855   */\n      0x00\n        /* \"#utility.yul\":847:862   */\n      revert\n        /* \"#utility.yul\":874:1155   */\n    tag_48:\n        /* \"#utility.yul\":957:984   */\n      tag_69\n        /* \"#utility.yul\":979:983   */\n      dup3\n        /* \"#utility.yul\":957:984   */\n      tag_46\n      jump\t// in\n    tag_69:\n        /* \"#utility.yul\":949:955   */\n      dup2\n        /* \"#utility.yul\":945:985   */\n      add\n        /* \"#utility.yul\":1087:1093   */\n      dup2\n        /* \"#utility.yul\":1075:1085   */\n      dup2\n        /* \"#utility.yul\":1072:1094   */\n      lt\n        /* \"#utility.yul\":1051:1069   */\n      0xffffffffffffffff\n        /* \"#utility.yul\":1039:1049   */\n      dup3\n        /* \"#utility.yul\":1036:1070   */\n      gt\n        /* \"#utility.yul\":1033:1095   */\n      or\n        /* \"#utility.yul\":1030:1118   */\n      iszero\n      tag_70\n      jumpi\n        /* \"#utility.yul\":1098:1116   */\n      tag_71\n      tag_47\n      jump\t// in\n    tag_71:\n        /* \"#utility.yul\":1030:1118   */\n    tag_70:\n        /* \"#utility.yul\":1138:1148   */\n      dup1\n        /* \"#utility.yul\":1134:1136   */\n      0x40\n        /* \"#utility.yul\":1127:1149   */\n      mstore\n        /* \"#utility.yul\":917:1155   */\n      pop\n        /* \"#utility.yul\":874:1155   */\n      pop\n      pop\n      jump\t// out\n        /* \"#utility.yul\":1161:1290   */\n    tag_49:\n        /* \"#utility.yul\":1195:1201   */\n      0x00\n        /* \"#utility.yul\":1222:1242   */\n      tag_73\n      tag_41\n      jump\t// in\n    tag_73:\n        /* \"#utility.yul\":1212:1242   */\n      swap1\n      pop\n        /* \"#utility.yul\":1251:1284   */\n      tag_74\n        /* \"#utility.yul\":1279:1283   */\n      dup3\n        /* \"#utility.yul\":1271:1277   */\n      dup3\n        /* \"#utility.yul\":1251:1284   */\n      tag_48\n      jump\t// in\n    tag_74:\n        /* \"#utility.yul\":1161:1290   */\n      swap2\n      swap1\n      pop\n      jump\t// out\n        /* \"#utility.yul\":1296:1604   */\n    tag_50:\n        /* \"#utility.yul\":1358:1362   */\n      0x00\n        /* \"#utility.yul\":1448:1466   */\n      0xffffffffffffffff\n        /* \"#utility.yul\":1440:1446   */\n      dup3\n        /* \"#utility.yul\":1437:1467   */\n      gt\n        /* \"#utility.yul\":1434:1490   */\n      iszero\n      tag_76\n      jumpi\n        /* \"#utility.yul\":1470:1488   */\n      tag_77\n      tag_47\n      jump\t// in\n    tag_77:\n        /* \"#utility.yul\":1434:1490   */\n    tag_76:\n        /* \"#utility.yul\":1508:1537   */\n      tag_78\n        /* \"#utility.yul\":1530:1536   */\n      dup3\n        /* \"#utility.yul\":1508:1537   */\n      tag_46\n      jump\t// in\n    tag_78:\n        /* \"#utility.yul\":1500:1537   */\n      swap1\n      pop\n        /* \"#utility.yul\":1592:1596   */\n      0x20\n        /* \"#utility.yul\":1586:1590   */\n      dup2\n        /* \"#utility.yul\":1582:1597   */\n      add\n        /* \"#utility.yul\":1574:1597   */\n      swap1\n      pop\n        /* \"#utility.yul\":1296:1604   */\n      swap2\n      swap1\n      pop\n      jump\t// out\n        /* \"#utility.yul\":1610:1758   */\n    tag_51:\n        /* \"#utility.yul\":1708:1714   */\n      dup3\n        /* \"#utility.yul\":1703:1706   */\n      dup2\n        /* \"#utility.yul\":1698:1701   */\n      dup4\n        /* \"#utility.yul\":1685:1715   */\n      calldatacopy\n        /* \"#utility.yul\":1749:1750   */\n      0x00\n        /* \"#utility.yul\":1740:1746   */\n      dup4\n        /* \"#utility.yul\":1735:1738   */\n      dup4\n        /* \"#utility.yul\":1731:1747   */\n      add\n        /* \"#utility.yul\":1724:1751   */\n      mstore\n        /* \"#utility.yul\":1610:1758   */\n      pop\n      pop\n      pop\n      jump\t// out\n        /* \"#utility.yul\":1764:2189   */\n    tag_52:\n        /* \"#utility.yul\":1842:1847   */\n      0x00\n        /* \"#utility.yul\":1867:1933   */\n      tag_81\n        /* \"#utility.yul\":1883:1932   */\n      tag_82\n        /* \"#utility.yul\":1925:1931   */\n      dup5\n        /* \"#utility.yul\":1883:1932   */\n      tag_50\n      jump\t// in\n    tag_82:\n        /* \"#utility.yul\":1867:1933   */\n      tag_49\n      jump\t// in\n    tag_81:\n        /* \"#utility.yul\":1858:1933   */\n      swap1\n      pop\n        /* \"#utility.yul\":1956:1962   */\n      dup3\n        /* \"#utility.yul\":1949:1954   */\n      dup2\n        /* \"#utility.yul\":1942:1963   */\n      mstore\n        /* \"#utility.yul\":1994:1998   */\n      0x20\n        /* \"#utility.yul\":1987:1992   */\n      dup2\n        /* \"#utility.yul\":1983:1999   */\n      add\n        /* \"#utility.yul\":2032:2035   */\n      dup5\n        /* \"#utility.yul\":2023:2029   */\n      dup5\n        /* \"#utility.yul\":2018:2021   */\n      dup5\n        /* \"#utility.yul\":2014:2030   */\n      add\n        /* \"#utility.yul\":2011:2036   */\n      gt\n        /* \"#utility.yul\":2008:2120   */\n      iszero\n      tag_83\n      jumpi\n        /* \"#utility.yul\":2039:2118   */\n      tag_84\n      tag_45\n      jump\t// in\n    tag_84:\n        /* \"#utility.yul\":2008:2120   */\n    tag_83:\n        /* \"#utility.yul\":2129:2183   */\n      tag_85\n        /* \"#utility.yul\":2176:2182   */\n      dup5\n        /* \"#utility.yul\":2171:2174   */\n      dup3\n        /* \"#utility.yul\":2166:2169   */\n      dup6\n        /* \"#utility.yul\":2129:2183   */\n      tag_51\n      jump\t// in\n    tag_85:\n        /* \"#utility.yul\":1848:2189   */\n      pop\n        /* \"#utility.yul\":1764:2189   */\n      swap4\n      swap3\n      pop\n      pop\n      pop\n      jump\t// out\n        /* \"#utility.yul\":2209:2549   */\n    tag_53:\n        /* \"#utility.yul\":2265:2270   */\n      0x00\n        /* \"#utility.yul\":2314:2317   */\n      dup3\n        /* \"#utility.yul\":2307:2311   */\n      0x1f\n        /* \"#utility.yul\":2299:2305   */\n      dup4\n        /* \"#utility.yul\":2295:2312   */\n      add\n        /* \"#utility.yul\":2291:2318   */\n      slt\n        /* \"#utility.yul\":2281:2403   */\n      tag_87\n      jumpi\n        /* \"#utility.yul\":2322:2401   */\n      tag_88\n      tag_44\n      jump\t// in\n    tag_88:\n        /* \"#utility.yul\":2281:2403   */\n    tag_87:\n        /* \"#utility.yul\":2439:2445   */\n      dup2\n        /* \"#utility.yul\":2426:2446   */\n      calldataload\n        /* \"#utility.yul\":2464:2543   */\n      tag_89\n        /* \"#utility.yul\":2539:2542   */\n      dup5\n        /* \"#utility.yul\":2531:2537   */\n      dup3\n        /* \"#utility.yul\":2524:2528   */\n      0x20\n        /* \"#utility.yul\":2516:2522   */\n      dup7\n        /* \"#utility.yul\":2512:2529   */\n      add\n        /* \"#utility.yul\":2464:2543   */\n      tag_52\n      jump\t// in\n    tag_89:\n        /* \"#utility.yul\":2455:2543   */\n      swap2\n      pop\n        /* \"#utility.yul\":2271:2549   */\n      pop\n        /* \"#utility.yul\":2209:2549   */\n      swap3\n      swap2\n      pop\n      pop\n      jump\t// out\n        /* \"#utility.yul\":2555:3064   */\n    tag_6:\n        /* \"#utility.yul\":2624:2630   */\n      0x00\n        /* \"#utility.yul\":2673:2675   */\n      0x20\n        /* \"#utility.yul\":2661:2670   */\n      dup3\n        /* \"#utility.yul\":2652:2659   */\n      dup5\n        /* \"#utility.yul\":2648:2671   */\n      sub\n        /* \"#utility.yul\":2644:2676   */\n      slt\n        /* \"#utility.yul\":2641:2760   */\n      iszero\n      tag_91\n      jumpi\n        /* \"#utility.yul\":2679:2758   */\n      tag_92\n      tag_42\n      jump\t// in\n    tag_92:\n        /* \"#utility.yul\":2641:2760   */\n    tag_91:\n        /* \"#utility.yul\":2827:2828   */\n      0x00\n        /* \"#utility.yul\":2816:2825   */\n      dup3\n        /* \"#utility.yul\":2812:2829   */\n      add\n        /* \"#utility.yul\":2799:2830   */\n      calldataload\n        /* \"#utility.yul\":2857:2875   */\n      0xffffffffffffffff\n        /* \"#utility.yul\":2849:2855   */\n      dup2\n        /* \"#utility.yul\":2846:2876   */\n      gt\n        /* \"#utility.yul\":2843:2960   */\n      iszero\n      tag_93\n      jumpi\n        /* \"#utility.yul\":2879:2958   */\n      tag_94\n      tag_43\n      jump\t// in\n    tag_94:\n        /* \"#utility.yul\":2843:2960   */\n    tag_93:\n        /* \"#utility.yul\":2984:3047   */\n      tag_95\n        /* \"#utility.yul\":3039:3046   */\n      dup5\n        /* \"#utility.yul\":3030:3036   */\n      dup3\n        /* \"#utility.yul\":3019:3028   */\n      dup6\n        /* \"#utility.yul\":3015:3037   */\n      add\n        /* \"#utility.yul\":2984:3047   */\n      tag_53\n      jump\t// in\n    tag_95:\n        /* \"#utility.yul\":2974:3047   */\n      swap2\n      pop\n        /* \"#utility.yul\":2770:3057   */\n      pop\n        /* \"#utility.yul\":2555:3064   */\n      swap3\n      swap2\n      pop\n      pop\n      jump\t// out\n        /* \"#utility.yul\":3070:3147   */\n    tag_54:\n        /* \"#utility.yul\":3107:3114   */\n      0x00\n        /* \"#utility.yul\":3136:3141   */\n      dup2\n        /* \"#utility.yul\":3125:3141   */\n      swap1\n      pop\n        /* \"#utility.yul\":3070:3147   */\n      swap2\n      swap1\n      pop\n      jump\t// out\n        /* \"#utility.yul\":3153:3271   */\n    tag_55:\n        /* \"#utility.yul\":3240:3264   */\n      tag_98\n        /* \"#utility.yul\":3258:3263   */\n      dup2\n        /* \"#utility.yul\":3240:3264   */\n      tag_54\n      jump\t// in\n    tag_98:\n        /* \"#utility.yul\":3235:3238   */\n      dup3\n        /* \"#utility.yul\":3228:3265   */\n      mstore\n        /* \"#utility.yul\":3153:3271   */\n      pop\n      pop\n      jump\t// out\n        /* \"#utility.yul\":3277:3499   */\n    tag_9:\n        /* \"#utility.yul\":3370:3374   */\n      0x00\n        /* \"#utility.yul\":3408:3410   */\n      0x20\n        /* \"#utility.yul\":3397:3406   */\n      dup3\n        /* \"#utility.yul\":3393:3411   */\n      add\n        /* \"#utility.yul\":3385:3411   */\n      swap1\n      pop\n        /* \"#utility.yul\":3421:3492   */\n      tag_100\n        /* \"#utility.yul\":3489:3490   */\n      0x00\n        /* \"#utility.yul\":3478:3487   */\n      dup4\n        /* \"#utility.yul\":3474:3491   */\n      add\n        /* \"#utility.yul\":3465:3471   */\n      dup5\n        /* \"#utility.yul\":3421:3492   */\n      tag_55\n      jump\t// in\n    tag_100:\n        /* \"#utility.yul\":3277:3499   */\n      swap3\n      swap2\n      pop\n      pop\n      jump\t// out\n        /* \"#utility.yul\":3505:3685   */\n    tag_17:\n        /* \"#utility.yul\":3553:3630   */\n      0x4e487b7100000000000000000000000000000000000000000000000000000000\n        /* \"#utility.yul\":3550:3551   */\n      0x00\n        /* \"#utility.yul\":3543:3631   */\n      mstore\n        /* \"#utility.yul\":3650:3654   */\n      0x32\n        /* \"#utility.yul\":3647:3648   */\n      0x04\n        /* \"#utility.yul\":3640:3655   */\n      mstore\n        /* \"#utility.yul\":3674:3678   */\n      0x24\n        /* \"#utility.yul\":3671:3672   */\n      0x00\n        /* \"#utility.yul\":3664:3679   */\n      revert\n        /* \"#utility.yul\":3691:3871   */\n    tag_56:\n        /* \"#utility.yul\":3739:3816   */\n      0x4e487b7100000000000000000000000000000000000000000000000000000000\n        /* \"#utility.yul\":3736:3737   */\n      0x00\n        /* \"#utility.yul\":3729:3817   */\n      mstore\n        /* \"#utility.yul\":3836:3840   */\n      0x11\n        /* \"#utility.yul\":3833:3834   */\n      0x04\n        /* \"#utility.yul\":3826:3841   */\n      mstore\n        /* \"#utility.yul\":3860:3864   */\n      0x24\n        /* \"#utility.yul\":3857:3858   */\n      0x00\n        /* \"#utility.yul\":3850:3865   */\n      revert\n        /* \"#utility.yul\":3877:4071   */\n    tag_20:\n        /* \"#utility.yul\":3917:3921   */\n      0x00\n        /* \"#utility.yul\":3937:3957   */\n      tag_104\n        /* \"#utility.yul\":3955:3956   */\n      dup3\n        /* \"#utility.yul\":3937:3957   */\n      tag_54\n      jump\t// in\n    tag_104:\n        /* \"#utility.yul\":3932:3957   */\n      swap2\n      pop\n        /* \"#utility.yul\":3971:3991   */\n      tag_105\n        /* \"#utility.yul\":3989:3990   */\n      dup4\n        /* \"#utility.yul\":3971:3991   */\n      tag_54\n      jump\t// in\n    tag_105:\n        /* \"#utility.yul\":3966:3991   */\n      swap3\n      pop\n        /* \"#utility.yul\":4015:4016   */\n      dup3\n        /* \"#utility.yul\":4012:4013   */\n      dup3\n        /* \"#utility.yul\":4008:4017   */\n      sub\n        /* \"#utility.yul\":4000:4017   */\n      swap1\n      pop\n        /* \"#utility.yul\":4039:4040   */\n      dup2\n        /* \"#utility.yul\":4033:4037   */\n      dup2\n        /* \"#utility.yul\":4030:4041   */\n      gt\n        /* \"#utility.yul\":4027:4064   */\n      iszero\n      tag_106\n      jumpi\n        /* \"#utility.yul\":4044:4062   */\n      tag_107\n      tag_56\n      jump\t// in\n    tag_107:\n        /* \"#utility.yul\":4027:4064   */\n    tag_106:\n        /* \"#utility.yul\":3877:4071   */\n      swap3\n      swap2\n      pop\n      pop\n      jump\t// out\n        /* \"#utility.yul\":4077:4268   */\n    tag_24:\n        /* \"#utility.yul\":4117:4120   */\n      0x00\n        /* \"#utility.yul\":4136:4156   */\n      tag_109\n        /* \"#utility.yul\":4154:4155   */\n      dup3\n        /* \"#utility.yul\":4136:4156   */\n      tag_54\n      jump\t// in\n    tag_109:\n        /* \"#utility.yul\":4131:4156   */\n      swap2\n      pop\n        /* \"#utility.yul\":4170:4190   */\n      tag_110\n        /* \"#utility.yul\":4188:4189   */\n      dup4\n        /* \"#utility.yul\":4170:4190   */\n      tag_54\n      jump\t// in\n    tag_110:\n        /* \"#utility.yul\":4165:4190   */\n      swap3\n      pop\n        /* \"#utility.yul\":4213:4214   */\n      dup3\n        /* \"#utility.yul\":4210:4211   */\n      dup3\n        /* \"#utility.yul\":4206:4215   */\n      add\n        /* \"#utility.yul\":4199:4215   */\n      swap1\n      pop\n        /* \"#utility.yul\":4234:4237   */\n      dup1\n        /* \"#utility.yul\":4231:4232   */\n      dup3\n        /* \"#utility.yul\":4228:4238   */\n      gt\n        /* \"#utility.yul\":4225:4261   */\n      iszero\n      tag_111\n      jumpi\n        /* \"#utility.yul\":4241:4259   */\n      tag_112\n      tag_56\n      jump\t// in\n    tag_112:\n        /* \"#utility.yul\":4225:4261   */\n    tag_111:\n        /* \"#utility.yul\":4077:4268   */\n      swap3\n      swap2\n      pop\n      pop\n      jump\t// out\n        /* \"#utility.yul\":4274:4443   */\n    tag_57:\n        /* \"#utility.yul\":4358:4369   */\n      0x00\n        /* \"#utility.yul\":4392:4398   */\n      dup3\n        /* \"#utility.yul\":4387:4390   */\n      dup3\n        /* \"#utility.yul\":4380:4399   */\n      mstore\n        /* \"#utility.yul\":4432:4436   */\n      0x20\n        /* \"#utility.yul\":4427:4430   */\n      dup3\n        /* \"#utility.yul\":4423:4437   */\n      add\n        /* \"#utility.yul\":4408:4437   */\n      swap1\n      pop\n        /* \"#utility.yul\":4274:4443   */\n      swap3\n      swap2\n      pop\n      pop\n      jump\t// out\n        /* \"#utility.yul\":4449:4622   */\n    tag_58:\n        /* \"#utility.yul\":4589:4614   */\n      0x496e76616c696420526f6d616e20636861726163746572000000000000000000\n        /* \"#utility.yul\":4585:4586   */\n      0x00\n        /* \"#utility.yul\":4577:4583   */\n      dup3\n        /* \"#utility.yul\":4573:4587   */\n      add\n        /* \"#utility.yul\":4566:4615   */\n      mstore\n        /* \"#utility.yul\":4449:4622   */\n      pop\n      jump\t// out\n        /* \"#utility.yul\":4628:4994   */\n    tag_59:\n        /* \"#utility.yul\":4770:4773   */\n      0x00\n        /* \"#utility.yul\":4791:4858   */\n      tag_116\n        /* \"#utility.yul\":4855:4857   */\n      0x17\n        /* \"#utility.yul\":4850:4853   */\n      dup4\n        /* \"#utility.yul\":4791:4858   */\n      tag_57\n      jump\t// in\n    tag_116:\n        /* \"#utility.yul\":4784:4858   */\n      swap2\n      pop\n        /* \"#utility.yul\":4867:4960   */\n      tag_117\n        /* \"#utility.yul\":4956:4959   */\n      dup3\n        /* \"#utility.yul\":4867:4960   */\n      tag_58\n      jump\t// in\n    tag_117:\n        /* \"#utility.yul\":4985:4987   */\n      0x20\n        /* \"#utility.yul\":4980:4983   */\n      dup3\n        /* \"#utility.yul\":4976:4988   */\n      add\n        /* \"#utility.yul\":4969:4988   */\n      swap1\n      pop\n        /* \"#utility.yul\":4628:4994   */\n      swap2\n      swap1\n      pop\n      jump\t// out\n        /* \"#utility.yul\":5000:5419   */\n    tag_40:\n        /* \"#utility.yul\":5166:5170   */\n      0x00\n        /* \"#utility.yul\":5204:5206   */\n      0x20\n        /* \"#utility.yul\":5193:5202   */\n      dup3\n        /* \"#utility.yul\":5189:5207   */\n      add\n        /* \"#utility.yul\":5181:5207   */\n      swap1\n      pop\n        /* \"#utility.yul\":5253:5262   */\n      dup2\n        /* \"#utility.yul\":5247:5251   */\n      dup2\n        /* \"#utility.yul\":5243:5263   */\n      sub\n        /* \"#utility.yul\":5239:5240   */\n      0x00\n        /* \"#utility.yul\":5228:5237   */\n      dup4\n        /* \"#utility.yul\":5224:5241   */\n      add\n        /* \"#utility.yul\":5217:5264   */\n      mstore\n        /* \"#utility.yul\":5281:5412   */\n      tag_119\n        /* \"#utility.yul\":5407:5411   */\n      dup2\n        /* \"#utility.yul\":5281:5412   */\n      tag_59\n      jump\t// in\n    tag_119:\n        /* \"#utility.yul\":5273:5412   */\n      swap1\n      pop\n        /* \"#utility.yul\":5000:5419   */\n      swap2\n      swap1\n      pop\n      jump\t// out\n\n    auxdata: 0xa2646970667358221220b95fedaa655ab2a397b6a5b1c3ba81c8e0468fff3b302e63c9d5ac79bbbe2d2f64736f6c634300081e0033\n}\n",
				"bytecode": {
					"linkReferences": {},
					"object": "6080604052348015600e575f5ffd5b506106e18061001c5f395ff3fe608060405234801561000f575f5ffd5b5060043610610029575f3560e01c8063cb159dfe1461002d575b5f5ffd5b610047600480360381019061004291906104fb565b61005d565b604051610054919061055a565b60405180910390f35b5f5f8290505f5f90505f825190505f5f90505b81811015610121575f61009f85838151811061008f5761008e610573565b5b602001015160f81c60f81b61012d565b90506001836100ae91906105cd565b821080156100ec57506100e9856001846100c89190610600565b815181106100d9576100d8610573565b5b602001015160f81c60f81b61012d565b81105b156101045780846100fd91906105cd565b9350610113565b80846101109190610600565b93505b508080600101915050610070565b50819350505050919050565b5f7f4900000000000000000000000000000000000000000000000000000000000000827effffffffffffffffffffffffffffffffffffffffffffffffffffffffffffff19160361018057600190506103a9565b7f5600000000000000000000000000000000000000000000000000000000000000827effffffffffffffffffffffffffffffffffffffffffffffffffffffffffffff1916036101d257600590506103a9565b7f5800000000000000000000000000000000000000000000000000000000000000827effffffffffffffffffffffffffffffffffffffffffffffffffffffffffffff19160361022457600a90506103a9565b7f4c00000000000000000000000000000000000000000000000000000000000000827effffffffffffffffffffffffffffffffffffffffffffffffffffffffffffff19160361027657603290506103a9565b7f4300000000000000000000000000000000000000000000000000000000000000827effffffffffffffffffffffffffffffffffffffffffffffffffffffffffffff1916036102c857606490506103a9565b7f4400000000000000000000000000000000000000000000000000000000000000827effffffffffffffffffffffffffffffffffffffffffffffffffffffffffffff19160361031b576101f490506103a9565b7f4d00000000000000000000000000000000000000000000000000000000000000827effffffffffffffffffffffffffffffffffffffffffffffffffffffffffffff19160361036e576103e890506103a9565b6040517f08c379a00000000000000000000000000000000000000000000000000000000081526004016103a09061068d565b60405180910390fd5b919050565b5f604051905090565b5f5ffd5b5f5ffd5b5f5ffd5b5f5ffd5b5f601f19601f8301169050919050565b7f4e487b71000000000000000000000000000000000000000000000000000000005f52604160045260245ffd5b61040d826103c7565b810181811067ffffffffffffffff8211171561042c5761042b6103d7565b5b80604052505050565b5f61043e6103ae565b905061044a8282610404565b919050565b5f67ffffffffffffffff821115610469576104686103d7565b5b610472826103c7565b9050602081019050919050565b828183375f83830152505050565b5f61049f61049a8461044f565b610435565b9050828152602081018484840111156104bb576104ba6103c3565b5b6104c684828561047f565b509392505050565b5f82601f8301126104e2576104e16103bf565b5b81356104f284826020860161048d565b91505092915050565b5f602082840312156105105761050f6103b7565b5b5f82013567ffffffffffffffff81111561052d5761052c6103bb565b5b610539848285016104ce565b91505092915050565b5f819050919050565b61055481610542565b82525050565b5f60208201905061056d5f83018461054b565b92915050565b7f4e487b71000000000000000000000000000000000000000000000000000000005f52603260045260245ffd5b7f4e487b71000000000000000000000000000000000000000000000000000000005f52601160045260245ffd5b5f6105d782610542565b91506105e283610542565b92508282039050818111156105fa576105f96105a0565b5b92915050565b5f61060a82610542565b915061061583610542565b925082820190508082111561062d5761062c6105a0565b5b92915050565b5f82825260208201905092915050565b7f496e76616c696420526f6d616e206368617261637465720000000000000000005f82015250565b5f610677601783610633565b915061068282610643565b602082019050919050565b5f6020820190508181035f8301526106a48161066b565b905091905056fea2646970667358221220b95fedaa655ab2a397b6a5b1c3ba81c8e0468fff3b302e63c9d5ac79bbbe2d2f64736f6c634300081e0033",
					"opcodes": "PUSH1 0x80 PUSH1 0x40 MSTORE CALLVALUE DUP1 ISZERO PUSH1 0xE JUMPI PUSH0 PUSH0 REVERT JUMPDEST POP PUSH2 0x6E1 DUP1 PUSH2 0x1C PUSH0 CODECOPY PUSH0 RETURN INVALID PUSH1 0x80 PUSH1 0x40 MSTORE CALLVALUE DUP1 ISZERO PUSH2 0xF JUMPI PUSH0 PUSH0 REVERT JUMPDEST POP PUSH1 0x4 CALLDATASIZE LT PUSH2 0x29 JUMPI PUSH0 CALLDATALOAD PUSH1 0xE0 SHR DUP1 PUSH4 0xCB159DFE EQ PUSH2 0x2D JUMPI JUMPDEST PUSH0 PUSH0 REVERT JUMPDEST PUSH2 0x47 PUSH1 0x4 DUP1 CALLDATASIZE SUB DUP2 ADD SWAP1 PUSH2 0x42 SWAP2 SWAP1 PUSH2 0x4FB JUMP JUMPDEST PUSH2 0x5D JUMP JUMPDEST PUSH1 0x40 MLOAD PUSH2 0x54 SWAP2 SWAP1 PUSH2 0x55A JUMP JUMPDEST PUSH1 0x40 MLOAD DUP1 SWAP2 SUB SWAP1 RETURN JUMPDEST PUSH0 PUSH0 DUP3 SWAP1 POP PUSH0 PUSH0 SWAP1 POP PUSH0 DUP3 MLOAD SWAP1 POP PUSH0 PUSH0 SWAP1 POP JUMPDEST DUP2 DUP2 LT ISZERO PUSH2 0x121 JUMPI PUSH0 PUSH2 0x9F DUP6 DUP4 DUP2 MLOAD DUP2 LT PUSH2 0x8F JUMPI PUSH2 0x8E PUSH2 0x573 JUMP JUMPDEST JUMPDEST PUSH1 0x20 ADD ADD MLOAD PUSH1 0xF8 SHR PUSH1 0xF8 SHL PUSH2 0x12D JUMP JUMPDEST SWAP1 POP PUSH1 0x1 DUP4 PUSH2 0xAE SWAP2 SWAP1 PUSH2 0x5CD JUMP JUMPDEST DUP3 LT DUP1 ISZERO PUSH2 0xEC JUMPI POP PUSH2 0xE9 DUP6 PUSH1 0x1 DUP5 PUSH2 0xC8 SWAP2 SWAP1 PUSH2 0x600 JUMP JUMPDEST DUP2 MLOAD DUP2 LT PUSH2 0xD9 JUMPI PUSH2 0xD8 PUSH2 0x573 JUMP JUMPDEST JUMPDEST PUSH1 0x20 ADD ADD MLOAD PUSH1 0xF8 SHR PUSH1 0xF8 SHL PUSH2 0x12D JUMP JUMPDEST DUP2 LT JUMPDEST ISZERO PUSH2 0x104 JUMPI DUP1 DUP5 PUSH2 0xFD SWAP2 SWAP1 PUSH2 0x5CD JUMP JUMPDEST SWAP4 POP PUSH2 0x113 JUMP JUMPDEST DUP1 DUP5 PUSH2 0x110 SWAP2 SWAP1 PUSH2 0x600 JUMP JUMPDEST SWAP4 POP JUMPDEST POP DUP1 DUP1 PUSH1 0x1 ADD SWAP2 POP POP PUSH2 0x70 JUMP JUMPDEST POP DUP2 SWAP4 POP POP POP POP SWAP2 SWAP1 POP JUMP JUMPDEST PUSH0 PUSH32 0x4900000000000000000000000000000000000000000000000000000000000000 DUP3 PUSH31 0xFFFFFFFFFFFFFFFFFFFFFFFFFFFFFFFFFFFFFFFFFFFFFFFFFFFFFFFFFFFFFF NOT AND SUB PUSH2 0x180 JUMPI PUSH1 0x1 SWAP1 POP PUSH2 0x3A9 JUMP JUMPDEST PUSH32 0x5600000000000000000000000000000000000000000000000000000000000000 DUP3 PUSH31 0xFFFFFFFFFFFFFFFFFFFFFFFFFFFFFFFFFFFFFFFFFFFFFFFFFFFFFFFFFFFFFF NOT AND SUB PUSH2 0x1D2 JUMPI PUSH1 0x5 SWAP1 POP PUSH2 0x3A9 JUMP JUMPDEST PUSH32 0x5800000000000000000000000000000000000000000000000000000000000000 DUP3 PUSH31 0xFFFFFFFFFFFFFFFFFFFFFFFFFFFFFFFFFFFFFFFFFFFFFFFFFFFFFFFFFFFFFF NOT AND SUB PUSH2 0x224 JUMPI PUSH1 0xA SWAP1 POP PUSH2 0x3A9 JUMP JUMPDEST PUSH32 0x4C00000000000000000000000000000000000000000000000000000000000000 DUP3 PUSH31 0xFFFFFFFFFFFFFFFFFFFFFFFFFFFFFFFFFFFFFFFFFFFFFFFFFFFFFFFFFFFFFF NOT AND SUB PUSH2 0x276 JUMPI PUSH1 0x32 SWAP1 POP PUSH2 0x3A9 JUMP JUMPDEST PUSH32 0x4300000000000000000000000000000000000000000000000000000000000000 DUP3 PUSH31 0xFFFFFFFFFFFFFFFFFFFFFFFFFFFFFFFFFFFFFFFFFFFFFFFFFFFFFFFFFFFFFF NOT AND SUB PUSH2 0x2C8 JUMPI PUSH1 0x64 SWAP1 POP PUSH2 0x3A9 JUMP JUMPDEST PUSH32 0x4400000000000000000000000000000000000000000000000000000000000000 DUP3 PUSH31 0xFFFFFFFFFFFFFFFFFFFFFFFFFFFFFFFFFFFFFFFFFFFFFFFFFFFFFFFFFFFFFF NOT AND SUB PUSH2 0x31B JUMPI PUSH2 0x1F4 SWAP1 POP PUSH2 0x3A9 JUMP JUMPDEST PUSH32 0x4D00000000000000000000000000000000000000000000000000000000000000 DUP3 PUSH31 0xFFFFFFFFFFFFFFFFFFFFFFFFFFFFFFFFFFFFFFFFFFFFFFFFFFFFFFFFFFFFFF NOT AND SUB PUSH2 0x36E JUMPI PUSH2 0x3E8 SWAP1 POP PUSH2 0x3A9 JUMP JUMPDEST PUSH1 0x40 MLOAD PUSH32 0x8C379A000000000000000000000000000000000000000000000000000000000 DUP2 MSTORE PUSH1 0x4 ADD PUSH2 0x3A0 SWAP1 PUSH2 0x68D JUMP JUMPDEST PUSH1 0x40 MLOAD DUP1 SWAP2 SUB SWAP1 REVERT JUMPDEST SWAP2 SWAP1 POP JUMP JUMPDEST PUSH0 PUSH1 0x40 MLOAD SWAP1 POP SWAP1 JUMP JUMPDEST PUSH0 PUSH0 REVERT JUMPDEST PUSH0 PUSH0 REVERT JUMPDEST PUSH0 PUSH0 REVERT JUMPDEST PUSH0 PUSH0 REVERT JUMPDEST PUSH0 PUSH1 0x1F NOT PUSH1 0x1F DUP4 ADD AND SWAP1 POP SWAP2 SWAP1 POP JUMP JUMPDEST PUSH32 0x4E487B7100000000000000000000000000000000000000000000000000000000 PUSH0 MSTORE PUSH1 0x41 PUSH1 0x4 MSTORE PUSH1 0x24 PUSH0 REVERT JUMPDEST PUSH2 0x40D DUP3 PUSH2 0x3C7 JUMP JUMPDEST DUP2 ADD DUP2 DUP2 LT PUSH8 0xFFFFFFFFFFFFFFFF DUP3 GT OR ISZERO PUSH2 0x42C JUMPI PUSH2 0x42B PUSH2 0x3D7 JUMP JUMPDEST JUMPDEST DUP1 PUSH1 0x40 MSTORE POP POP POP JUMP JUMPDEST PUSH0 PUSH2 0x43E PUSH2 0x3AE JUMP JUMPDEST SWAP1 POP PUSH2 0x44A DUP3 DUP3 PUSH2 0x404 JUMP JUMPDEST SWAP2 SWAP1 POP JUMP JUMPDEST PUSH0 PUSH8 0xFFFFFFFFFFFFFFFF DUP3 GT ISZERO PUSH2 0x469 JUMPI PUSH2 0x468 PUSH2 0x3D7 JUMP JUMPDEST JUMPDEST PUSH2 0x472 DUP3 PUSH2 0x3C7 JUMP JUMPDEST SWAP1 POP PUSH1 0x20 DUP2 ADD SWAP1 POP SWAP2 SWAP1 POP JUMP JUMPDEST DUP3 DUP2 DUP4 CALLDATACOPY PUSH0 DUP4 DUP4 ADD MSTORE POP POP POP JUMP JUMPDEST PUSH0 PUSH2 0x49F PUSH2 0x49A DUP5 PUSH2 0x44F JUMP JUMPDEST PUSH2 0x435 JUMP JUMPDEST SWAP1 POP DUP3 DUP2 MSTORE PUSH1 0x20 DUP2 ADD DUP5 DUP5 DUP5 ADD GT ISZERO PUSH2 0x4BB JUMPI PUSH2 0x4BA PUSH2 0x3C3 JUMP JUMPDEST JUMPDEST PUSH2 0x4C6 DUP5 DUP3 DUP6 PUSH2 0x47F JUMP JUMPDEST POP SWAP4 SWAP3 POP POP POP JUMP JUMPDEST PUSH0 DUP3 PUSH1 0x1F DUP4 ADD SLT PUSH2 0x4E2 JUMPI PUSH2 0x4E1 PUSH2 0x3BF JUMP JUMPDEST JUMPDEST DUP2 CALLDATALOAD PUSH2 0x4F2 DUP5 DUP3 PUSH1 0x20 DUP7 ADD PUSH2 0x48D JUMP JUMPDEST SWAP2 POP POP SWAP3 SWAP2 POP POP JUMP JUMPDEST PUSH0 PUSH1 0x20 DUP3 DUP5 SUB SLT ISZERO PUSH2 0x510 JUMPI PUSH2 0x50F PUSH2 0x3B7 JUMP JUMPDEST JUMPDEST PUSH0 DUP3 ADD CALLDATALOAD PUSH8 0xFFFFFFFFFFFFFFFF DUP2 GT ISZERO PUSH2 0x52D JUMPI PUSH2 0x52C PUSH2 0x3BB JUMP JUMPDEST JUMPDEST PUSH2 0x539 DUP5 DUP3 DUP6 ADD PUSH2 0x4CE JUMP JUMPDEST SWAP2 POP POP SWAP3 SWAP2 POP POP JUMP JUMPDEST PUSH0 DUP2 SWAP1 POP SWAP2 SWAP1 POP JUMP JUMPDEST PUSH2 0x554 DUP2 PUSH2 0x542 JUMP JUMPDEST DUP3 MSTORE POP POP JUMP JUMPDEST PUSH0 PUSH1 0x20 DUP3 ADD SWAP1 POP PUSH2 0x56D PUSH0 DUP4 ADD DUP5 PUSH2 0x54B JUMP JUMPDEST SWAP3 SWAP2 POP POP JUMP JUMPDEST PUSH32 0x4E487B7100000000000000000000000000000000000000000000000000000000 PUSH0 MSTORE PUSH1 0x32 PUSH1 0x4 MSTORE PUSH1 0x24 PUSH0 REVERT JUMPDEST PUSH32 0x4E487B7100000000000000000000000000000000000000000000000000000000 PUSH0 MSTORE PUSH1 0x11 PUSH1 0x4 MSTORE PUSH1 0x24 PUSH0 REVERT JUMPDEST PUSH0 PUSH2 0x5D7 DUP3 PUSH2 0x542 JUMP JUMPDEST SWAP2 POP PUSH2 0x5E2 DUP4 PUSH2 0x542 JUMP JUMPDEST SWAP3 POP DUP3 DUP3 SUB SWAP1 POP DUP2 DUP2 GT ISZERO PUSH2 0x5FA JUMPI PUSH2 0x5F9 PUSH2 0x5A0 JUMP JUMPDEST JUMPDEST SWAP3 SWAP2 POP POP JUMP JUMPDEST PUSH0 PUSH2 0x60A DUP3 PUSH2 0x542 JUMP JUMPDEST SWAP2 POP PUSH2 0x615 DUP4 PUSH2 0x542 JUMP JUMPDEST SWAP3 POP DUP3 DUP3 ADD SWAP1 POP DUP1 DUP3 GT ISZERO PUSH2 0x62D JUMPI PUSH2 0x62C PUSH2 0x5A0 JUMP JUMPDEST JUMPDEST SWAP3 SWAP2 POP POP JUMP JUMPDEST PUSH0 DUP3 DUP3 MSTORE PUSH1 0x20 DUP3 ADD SWAP1 POP SWAP3 SWAP2 POP POP JUMP JUMPDEST PUSH32 0x496E76616C696420526F6D616E20636861726163746572000000000000000000 PUSH0 DUP3 ADD MSTORE POP JUMP JUMPDEST PUSH0 PUSH2 0x677 PUSH1 0x17 DUP4 PUSH2 0x633 JUMP JUMPDEST SWAP2 POP PUSH2 0x682 DUP3 PUSH2 0x643 JUMP JUMPDEST PUSH1 0x20 DUP3 ADD SWAP1 POP SWAP2 SWAP1 POP JUMP JUMPDEST PUSH0 PUSH1 0x20 DUP3 ADD SWAP1 POP DUP2 DUP2 SUB PUSH0 DUP4 ADD MSTORE PUSH2 0x6A4 DUP2 PUSH2 0x66B JUMP JUMPDEST SWAP1 POP SWAP2 SWAP1 POP JUMP INVALID LOG2 PUSH5 0x6970667358 0x22 SLT KECCAK256 0xB9 PUSH0 0xED 0xAA PUSH6 0x5AB2A397B6A5 0xB1 0xC3 0xBA DUP2 0xC8 RJUMP 0x468F SELFDESTRUCT EXTCODESIZE ADDRESS 0x2E PUSH4 0xC9D5AC79 0xBB 0xBE 0x2D 0x2F PUSH5 0x736F6C6343 STOP ADDMOD 0x1E STOP CALLER "
				},
				"gasEstimates": {
					"creation": {
						"codeDepositCost": "352200",
						"executionCost": "391",
						"totalCost": "352591"
					},
					"external": {
						"romanToInt(string)": "infinite"
					},
					"internal": {
						"getValue(bytes1)": "infinite"
					}
				},
				"methodIdentifiers": {
					"romanToInt(string)": "cb159dfe"
				}
			},
			"storageLayout": {
				"storage": [],
				"types": null
			},
			"userdoc": {
				"kind": "user",
				"methods": {},
				"version": 1
			}
		}
	}
}