{
	"homework1/homework01.sol": {
		"Voting": {
			"abi": [
				{
					"inputs": [
						{
							"internalType": "uint256",
							"name": "",
							"type": "uint256"
						}
					],
					"name": "candidates",
					"outputs": [
						{
							"internalType": "string",
							"name": "",
							"type": "string"
						}
					],
					"stateMutability": "view",
					"type": "function"
				},
				{
					"inputs": [
						{
							"internalType": "string",
							"name": "candidate",
							"type": "string"
						}
					],
					"name": "getVotes",
					"outputs": [
						{
							"internalType": "uint256",
							"name": "",
							"type": "uint256"
						}
					],
					"stateMutability": "view",
					"type": "function"
				},
				{
					"inputs": [],
					"name": "resetVotes",
					"outputs": [],
					"stateMutability": "nonpayable",
					"type": "function"
				},
				{
					"inputs": [
						{
							"internalType": "string",
							"name": "candidate",
							"type": "string"
						}
					],
					"name": "vote",
					"outputs": [],
					"stateMutability": "nonpayable",
					"type": "function"
				}
			],
			"devdoc": {
				"kind": "dev",
				"methods": {},
				"version": 1
			},
			"evm": {
				"assembly": "    /* \"homework1/homework01.sol\":102:1001  contract Voting {... */\n  mstore(0x40, 0x80)\n  callvalue\n  dup1\n  iszero\n  tag_1\n  jumpi\n  revert(0x00, 0x00)\ntag_1:\n  pop\n  dataSize(sub_0)\n  dup1\n  dataOffset(sub_0)\n  0x00\n  codecopy\n  0x00\n  return\nstop\n\nsub_0: assembly {\n        /* \"homework1/homework01.sol\":102:1001  contract Voting {... */\n      mstore(0x40, 0x80)\n      callvalue\n      dup1\n      iszero\n      tag_1\n      jumpi\n      revert(0x00, 0x00)\n    tag_1:\n      pop\n      jumpi(tag_2, lt(calldatasize, 0x04))\n      shr(0xe0, calldataload(0x00))\n      dup1\n      0x3477ee2e\n      eq\n      tag_3\n      jumpi\n      dup1\n      0x805265e5\n      eq\n      tag_4\n      jumpi\n      dup1\n      0xb9830ff1\n      eq\n      tag_5\n      jumpi\n      dup1\n      0xfc36e15b\n      eq\n      tag_6\n      jumpi\n    tag_2:\n      revert(0x00, 0x00)\n        /* \"homework1/homework01.sol\":247:274  string[]  public candidates */\n    tag_3:\n      tag_7\n      0x04\n      dup1\n      calldatasize\n      sub\n      dup2\n      add\n      swap1\n      tag_8\n      swap2\n      swap1\n      tag_9\n      jump\t// in\n    tag_8:\n      tag_10\n      jump\t// in\n    tag_7:\n      mload(0x40)\n      tag_11\n      swap2\n      swap1\n      tag_12\n      jump\t// in\n    tag_11:\n      mload(0x40)\n      dup1\n      swap2\n      sub\n      swap1\n      return\n        /* \"homework1/homework01.sol\":595:709  function getVotes(string calldata candidate) public view returns (uint) {... */\n    tag_4:\n      tag_13\n      0x04\n      dup1\n      calldatasize\n      sub\n      dup2\n      add\n      swap1\n      tag_14\n      swap2\n      swap1\n      tag_15\n      jump\t// in\n    tag_14:\n      tag_16\n      jump\t// in\n    tag_13:\n      mload(0x40)\n      tag_17\n      swap2\n      swap1\n      tag_18\n      jump\t// in\n    tag_17:\n      mload(0x40)\n      dup1\n      swap2\n      sub\n      swap1\n      return\n        /* \"homework1/homework01.sol\":785:998  function resetVotes() public {... */\n    tag_5:\n      tag_19\n      tag_20\n      jump\t// in\n    tag_19:\n      stop\n        /* \"homework1/homework01.sol\":348:521  function vote(string calldata candidate) public {... */\n    tag_6:\n      tag_21\n      0x04\n      dup1\n      calldatasize\n      sub\n      dup2\n      add\n      swap1\n      tag_22\n      swap2\n      swap1\n      tag_15\n      jump\t// in\n    tag_22:\n      tag_23\n      jump\t// in\n    tag_21:\n      stop\n        /* \"homework1/homework01.sol\":247:274  string[]  public candidates */\n    tag_10:\n      0x01\n      dup2\n      dup2\n      sload\n      dup2\n      lt\n      tag_24\n      jumpi\n      0x00\n      dup1\n      revert\n    tag_24:\n      swap1\n      0x00\n      mstore\n      keccak256(0x00, 0x20)\n      add\n      0x00\n      swap2\n      pop\n      swap1\n      pop\n      dup1\n      sload\n      tag_26\n      swap1\n      tag_27\n      jump\t// in\n    tag_26:\n      dup1\n      0x1f\n      add\n      0x20\n      dup1\n      swap2\n      div\n      mul\n      0x20\n      add\n      mload(0x40)\n      swap1\n      dup2\n      add\n      0x40\n      mstore\n      dup1\n      swap3\n      swap2\n      swap1\n      dup2\n      dup2\n      mstore\n      0x20\n      add\n      dup3\n      dup1\n      sload\n      tag_28\n      swap1\n      tag_27\n      jump\t// in\n    tag_28:\n      dup1\n      iszero\n      tag_29\n      jumpi\n      dup1\n      0x1f\n      lt\n      tag_30\n      jumpi\n      0x0100\n      dup1\n      dup4\n      sload\n      div\n      mul\n      dup4\n      mstore\n      swap2\n      0x20\n      add\n      swap2\n      jump(tag_29)\n    tag_30:\n      dup3\n      add\n      swap2\n      swap1\n      0x00\n      mstore\n      keccak256(0x00, 0x20)\n      swap1\n    tag_31:\n      dup2\n      sload\n      dup2\n      mstore\n      swap1\n      0x01\n      add\n      swap1\n      0x20\n      add\n      dup1\n      dup4\n      gt\n      tag_31\n      jumpi\n      dup3\n      swap1\n      sub\n      0x1f\n      and\n      dup3\n      add\n      swap2\n    tag_29:\n      pop\n      pop\n      pop\n      pop\n      pop\n      dup2\n      jump\t// out\n        /* \"homework1/homework01.sol\":595:709  function getVotes(string calldata candidate) public view returns (uint) {... */\n    tag_16:\n        /* \"homework1/homework01.sol\":661:665  uint */\n      0x00\n        /* \"homework1/homework01.sol\":685:690  votes */\n      0x00\n        /* \"homework1/homework01.sol\":691:700  candidate */\n      dup4\n      dup4\n        /* \"homework1/homework01.sol\":685:701  votes[candidate] */\n      mload(0x40)\n      tag_33\n      swap3\n      swap2\n      swap1\n      tag_34\n      jump\t// in\n    tag_33:\n      swap1\n      dup2\n      mstore\n      0x20\n      add\n      mload(0x40)\n      dup1\n      swap2\n      sub\n      swap1\n      keccak256\n      sload\n        /* \"homework1/homework01.sol\":678:701  return votes[candidate] */\n      swap1\n      pop\n        /* \"homework1/homework01.sol\":595:709  function getVotes(string calldata candidate) public view returns (uint) {... */\n      swap3\n      swap2\n      pop\n      pop\n      jump\t// out\n        /* \"homework1/homework01.sol\":785:998  function resetVotes() public {... */\n    tag_20:\n        /* \"homework1/homework01.sol\":825:833  uint len */\n      0x00\n        /* \"homework1/homework01.sol\":836:846  candidates */\n      0x01\n        /* \"homework1/homework01.sol\":836:853  candidates.length */\n      dup1\n      sload\n      swap1\n      pop\n        /* \"homework1/homework01.sol\":825:853  uint len = candidates.length */\n      swap1\n      pop\n        /* \"homework1/homework01.sol\":869:875  uint i */\n      0x00\n        /* \"homework1/homework01.sol\":878:879  0 */\n      0x00\n        /* \"homework1/homework01.sol\":869:879  uint i = 0 */\n      swap1\n      pop\n        /* \"homework1/homework01.sol\":864:946  for (uint i = 0; i < len; i++) {... */\n    tag_36:\n        /* \"homework1/homework01.sol\":885:888  len */\n      dup2\n        /* \"homework1/homework01.sol\":881:882  i */\n      dup2\n        /* \"homework1/homework01.sol\":881:888  i < len */\n      lt\n        /* \"homework1/homework01.sol\":864:946  for (uint i = 0; i < len; i++) {... */\n      iszero\n      tag_37\n      jumpi\n        /* \"homework1/homework01.sol\":933:934  0 */\n      0x00\n        /* \"homework1/homework01.sol\":910:915  votes */\n      0x00\n        /* \"homework1/homework01.sol\":916:926  candidates */\n      0x01\n        /* \"homework1/homework01.sol\":927:928  i */\n      dup4\n        /* \"homework1/homework01.sol\":916:929  candidates[i] */\n      dup2\n      sload\n      dup2\n      lt\n      tag_39\n      jumpi\n      tag_40\n      tag_41\n      jump\t// in\n    tag_40:\n    tag_39:\n      swap1\n      0x00\n      mstore\n      keccak256(0x00, 0x20)\n      add\n        /* \"homework1/homework01.sol\":910:930  votes[candidates[i]] */\n      mload(0x40)\n      tag_43\n      swap2\n      swap1\n      tag_44\n      jump\t// in\n    tag_43:\n      swap1\n      dup2\n      mstore\n      0x20\n      add\n      mload(0x40)\n      dup1\n      swap2\n      sub\n      swap1\n      keccak256\n        /* \"homework1/homework01.sol\":910:934  votes[candidates[i]] = 0 */\n      dup2\n      swap1\n      sstore\n      pop\n        /* \"homework1/homework01.sol\":890:893  i++ */\n      dup1\n      dup1\n      0x01\n      add\n      swap2\n      pop\n      pop\n        /* \"homework1/homework01.sol\":864:946  for (uint i = 0; i < len; i++) {... */\n      jump(tag_36)\n    tag_37:\n      pop\n        /* \"homework1/homework01.sol\":963:973  candidates */\n      0x01\n      0x00\n        /* \"homework1/homework01.sol\":956:973  delete candidates */\n      tag_45\n      swap2\n      swap1\n      tag_46\n      jump\t// in\n    tag_45:\n        /* \"homework1/homework01.sol\":814:998  {... */\n      pop\n        /* \"homework1/homework01.sol\":785:998  function resetVotes() public {... */\n      jump\t// out\n        /* \"homework1/homework01.sol\":348:521  function vote(string calldata candidate) public {... */\n    tag_23:\n        /* \"homework1/homework01.sol\":430:431  0 */\n      0x00\n        /* \"homework1/homework01.sol\":410:415  votes */\n      0x00\n        /* \"homework1/homework01.sol\":416:425  candidate */\n      dup4\n      dup4\n        /* \"homework1/homework01.sol\":410:426  votes[candidate] */\n      mload(0x40)\n      tag_48\n      swap3\n      swap2\n      swap1\n      tag_34\n      jump\t// in\n    tag_48:\n      swap1\n      dup2\n      mstore\n      0x20\n      add\n      mload(0x40)\n      dup1\n      swap2\n      sub\n      swap1\n      keccak256\n      sload\n        /* \"homework1/homework01.sol\":410:431  votes[candidate] == 0 */\n      sub\n        /* \"homework1/homework01.sol\":407:485  if(votes[candidate] == 0){... */\n      tag_49\n      jumpi\n        /* \"homework1/homework01.sol\":447:457  candidates */\n      0x01\n        /* \"homework1/homework01.sol\":463:472  candidate */\n      dup3\n      dup3\n        /* \"homework1/homework01.sol\":447:473  candidates.push(candidate) */\n      swap1\n      swap2\n      dup1\n      0x01\n      dup2\n      sload\n      add\n      dup1\n      dup3\n      sstore\n      dup1\n      swap2\n      pop\n      pop\n      0x01\n      swap1\n      sub\n      swap1\n      0x00\n      mstore\n      keccak256(0x00, 0x20)\n      add\n      0x00\n      swap1\n      swap2\n      swap3\n      swap1\n      swap2\n      swap3\n      swap1\n      swap2\n      swap3\n      swap1\n      swap2\n      swap3\n      pop\n      swap2\n      dup3\n      tag_51\n      swap3\n      swap2\n      swap1\n      tag_52\n      jump\t// in\n    tag_51:\n      pop\n        /* \"homework1/homework01.sol\":407:485  if(votes[candidate] == 0){... */\n    tag_49:\n        /* \"homework1/homework01.sol\":495:500  votes */\n      0x00\n        /* \"homework1/homework01.sol\":501:510  candidate */\n      dup3\n      dup3\n        /* \"homework1/homework01.sol\":495:511  votes[candidate] */\n      mload(0x40)\n      tag_53\n      swap3\n      swap2\n      swap1\n      tag_34\n      jump\t// in\n    tag_53:\n      swap1\n      dup2\n      mstore\n      0x20\n      add\n      mload(0x40)\n      dup1\n      swap2\n      sub\n      swap1\n      keccak256\n      0x00\n        /* \"homework1/homework01.sol\":495:513  votes[candidate]++ */\n      dup2\n      sload\n      dup1\n      swap3\n      swap2\n      swap1\n      tag_54\n      swap1\n      tag_55\n      jump\t// in\n    tag_54:\n      swap2\n      swap1\n      pop\n      sstore\n      pop\n        /* \"homework1/homework01.sol\":348:521  function vote(string calldata candidate) public {... */\n      pop\n      pop\n      jump\t// out\n    tag_46:\n      pop\n      dup1\n      sload\n      0x00\n      dup3\n      sstore\n      swap1\n      0x00\n      mstore\n      keccak256(0x00, 0x20)\n      swap1\n      dup2\n      add\n      swap1\n      tag_57\n      swap2\n      swap1\n      tag_58\n      jump\t// in\n    tag_57:\n      pop\n      jump\t// out\n    tag_58:\n    tag_59:\n      dup1\n      dup3\n      gt\n      iszero\n      tag_60\n      jumpi\n      0x00\n      dup2\n      dup2\n      tag_61\n      swap2\n      swap1\n      tag_62\n      jump\t// in\n    tag_61:\n      pop\n      0x01\n      add\n      jump(tag_59)\n    tag_60:\n      pop\n      swap1\n      jump\t// out\n    tag_62:\n      pop\n      dup1\n      sload\n      tag_63\n      swap1\n      tag_27\n      jump\t// in\n    tag_63:\n      0x00\n      dup3\n      sstore\n      dup1\n      0x1f\n      lt\n      tag_65\n      jumpi\n      pop\n      jump(tag_64)\n    tag_65:\n      0x1f\n      add\n      0x20\n      swap1\n      div\n      swap1\n      0x00\n      mstore\n      keccak256(0x00, 0x20)\n      swap1\n      dup2\n      add\n      swap1\n      tag_66\n      swap2\n      swap1\n      tag_67\n      jump\t// in\n    tag_66:\n    tag_64:\n      pop\n      jump\t// out\n    tag_67:\n    tag_68:\n      dup1\n      dup3\n      gt\n      iszero\n      tag_69\n      jumpi\n      0x00\n      dup2\n      0x00\n      swap1\n      sstore\n      pop\n      0x01\n      add\n      jump(tag_68)\n    tag_69:\n      pop\n      swap1\n      jump\t// out\n        /* \"#utility.yul\":88:205   */\n    tag_71:\n        /* \"#utility.yul\":197:198   */\n      0x00\n        /* \"#utility.yul\":194:195   */\n      0x00\n        /* \"#utility.yul\":187:199   */\n      revert\n        /* \"#utility.yul\":211:328   */\n    tag_72:\n        /* \"#utility.yul\":320:321   */\n      0x00\n        /* \"#utility.yul\":317:318   */\n      0x00\n        /* \"#utility.yul\":310:322   */\n      revert\n        /* \"#utility.yul\":334:411   */\n    tag_73:\n        /* \"#utility.yul\":371:378   */\n      0x00\n        /* \"#utility.yul\":400:405   */\n      dup2\n        /* \"#utility.yul\":389:405   */\n      swap1\n      pop\n        /* \"#utility.yul\":334:411   */\n      swap2\n      swap1\n      pop\n      jump\t// out\n        /* \"#utility.yul\":417:539   */\n    tag_74:\n        /* \"#utility.yul\":490:514   */\n      tag_115\n        /* \"#utility.yul\":508:513   */\n      dup2\n        /* \"#utility.yul\":490:514   */\n      tag_73\n      jump\t// in\n    tag_115:\n        /* \"#utility.yul\":483:488   */\n      dup2\n        /* \"#utility.yul\":480:515   */\n      eq\n        /* \"#utility.yul\":470:533   */\n      tag_116\n      jumpi\n        /* \"#utility.yul\":529:530   */\n      0x00\n        /* \"#utility.yul\":526:527   */\n      0x00\n        /* \"#utility.yul\":519:531   */\n      revert\n        /* \"#utility.yul\":470:533   */\n    tag_116:\n        /* \"#utility.yul\":417:539   */\n      pop\n      jump\t// out\n        /* \"#utility.yul\":545:684   */\n    tag_75:\n        /* \"#utility.yul\":591:596   */\n      0x00\n        /* \"#utility.yul\":629:635   */\n      dup2\n        /* \"#utility.yul\":616:636   */\n      calldataload\n        /* \"#utility.yul\":607:636   */\n      swap1\n      pop\n        /* \"#utility.yul\":645:678   */\n      tag_118\n        /* \"#utility.yul\":672:677   */\n      dup2\n        /* \"#utility.yul\":645:678   */\n      tag_74\n      jump\t// in\n    tag_118:\n        /* \"#utility.yul\":545:684   */\n      swap3\n      swap2\n      pop\n      pop\n      jump\t// out\n        /* \"#utility.yul\":690:1019   */\n    tag_9:\n        /* \"#utility.yul\":749:755   */\n      0x00\n        /* \"#utility.yul\":798:800   */\n      0x20\n        /* \"#utility.yul\":786:795   */\n      dup3\n        /* \"#utility.yul\":777:784   */\n      dup5\n        /* \"#utility.yul\":773:796   */\n      sub\n        /* \"#utility.yul\":769:801   */\n      slt\n        /* \"#utility.yul\":766:885   */\n      iszero\n      tag_120\n      jumpi\n        /* \"#utility.yul\":804:883   */\n      tag_121\n      tag_71\n      jump\t// in\n    tag_121:\n        /* \"#utility.yul\":766:885   */\n    tag_120:\n        /* \"#utility.yul\":924:925   */\n      0x00\n        /* \"#utility.yul\":949:1002   */\n      tag_122\n        /* \"#utility.yul\":994:1001   */\n      dup5\n        /* \"#utility.yul\":985:991   */\n      dup3\n        /* \"#utility.yul\":974:983   */\n      dup6\n        /* \"#utility.yul\":970:992   */\n      add\n        /* \"#utility.yul\":949:1002   */\n      tag_75\n      jump\t// in\n    tag_122:\n        /* \"#utility.yul\":939:1002   */\n      swap2\n      pop\n        /* \"#utility.yul\":895:1012   */\n      pop\n        /* \"#utility.yul\":690:1019   */\n      swap3\n      swap2\n      pop\n      pop\n      jump\t// out\n        /* \"#utility.yul\":1025:1124   */\n    tag_76:\n        /* \"#utility.yul\":1077:1083   */\n      0x00\n        /* \"#utility.yul\":1111:1116   */\n      dup2\n        /* \"#utility.yul\":1105:1117   */\n      mload\n        /* \"#utility.yul\":1095:1117   */\n      swap1\n      pop\n        /* \"#utility.yul\":1025:1124   */\n      swap2\n      swap1\n      pop\n      jump\t// out\n        /* \"#utility.yul\":1130:1299   */\n    tag_77:\n        /* \"#utility.yul\":1214:1225   */\n      0x00\n        /* \"#utility.yul\":1248:1254   */\n      dup3\n        /* \"#utility.yul\":1243:1246   */\n      dup3\n        /* \"#utility.yul\":1236:1255   */\n      mstore\n        /* \"#utility.yul\":1288:1292   */\n      0x20\n        /* \"#utility.yul\":1283:1286   */\n      dup3\n        /* \"#utility.yul\":1279:1293   */\n      add\n        /* \"#utility.yul\":1264:1293   */\n      swap1\n      pop\n        /* \"#utility.yul\":1130:1299   */\n      swap3\n      swap2\n      pop\n      pop\n      jump\t// out\n        /* \"#utility.yul\":1305:1444   */\n    tag_78:\n        /* \"#utility.yul\":1394:1400   */\n      dup3\n        /* \"#utility.yul\":1389:1392   */\n      dup2\n        /* \"#utility.yul\":1384:1387   */\n      dup4\n        /* \"#utility.yul\":1378:1401   */\n      mcopy\n        /* \"#utility.yul\":1435:1436   */\n      0x00\n        /* \"#utility.yul\":1426:1432   */\n      dup4\n        /* \"#utility.yul\":1421:1424   */\n      dup4\n        /* \"#utility.yul\":1417:1433   */\n      add\n        /* \"#utility.yul\":1410:1437   */\n      mstore\n        /* \"#utility.yul\":1305:1444   */\n      pop\n      pop\n      pop\n      jump\t// out\n        /* \"#utility.yul\":1450:1552   */\n    tag_79:\n        /* \"#utility.yul\":1491:1497   */\n      0x00\n        /* \"#utility.yul\":1542:1544   */\n      0x1f\n        /* \"#utility.yul\":1538:1545   */\n      not\n        /* \"#utility.yul\":1533:1535   */\n      0x1f\n        /* \"#utility.yul\":1526:1531   */\n      dup4\n        /* \"#utility.yul\":1522:1536   */\n      add\n        /* \"#utility.yul\":1518:1546   */\n      and\n        /* \"#utility.yul\":1508:1546   */\n      swap1\n      pop\n        /* \"#utility.yul\":1450:1552   */\n      swap2\n      swap1\n      pop\n      jump\t// out\n        /* \"#utility.yul\":1558:1935   */\n    tag_80:\n        /* \"#utility.yul\":1646:1649   */\n      0x00\n        /* \"#utility.yul\":1674:1713   */\n      tag_128\n        /* \"#utility.yul\":1707:1712   */\n      dup3\n        /* \"#utility.yul\":1674:1713   */\n      tag_76\n      jump\t// in\n    tag_128:\n        /* \"#utility.yul\":1729:1800   */\n      tag_129\n        /* \"#utility.yul\":1793:1799   */\n      dup2\n        /* \"#utility.yul\":1788:1791   */\n      dup6\n        /* \"#utility.yul\":1729:1800   */\n      tag_77\n      jump\t// in\n    tag_129:\n        /* \"#utility.yul\":1722:1800   */\n      swap4\n      pop\n        /* \"#utility.yul\":1809:1874   */\n      tag_130\n        /* \"#utility.yul\":1867:1873   */\n      dup2\n        /* \"#utility.yul\":1862:1865   */\n      dup6\n        /* \"#utility.yul\":1855:1859   */\n      0x20\n        /* \"#utility.yul\":1848:1853   */\n      dup7\n        /* \"#utility.yul\":1844:1860   */\n      add\n        /* \"#utility.yul\":1809:1874   */\n      tag_78\n      jump\t// in\n    tag_130:\n        /* \"#utility.yul\":1899:1928   */\n      tag_131\n        /* \"#utility.yul\":1921:1927   */\n      dup2\n        /* \"#utility.yul\":1899:1928   */\n      tag_79\n      jump\t// in\n    tag_131:\n        /* \"#utility.yul\":1894:1897   */\n      dup5\n        /* \"#utility.yul\":1890:1929   */\n      add\n        /* \"#utility.yul\":1883:1929   */\n      swap2\n      pop\n        /* \"#utility.yul\":1650:1935   */\n      pop\n        /* \"#utility.yul\":1558:1935   */\n      swap3\n      swap2\n      pop\n      pop\n      jump\t// out\n        /* \"#utility.yul\":1941:2254   */\n    tag_12:\n        /* \"#utility.yul\":2054:2058   */\n      0x00\n        /* \"#utility.yul\":2092:2094   */\n      0x20\n        /* \"#utility.yul\":2081:2090   */\n      dup3\n        /* \"#utility.yul\":2077:2095   */\n      add\n        /* \"#utility.yul\":2069:2095   */\n      swap1\n      pop\n        /* \"#utility.yul\":2141:2150   */\n      dup2\n        /* \"#utility.yul\":2135:2139   */\n      dup2\n        /* \"#utility.yul\":2131:2151   */\n      sub\n        /* \"#utility.yul\":2127:2128   */\n      0x00\n        /* \"#utility.yul\":2116:2125   */\n      dup4\n        /* \"#utility.yul\":2112:2129   */\n      add\n        /* \"#utility.yul\":2105:2152   */\n      mstore\n        /* \"#utility.yul\":2169:2247   */\n      tag_133\n        /* \"#utility.yul\":2242:2246   */\n      dup2\n        /* \"#utility.yul\":2233:2239   */\n      dup5\n        /* \"#utility.yul\":2169:2247   */\n      tag_80\n      jump\t// in\n    tag_133:\n        /* \"#utility.yul\":2161:2247   */\n      swap1\n      pop\n        /* \"#utility.yul\":1941:2254   */\n      swap3\n      swap2\n      pop\n      pop\n      jump\t// out\n        /* \"#utility.yul\":2260:2377   */\n    tag_81:\n        /* \"#utility.yul\":2369:2370   */\n      0x00\n        /* \"#utility.yul\":2366:2367   */\n      0x00\n        /* \"#utility.yul\":2359:2371   */\n      revert\n        /* \"#utility.yul\":2383:2500   */\n    tag_82:\n        /* \"#utility.yul\":2492:2493   */\n      0x00\n        /* \"#utility.yul\":2489:2490   */\n      0x00\n        /* \"#utility.yul\":2482:2494   */\n      revert\n        /* \"#utility.yul\":2506:2623   */\n    tag_83:\n        /* \"#utility.yul\":2615:2616   */\n      0x00\n        /* \"#utility.yul\":2612:2613   */\n      0x00\n        /* \"#utility.yul\":2605:2617   */\n      revert\n        /* \"#utility.yul\":2643:3196   */\n    tag_84:\n        /* \"#utility.yul\":2701:2709   */\n      0x00\n        /* \"#utility.yul\":2711:2717   */\n      0x00\n        /* \"#utility.yul\":2761:2764   */\n      dup4\n        /* \"#utility.yul\":2754:2758   */\n      0x1f\n        /* \"#utility.yul\":2746:2752   */\n      dup5\n        /* \"#utility.yul\":2742:2759   */\n      add\n        /* \"#utility.yul\":2738:2765   */\n      slt\n        /* \"#utility.yul\":2728:2850   */\n      tag_138\n      jumpi\n        /* \"#utility.yul\":2769:2848   */\n      tag_139\n      tag_81\n      jump\t// in\n    tag_139:\n        /* \"#utility.yul\":2728:2850   */\n    tag_138:\n        /* \"#utility.yul\":2882:2888   */\n      dup3\n        /* \"#utility.yul\":2869:2889   */\n      calldataload\n        /* \"#utility.yul\":2859:2889   */\n      swap1\n      pop\n        /* \"#utility.yul\":2912:2930   */\n      0xffffffffffffffff\n        /* \"#utility.yul\":2904:2910   */\n      dup2\n        /* \"#utility.yul\":2901:2931   */\n      gt\n        /* \"#utility.yul\":2898:3015   */\n      iszero\n      tag_140\n      jumpi\n        /* \"#utility.yul\":2934:3013   */\n      tag_141\n      tag_82\n      jump\t// in\n    tag_141:\n        /* \"#utility.yul\":2898:3015   */\n    tag_140:\n        /* \"#utility.yul\":3048:3052   */\n      0x20\n        /* \"#utility.yul\":3040:3046   */\n      dup4\n        /* \"#utility.yul\":3036:3053   */\n      add\n        /* \"#utility.yul\":3024:3053   */\n      swap2\n      pop\n        /* \"#utility.yul\":3102:3105   */\n      dup4\n        /* \"#utility.yul\":3094:3098   */\n      0x01\n        /* \"#utility.yul\":3086:3092   */\n      dup3\n        /* \"#utility.yul\":3082:3099   */\n      mul\n        /* \"#utility.yul\":3072:3080   */\n      dup4\n        /* \"#utility.yul\":3068:3100   */\n      add\n        /* \"#utility.yul\":3065:3106   */\n      gt\n        /* \"#utility.yul\":3062:3190   */\n      iszero\n      tag_142\n      jumpi\n        /* \"#utility.yul\":3109:3188   */\n      tag_143\n      tag_83\n      jump\t// in\n    tag_143:\n        /* \"#utility.yul\":3062:3190   */\n    tag_142:\n        /* \"#utility.yul\":2643:3196   */\n      swap3\n      pop\n      swap3\n      swap1\n      pop\n      jump\t// out\n        /* \"#utility.yul\":3202:3731   */\n    tag_15:\n        /* \"#utility.yul\":3273:3279   */\n      0x00\n        /* \"#utility.yul\":3281:3287   */\n      0x00\n        /* \"#utility.yul\":3330:3332   */\n      0x20\n        /* \"#utility.yul\":3318:3327   */\n      dup4\n        /* \"#utility.yul\":3309:3316   */\n      dup6\n        /* \"#utility.yul\":3305:3328   */\n      sub\n        /* \"#utility.yul\":3301:3333   */\n      slt\n        /* \"#utility.yul\":3298:3417   */\n      iszero\n      tag_145\n      jumpi\n        /* \"#utility.yul\":3336:3415   */\n      tag_146\n      tag_71\n      jump\t// in\n    tag_146:\n        /* \"#utility.yul\":3298:3417   */\n    tag_145:\n        /* \"#utility.yul\":3484:3485   */\n      0x00\n        /* \"#utility.yul\":3473:3482   */\n      dup4\n        /* \"#utility.yul\":3469:3486   */\n      add\n        /* \"#utility.yul\":3456:3487   */\n      calldataload\n        /* \"#utility.yul\":3514:3532   */\n      0xffffffffffffffff\n        /* \"#utility.yul\":3506:3512   */\n      dup2\n        /* \"#utility.yul\":3503:3533   */\n      gt\n        /* \"#utility.yul\":3500:3617   */\n      iszero\n      tag_147\n      jumpi\n        /* \"#utility.yul\":3536:3615   */\n      tag_148\n      tag_72\n      jump\t// in\n    tag_148:\n        /* \"#utility.yul\":3500:3617   */\n    tag_147:\n        /* \"#utility.yul\":3649:3714   */\n      tag_149\n        /* \"#utility.yul\":3706:3713   */\n      dup6\n        /* \"#utility.yul\":3697:3703   */\n      dup3\n        /* \"#utility.yul\":3686:3695   */\n      dup7\n        /* \"#utility.yul\":3682:3704   */\n      add\n        /* \"#utility.yul\":3649:3714   */\n      tag_84\n      jump\t// in\n    tag_149:\n        /* \"#utility.yul\":3631:3714   */\n      swap3\n      pop\n      swap3\n      pop\n        /* \"#utility.yul\":3427:3724   */\n      pop\n        /* \"#utility.yul\":3202:3731   */\n      swap3\n      pop\n      swap3\n      swap1\n      pop\n      jump\t// out\n        /* \"#utility.yul\":3737:3855   */\n    tag_85:\n        /* \"#utility.yul\":3824:3848   */\n      tag_151\n        /* \"#utility.yul\":3842:3847   */\n      dup2\n        /* \"#utility.yul\":3824:3848   */\n      tag_73\n      jump\t// in\n    tag_151:\n        /* \"#utility.yul\":3819:3822   */\n      dup3\n        /* \"#utility.yul\":3812:3849   */\n      mstore\n        /* \"#utility.yul\":3737:3855   */\n      pop\n      pop\n      jump\t// out\n        /* \"#utility.yul\":3861:4083   */\n    tag_18:\n        /* \"#utility.yul\":3954:3958   */\n      0x00\n        /* \"#utility.yul\":3992:3994   */\n      0x20\n        /* \"#utility.yul\":3981:3990   */\n      dup3\n        /* \"#utility.yul\":3977:3995   */\n      add\n        /* \"#utility.yul\":3969:3995   */\n      swap1\n      pop\n        /* \"#utility.yul\":4005:4076   */\n      tag_153\n        /* \"#utility.yul\":4073:4074   */\n      0x00\n        /* \"#utility.yul\":4062:4071   */\n      dup4\n        /* \"#utility.yul\":4058:4075   */\n      add\n        /* \"#utility.yul\":4049:4055   */\n      dup5\n        /* \"#utility.yul\":4005:4076   */\n      tag_85\n      jump\t// in\n    tag_153:\n        /* \"#utility.yul\":3861:4083   */\n      swap3\n      swap2\n      pop\n      pop\n      jump\t// out\n        /* \"#utility.yul\":4089:4269   */\n    tag_86:\n        /* \"#utility.yul\":4137:4214   */\n      0x4e487b7100000000000000000000000000000000000000000000000000000000\n        /* \"#utility.yul\":4134:4135   */\n      0x00\n        /* \"#utility.yul\":4127:4215   */\n      mstore\n        /* \"#utility.yul\":4234:4238   */\n      0x22\n        /* \"#utility.yul\":4231:4232   */\n      0x04\n        /* \"#utility.yul\":4224:4239   */\n      mstore\n        /* \"#utility.yul\":4258:4262   */\n      0x24\n        /* \"#utility.yul\":4255:4256   */\n      0x00\n        /* \"#utility.yul\":4248:4263   */\n      revert\n        /* \"#utility.yul\":4275:4595   */\n    tag_27:\n        /* \"#utility.yul\":4319:4325   */\n      0x00\n        /* \"#utility.yul\":4356:4357   */\n      0x02\n        /* \"#utility.yul\":4350:4354   */\n      dup3\n        /* \"#utility.yul\":4346:4358   */\n      div\n        /* \"#utility.yul\":4336:4358   */\n      swap1\n      pop\n        /* \"#utility.yul\":4403:4404   */\n      0x01\n        /* \"#utility.yul\":4397:4401   */\n      dup3\n        /* \"#utility.yul\":4393:4405   */\n      and\n        /* \"#utility.yul\":4424:4442   */\n      dup1\n        /* \"#utility.yul\":4414:4495   */\n      tag_156\n      jumpi\n        /* \"#utility.yul\":4480:4484   */\n      0x7f\n        /* \"#utility.yul\":4472:4478   */\n      dup3\n        /* \"#utility.yul\":4468:4485   */\n      and\n        /* \"#utility.yul\":4458:4485   */\n      swap2\n      pop\n        /* \"#utility.yul\":4414:4495   */\n    tag_156:\n        /* \"#utility.yul\":4542:4544   */\n      0x20\n        /* \"#utility.yul\":4534:4540   */\n      dup3\n        /* \"#utility.yul\":4531:4545   */\n      lt\n        /* \"#utility.yul\":4511:4529   */\n      dup2\n        /* \"#utility.yul\":4508:4546   */\n      sub\n        /* \"#utility.yul\":4505:4589   */\n      tag_157\n      jumpi\n        /* \"#utility.yul\":4561:4579   */\n      tag_158\n      tag_86\n      jump\t// in\n    tag_158:\n        /* \"#utility.yul\":4505:4589   */\n    tag_157:\n        /* \"#utility.yul\":4326:4595   */\n      pop\n        /* \"#utility.yul\":4275:4595   */\n      swap2\n      swap1\n      pop\n      jump\t// out\n        /* \"#utility.yul\":4601:4749   */\n    tag_87:\n        /* \"#utility.yul\":4703:4714   */\n      0x00\n        /* \"#utility.yul\":4740:4743   */\n      dup2\n        /* \"#utility.yul\":4725:4743   */\n      swap1\n      pop\n        /* \"#utility.yul\":4601:4749   */\n      swap3\n      swap2\n      pop\n      pop\n      jump\t// out\n        /* \"#utility.yul\":4755:4903   */\n    tag_88:\n        /* \"#utility.yul\":4853:4859   */\n      dup3\n        /* \"#utility.yul\":4848:4851   */\n      dup2\n        /* \"#utility.yul\":4843:4846   */\n      dup4\n        /* \"#utility.yul\":4830:4860   */\n      calldatacopy\n        /* \"#utility.yul\":4894:4895   */\n      0x00\n        /* \"#utility.yul\":4885:4891   */\n      dup4\n        /* \"#utility.yul\":4880:4883   */\n      dup4\n        /* \"#utility.yul\":4876:4892   */\n      add\n        /* \"#utility.yul\":4869:4896   */\n      mstore\n        /* \"#utility.yul\":4755:4903   */\n      pop\n      pop\n      pop\n      jump\t// out\n        /* \"#utility.yul\":4933:5263   */\n    tag_89:\n        /* \"#utility.yul\":5049:5052   */\n      0x00\n        /* \"#utility.yul\":5070:5159   */\n      tag_162\n        /* \"#utility.yul\":5152:5158   */\n      dup4\n        /* \"#utility.yul\":5147:5150   */\n      dup6\n        /* \"#utility.yul\":5070:5159   */\n      tag_87\n      jump\t// in\n    tag_162:\n        /* \"#utility.yul\":5063:5159   */\n      swap4\n      pop\n        /* \"#utility.yul\":5169:5225   */\n      tag_163\n        /* \"#utility.yul\":5218:5224   */\n      dup4\n        /* \"#utility.yul\":5213:5216   */\n      dup6\n        /* \"#utility.yul\":5206:5211   */\n      dup5\n        /* \"#utility.yul\":5169:5225   */\n      tag_88\n      jump\t// in\n    tag_163:\n        /* \"#utility.yul\":5250:5256   */\n      dup3\n        /* \"#utility.yul\":5245:5248   */\n      dup5\n        /* \"#utility.yul\":5241:5257   */\n      add\n        /* \"#utility.yul\":5234:5257   */\n      swap1\n      pop\n        /* \"#utility.yul\":4933:5263   */\n      swap4\n      swap3\n      pop\n      pop\n      pop\n      jump\t// out\n        /* \"#utility.yul\":5269:5564   */\n    tag_34:\n        /* \"#utility.yul\":5411:5414   */\n      0x00\n        /* \"#utility.yul\":5433:5538   */\n      tag_165\n        /* \"#utility.yul\":5534:5537   */\n      dup3\n        /* \"#utility.yul\":5525:5531   */\n      dup5\n        /* \"#utility.yul\":5517:5523   */\n      dup7\n        /* \"#utility.yul\":5433:5538   */\n      tag_89\n      jump\t// in\n    tag_165:\n        /* \"#utility.yul\":5426:5538   */\n      swap2\n      pop\n        /* \"#utility.yul\":5555:5558   */\n      dup2\n        /* \"#utility.yul\":5548:5558   */\n      swap1\n      pop\n        /* \"#utility.yul\":5269:5564   */\n      swap4\n      swap3\n      pop\n      pop\n      pop\n      jump\t// out\n        /* \"#utility.yul\":5570:5750   */\n    tag_41:\n        /* \"#utility.yul\":5618:5695   */\n      0x4e487b7100000000000000000000000000000000000000000000000000000000\n        /* \"#utility.yul\":5615:5616   */\n      0x00\n        /* \"#utility.yul\":5608:5696   */\n      mstore\n        /* \"#utility.yul\":5715:5719   */\n      0x32\n        /* \"#utility.yul\":5712:5713   */\n      0x04\n        /* \"#utility.yul\":5705:5720   */\n      mstore\n        /* \"#utility.yul\":5739:5743   */\n      0x24\n        /* \"#utility.yul\":5736:5737   */\n      0x00\n        /* \"#utility.yul\":5729:5744   */\n      revert\n        /* \"#utility.yul\":5756:5897   */\n    tag_90:\n        /* \"#utility.yul\":5805:5809   */\n      0x00\n        /* \"#utility.yul\":5828:5831   */\n      dup2\n        /* \"#utility.yul\":5820:5831   */\n      swap1\n      pop\n        /* \"#utility.yul\":5851:5854   */\n      dup2\n        /* \"#utility.yul\":5848:5849   */\n      0x00\n        /* \"#utility.yul\":5841:5855   */\n      mstore\n        /* \"#utility.yul\":5885:5889   */\n      0x20\n        /* \"#utility.yul\":5882:5883   */\n      0x00\n        /* \"#utility.yul\":5872:5890   */\n      keccak256\n        /* \"#utility.yul\":5864:5890   */\n      swap1\n      pop\n        /* \"#utility.yul\":5756:5897   */\n      swap2\n      swap1\n      pop\n      jump\t// out\n        /* \"#utility.yul\":5927:6801   */\n    tag_91:\n        /* \"#utility.yul\":6030:6033   */\n      0x00\n        /* \"#utility.yul\":6067:6072   */\n      dup2\n        /* \"#utility.yul\":6061:6073   */\n      sload\n        /* \"#utility.yul\":6096:6132   */\n      tag_169\n        /* \"#utility.yul\":6122:6131   */\n      dup2\n        /* \"#utility.yul\":6096:6132   */\n      tag_27\n      jump\t// in\n    tag_169:\n        /* \"#utility.yul\":6148:6237   */\n      tag_170\n        /* \"#utility.yul\":6230:6236   */\n      dup2\n        /* \"#utility.yul\":6225:6228   */\n      dup7\n        /* \"#utility.yul\":6148:6237   */\n      tag_87\n      jump\t// in\n    tag_170:\n        /* \"#utility.yul\":6141:6237   */\n      swap5\n      pop\n        /* \"#utility.yul\":6268:6269   */\n      0x01\n        /* \"#utility.yul\":6257:6266   */\n      dup3\n        /* \"#utility.yul\":6253:6270   */\n      and\n        /* \"#utility.yul\":6284:6285   */\n      0x00\n        /* \"#utility.yul\":6279:6445   */\n      dup2\n      eq\n      tag_172\n      jumpi\n        /* \"#utility.yul\":6459:6460   */\n      0x01\n        /* \"#utility.yul\":6454:6795   */\n      dup2\n      eq\n      tag_173\n      jumpi\n        /* \"#utility.yul\":6246:6795   */\n      jump(tag_171)\n        /* \"#utility.yul\":6279:6445   */\n    tag_172:\n        /* \"#utility.yul\":6363:6367   */\n      0xff\n        /* \"#utility.yul\":6359:6368   */\n      not\n        /* \"#utility.yul\":6348:6357   */\n      dup4\n        /* \"#utility.yul\":6344:6369   */\n      and\n        /* \"#utility.yul\":6339:6342   */\n      dup7\n        /* \"#utility.yul\":6332:6370   */\n      mstore\n        /* \"#utility.yul\":6425:6431   */\n      dup2\n        /* \"#utility.yul\":6418:6432   */\n      iszero\n        /* \"#utility.yul\":6411:6433   */\n      iszero\n        /* \"#utility.yul\":6403:6409   */\n      dup3\n        /* \"#utility.yul\":6399:6434   */\n      mul\n        /* \"#utility.yul\":6394:6397   */\n      dup7\n        /* \"#utility.yul\":6390:6435   */\n      add\n        /* \"#utility.yul\":6383:6435   */\n      swap4\n      pop\n        /* \"#utility.yul\":6279:6445   */\n      jump(tag_171)\n        /* \"#utility.yul\":6454:6795   */\n    tag_173:\n        /* \"#utility.yul\":6521:6559   */\n      tag_174\n        /* \"#utility.yul\":6553:6558   */\n      dup6\n        /* \"#utility.yul\":6521:6559   */\n      tag_90\n      jump\t// in\n    tag_174:\n        /* \"#utility.yul\":6581:6582   */\n      0x00\n        /* \"#utility.yul\":6595:6749   */\n    tag_175:\n        /* \"#utility.yul\":6609:6615   */\n      dup4\n        /* \"#utility.yul\":6606:6607   */\n      dup2\n        /* \"#utility.yul\":6603:6616   */\n      lt\n        /* \"#utility.yul\":6595:6749   */\n      iszero\n      tag_177\n      jumpi\n        /* \"#utility.yul\":6683:6690   */\n      dup2\n        /* \"#utility.yul\":6677:6691   */\n      sload\n        /* \"#utility.yul\":6673:6674   */\n      dup2\n        /* \"#utility.yul\":6668:6671   */\n      dup10\n        /* \"#utility.yul\":6664:6675   */\n      add\n        /* \"#utility.yul\":6657:6692   */\n      mstore\n        /* \"#utility.yul\":6733:6734   */\n      0x01\n        /* \"#utility.yul\":6724:6731   */\n      dup3\n        /* \"#utility.yul\":6720:6735   */\n      add\n        /* \"#utility.yul\":6709:6735   */\n      swap2\n      pop\n        /* \"#utility.yul\":6631:6635   */\n      0x20\n        /* \"#utility.yul\":6628:6629   */\n      dup2\n        /* \"#utility.yul\":6624:6636   */\n      add\n        /* \"#utility.yul\":6619:6636   */\n      swap1\n      pop\n        /* \"#utility.yul\":6595:6749   */\n      jump(tag_175)\n    tag_177:\n        /* \"#utility.yul\":6778:6784   */\n      dup4\n        /* \"#utility.yul\":6773:6776   */\n      dup9\n        /* \"#utility.yul\":6769:6785   */\n      add\n        /* \"#utility.yul\":6762:6785   */\n      swap6\n      pop\n        /* \"#utility.yul\":6461:6795   */\n      pop\n      pop\n        /* \"#utility.yul\":6246:6795   */\n    tag_171:\n      pop\n        /* \"#utility.yul\":6034:6801   */\n      pop\n      pop\n        /* \"#utility.yul\":5927:6801   */\n      swap3\n      swap2\n      pop\n      pop\n      jump\t// out\n        /* \"#utility.yul\":6807:7076   */\n    tag_44:\n        /* \"#utility.yul\":6936:6939   */\n      0x00\n        /* \"#utility.yul\":6958:7050   */\n      tag_179\n        /* \"#utility.yul\":7046:7049   */\n      dup3\n        /* \"#utility.yul\":7037:7043   */\n      dup5\n        /* \"#utility.yul\":6958:7050   */\n      tag_91\n      jump\t// in\n    tag_179:\n        /* \"#utility.yul\":6951:7050   */\n      swap2\n      pop\n        /* \"#utility.yul\":7067:7070   */\n      dup2\n        /* \"#utility.yul\":7060:7070   */\n      swap1\n      pop\n        /* \"#utility.yul\":6807:7076   */\n      swap3\n      swap2\n      pop\n      pop\n      jump\t// out\n        /* \"#utility.yul\":7082:7179   */\n    tag_92:\n        /* \"#utility.yul\":7141:7147   */\n      0x00\n        /* \"#utility.yul\":7169:7172   */\n      dup3\n        /* \"#utility.yul\":7159:7172   */\n      swap1\n      pop\n        /* \"#utility.yul\":7082:7179   */\n      swap3\n      swap2\n      pop\n      pop\n      jump\t// out\n        /* \"#utility.yul\":7185:7365   */\n    tag_93:\n        /* \"#utility.yul\":7233:7310   */\n      0x4e487b7100000000000000000000000000000000000000000000000000000000\n        /* \"#utility.yul\":7230:7231   */\n      0x00\n        /* \"#utility.yul\":7223:7311   */\n      mstore\n        /* \"#utility.yul\":7330:7334   */\n      0x41\n        /* \"#utility.yul\":7327:7328   */\n      0x04\n        /* \"#utility.yul\":7320:7335   */\n      mstore\n        /* \"#utility.yul\":7354:7358   */\n      0x24\n        /* \"#utility.yul\":7351:7352   */\n      0x00\n        /* \"#utility.yul\":7344:7359   */\n      revert\n        /* \"#utility.yul\":7371:7464   */\n    tag_94:\n        /* \"#utility.yul\":7408:7414   */\n      0x00\n        /* \"#utility.yul\":7455:7457   */\n      0x20\n        /* \"#utility.yul\":7450:7452   */\n      0x1f\n        /* \"#utility.yul\":7443:7448   */\n      dup4\n        /* \"#utility.yul\":7439:7453   */\n      add\n        /* \"#utility.yul\":7435:7458   */\n      div\n        /* \"#utility.yul\":7425:7458   */\n      swap1\n      pop\n        /* \"#utility.yul\":7371:7464   */\n      swap2\n      swap1\n      pop\n      jump\t// out\n        /* \"#utility.yul\":7470:7577   */\n    tag_95:\n        /* \"#utility.yul\":7514:7522   */\n      0x00\n        /* \"#utility.yul\":7564:7569   */\n      dup3\n        /* \"#utility.yul\":7558:7562   */\n      dup3\n        /* \"#utility.yul\":7554:7570   */\n      shl\n        /* \"#utility.yul\":7533:7570   */\n      swap1\n      pop\n        /* \"#utility.yul\":7470:7577   */\n      swap3\n      swap2\n      pop\n      pop\n      jump\t// out\n        /* \"#utility.yul\":7583:7976   */\n    tag_96:\n        /* \"#utility.yul\":7652:7658   */\n      0x00\n        /* \"#utility.yul\":7702:7703   */\n      0x08\n        /* \"#utility.yul\":7690:7700   */\n      dup4\n        /* \"#utility.yul\":7686:7704   */\n      mul\n        /* \"#utility.yul\":7725:7822   */\n      tag_185\n        /* \"#utility.yul\":7755:7821   */\n      0xffffffffffffffffffffffffffffffffffffffffffffffffffffffffffffffff\n        /* \"#utility.yul\":7744:7753   */\n      dup3\n        /* \"#utility.yul\":7725:7822   */\n      tag_95\n      jump\t// in\n    tag_185:\n        /* \"#utility.yul\":7843:7882   */\n      tag_186\n        /* \"#utility.yul\":7873:7881   */\n      dup7\n        /* \"#utility.yul\":7862:7871   */\n      dup4\n        /* \"#utility.yul\":7843:7882   */\n      tag_95\n      jump\t// in\n    tag_186:\n        /* \"#utility.yul\":7831:7882   */\n      swap6\n      pop\n        /* \"#utility.yul\":7915:7919   */\n      dup1\n        /* \"#utility.yul\":7911:7920   */\n      not\n        /* \"#utility.yul\":7904:7909   */\n      dup5\n        /* \"#utility.yul\":7900:7921   */\n      and\n        /* \"#utility.yul\":7891:7921   */\n      swap4\n      pop\n        /* \"#utility.yul\":7964:7968   */\n      dup1\n        /* \"#utility.yul\":7954:7962   */\n      dup7\n        /* \"#utility.yul\":7950:7969   */\n      and\n        /* \"#utility.yul\":7943:7948   */\n      dup5\n        /* \"#utility.yul\":7940:7970   */\n      or\n        /* \"#utility.yul\":7930:7970   */\n      swap3\n      pop\n        /* \"#utility.yul\":7659:7976   */\n      pop\n      pop\n        /* \"#utility.yul\":7583:7976   */\n      swap4\n      swap3\n      pop\n      pop\n      pop\n      jump\t// out\n        /* \"#utility.yul\":7982:8042   */\n    tag_97:\n        /* \"#utility.yul\":8010:8013   */\n      0x00\n        /* \"#utility.yul\":8031:8036   */\n      dup2\n        /* \"#utility.yul\":8024:8036   */\n      swap1\n      pop\n        /* \"#utility.yul\":7982:8042   */\n      swap2\n      swap1\n      pop\n      jump\t// out\n        /* \"#utility.yul\":8048:8190   */\n    tag_98:\n        /* \"#utility.yul\":8098:8107   */\n      0x00\n        /* \"#utility.yul\":8131:8184   */\n      tag_189\n        /* \"#utility.yul\":8149:8183   */\n      tag_190\n        /* \"#utility.yul\":8158:8182   */\n      tag_191\n        /* \"#utility.yul\":8176:8181   */\n      dup5\n        /* \"#utility.yul\":8158:8182   */\n      tag_73\n      jump\t// in\n    tag_191:\n        /* \"#utility.yul\":8149:8183   */\n      tag_97\n      jump\t// in\n    tag_190:\n        /* \"#utility.yul\":8131:8184   */\n      tag_73\n      jump\t// in\n    tag_189:\n        /* \"#utility.yul\":8118:8184   */\n      swap1\n      pop\n        /* \"#utility.yul\":8048:8190   */\n      swap2\n      swap1\n      pop\n      jump\t// out\n        /* \"#utility.yul\":8196:8271   */\n    tag_99:\n        /* \"#utility.yul\":8239:8242   */\n      0x00\n        /* \"#utility.yul\":8260:8265   */\n      dup2\n        /* \"#utility.yul\":8253:8265   */\n      swap1\n      pop\n        /* \"#utility.yul\":8196:8271   */\n      swap2\n      swap1\n      pop\n      jump\t// out\n        /* \"#utility.yul\":8277:8546   */\n    tag_100:\n        /* \"#utility.yul\":8387:8426   */\n      tag_194\n        /* \"#utility.yul\":8418:8425   */\n      dup4\n        /* \"#utility.yul\":8387:8426   */\n      tag_98\n      jump\t// in\n    tag_194:\n        /* \"#utility.yul\":8448:8539   */\n      tag_195\n        /* \"#utility.yul\":8497:8538   */\n      tag_196\n        /* \"#utility.yul\":8521:8537   */\n      dup3\n        /* \"#utility.yul\":8497:8538   */\n      tag_99\n      jump\t// in\n    tag_196:\n        /* \"#utility.yul\":8489:8495   */\n      dup5\n        /* \"#utility.yul\":8482:8486   */\n      dup5\n        /* \"#utility.yul\":8476:8487   */\n      sload\n        /* \"#utility.yul\":8448:8539   */\n      tag_96\n      jump\t// in\n    tag_195:\n        /* \"#utility.yul\":8442:8446   */\n      dup3\n        /* \"#utility.yul\":8435:8540   */\n      sstore\n        /* \"#utility.yul\":8353:8546   */\n      pop\n        /* \"#utility.yul\":8277:8546   */\n      pop\n      pop\n      pop\n      jump\t// out\n        /* \"#utility.yul\":8552:8625   */\n    tag_101:\n        /* \"#utility.yul\":8597:8600   */\n      0x00\n        /* \"#utility.yul\":8618:8619   */\n      0x00\n        /* \"#utility.yul\":8611:8619   */\n      swap1\n      pop\n        /* \"#utility.yul\":8552:8625   */\n      swap1\n      jump\t// out\n        /* \"#utility.yul\":8631:8820   */\n    tag_102:\n        /* \"#utility.yul\":8708:8740   */\n      tag_199\n      tag_101\n      jump\t// in\n    tag_199:\n        /* \"#utility.yul\":8749:8814   */\n      tag_200\n        /* \"#utility.yul\":8807:8813   */\n      dup2\n        /* \"#utility.yul\":8799:8805   */\n      dup5\n        /* \"#utility.yul\":8793:8797   */\n      dup5\n        /* \"#utility.yul\":8749:8814   */\n      tag_100\n      jump\t// in\n    tag_200:\n        /* \"#utility.yul\":8684:8820   */\n      pop\n        /* \"#utility.yul\":8631:8820   */\n      pop\n      pop\n      jump\t// out\n        /* \"#utility.yul\":8826:9012   */\n    tag_103:\n        /* \"#utility.yul\":8886:9006   */\n    tag_202:\n        /* \"#utility.yul\":8903:8906   */\n      dup2\n        /* \"#utility.yul\":8896:8901   */\n      dup2\n        /* \"#utility.yul\":8893:8907   */\n      lt\n        /* \"#utility.yul\":8886:9006   */\n      iszero\n      tag_204\n      jumpi\n        /* \"#utility.yul\":8957:8996   */\n      tag_205\n        /* \"#utility.yul\":8994:8995   */\n      0x00\n        /* \"#utility.yul\":8987:8992   */\n      dup3\n        /* \"#utility.yul\":8957:8996   */\n      tag_102\n      jump\t// in\n    tag_205:\n        /* \"#utility.yul\":8930:8931   */\n      0x01\n        /* \"#utility.yul\":8923:8928   */\n      dup2\n        /* \"#utility.yul\":8919:8932   */\n      add\n        /* \"#utility.yul\":8910:8932   */\n      swap1\n      pop\n        /* \"#utility.yul\":8886:9006   */\n      jump(tag_202)\n    tag_204:\n        /* \"#utility.yul\":8826:9012   */\n      pop\n      pop\n      jump\t// out\n        /* \"#utility.yul\":9018:9561   */\n    tag_104:\n        /* \"#utility.yul\":9119:9121   */\n      0x1f\n        /* \"#utility.yul\":9114:9117   */\n      dup3\n        /* \"#utility.yul\":9111:9122   */\n      gt\n        /* \"#utility.yul\":9108:9554   */\n      iszero\n      tag_207\n      jumpi\n        /* \"#utility.yul\":9153:9191   */\n      tag_208\n        /* \"#utility.yul\":9185:9190   */\n      dup2\n        /* \"#utility.yul\":9153:9191   */\n      tag_90\n      jump\t// in\n    tag_208:\n        /* \"#utility.yul\":9237:9266   */\n      tag_209\n        /* \"#utility.yul\":9255:9265   */\n      dup5\n        /* \"#utility.yul\":9237:9266   */\n      tag_94\n      jump\t// in\n    tag_209:\n        /* \"#utility.yul\":9227:9235   */\n      dup2\n        /* \"#utility.yul\":9223:9267   */\n      add\n        /* \"#utility.yul\":9420:9422   */\n      0x20\n        /* \"#utility.yul\":9408:9418   */\n      dup6\n        /* \"#utility.yul\":9405:9423   */\n      lt\n        /* \"#utility.yul\":9402:9451   */\n      iszero\n      tag_210\n      jumpi\n        /* \"#utility.yul\":9441:9449   */\n      dup2\n        /* \"#utility.yul\":9426:9449   */\n      swap1\n      pop\n        /* \"#utility.yul\":9402:9451   */\n    tag_210:\n        /* \"#utility.yul\":9464:9544   */\n      tag_211\n        /* \"#utility.yul\":9520:9542   */\n      tag_212\n        /* \"#utility.yul\":9538:9541   */\n      dup6\n        /* \"#utility.yul\":9520:9542   */\n      tag_94\n      jump\t// in\n    tag_212:\n        /* \"#utility.yul\":9510:9518   */\n      dup4\n        /* \"#utility.yul\":9506:9543   */\n      add\n        /* \"#utility.yul\":9493:9504   */\n      dup3\n        /* \"#utility.yul\":9464:9544   */\n      tag_103\n      jump\t// in\n    tag_211:\n        /* \"#utility.yul\":9123:9554   */\n      pop\n      pop\n        /* \"#utility.yul\":9108:9554   */\n    tag_207:\n        /* \"#utility.yul\":9018:9561   */\n      pop\n      pop\n      pop\n      jump\t// out\n        /* \"#utility.yul\":9567:9684   */\n    tag_105:\n        /* \"#utility.yul\":9621:9629   */\n      0x00\n        /* \"#utility.yul\":9671:9676   */\n      dup3\n        /* \"#utility.yul\":9665:9669   */\n      dup3\n        /* \"#utility.yul\":9661:9677   */\n      shr\n        /* \"#utility.yul\":9640:9677   */\n      swap1\n      pop\n        /* \"#utility.yul\":9567:9684   */\n      swap3\n      swap2\n      pop\n      pop\n      jump\t// out\n        /* \"#utility.yul\":9690:9859   */\n    tag_106:\n        /* \"#utility.yul\":9734:9740   */\n      0x00\n        /* \"#utility.yul\":9767:9818   */\n      tag_215\n        /* \"#utility.yul\":9815:9816   */\n      0x00\n        /* \"#utility.yul\":9811:9817   */\n      not\n        /* \"#utility.yul\":9803:9808   */\n      dup5\n        /* \"#utility.yul\":9800:9801   */\n      0x08\n        /* \"#utility.yul\":9796:9809   */\n      mul\n        /* \"#utility.yul\":9767:9818   */\n      tag_105\n      jump\t// in\n    tag_215:\n        /* \"#utility.yul\":9763:9819   */\n      not\n        /* \"#utility.yul\":9848:9852   */\n      dup1\n        /* \"#utility.yul\":9842:9846   */\n      dup4\n        /* \"#utility.yul\":9838:9853   */\n      and\n        /* \"#utility.yul\":9828:9853   */\n      swap2\n      pop\n        /* \"#utility.yul\":9741:9859   */\n      pop\n        /* \"#utility.yul\":9690:9859   */\n      swap3\n      swap2\n      pop\n      pop\n      jump\t// out\n        /* \"#utility.yul\":9864:10159   */\n    tag_107:\n        /* \"#utility.yul\":9940:9944   */\n      0x00\n        /* \"#utility.yul\":10086:10115   */\n      tag_217\n        /* \"#utility.yul\":10111:10114   */\n      dup4\n        /* \"#utility.yul\":10105:10109   */\n      dup4\n        /* \"#utility.yul\":10086:10115   */\n      tag_106\n      jump\t// in\n    tag_217:\n        /* \"#utility.yul\":10078:10115   */\n      swap2\n      pop\n        /* \"#utility.yul\":10148:10151   */\n      dup3\n        /* \"#utility.yul\":10145:10146   */\n      0x02\n        /* \"#utility.yul\":10141:10152   */\n      mul\n        /* \"#utility.yul\":10135:10139   */\n      dup3\n        /* \"#utility.yul\":10132:10153   */\n      or\n        /* \"#utility.yul\":10124:10153   */\n      swap1\n      pop\n        /* \"#utility.yul\":9864:10159   */\n      swap3\n      swap2\n      pop\n      pop\n      jump\t// out\n        /* \"#utility.yul\":10164:11567   */\n    tag_52:\n        /* \"#utility.yul\":10288:10332   */\n      tag_219\n        /* \"#utility.yul\":10328:10331   */\n      dup4\n        /* \"#utility.yul\":10323:10326   */\n      dup4\n        /* \"#utility.yul\":10288:10332   */\n      tag_92\n      jump\t// in\n    tag_219:\n        /* \"#utility.yul\":10397:10415   */\n      0xffffffffffffffff\n        /* \"#utility.yul\":10389:10395   */\n      dup2\n        /* \"#utility.yul\":10386:10416   */\n      gt\n        /* \"#utility.yul\":10383:10439   */\n      iszero\n      tag_220\n      jumpi\n        /* \"#utility.yul\":10419:10437   */\n      tag_221\n      tag_93\n      jump\t// in\n    tag_221:\n        /* \"#utility.yul\":10383:10439   */\n    tag_220:\n        /* \"#utility.yul\":10463:10501   */\n      tag_222\n        /* \"#utility.yul\":10495:10499   */\n      dup3\n        /* \"#utility.yul\":10489:10500   */\n      sload\n        /* \"#utility.yul\":10463:10501   */\n      tag_27\n      jump\t// in\n    tag_222:\n        /* \"#utility.yul\":10548:10615   */\n      tag_223\n        /* \"#utility.yul\":10608:10614   */\n      dup3\n        /* \"#utility.yul\":10600:10606   */\n      dup3\n        /* \"#utility.yul\":10594:10598   */\n      dup6\n        /* \"#utility.yul\":10548:10615   */\n      tag_104\n      jump\t// in\n    tag_223:\n        /* \"#utility.yul\":10642:10643   */\n      0x00\n        /* \"#utility.yul\":10671:10673   */\n      0x1f\n        /* \"#utility.yul\":10663:10669   */\n      dup4\n        /* \"#utility.yul\":10660:10674   */\n      gt\n        /* \"#utility.yul\":10688:10689   */\n      0x01\n        /* \"#utility.yul\":10683:11315   */\n      dup2\n      eq\n      tag_225\n      jumpi\n        /* \"#utility.yul\":11359:11360   */\n      0x00\n        /* \"#utility.yul\":11376:11382   */\n      dup5\n        /* \"#utility.yul\":11373:11457   */\n      iszero\n      tag_226\n      jumpi\n        /* \"#utility.yul\":11432:11441   */\n      dup3\n        /* \"#utility.yul\":11427:11430   */\n      dup8\n        /* \"#utility.yul\":11423:11442   */\n      add\n        /* \"#utility.yul\":11410:11443   */\n      calldataload\n        /* \"#utility.yul\":11401:11443   */\n      swap1\n      pop\n        /* \"#utility.yul\":11373:11457   */\n    tag_226:\n        /* \"#utility.yul\":11483:11550   */\n      tag_227\n        /* \"#utility.yul\":11543:11549   */\n      dup6\n        /* \"#utility.yul\":11536:11541   */\n      dup3\n        /* \"#utility.yul\":11483:11550   */\n      tag_107\n      jump\t// in\n    tag_227:\n        /* \"#utility.yul\":11477:11481   */\n      dup7\n        /* \"#utility.yul\":11470:11551   */\n      sstore\n        /* \"#utility.yul\":11332:11561   */\n      pop\n        /* \"#utility.yul\":10653:11561   */\n      jump(tag_224)\n        /* \"#utility.yul\":10683:11315   */\n    tag_225:\n        /* \"#utility.yul\":10735:10739   */\n      0x1f\n        /* \"#utility.yul\":10731:10740   */\n      not\n        /* \"#utility.yul\":10723:10729   */\n      dup5\n        /* \"#utility.yul\":10719:10741   */\n      and\n        /* \"#utility.yul\":10769:10806   */\n      tag_228\n        /* \"#utility.yul\":10801:10805   */\n      dup7\n        /* \"#utility.yul\":10769:10806   */\n      tag_90\n      jump\t// in\n    tag_228:\n        /* \"#utility.yul\":10828:10829   */\n      0x00\n        /* \"#utility.yul\":10842:11057   */\n    tag_229:\n        /* \"#utility.yul\":10856:10863   */\n      dup3\n        /* \"#utility.yul\":10853:10854   */\n      dup2\n        /* \"#utility.yul\":10850:10864   */\n      lt\n        /* \"#utility.yul\":10842:11057   */\n      iszero\n      tag_231\n      jumpi\n        /* \"#utility.yul\":10942:10951   */\n      dup5\n        /* \"#utility.yul\":10937:10940   */\n      dup10\n        /* \"#utility.yul\":10933:10952   */\n      add\n        /* \"#utility.yul\":10920:10953   */\n      calldataload\n        /* \"#utility.yul\":10912:10918   */\n      dup3\n        /* \"#utility.yul\":10905:10954   */\n      sstore\n        /* \"#utility.yul\":10993:10994   */\n      0x01\n        /* \"#utility.yul\":10985:10991   */\n      dup3\n        /* \"#utility.yul\":10981:10995   */\n      add\n        /* \"#utility.yul\":10971:10995   */\n      swap2\n      pop\n        /* \"#utility.yul\":11040:11042   */\n      0x20\n        /* \"#utility.yul\":11029:11038   */\n      dup6\n        /* \"#utility.yul\":11025:11043   */\n      add\n        /* \"#utility.yul\":11012:11043   */\n      swap5\n      pop\n        /* \"#utility.yul\":10879:10883   */\n      0x20\n        /* \"#utility.yul\":10876:10877   */\n      dup2\n        /* \"#utility.yul\":10872:10884   */\n      add\n        /* \"#utility.yul\":10867:10884   */\n      swap1\n      pop\n        /* \"#utility.yul\":10842:11057   */\n      jump(tag_229)\n    tag_231:\n        /* \"#utility.yul\":11085:11091   */\n      dup7\n        /* \"#utility.yul\":11076:11083   */\n      dup4\n        /* \"#utility.yul\":11073:11092   */\n      lt\n        /* \"#utility.yul\":11070:11256   */\n      iszero\n      tag_232\n      jumpi\n        /* \"#utility.yul\":11150:11159   */\n      dup5\n        /* \"#utility.yul\":11145:11148   */\n      dup10\n        /* \"#utility.yul\":11141:11160   */\n      add\n        /* \"#utility.yul\":11128:11161   */\n      calldataload\n        /* \"#utility.yul\":11193:11241   */\n      tag_233\n        /* \"#utility.yul\":11235:11239   */\n      0x1f\n        /* \"#utility.yul\":11227:11233   */\n      dup10\n        /* \"#utility.yul\":11223:11240   */\n      and\n        /* \"#utility.yul\":11212:11221   */\n      dup3\n        /* \"#utility.yul\":11193:11241   */\n      tag_106\n      jump\t// in\n    tag_233:\n        /* \"#utility.yul\":11185:11191   */\n      dup4\n        /* \"#utility.yul\":11178:11242   */\n      sstore\n        /* \"#utility.yul\":11093:11256   */\n      pop\n        /* \"#utility.yul\":11070:11256   */\n    tag_232:\n        /* \"#utility.yul\":11302:11303   */\n      0x01\n        /* \"#utility.yul\":11298:11299   */\n      0x02\n        /* \"#utility.yul\":11290:11296   */\n      dup9\n        /* \"#utility.yul\":11286:11300   */\n      mul\n        /* \"#utility.yul\":11282:11304   */\n      add\n        /* \"#utility.yul\":11276:11280   */\n      dup9\n        /* \"#utility.yul\":11269:11305   */\n      sstore\n        /* \"#utility.yul\":10690:11315   */\n      pop\n      pop\n      pop\n        /* \"#utility.yul\":10653:11561   */\n    tag_224:\n      pop\n        /* \"#utility.yul\":10263:11567   */\n      pop\n      pop\n      pop\n        /* \"#utility.yul\":10164:11567   */\n      pop\n      pop\n      pop\n      jump\t// out\n        /* \"#utility.yul\":11573:11753   */\n    tag_108:\n        /* \"#utility.yul\":11621:11698   */\n      0x4e487b7100000000000000000000000000000000000000000000000000000000\n        /* \"#utility.yul\":11618:11619   */\n      0x00\n        /* \"#utility.yul\":11611:11699   */\n      mstore\n        /* \"#utility.yul\":11718:11722   */\n      0x11\n        /* \"#utility.yul\":11715:11716   */\n      0x04\n        /* \"#utility.yul\":11708:11723   */\n      mstore\n        /* \"#utility.yul\":11742:11746   */\n      0x24\n        /* \"#utility.yul\":11739:11740   */\n      0x00\n        /* \"#utility.yul\":11732:11747   */\n      revert\n        /* \"#utility.yul\":11759:11992   */\n    tag_55:\n        /* \"#utility.yul\":11798:11801   */\n      0x00\n        /* \"#utility.yul\":11821:11845   */\n      tag_236\n        /* \"#utility.yul\":11839:11844   */\n      dup3\n        /* \"#utility.yul\":11821:11845   */\n      tag_73\n      jump\t// in\n    tag_236:\n        /* \"#utility.yul\":11812:11845   */\n      swap2\n      pop\n        /* \"#utility.yul\":11867:11933   */\n      0xffffffffffffffffffffffffffffffffffffffffffffffffffffffffffffffff\n        /* \"#utility.yul\":11860:11865   */\n      dup3\n        /* \"#utility.yul\":11857:11934   */\n      sub\n        /* \"#utility.yul\":11854:11957   */\n      tag_237\n      jumpi\n        /* \"#utility.yul\":11937:11955   */\n      tag_238\n      tag_108\n      jump\t// in\n    tag_238:\n        /* \"#utility.yul\":11854:11957   */\n    tag_237:\n        /* \"#utility.yul\":11984:11985   */\n      0x01\n        /* \"#utility.yul\":11977:11982   */\n      dup3\n        /* \"#utility.yul\":11973:11986   */\n      add\n        /* \"#utility.yul\":11966:11986   */\n      swap1\n      pop\n        /* \"#utility.yul\":11759:11992   */\n      swap2\n      swap1\n      pop\n      jump\t// out\n\n    auxdata: 0xa264697066735822122012235dd1bc1278209bb4e223fdc67751614326c1cdf735c15c558ac2548f59ed64736f6c634300081e0033\n}\n",
				"bytecode": {
					"linkReferences": {},
					"object": "6080604052348015600e575f5ffd5b506109d38061001c5f395ff3fe608060405234801561000f575f5ffd5b506004361061004a575f3560e01c80633477ee2e1461004e578063805265e51461007e578063b9830ff1146100ae578063fc36e15b146100b8575b5f5ffd5b61006860048036038101906100639190610382565b6100d4565b604051610075919061041d565b60405180910390f35b6100986004803603810190610093919061049e565b61017a565b6040516100a591906104f8565b60405180910390f35b6100b66101a3565b005b6100d260048036038101906100cd919061049e565b610214565b005b600181815481106100e3575f80fd5b905f5260205f20015f9150905080546100fb9061053e565b80601f01602080910402602001604051908101604052809291908181526020018280546101279061053e565b80156101725780601f1061014957610100808354040283529160200191610172565b820191905f5260205f20905b81548152906001019060200180831161015557829003601f168201915b505050505081565b5f5f838360405161018c9291906105aa565b908152602001604051809103902054905092915050565b5f60018054905090505f5f90505b81811015610203575f5f600183815481106101cf576101ce6105c2565b5b905f5260205f20016040516101e49190610681565b90815260200160405180910390208190555080806001019150506101b1565b5060015f61021191906102ae565b50565b5f5f83836040516102269291906105aa565b90815260200160405180910390205403610276576001828290918060018154018082558091505060019003905f5260205f20015f90919290919290919290919250918261027492919061085c565b505b5f82826040516102879291906105aa565b90815260200160405180910390205f8154809291906102a590610956565b91905055505050565b5080545f8255905f5260205f20908101906102c991906102cc565b50565b5b808211156102eb575f81816102e291906102ef565b506001016102cd565b5090565b5080546102fb9061053e565b5f825580601f1061030c5750610329565b601f0160209004905f5260205f2090810190610328919061032c565b5b50565b5b80821115610343575f815f90555060010161032d565b5090565b5f5ffd5b5f5ffd5b5f819050919050565b6103618161034f565b811461036b575f5ffd5b50565b5f8135905061037c81610358565b92915050565b5f6020828403121561039757610396610347565b5b5f6103a48482850161036e565b91505092915050565b5f81519050919050565b5f82825260208201905092915050565b8281835e5f83830152505050565b5f601f19601f8301169050919050565b5f6103ef826103ad565b6103f981856103b7565b93506104098185602086016103c7565b610412816103d5565b840191505092915050565b5f6020820190508181035f83015261043581846103e5565b905092915050565b5f5ffd5b5f5ffd5b5f5ffd5b5f5f83601f84011261045e5761045d61043d565b5b8235905067ffffffffffffffff81111561047b5761047a610441565b5b60208301915083600182028301111561049757610496610445565b5b9250929050565b5f5f602083850312156104b4576104b3610347565b5b5f83013567ffffffffffffffff8111156104d1576104d061034b565b5b6104dd85828601610449565b92509250509250929050565b6104f28161034f565b82525050565b5f60208201905061050b5f8301846104e9565b92915050565b7f4e487b71000000000000000000000000000000000000000000000000000000005f52602260045260245ffd5b5f600282049050600182168061055557607f821691505b60208210810361056857610567610511565b5b50919050565b5f81905092915050565b828183375f83830152505050565b5f610591838561056e565b935061059e838584610578565b82840190509392505050565b5f6105b6828486610586565b91508190509392505050565b7f4e487b71000000000000000000000000000000000000000000000000000000005f52603260045260245ffd5b5f819050815f5260205f209050919050565b5f815461060d8161053e565b610617818661056e565b9450600182165f8114610631576001811461064657610678565b60ff1983168652811515820286019350610678565b61064f856105ef565b5f5b8381101561067057815481890152600182019150602081019050610651565b838801955050505b50505092915050565b5f61068c8284610601565b915081905092915050565b5f82905092915050565b7f4e487b71000000000000000000000000000000000000000000000000000000005f52604160045260245ffd5b5f6020601f8301049050919050565b5f82821b905092915050565b5f600883026107187fffffffffffffffffffffffffffffffffffffffffffffffffffffffffffffffff826106dd565b61072286836106dd565b95508019841693508086168417925050509392505050565b5f819050919050565b5f61075d6107586107538461034f565b61073a565b61034f565b9050919050565b5f819050919050565b61077683610743565b61078a61078282610764565b8484546106e9565b825550505050565b5f5f905090565b6107a1610792565b6107ac81848461076d565b505050565b5b818110156107cf576107c45f82610799565b6001810190506107b2565b5050565b601f821115610814576107e5816105ef565b6107ee846106ce565b810160208510156107fd578190505b610811610809856106ce565b8301826107b1565b50505b505050565b5f82821c905092915050565b5f6108345f1984600802610819565b1980831691505092915050565b5f61084c8383610825565b9150826002028217905092915050565b6108668383610697565b67ffffffffffffffff81111561087f5761087e6106a1565b5b610889825461053e565b6108948282856107d3565b5f601f8311600181146108c1575f84156108af578287013590505b6108b98582610841565b865550610920565b601f1984166108cf866105ef565b5f5b828110156108f6578489013582556001820191506020850194506020810190506108d1565b86831015610913578489013561090f601f891682610825565b8355505b6001600288020188555050505b50505050505050565b7f4e487b71000000000000000000000000000000000000000000000000000000005f52601160045260245ffd5b5f6109608261034f565b91507fffffffffffffffffffffffffffffffffffffffffffffffffffffffffffffffff820361099257610991610929565b5b60018201905091905056fea264697066735822122012235dd1bc1278209bb4e223fdc67751614326c1cdf735c15c558ac2548f59ed64736f6c634300081e0033",
					"opcodes": "PUSH1 0x80 PUSH1 0x40 MSTORE CALLVALUE DUP1 ISZERO PUSH1 0xE JUMPI PUSH0 PUSH0 REVERT JUMPDEST POP PUSH2 0x9D3 DUP1 PUSH2 0x1C PUSH0 CODECOPY PUSH0 RETURN INVALID PUSH1 0x80 PUSH1 0x40 MSTORE CALLVALUE DUP1 ISZERO PUSH2 0xF JUMPI PUSH0 PUSH0 REVERT JUMPDEST POP PUSH1 0x4 CALLDATASIZE LT PUSH2 0x4A JUMPI PUSH0 CALLDATALOAD PUSH1 0xE0 SHR DUP1 PUSH4 0x3477EE2E EQ PUSH2 0x4E JUMPI DUP1 PUSH4 0x805265E5 EQ PUSH2 0x7E JUMPI DUP1 PUSH4 0xB9830FF1 EQ PUSH2 0xAE JUMPI DUP1 PUSH4 0xFC36E15B EQ PUSH2 0xB8 JUMPI JUMPDEST PUSH0 PUSH0 REVERT JUMPDEST PUSH2 0x68 PUSH1 0x4 DUP1 CALLDATASIZE SUB DUP2 ADD SWAP1 PUSH2 0x63 SWAP2 SWAP1 PUSH2 0x382 JUMP JUMPDEST PUSH2 0xD4 JUMP JUMPDEST PUSH1 0x40 MLOAD PUSH2 0x75 SWAP2 SWAP1 PUSH2 0x41D JUMP JUMPDEST PUSH1 0x40 MLOAD DUP1 SWAP2 SUB SWAP1 RETURN JUMPDEST PUSH2 0x98 PUSH1 0x4 DUP1 CALLDATASIZE SUB DUP2 ADD SWAP1 PUSH2 0x93 SWAP2 SWAP1 PUSH2 0x49E JUMP JUMPDEST PUSH2 0x17A JUMP JUMPDEST PUSH1 0x40 MLOAD PUSH2 0xA5 SWAP2 SWAP1 PUSH2 0x4F8 JUMP JUMPDEST PUSH1 0x40 MLOAD DUP1 SWAP2 SUB SWAP1 RETURN JUMPDEST PUSH2 0xB6 PUSH2 0x1A3 JUMP JUMPDEST STOP JUMPDEST PUSH2 0xD2 PUSH1 0x4 DUP1 CALLDATASIZE SUB DUP2 ADD SWAP1 PUSH2 0xCD SWAP2 SWAP1 PUSH2 0x49E JUMP JUMPDEST PUSH2 0x214 JUMP JUMPDEST STOP JUMPDEST PUSH1 0x1 DUP2 DUP2 SLOAD DUP2 LT PUSH2 0xE3 JUMPI PUSH0 DUP1 REVERT JUMPDEST SWAP1 PUSH0 MSTORE PUSH1 0x20 PUSH0 KECCAK256 ADD PUSH0 SWAP2 POP SWAP1 POP DUP1 SLOAD PUSH2 0xFB SWAP1 PUSH2 0x53E JUMP JUMPDEST DUP1 PUSH1 0x1F ADD PUSH1 0x20 DUP1 SWAP2 DIV MUL PUSH1 0x20 ADD PUSH1 0x40 MLOAD SWAP1 DUP2 ADD PUSH1 0x40 MSTORE DUP1 SWAP3 SWAP2 SWAP1 DUP2 DUP2 MSTORE PUSH1 0x20 ADD DUP3 DUP1 SLOAD PUSH2 0x127 SWAP1 PUSH2 0x53E JUMP JUMPDEST DUP1 ISZERO PUSH2 0x172 JUMPI DUP1 PUSH1 0x1F LT PUSH2 0x149 JUMPI PUSH2 0x100 DUP1 DUP4 SLOAD DIV MUL DUP4 MSTORE SWAP2 PUSH1 0x20 ADD SWAP2 PUSH2 0x172 JUMP JUMPDEST DUP3 ADD SWAP2 SWAP1 PUSH0 MSTORE PUSH1 0x20 PUSH0 KECCAK256 SWAP1 JUMPDEST DUP2 SLOAD DUP2 MSTORE SWAP1 PUSH1 0x1 ADD SWAP1 PUSH1 0x20 ADD DUP1 DUP4 GT PUSH2 0x155 JUMPI DUP3 SWAP1 SUB PUSH1 0x1F AND DUP3 ADD SWAP2 JUMPDEST POP POP POP POP POP DUP2 JUMP JUMPDEST PUSH0 PUSH0 DUP4 DUP4 PUSH1 0x40 MLOAD PUSH2 0x18C SWAP3 SWAP2 SWAP1 PUSH2 0x5AA JUMP JUMPDEST SWAP1 DUP2 MSTORE PUSH1 0x20 ADD PUSH1 0x40 MLOAD DUP1 SWAP2 SUB SWAP1 KECCAK256 SLOAD SWAP1 POP SWAP3 SWAP2 POP POP JUMP JUMPDEST PUSH0 PUSH1 0x1 DUP1 SLOAD SWAP1 POP SWAP1 POP PUSH0 PUSH0 SWAP1 POP JUMPDEST DUP2 DUP2 LT ISZERO PUSH2 0x203 JUMPI PUSH0 PUSH0 PUSH1 0x1 DUP4 DUP2 SLOAD DUP2 LT PUSH2 0x1CF JUMPI PUSH2 0x1CE PUSH2 0x5C2 JUMP JUMPDEST JUMPDEST SWAP1 PUSH0 MSTORE PUSH1 0x20 PUSH0 KECCAK256 ADD PUSH1 0x40 MLOAD PUSH2 0x1E4 SWAP2 SWAP1 PUSH2 0x681 JUMP JUMPDEST SWAP1 DUP2 MSTORE PUSH1 0x20 ADD PUSH1 0x40 MLOAD DUP1 SWAP2 SUB SWAP1 KECCAK256 DUP2 SWAP1 SSTORE POP DUP1 DUP1 PUSH1 0x1 ADD SWAP2 POP POP PUSH2 0x1B1 JUMP JUMPDEST POP PUSH1 0x1 PUSH0 PUSH2 0x211 SWAP2 SWAP1 PUSH2 0x2AE JUMP JUMPDEST POP JUMP JUMPDEST PUSH0 PUSH0 DUP4 DUP4 PUSH1 0x40 MLOAD PUSH2 0x226 SWAP3 SWAP2 SWAP1 PUSH2 0x5AA JUMP JUMPDEST SWAP1 DUP2 MSTORE PUSH1 0x20 ADD PUSH1 0x40 MLOAD DUP1 SWAP2 SUB SWAP1 KECCAK256 SLOAD SUB PUSH2 0x276 JUMPI PUSH1 0x1 DUP3 DUP3 SWAP1 SWAP2 DUP1 PUSH1 0x1 DUP2 SLOAD ADD DUP1 DUP3 SSTORE DUP1 SWAP2 POP POP PUSH1 0x1 SWAP1 SUB SWAP1 PUSH0 MSTORE PUSH1 0x20 PUSH0 KECCAK256 ADD PUSH0 SWAP1 SWAP2 SWAP3 SWAP1 SWAP2 SWAP3 SWAP1 SWAP2 SWAP3 SWAP1 SWAP2 SWAP3 POP SWAP2 DUP3 PUSH2 0x274 SWAP3 SWAP2 SWAP1 PUSH2 0x85C JUMP JUMPDEST POP JUMPDEST PUSH0 DUP3 DUP3 PUSH1 0x40 MLOAD PUSH2 0x287 SWAP3 SWAP2 SWAP1 PUSH2 0x5AA JUMP JUMPDEST SWAP1 DUP2 MSTORE PUSH1 0x20 ADD PUSH1 0x40 MLOAD DUP1 SWAP2 SUB SWAP1 KECCAK256 PUSH0 DUP2 SLOAD DUP1 SWAP3 SWAP2 SWAP1 PUSH2 0x2A5 SWAP1 PUSH2 0x956 JUMP JUMPDEST SWAP2 SWAP1 POP SSTORE POP POP POP JUMP JUMPDEST POP DUP1 SLOAD PUSH0 DUP3 SSTORE SWAP1 PUSH0 MSTORE PUSH1 0x20 PUSH0 KECCAK256 SWAP1 DUP2 ADD SWAP1 PUSH2 0x2C9 SWAP2 SWAP1 PUSH2 0x2CC JUMP JUMPDEST POP JUMP JUMPDEST JUMPDEST DUP1 DUP3 GT ISZERO PUSH2 0x2EB JUMPI PUSH0 DUP2 DUP2 PUSH2 0x2E2 SWAP2 SWAP1 PUSH2 0x2EF JUMP JUMPDEST POP PUSH1 0x1 ADD PUSH2 0x2CD JUMP JUMPDEST POP SWAP1 JUMP JUMPDEST POP DUP1 SLOAD PUSH2 0x2FB SWAP1 PUSH2 0x53E JUMP JUMPDEST PUSH0 DUP3 SSTORE DUP1 PUSH1 0x1F LT PUSH2 0x30C JUMPI POP PUSH2 0x329 JUMP JUMPDEST PUSH1 0x1F ADD PUSH1 0x20 SWAP1 DIV SWAP1 PUSH0 MSTORE PUSH1 0x20 PUSH0 KECCAK256 SWAP1 DUP2 ADD SWAP1 PUSH2 0x328 SWAP2 SWAP1 PUSH2 0x32C JUMP JUMPDEST JUMPDEST POP JUMP JUMPDEST JUMPDEST DUP1 DUP3 GT ISZERO PUSH2 0x343 JUMPI PUSH0 DUP2 PUSH0 SWAP1 SSTORE POP PUSH1 0x1 ADD PUSH2 0x32D JUMP JUMPDEST POP SWAP1 JUMP JUMPDEST PUSH0 PUSH0 REVERT JUMPDEST PUSH0 PUSH0 REVERT JUMPDEST PUSH0 DUP2 SWAP1 POP SWAP2 SWAP1 POP JUMP JUMPDEST PUSH2 0x361 DUP2 PUSH2 0x34F JUMP JUMPDEST DUP2 EQ PUSH2 0x36B JUMPI PUSH0 PUSH0 REVERT JUMPDEST POP JUMP JUMPDEST PUSH0 DUP2 CALLDATALOAD SWAP1 POP PUSH2 0x37C DUP2 PUSH2 0x358 JUMP JUMPDEST SWAP3 SWAP2 POP POP JUMP JUMPDEST PUSH0 PUSH1 0x20 DUP3 DUP5 SUB SLT ISZERO PUSH2 0x397 JUMPI PUSH2 0x396 PUSH2 0x347 JUMP JUMPDEST JUMPDEST PUSH0 PUSH2 0x3A4 DUP5 DUP3 DUP6 ADD PUSH2 0x36E JUMP JUMPDEST SWAP2 POP POP SWAP3 SWAP2 POP POP JUMP JUMPDEST PUSH0 DUP2 MLOAD SWAP1 POP SWAP2 SWAP1 POP JUMP JUMPDEST PUSH0 DUP3 DUP3 MSTORE PUSH1 0x20 DUP3 ADD SWAP1 POP SWAP3 SWAP2 POP POP JUMP JUMPDEST DUP3 DUP2 DUP4 MCOPY PUSH0 DUP4 DUP4 ADD MSTORE POP POP POP JUMP JUMPDEST PUSH0 PUSH1 0x1F NOT PUSH1 0x1F DUP4 ADD AND SWAP1 POP SWAP2 SWAP1 POP JUMP JUMPDEST PUSH0 PUSH2 0x3EF DUP3 PUSH2 0x3AD JUMP JUMPDEST PUSH2 0x3F9 DUP2 DUP6 PUSH2 0x3B7 JUMP JUMPDEST SWAP4 POP PUSH2 0x409 DUP2 DUP6 PUSH1 0x20 DUP7 ADD PUSH2 0x3C7 JUMP JUMPDEST PUSH2 0x412 DUP2 PUSH2 0x3D5 JUMP JUMPDEST DUP5 ADD SWAP2 POP POP SWAP3 SWAP2 POP POP JUMP JUMPDEST PUSH0 PUSH1 0x20 DUP3 ADD SWAP1 POP DUP2 DUP2 SUB PUSH0 DUP4 ADD MSTORE PUSH2 0x435 DUP2 DUP5 PUSH2 0x3E5 JUMP JUMPDEST SWAP1 POP SWAP3 SWAP2 POP POP JUMP JUMPDEST PUSH0 PUSH0 REVERT JUMPDEST PUSH0 PUSH0 REVERT JUMPDEST PUSH0 PUSH0 REVERT JUMPDEST PUSH0 PUSH0 DUP4 PUSH1 0x1F DUP5 ADD SLT PUSH2 0x45E JUMPI PUSH2 0x45D PUSH2 0x43D JUMP JUMPDEST JUMPDEST DUP3 CALLDATALOAD SWAP1 POP PUSH8 0xFFFFFFFFFFFFFFFF DUP2 GT ISZERO PUSH2 0x47B JUMPI PUSH2 0x47A PUSH2 0x441 JUMP JUMPDEST JUMPDEST PUSH1 0x20 DUP4 ADD SWAP2 POP DUP4 PUSH1 0x1 DUP3 MUL DUP4 ADD GT ISZERO PUSH2 0x497 JUMPI PUSH2 0x496 PUSH2 0x445 JUMP JUMPDEST JUMPDEST SWAP3 POP SWAP3 SWAP1 POP JUMP JUMPDEST PUSH0 PUSH0 PUSH1 0x20 DUP4 DUP6 SUB SLT ISZERO PUSH2 0x4B4 JUMPI PUSH2 0x4B3 PUSH2 0x347 JUMP JUMPDEST JUMPDEST PUSH0 DUP4 ADD CALLDATALOAD PUSH8 0xFFFFFFFFFFFFFFFF DUP2 GT ISZERO PUSH2 0x4D1 JUMPI PUSH2 0x4D0 PUSH2 0x34B JUMP JUMPDEST JUMPDEST PUSH2 0x4DD DUP6 DUP3 DUP7 ADD PUSH2 0x449 JUMP JUMPDEST SWAP3 POP SWAP3 POP POP SWAP3 POP SWAP3 SWAP1 POP JUMP JUMPDEST PUSH2 0x4F2 DUP2 PUSH2 0x34F JUMP JUMPDEST DUP3 MSTORE POP POP JUMP JUMPDEST PUSH0 PUSH1 0x20 DUP3 ADD SWAP1 POP PUSH2 0x50B PUSH0 DUP4 ADD DUP5 PUSH2 0x4E9 JUMP JUMPDEST SWAP3 SWAP2 POP POP JUMP JUMPDEST PUSH32 0x4E487B7100000000000000000000000000000000000000000000000000000000 PUSH0 MSTORE PUSH1 0x22 PUSH1 0x4 MSTORE PUSH1 0x24 PUSH0 REVERT JUMPDEST PUSH0 PUSH1 0x2 DUP3 DIV SWAP1 POP PUSH1 0x1 DUP3 AND DUP1 PUSH2 0x555 JUMPI PUSH1 0x7F DUP3 AND SWAP2 POP JUMPDEST PUSH1 0x20 DUP3 LT DUP2 SUB PUSH2 0x568 JUMPI PUSH2 0x567 PUSH2 0x511 JUMP JUMPDEST JUMPDEST POP SWAP2 SWAP1 POP JUMP JUMPDEST PUSH0 DUP2 SWAP1 POP SWAP3 SWAP2 POP POP JUMP JUMPDEST DUP3 DUP2 DUP4 CALLDATACOPY PUSH0 DUP4 DUP4 ADD MSTORE POP POP POP JUMP JUMPDEST PUSH0 PUSH2 0x591 DUP4 DUP6 PUSH2 0x56E JUMP JUMPDEST SWAP4 POP PUSH2 0x59E DUP4 DUP6 DUP5 PUSH2 0x578 JUMP JUMPDEST DUP3 DUP5 ADD SWAP1 POP SWAP4 SWAP3 POP POP POP JUMP JUMPDEST PUSH0 PUSH2 0x5B6 DUP3 DUP5 DUP7 PUSH2 0x586 JUMP JUMPDEST SWAP2 POP DUP2 SWAP1 POP SWAP4 SWAP3 POP POP POP JUMP JUMPDEST PUSH32 0x4E487B7100000000000000000000000000000000000000000000000000000000 PUSH0 MSTORE PUSH1 0x32 PUSH1 0x4 MSTORE PUSH1 0x24 PUSH0 REVERT JUMPDEST PUSH0 DUP2 SWAP1 POP DUP2 PUSH0 MSTORE PUSH1 0x20 PUSH0 KECCAK256 SWAP1 POP SWAP2 SWAP1 POP JUMP JUMPDEST PUSH0 DUP2 SLOAD PUSH2 0x60D DUP2 PUSH2 0x53E JUMP JUMPDEST PUSH2 0x617 DUP2 DUP7 PUSH2 0x56E JUMP JUMPDEST SWAP5 POP PUSH1 0x1 DUP3 AND PUSH0 DUP2 EQ PUSH2 0x631 JUMPI PUSH1 0x1 DUP2 EQ PUSH2 0x646 JUMPI PUSH2 0x678 JUMP JUMPDEST PUSH1 0xFF NOT DUP4 AND DUP7 MSTORE DUP2 ISZERO ISZERO DUP3 MUL DUP7 ADD SWAP4 POP PUSH2 0x678 JUMP JUMPDEST PUSH2 0x64F DUP6 PUSH2 0x5EF JUMP JUMPDEST PUSH0 JUMPDEST DUP4 DUP2 LT ISZERO PUSH2 0x670 JUMPI DUP2 SLOAD DUP2 DUP10 ADD MSTORE PUSH1 0x1 DUP3 ADD SWAP2 POP PUSH1 0x20 DUP2 ADD SWAP1 POP PUSH2 0x651 JUMP JUMPDEST DUP4 DUP9 ADD SWAP6 POP POP POP JUMPDEST POP POP POP SWAP3 SWAP2 POP POP JUMP JUMPDEST PUSH0 PUSH2 0x68C DUP3 DUP5 PUSH2 0x601 JUMP JUMPDEST SWAP2 POP DUP2 SWAP1 POP SWAP3 SWAP2 POP POP JUMP JUMPDEST PUSH0 DUP3 SWAP1 POP SWAP3 SWAP2 POP POP JUMP JUMPDEST PUSH32 0x4E487B7100000000000000000000000000000000000000000000000000000000 PUSH0 MSTORE PUSH1 0x41 PUSH1 0x4 MSTORE PUSH1 0x24 PUSH0 REVERT JUMPDEST PUSH0 PUSH1 0x20 PUSH1 0x1F DUP4 ADD DIV SWAP1 POP SWAP2 SWAP1 POP JUMP JUMPDEST PUSH0 DUP3 DUP3 SHL SWAP1 POP SWAP3 SWAP2 POP POP JUMP JUMPDEST PUSH0 PUSH1 0x8 DUP4 MUL PUSH2 0x718 PUSH32 0xFFFFFFFFFFFFFFFFFFFFFFFFFFFFFFFFFFFFFFFFFFFFFFFFFFFFFFFFFFFFFFFF DUP3 PUSH2 0x6DD JUMP JUMPDEST PUSH2 0x722 DUP7 DUP4 PUSH2 0x6DD JUMP JUMPDEST SWAP6 POP DUP1 NOT DUP5 AND SWAP4 POP DUP1 DUP7 AND DUP5 OR SWAP3 POP POP POP SWAP4 SWAP3 POP POP POP JUMP JUMPDEST PUSH0 DUP2 SWAP1 POP SWAP2 SWAP1 POP JUMP JUMPDEST PUSH0 PUSH2 0x75D PUSH2 0x758 PUSH2 0x753 DUP5 PUSH2 0x34F JUMP JUMPDEST PUSH2 0x73A JUMP JUMPDEST PUSH2 0x34F JUMP JUMPDEST SWAP1 POP SWAP2 SWAP1 POP JUMP JUMPDEST PUSH0 DUP2 SWAP1 POP SWAP2 SWAP1 POP JUMP JUMPDEST PUSH2 0x776 DUP4 PUSH2 0x743 JUMP JUMPDEST PUSH2 0x78A PUSH2 0x782 DUP3 PUSH2 0x764 JUMP JUMPDEST DUP5 DUP5 SLOAD PUSH2 0x6E9 JUMP JUMPDEST DUP3 SSTORE POP POP POP POP JUMP JUMPDEST PUSH0 PUSH0 SWAP1 POP SWAP1 JUMP JUMPDEST PUSH2 0x7A1 PUSH2 0x792 JUMP JUMPDEST PUSH2 0x7AC DUP2 DUP5 DUP5 PUSH2 0x76D JUMP JUMPDEST POP POP POP JUMP JUMPDEST JUMPDEST DUP2 DUP2 LT ISZERO PUSH2 0x7CF JUMPI PUSH2 0x7C4 PUSH0 DUP3 PUSH2 0x799 JUMP JUMPDEST PUSH1 0x1 DUP2 ADD SWAP1 POP PUSH2 0x7B2 JUMP JUMPDEST POP POP JUMP JUMPDEST PUSH1 0x1F DUP3 GT ISZERO PUSH2 0x814 JUMPI PUSH2 0x7E5 DUP2 PUSH2 0x5EF JUMP JUMPDEST PUSH2 0x7EE DUP5 PUSH2 0x6CE JUMP JUMPDEST DUP2 ADD PUSH1 0x20 DUP6 LT ISZERO PUSH2 0x7FD JUMPI DUP2 SWAP1 POP JUMPDEST PUSH2 0x811 PUSH2 0x809 DUP6 PUSH2 0x6CE JUMP JUMPDEST DUP4 ADD DUP3 PUSH2 0x7B1 JUMP JUMPDEST POP POP JUMPDEST POP POP POP JUMP JUMPDEST PUSH0 DUP3 DUP3 SHR SWAP1 POP SWAP3 SWAP2 POP POP JUMP JUMPDEST PUSH0 PUSH2 0x834 PUSH0 NOT DUP5 PUSH1 0x8 MUL PUSH2 0x819 JUMP JUMPDEST NOT DUP1 DUP4 AND SWAP2 POP POP SWAP3 SWAP2 POP POP JUMP JUMPDEST PUSH0 PUSH2 0x84C DUP4 DUP4 PUSH2 0x825 JUMP JUMPDEST SWAP2 POP DUP3 PUSH1 0x2 MUL DUP3 OR SWAP1 POP SWAP3 SWAP2 POP POP JUMP JUMPDEST PUSH2 0x866 DUP4 DUP4 PUSH2 0x697 JUMP JUMPDEST PUSH8 0xFFFFFFFFFFFFFFFF DUP2 GT ISZERO PUSH2 0x87F JUMPI PUSH2 0x87E PUSH2 0x6A1 JUMP JUMPDEST JUMPDEST PUSH2 0x889 DUP3 SLOAD PUSH2 0x53E JUMP JUMPDEST PUSH2 0x894 DUP3 DUP3 DUP6 PUSH2 0x7D3 JUMP JUMPDEST PUSH0 PUSH1 0x1F DUP4 GT PUSH1 0x1 DUP2 EQ PUSH2 0x8C1 JUMPI PUSH0 DUP5 ISZERO PUSH2 0x8AF JUMPI DUP3 DUP8 ADD CALLDATALOAD SWAP1 POP JUMPDEST PUSH2 0x8B9 DUP6 DUP3 PUSH2 0x841 JUMP JUMPDEST DUP7 SSTORE POP PUSH2 0x920 JUMP JUMPDEST PUSH1 0x1F NOT DUP5 AND PUSH2 0x8CF DUP7 PUSH2 0x5EF JUMP JUMPDEST PUSH0 JUMPDEST DUP3 DUP2 LT ISZERO PUSH2 0x8F6 JUMPI DUP5 DUP10 ADD CALLDATALOAD DUP3 SSTORE PUSH1 0x1 DUP3 ADD SWAP2 POP PUSH1 0x20 DUP6 ADD SWAP5 POP PUSH1 0x20 DUP2 ADD SWAP1 POP PUSH2 0x8D1 JUMP JUMPDEST DUP7 DUP4 LT ISZERO PUSH2 0x913 JUMPI DUP5 DUP10 ADD CALLDATALOAD PUSH2 0x90F PUSH1 0x1F DUP10 AND DUP3 PUSH2 0x825 JUMP JUMPDEST DUP4 SSTORE POP JUMPDEST PUSH1 0x1 PUSH1 0x2 DUP9 MUL ADD DUP9 SSTORE POP POP POP JUMPDEST POP POP POP POP POP POP POP JUMP JUMPDEST PUSH32 0x4E487B7100000000000000000000000000000000000000000000000000000000 PUSH0 MSTORE PUSH1 0x11 PUSH1 0x4 MSTORE PUSH1 0x24 PUSH0 REVERT JUMPDEST PUSH0 PUSH2 0x960 DUP3 PUSH2 0x34F JUMP JUMPDEST SWAP2 POP PUSH32 0xFFFFFFFFFFFFFFFFFFFFFFFFFFFFFFFFFFFFFFFFFFFFFFFFFFFFFFFFFFFFFFFF DUP3 SUB PUSH2 0x992 JUMPI PUSH2 0x991 PUSH2 0x929 JUMP JUMPDEST JUMPDEST PUSH1 0x1 DUP3 ADD SWAP1 POP SWAP2 SWAP1 POP JUMP INVALID LOG2 PUSH5 0x6970667358 0x22 SLT KECCAK256 SLT 0x23 TSTORE DATALOADN 0xBC12 PUSH25 0x209BB4E223FDC67751614326C1CDF735C15C558AC2548F59ED PUSH5 0x736F6C6343 STOP ADDMOD 0x1E STOP CALLER "
				},
				"gasEstimates": {
					"creation": {
						"codeDepositCost": "503000",
						"executionCost": "535",
						"totalCost": "503535"
					},
					"external": {
						"candidates(uint256)": "infinite",
						"getVotes(string)": "infinite",
						"resetVotes()": "infinite",
						"vote(string)": "infinite"
					}
				},
				"methodIdentifiers": {
					"candidates(uint256)": "3477ee2e",
					"getVotes(string)": "805265e5",
					"resetVotes()": "b9830ff1",
					"vote(string)": "fc36e15b"
				}
			},
			"storageLayout": {
				"storage": [
					{
						"astId": 5,
						"contract": "homework1/homework01.sol:Voting",
						"label": "votes",
						"offset": 0,
						"slot": "0",
						"type": "t_mapping(t_string_memory_ptr,t_uint256)"
					},
					{
						"astId": 8,
						"contract": "homework1/homework01.sol:Voting",
						"label": "candidates",
						"offset": 0,
						"slot": "1",
						"type": "t_array(t_string_storage)dyn_storage"
					}
				],
				"types": {
					"t_array(t_string_storage)dyn_storage": {
						"base": "t_string_storage",
						"encoding": "dynamic_array",
						"label": "string[]",
						"numberOfBytes": "32"
					},
					"t_mapping(t_string_memory_ptr,t_uint256)": {
						"encoding": "mapping",
						"key": "t_string_memory_ptr",
						"label": "mapping(string => uint256)",
						"numberOfBytes": "32",
						"value": "t_uint256"
					},
					"t_string_memory_ptr": {
						"encoding": "bytes",
						"label": "string",
						"numberOfBytes": "32"
					},
					"t_string_storage": {
						"encoding": "bytes",
						"label": "string",
						"numberOfBytes": "32"
					},
					"t_uint256": {
						"encoding": "inplace",
						"label": "uint256",
						"numberOfBytes": "32"
					}
				}
			},
			"userdoc": {
				"kind": "user",
				"methods": {},
				"version": 1
			}
		}
	}
}