{
	"homework1/homework01.sol": {
		"IntegerToRoman": {
			"abi": [
				{
					"inputs": [
						{
							"internalType": "uint256",
							"name": "num",
							"type": "uint256"
						}
					],
					"name": "intToRoman",
					"outputs": [
						{
							"internalType": "string",
							"name": "",
							"type": "string"
						}
					],
					"stateMutability": "pure",
					"type": "function"
				}
			],
			"devdoc": {
				"kind": "dev",
				"methods": {},
				"version": 1
			},
			"evm": {
				"assembly": "    /* \"homework1/homework01.sol\":1492:3795  contract IntegerToRoman {... */\n  mstore(0x40, 0x80)\n  callvalue\n  dup1\n  iszero\n  tag_1\n  jumpi\n  revert(0x00, 0x00)\ntag_1:\n  pop\n  dataSize(sub_0)\n  dup1\n  dataOffset(sub_0)\n  0x00\n  codecopy\n  0x00\n  return\nstop\n\nsub_0: assembly {\n        /* \"homework1/homework01.sol\":1492:3795  contract IntegerToRoman {... */\n      mstore(0x40, 0x80)\n      callvalue\n      dup1\n      iszero\n      tag_1\n      jumpi\n      revert(0x00, 0x00)\n    tag_1:\n      pop\n      jumpi(tag_2, lt(calldatasize, 0x04))\n      shr(0xe0, calldataload(0x00))\n      dup1\n      0x0cbc513a\n      eq\n      tag_3\n      jumpi\n    tag_2:\n      revert(0x00, 0x00)\n        /* \"homework1/homework01.sol\":1764:3792  function intToRoman(uint256 num) public pure returns (string memory) {... */\n    tag_3:\n      tag_4\n      0x04\n      dup1\n      calldatasize\n      sub\n      dup2\n      add\n      swap1\n      tag_5\n      swap2\n      swap1\n      tag_6\n      jump\t// in\n    tag_5:\n      tag_7\n      jump\t// in\n    tag_4:\n      mload(0x40)\n      tag_8\n      swap2\n      swap1\n      tag_9\n      jump\t// in\n    tag_8:\n      mload(0x40)\n      dup1\n      swap2\n      sub\n      swap1\n      return\n    tag_7:\n        /* \"homework1/homework01.sol\":1818:1831  string memory */\n      0x60\n        /* \"homework1/homework01.sol\":1924:1925  1 */\n      0x01\n        /* \"homework1/homework01.sol\":1917:1920  num */\n      dup3\n        /* \"homework1/homework01.sol\":1917:1925  num >= 1 */\n      lt\n      iszero\n        /* \"homework1/homework01.sol\":1917:1940  num >= 1 && num <= 3999 */\n      dup1\n      iszero\n      tag_11\n      jumpi\n      pop\n        /* \"homework1/homework01.sol\":1936:1940  3999 */\n      0x0f9f\n        /* \"homework1/homework01.sol\":1929:1932  num */\n      dup3\n        /* \"homework1/homework01.sol\":1929:1940  num <= 3999 */\n      gt\n      iszero\n        /* \"homework1/homework01.sol\":1917:1940  num >= 1 && num <= 3999 */\n    tag_11:\n        /* \"homework1/homework01.sol\":1909:1978  require(num >= 1 && num <= 3999, \"Number must be between 1 and 3999\") */\n      tag_12\n      jumpi\n      mload(0x40)\n      0x08c379a000000000000000000000000000000000000000000000000000000000\n      dup2\n      mstore\n      0x04\n      add\n      tag_13\n      swap1\n      tag_14\n      jump\t// in\n    tag_13:\n      mload(0x40)\n      dup1\n      swap2\n      sub\n      swap1\n      revert\n    tag_12:\n        /* \"homework1/homework01.sol\":2089:2119  RomanMapping[] memory mappings */\n      0x00\n        /* \"homework1/homework01.sol\":2141:2143  13 */\n      0x0d\n        /* \"homework1/homework01.sol\":2122:2144  new RomanMapping[](13) */\n      0xffffffffffffffff\n      dup2\n      gt\n      iszero\n      tag_15\n      jumpi\n      tag_16\n      tag_17\n      jump\t// in\n    tag_16:\n    tag_15:\n      mload(0x40)\n      swap1\n      dup1\n      dup3\n      mstore\n      dup1\n      0x20\n      mul\n      0x20\n      add\n      dup3\n      add\n      0x40\n      mstore\n      dup1\n      iszero\n      tag_18\n      jumpi\n      dup2\n      0x20\n      add\n    tag_19:\n      tag_20\n      tag_21\n      jump\t// in\n    tag_20:\n      dup2\n      mstore\n      0x20\n      add\n      swap1\n      0x01\n      swap1\n      sub\n      swap1\n      dup2\n      tag_19\n      jumpi\n      swap1\n      pop\n    tag_18:\n      pop\n        /* \"homework1/homework01.sol\":2089:2144  RomanMapping[] memory mappings = new RomanMapping[](13) */\n      swap1\n      pop\n        /* \"homework1/homework01.sol\":2169:2209  RomanMapping({value: 1000, symbol: \"M\"}) */\n      mload(0x40)\n      dup1\n      0x40\n      add\n      0x40\n      mstore\n      dup1\n        /* \"homework1/homework01.sol\":2190:2194  1000 */\n      0x03e8\n        /* \"homework1/homework01.sol\":2169:2209  RomanMapping({value: 1000, symbol: \"M\"}) */\n      dup2\n      mstore\n      0x20\n      add\n      mload(0x40)\n      dup1\n      0x40\n      add\n      0x40\n      mstore\n      dup1\n      0x01\n      dup2\n      mstore\n      0x20\n      add\n      0x4d00000000000000000000000000000000000000000000000000000000000000\n      dup2\n      mstore\n      pop\n      dup2\n      mstore\n      pop\n        /* \"homework1/homework01.sol\":2155:2163  mappings */\n      dup2\n        /* \"homework1/homework01.sol\":2164:2165  0 */\n      0x00\n        /* \"homework1/homework01.sol\":2155:2166  mappings[0] */\n      dup2\n      mload\n      dup2\n      lt\n      tag_22\n      jumpi\n      tag_23\n      tag_24\n      jump\t// in\n    tag_23:\n    tag_22:\n      0x20\n      mul\n      0x20\n      add\n      add\n        /* \"homework1/homework01.sol\":2155:2209  mappings[0] = RomanMapping({value: 1000, symbol: \"M\"}) */\n      dup2\n      swap1\n      mstore\n      pop\n        /* \"homework1/homework01.sol\":2234:2274  RomanMapping({value: 900, symbol: \"CM\"}) */\n      mload(0x40)\n      dup1\n      0x40\n      add\n      0x40\n      mstore\n      dup1\n        /* \"homework1/homework01.sol\":2255:2258  900 */\n      0x0384\n        /* \"homework1/homework01.sol\":2234:2274  RomanMapping({value: 900, symbol: \"CM\"}) */\n      dup2\n      mstore\n      0x20\n      add\n      mload(0x40)\n      dup1\n      0x40\n      add\n      0x40\n      mstore\n      dup1\n      0x02\n      dup2\n      mstore\n      0x20\n      add\n      0x434d000000000000000000000000000000000000000000000000000000000000\n      dup2\n      mstore\n      pop\n      dup2\n      mstore\n      pop\n        /* \"homework1/homework01.sol\":2220:2228  mappings */\n      dup2\n        /* \"homework1/homework01.sol\":2229:2230  1 */\n      0x01\n        /* \"homework1/homework01.sol\":2220:2231  mappings[1] */\n      dup2\n      mload\n      dup2\n      lt\n      tag_25\n      jumpi\n      tag_26\n      tag_24\n      jump\t// in\n    tag_26:\n    tag_25:\n      0x20\n      mul\n      0x20\n      add\n      add\n        /* \"homework1/homework01.sol\":2220:2274  mappings[1] = RomanMapping({value: 900, symbol: \"CM\"}) */\n      dup2\n      swap1\n      mstore\n      pop\n        /* \"homework1/homework01.sol\":2331:2370  RomanMapping({value: 500, symbol: \"D\"}) */\n      mload(0x40)\n      dup1\n      0x40\n      add\n      0x40\n      mstore\n      dup1\n        /* \"homework1/homework01.sol\":2352:2355  500 */\n      0x01f4\n        /* \"homework1/homework01.sol\":2331:2370  RomanMapping({value: 500, symbol: \"D\"}) */\n      dup2\n      mstore\n      0x20\n      add\n      mload(0x40)\n      dup1\n      0x40\n      add\n      0x40\n      mstore\n      dup1\n      0x01\n      dup2\n      mstore\n      0x20\n      add\n      0x4400000000000000000000000000000000000000000000000000000000000000\n      dup2\n      mstore\n      pop\n      dup2\n      mstore\n      pop\n        /* \"homework1/homework01.sol\":2317:2325  mappings */\n      dup2\n        /* \"homework1/homework01.sol\":2326:2327  2 */\n      0x02\n        /* \"homework1/homework01.sol\":2317:2328  mappings[2] */\n      dup2\n      mload\n      dup2\n      lt\n      tag_27\n      jumpi\n      tag_28\n      tag_24\n      jump\t// in\n    tag_28:\n    tag_27:\n      0x20\n      mul\n      0x20\n      add\n      add\n        /* \"homework1/homework01.sol\":2317:2370  mappings[2] = RomanMapping({value: 500, symbol: \"D\"}) */\n      dup2\n      swap1\n      mstore\n      pop\n        /* \"homework1/homework01.sol\":2395:2435  RomanMapping({value: 400, symbol: \"CD\"}) */\n      mload(0x40)\n      dup1\n      0x40\n      add\n      0x40\n      mstore\n      dup1\n        /* \"homework1/homework01.sol\":2416:2419  400 */\n      0x0190\n        /* \"homework1/homework01.sol\":2395:2435  RomanMapping({value: 400, symbol: \"CD\"}) */\n      dup2\n      mstore\n      0x20\n      add\n      mload(0x40)\n      dup1\n      0x40\n      add\n      0x40\n      mstore\n      dup1\n      0x02\n      dup2\n      mstore\n      0x20\n      add\n      0x4344000000000000000000000000000000000000000000000000000000000000\n      dup2\n      mstore\n      pop\n      dup2\n      mstore\n      pop\n        /* \"homework1/homework01.sol\":2381:2389  mappings */\n      dup2\n        /* \"homework1/homework01.sol\":2390:2391  3 */\n      0x03\n        /* \"homework1/homework01.sol\":2381:2392  mappings[3] */\n      dup2\n      mload\n      dup2\n      lt\n      tag_29\n      jumpi\n      tag_30\n      tag_24\n      jump\t// in\n    tag_30:\n    tag_29:\n      0x20\n      mul\n      0x20\n      add\n      add\n        /* \"homework1/homework01.sol\":2381:2435  mappings[3] = RomanMapping({value: 400, symbol: \"CD\"}) */\n      dup2\n      swap1\n      mstore\n      pop\n        /* \"homework1/homework01.sol\":2491:2530  RomanMapping({value: 100, symbol: \"C\"}) */\n      mload(0x40)\n      dup1\n      0x40\n      add\n      0x40\n      mstore\n      dup1\n        /* \"homework1/homework01.sol\":2512:2515  100 */\n      0x64\n        /* \"homework1/homework01.sol\":2491:2530  RomanMapping({value: 100, symbol: \"C\"}) */\n      dup2\n      mstore\n      0x20\n      add\n      mload(0x40)\n      dup1\n      0x40\n      add\n      0x40\n      mstore\n      dup1\n      0x01\n      dup2\n      mstore\n      0x20\n      add\n      0x4300000000000000000000000000000000000000000000000000000000000000\n      dup2\n      mstore\n      pop\n      dup2\n      mstore\n      pop\n        /* \"homework1/homework01.sol\":2477:2485  mappings */\n      dup2\n        /* \"homework1/homework01.sol\":2486:2487  4 */\n      0x04\n        /* \"homework1/homework01.sol\":2477:2488  mappings[4] */\n      dup2\n      mload\n      dup2\n      lt\n      tag_31\n      jumpi\n      tag_32\n      tag_24\n      jump\t// in\n    tag_32:\n    tag_31:\n      0x20\n      mul\n      0x20\n      add\n      add\n        /* \"homework1/homework01.sol\":2477:2530  mappings[4] = RomanMapping({value: 100, symbol: \"C\"}) */\n      dup2\n      swap1\n      mstore\n      pop\n        /* \"homework1/homework01.sol\":2555:2594  RomanMapping({value: 90, symbol: \"XC\"}) */\n      mload(0x40)\n      dup1\n      0x40\n      add\n      0x40\n      mstore\n      dup1\n        /* \"homework1/homework01.sol\":2576:2578  90 */\n      0x5a\n        /* \"homework1/homework01.sol\":2555:2594  RomanMapping({value: 90, symbol: \"XC\"}) */\n      dup2\n      mstore\n      0x20\n      add\n      mload(0x40)\n      dup1\n      0x40\n      add\n      0x40\n      mstore\n      dup1\n      0x02\n      dup2\n      mstore\n      0x20\n      add\n      0x5843000000000000000000000000000000000000000000000000000000000000\n      dup2\n      mstore\n      pop\n      dup2\n      mstore\n      pop\n        /* \"homework1/homework01.sol\":2541:2549  mappings */\n      dup2\n        /* \"homework1/homework01.sol\":2550:2551  5 */\n      0x05\n        /* \"homework1/homework01.sol\":2541:2552  mappings[5] */\n      dup2\n      mload\n      dup2\n      lt\n      tag_33\n      jumpi\n      tag_34\n      tag_24\n      jump\t// in\n    tag_34:\n    tag_33:\n      0x20\n      mul\n      0x20\n      add\n      add\n        /* \"homework1/homework01.sol\":2541:2594  mappings[5] = RomanMapping({value: 90, symbol: \"XC\"}) */\n      dup2\n      swap1\n      mstore\n      pop\n        /* \"homework1/homework01.sol\":2649:2687  RomanMapping({value: 50, symbol: \"L\"}) */\n      mload(0x40)\n      dup1\n      0x40\n      add\n      0x40\n      mstore\n      dup1\n        /* \"homework1/homework01.sol\":2670:2672  50 */\n      0x32\n        /* \"homework1/homework01.sol\":2649:2687  RomanMapping({value: 50, symbol: \"L\"}) */\n      dup2\n      mstore\n      0x20\n      add\n      mload(0x40)\n      dup1\n      0x40\n      add\n      0x40\n      mstore\n      dup1\n      0x01\n      dup2\n      mstore\n      0x20\n      add\n      0x4c00000000000000000000000000000000000000000000000000000000000000\n      dup2\n      mstore\n      pop\n      dup2\n      mstore\n      pop\n        /* \"homework1/homework01.sol\":2635:2643  mappings */\n      dup2\n        /* \"homework1/homework01.sol\":2644:2645  6 */\n      0x06\n        /* \"homework1/homework01.sol\":2635:2646  mappings[6] */\n      dup2\n      mload\n      dup2\n      lt\n      tag_35\n      jumpi\n      tag_36\n      tag_24\n      jump\t// in\n    tag_36:\n    tag_35:\n      0x20\n      mul\n      0x20\n      add\n      add\n        /* \"homework1/homework01.sol\":2635:2687  mappings[6] = RomanMapping({value: 50, symbol: \"L\"}) */\n      dup2\n      swap1\n      mstore\n      pop\n        /* \"homework1/homework01.sol\":2712:2751  RomanMapping({value: 40, symbol: \"XL\"}) */\n      mload(0x40)\n      dup1\n      0x40\n      add\n      0x40\n      mstore\n      dup1\n        /* \"homework1/homework01.sol\":2733:2735  40 */\n      0x28\n        /* \"homework1/homework01.sol\":2712:2751  RomanMapping({value: 40, symbol: \"XL\"}) */\n      dup2\n      mstore\n      0x20\n      add\n      mload(0x40)\n      dup1\n      0x40\n      add\n      0x40\n      mstore\n      dup1\n      0x02\n      dup2\n      mstore\n      0x20\n      add\n      0x584c000000000000000000000000000000000000000000000000000000000000\n      dup2\n      mstore\n      pop\n      dup2\n      mstore\n      pop\n        /* \"homework1/homework01.sol\":2698:2706  mappings */\n      dup2\n        /* \"homework1/homework01.sol\":2707:2708  7 */\n      0x07\n        /* \"homework1/homework01.sol\":2698:2709  mappings[7] */\n      dup2\n      mload\n      dup2\n      lt\n      tag_37\n      jumpi\n      tag_38\n      tag_24\n      jump\t// in\n    tag_38:\n    tag_37:\n      0x20\n      mul\n      0x20\n      add\n      add\n        /* \"homework1/homework01.sol\":2698:2751  mappings[7] = RomanMapping({value: 40, symbol: \"XL\"}) */\n      dup2\n      swap1\n      mstore\n      pop\n        /* \"homework1/homework01.sol\":2805:2843  RomanMapping({value: 10, symbol: \"X\"}) */\n      mload(0x40)\n      dup1\n      0x40\n      add\n      0x40\n      mstore\n      dup1\n        /* \"homework1/homework01.sol\":2826:2828  10 */\n      0x0a\n        /* \"homework1/homework01.sol\":2805:2843  RomanMapping({value: 10, symbol: \"X\"}) */\n      dup2\n      mstore\n      0x20\n      add\n      mload(0x40)\n      dup1\n      0x40\n      add\n      0x40\n      mstore\n      dup1\n      0x01\n      dup2\n      mstore\n      0x20\n      add\n      0x5800000000000000000000000000000000000000000000000000000000000000\n      dup2\n      mstore\n      pop\n      dup2\n      mstore\n      pop\n        /* \"homework1/homework01.sol\":2791:2799  mappings */\n      dup2\n        /* \"homework1/homework01.sol\":2800:2801  8 */\n      0x08\n        /* \"homework1/homework01.sol\":2791:2802  mappings[8] */\n      dup2\n      mload\n      dup2\n      lt\n      tag_39\n      jumpi\n      tag_40\n      tag_24\n      jump\t// in\n    tag_40:\n    tag_39:\n      0x20\n      mul\n      0x20\n      add\n      add\n        /* \"homework1/homework01.sol\":2791:2843  mappings[8] = RomanMapping({value: 10, symbol: \"X\"}) */\n      dup2\n      swap1\n      mstore\n      pop\n        /* \"homework1/homework01.sol\":2868:2906  RomanMapping({value: 9, symbol: \"IX\"}) */\n      mload(0x40)\n      dup1\n      0x40\n      add\n      0x40\n      mstore\n      dup1\n        /* \"homework1/homework01.sol\":2889:2890  9 */\n      0x09\n        /* \"homework1/homework01.sol\":2868:2906  RomanMapping({value: 9, symbol: \"IX\"}) */\n      dup2\n      mstore\n      0x20\n      add\n      mload(0x40)\n      dup1\n      0x40\n      add\n      0x40\n      mstore\n      dup1\n      0x02\n      dup2\n      mstore\n      0x20\n      add\n      0x4958000000000000000000000000000000000000000000000000000000000000\n      dup2\n      mstore\n      pop\n      dup2\n      mstore\n      pop\n        /* \"homework1/homework01.sol\":2854:2862  mappings */\n      dup2\n        /* \"homework1/homework01.sol\":2863:2864  9 */\n      0x09\n        /* \"homework1/homework01.sol\":2854:2865  mappings[9] */\n      dup2\n      mload\n      dup2\n      lt\n      tag_41\n      jumpi\n      tag_42\n      tag_24\n      jump\t// in\n    tag_42:\n    tag_41:\n      0x20\n      mul\n      0x20\n      add\n      add\n        /* \"homework1/homework01.sol\":2854:2906  mappings[9] = RomanMapping({value: 9, symbol: \"IX\"}) */\n      dup2\n      swap1\n      mstore\n      pop\n        /* \"homework1/homework01.sol\":2960:2997  RomanMapping({value: 5, symbol: \"V\"}) */\n      mload(0x40)\n      dup1\n      0x40\n      add\n      0x40\n      mstore\n      dup1\n        /* \"homework1/homework01.sol\":2981:2982  5 */\n      0x05\n        /* \"homework1/homework01.sol\":2960:2997  RomanMapping({value: 5, symbol: \"V\"}) */\n      dup2\n      mstore\n      0x20\n      add\n      mload(0x40)\n      dup1\n      0x40\n      add\n      0x40\n      mstore\n      dup1\n      0x01\n      dup2\n      mstore\n      0x20\n      add\n      0x5600000000000000000000000000000000000000000000000000000000000000\n      dup2\n      mstore\n      pop\n      dup2\n      mstore\n      pop\n        /* \"homework1/homework01.sol\":2945:2953  mappings */\n      dup2\n        /* \"homework1/homework01.sol\":2954:2956  10 */\n      0x0a\n        /* \"homework1/homework01.sol\":2945:2957  mappings[10] */\n      dup2\n      mload\n      dup2\n      lt\n      tag_43\n      jumpi\n      tag_44\n      tag_24\n      jump\t// in\n    tag_44:\n    tag_43:\n      0x20\n      mul\n      0x20\n      add\n      add\n        /* \"homework1/homework01.sol\":2945:2997  mappings[10] = RomanMapping({value: 5, symbol: \"V\"}) */\n      dup2\n      swap1\n      mstore\n      pop\n        /* \"homework1/homework01.sol\":3023:3061  RomanMapping({value: 4, symbol: \"IV\"}) */\n      mload(0x40)\n      dup1\n      0x40\n      add\n      0x40\n      mstore\n      dup1\n        /* \"homework1/homework01.sol\":3044:3045  4 */\n      0x04\n        /* \"homework1/homework01.sol\":3023:3061  RomanMapping({value: 4, symbol: \"IV\"}) */\n      dup2\n      mstore\n      0x20\n      add\n      mload(0x40)\n      dup1\n      0x40\n      add\n      0x40\n      mstore\n      dup1\n      0x02\n      dup2\n      mstore\n      0x20\n      add\n      0x4956000000000000000000000000000000000000000000000000000000000000\n      dup2\n      mstore\n      pop\n      dup2\n      mstore\n      pop\n        /* \"homework1/homework01.sol\":3008:3016  mappings */\n      dup2\n        /* \"homework1/homework01.sol\":3017:3019  11 */\n      0x0b\n        /* \"homework1/homework01.sol\":3008:3020  mappings[11] */\n      dup2\n      mload\n      dup2\n      lt\n      tag_45\n      jumpi\n      tag_46\n      tag_24\n      jump\t// in\n    tag_46:\n    tag_45:\n      0x20\n      mul\n      0x20\n      add\n      add\n        /* \"homework1/homework01.sol\":3008:3061  mappings[11] = RomanMapping({value: 4, symbol: \"IV\"}) */\n      dup2\n      swap1\n      mstore\n      pop\n        /* \"homework1/homework01.sol\":3113:3150  RomanMapping({value: 1, symbol: \"I\"}) */\n      mload(0x40)\n      dup1\n      0x40\n      add\n      0x40\n      mstore\n      dup1\n        /* \"homework1/homework01.sol\":3134:3135  1 */\n      0x01\n        /* \"homework1/homework01.sol\":3113:3150  RomanMapping({value: 1, symbol: \"I\"}) */\n      dup2\n      mstore\n      0x20\n      add\n      mload(0x40)\n      dup1\n      0x40\n      add\n      0x40\n      mstore\n      dup1\n      0x01\n      dup2\n      mstore\n      0x20\n      add\n      0x4900000000000000000000000000000000000000000000000000000000000000\n      dup2\n      mstore\n      pop\n      dup2\n      mstore\n      pop\n        /* \"homework1/homework01.sol\":3098:3106  mappings */\n      dup2\n        /* \"homework1/homework01.sol\":3107:3109  12 */\n      0x0c\n        /* \"homework1/homework01.sol\":3098:3110  mappings[12] */\n      dup2\n      mload\n      dup2\n      lt\n      tag_47\n      jumpi\n      tag_48\n      tag_24\n      jump\t// in\n    tag_48:\n    tag_47:\n      0x20\n      mul\n      0x20\n      add\n      add\n        /* \"homework1/homework01.sol\":3098:3150  mappings[12] = RomanMapping({value: 1, symbol: \"I\"}) */\n      dup2\n      swap1\n      mstore\n      pop\n        /* \"homework1/homework01.sol\":3220:3239  bytes memory result */\n      0x00\n        /* \"homework1/homework01.sol\":3252:3253  0 */\n      0x00\n        /* \"homework1/homework01.sol\":3242:3254  new bytes(0) */\n      0xffffffffffffffff\n      dup2\n      gt\n      iszero\n      tag_49\n      jumpi\n      tag_50\n      tag_17\n      jump\t// in\n    tag_50:\n    tag_49:\n      mload(0x40)\n      swap1\n      dup1\n      dup3\n      mstore\n      dup1\n      0x1f\n      add\n      not(0x1f)\n      and\n      0x20\n      add\n      dup3\n      add\n      0x40\n      mstore\n      dup1\n      iszero\n      tag_51\n      jumpi\n      dup2\n      0x20\n      add\n      0x01\n      dup3\n      mul\n      dup1\n      calldatasize\n      dup4\n      calldatacopy\n      dup1\n      dup3\n      add\n      swap2\n      pop\n      pop\n      swap1\n      pop\n    tag_51:\n      pop\n        /* \"homework1/homework01.sol\":3220:3254  bytes memory result = new bytes(0) */\n      swap1\n      pop\n        /* \"homework1/homework01.sol\":3389:3398  uint256 i */\n      0x00\n        /* \"homework1/homework01.sol\":3401:3402  0 */\n      0x00\n        /* \"homework1/homework01.sol\":3389:3402  uint256 i = 0 */\n      swap1\n      pop\n        /* \"homework1/homework01.sol\":3384:3751  for (uint256 i = 0; i < mappings.length; i++) {... */\n    tag_52:\n        /* \"homework1/homework01.sol\":3408:3416  mappings */\n      dup3\n        /* \"homework1/homework01.sol\":3408:3423  mappings.length */\n      mload\n        /* \"homework1/homework01.sol\":3404:3405  i */\n      dup2\n        /* \"homework1/homework01.sol\":3404:3423  i < mappings.length */\n      lt\n        /* \"homework1/homework01.sol\":3384:3751  for (uint256 i = 0; i < mappings.length; i++) {... */\n      iszero\n      tag_53\n      jumpi\n        /* \"homework1/homework01.sol\":3576:3740  while (num >= mappings[i].value) {... */\n    tag_55:\n        /* \"homework1/homework01.sol\":3590:3598  mappings */\n      dup3\n        /* \"homework1/homework01.sol\":3599:3600  i */\n      dup2\n        /* \"homework1/homework01.sol\":3590:3601  mappings[i] */\n      dup2\n      mload\n      dup2\n      lt\n      tag_57\n      jumpi\n      tag_58\n      tag_24\n      jump\t// in\n    tag_58:\n    tag_57:\n      0x20\n      mul\n      0x20\n      add\n      add\n      mload\n        /* \"homework1/homework01.sol\":3590:3607  mappings[i].value */\n      0x00\n      add\n      mload\n        /* \"homework1/homework01.sol\":3583:3586  num */\n      dup6\n        /* \"homework1/homework01.sol\":3583:3607  num >= mappings[i].value */\n      lt\n        /* \"homework1/homework01.sol\":3576:3740  while (num >= mappings[i].value) {... */\n      tag_56\n      jumpi\n        /* \"homework1/homework01.sol\":3654:3660  result */\n      dup2\n        /* \"homework1/homework01.sol\":3662:3670  mappings */\n      dup4\n        /* \"homework1/homework01.sol\":3671:3672  i */\n      dup3\n        /* \"homework1/homework01.sol\":3662:3673  mappings[i] */\n      dup2\n      mload\n      dup2\n      lt\n      tag_59\n      jumpi\n      tag_60\n      tag_24\n      jump\t// in\n    tag_60:\n    tag_59:\n      0x20\n      mul\n      0x20\n      add\n      add\n      mload\n        /* \"homework1/homework01.sol\":3662:3680  mappings[i].symbol */\n      0x20\n      add\n      mload\n        /* \"homework1/homework01.sol\":3637:3681  abi.encodePacked(result, mappings[i].symbol) */\n      add(0x20, mload(0x40))\n      tag_61\n      swap3\n      swap2\n      swap1\n      tag_62\n      jump\t// in\n    tag_61:\n      mload(0x40)\n      0x20\n      dup2\n      dup4\n      sub\n      sub\n      dup2\n      mstore\n      swap1\n      0x40\n      mstore\n        /* \"homework1/homework01.sol\":3628:3681  result = abi.encodePacked(result, mappings[i].symbol) */\n      swap2\n      pop\n        /* \"homework1/homework01.sol\":3707:3715  mappings */\n      dup3\n        /* \"homework1/homework01.sol\":3716:3717  i */\n      dup2\n        /* \"homework1/homework01.sol\":3707:3718  mappings[i] */\n      dup2\n      mload\n      dup2\n      lt\n      tag_63\n      jumpi\n      tag_64\n      tag_24\n      jump\t// in\n    tag_64:\n    tag_63:\n      0x20\n      mul\n      0x20\n      add\n      add\n      mload\n        /* \"homework1/homework01.sol\":3707:3724  mappings[i].value */\n      0x00\n      add\n      mload\n        /* \"homework1/homework01.sol\":3700:3724  num -= mappings[i].value */\n      dup6\n      tag_65\n      swap2\n      swap1\n      tag_66\n      jump\t// in\n    tag_65:\n      swap5\n      pop\n        /* \"homework1/homework01.sol\":3576:3740  while (num >= mappings[i].value) {... */\n      jump(tag_55)\n    tag_56:\n        /* \"homework1/homework01.sol\":3425:3428  i++ */\n      dup1\n      dup1\n      0x01\n      add\n      swap2\n      pop\n      pop\n        /* \"homework1/homework01.sol\":3384:3751  for (uint256 i = 0; i < mappings.length; i++) {... */\n      jump(tag_52)\n    tag_53:\n      pop\n        /* \"homework1/homework01.sol\":3777:3783  result */\n      dup1\n        /* \"homework1/homework01.sol\":3763:3784  return string(result) */\n      swap3\n      pop\n      pop\n      pop\n        /* \"homework1/homework01.sol\":1764:3792  function intToRoman(uint256 num) public pure returns (string memory) {... */\n      swap2\n      swap1\n      pop\n      jump\t// out\n    tag_21:\n      mload(0x40)\n      dup1\n      0x40\n      add\n      0x40\n      mstore\n      dup1\n      0x00\n      dup2\n      mstore\n      0x20\n      add\n      0x60\n      dup2\n      mstore\n      pop\n      swap1\n      jump\t// out\n        /* \"#utility.yul\":88:205   */\n    tag_68:\n        /* \"#utility.yul\":197:198   */\n      0x00\n        /* \"#utility.yul\":194:195   */\n      0x00\n        /* \"#utility.yul\":187:199   */\n      revert\n        /* \"#utility.yul\":334:411   */\n    tag_70:\n        /* \"#utility.yul\":371:378   */\n      0x00\n        /* \"#utility.yul\":400:405   */\n      dup2\n        /* \"#utility.yul\":389:405   */\n      swap1\n      pop\n        /* \"#utility.yul\":334:411   */\n      swap2\n      swap1\n      pop\n      jump\t// out\n        /* \"#utility.yul\":417:539   */\n    tag_71:\n        /* \"#utility.yul\":490:514   */\n      tag_92\n        /* \"#utility.yul\":508:513   */\n      dup2\n        /* \"#utility.yul\":490:514   */\n      tag_70\n      jump\t// in\n    tag_92:\n        /* \"#utility.yul\":483:488   */\n      dup2\n        /* \"#utility.yul\":480:515   */\n      eq\n        /* \"#utility.yul\":470:533   */\n      tag_93\n      jumpi\n        /* \"#utility.yul\":529:530   */\n      0x00\n        /* \"#utility.yul\":526:527   */\n      0x00\n        /* \"#utility.yul\":519:531   */\n      revert\n        /* \"#utility.yul\":470:533   */\n    tag_93:\n        /* \"#utility.yul\":417:539   */\n      pop\n      jump\t// out\n        /* \"#utility.yul\":545:684   */\n    tag_72:\n        /* \"#utility.yul\":591:596   */\n      0x00\n        /* \"#utility.yul\":629:635   */\n      dup2\n        /* \"#utility.yul\":616:636   */\n      calldataload\n        /* \"#utility.yul\":607:636   */\n      swap1\n      pop\n        /* \"#utility.yul\":645:678   */\n      tag_95\n        /* \"#utility.yul\":672:677   */\n      dup2\n        /* \"#utility.yul\":645:678   */\n      tag_71\n      jump\t// in\n    tag_95:\n        /* \"#utility.yul\":545:684   */\n      swap3\n      swap2\n      pop\n      pop\n      jump\t// out\n        /* \"#utility.yul\":690:1019   */\n    tag_6:\n        /* \"#utility.yul\":749:755   */\n      0x00\n        /* \"#utility.yul\":798:800   */\n      0x20\n        /* \"#utility.yul\":786:795   */\n      dup3\n        /* \"#utility.yul\":777:784   */\n      dup5\n        /* \"#utility.yul\":773:796   */\n      sub\n        /* \"#utility.yul\":769:801   */\n      slt\n        /* \"#utility.yul\":766:885   */\n      iszero\n      tag_97\n      jumpi\n        /* \"#utility.yul\":804:883   */\n      tag_98\n      tag_68\n      jump\t// in\n    tag_98:\n        /* \"#utility.yul\":766:885   */\n    tag_97:\n        /* \"#utility.yul\":924:925   */\n      0x00\n        /* \"#utility.yul\":949:1002   */\n      tag_99\n        /* \"#utility.yul\":994:1001   */\n      dup5\n        /* \"#utility.yul\":985:991   */\n      dup3\n        /* \"#utility.yul\":974:983   */\n      dup6\n        /* \"#utility.yul\":970:992   */\n      add\n        /* \"#utility.yul\":949:1002   */\n      tag_72\n      jump\t// in\n    tag_99:\n        /* \"#utility.yul\":939:1002   */\n      swap2\n      pop\n        /* \"#utility.yul\":895:1012   */\n      pop\n        /* \"#utility.yul\":690:1019   */\n      swap3\n      swap2\n      pop\n      pop\n      jump\t// out\n        /* \"#utility.yul\":1025:1124   */\n    tag_73:\n        /* \"#utility.yul\":1077:1083   */\n      0x00\n        /* \"#utility.yul\":1111:1116   */\n      dup2\n        /* \"#utility.yul\":1105:1117   */\n      mload\n        /* \"#utility.yul\":1095:1117   */\n      swap1\n      pop\n        /* \"#utility.yul\":1025:1124   */\n      swap2\n      swap1\n      pop\n      jump\t// out\n        /* \"#utility.yul\":1130:1299   */\n    tag_74:\n        /* \"#utility.yul\":1214:1225   */\n      0x00\n        /* \"#utility.yul\":1248:1254   */\n      dup3\n        /* \"#utility.yul\":1243:1246   */\n      dup3\n        /* \"#utility.yul\":1236:1255   */\n      mstore\n        /* \"#utility.yul\":1288:1292   */\n      0x20\n        /* \"#utility.yul\":1283:1286   */\n      dup3\n        /* \"#utility.yul\":1279:1293   */\n      add\n        /* \"#utility.yul\":1264:1293   */\n      swap1\n      pop\n        /* \"#utility.yul\":1130:1299   */\n      swap3\n      swap2\n      pop\n      pop\n      jump\t// out\n        /* \"#utility.yul\":1305:1444   */\n    tag_75:\n        /* \"#utility.yul\":1394:1400   */\n      dup3\n        /* \"#utility.yul\":1389:1392   */\n      dup2\n        /* \"#utility.yul\":1384:1387   */\n      dup4\n        /* \"#utility.yul\":1378:1401   */\n      mcopy\n        /* \"#utility.yul\":1435:1436   */\n      0x00\n        /* \"#utility.yul\":1426:1432   */\n      dup4\n        /* \"#utility.yul\":1421:1424   */\n      dup4\n        /* \"#utility.yul\":1417:1433   */\n      add\n        /* \"#utility.yul\":1410:1437   */\n      mstore\n        /* \"#utility.yul\":1305:1444   */\n      pop\n      pop\n      pop\n      jump\t// out\n        /* \"#utility.yul\":1450:1552   */\n    tag_76:\n        /* \"#utility.yul\":1491:1497   */\n      0x00\n        /* \"#utility.yul\":1542:1544   */\n      0x1f\n        /* \"#utility.yul\":1538:1545   */\n      not\n        /* \"#utility.yul\":1533:1535   */\n      0x1f\n        /* \"#utility.yul\":1526:1531   */\n      dup4\n        /* \"#utility.yul\":1522:1536   */\n      add\n        /* \"#utility.yul\":1518:1546   */\n      and\n        /* \"#utility.yul\":1508:1546   */\n      swap1\n      pop\n        /* \"#utility.yul\":1450:1552   */\n      swap2\n      swap1\n      pop\n      jump\t// out\n        /* \"#utility.yul\":1558:1935   */\n    tag_77:\n        /* \"#utility.yul\":1646:1649   */\n      0x00\n        /* \"#utility.yul\":1674:1713   */\n      tag_105\n        /* \"#utility.yul\":1707:1712   */\n      dup3\n        /* \"#utility.yul\":1674:1713   */\n      tag_73\n      jump\t// in\n    tag_105:\n        /* \"#utility.yul\":1729:1800   */\n      tag_106\n        /* \"#utility.yul\":1793:1799   */\n      dup2\n        /* \"#utility.yul\":1788:1791   */\n      dup6\n        /* \"#utility.yul\":1729:1800   */\n      tag_74\n      jump\t// in\n    tag_106:\n        /* \"#utility.yul\":1722:1800   */\n      swap4\n      pop\n        /* \"#utility.yul\":1809:1874   */\n      tag_107\n        /* \"#utility.yul\":1867:1873   */\n      dup2\n        /* \"#utility.yul\":1862:1865   */\n      dup6\n        /* \"#utility.yul\":1855:1859   */\n      0x20\n        /* \"#utility.yul\":1848:1853   */\n      dup7\n        /* \"#utility.yul\":1844:1860   */\n      add\n        /* \"#utility.yul\":1809:1874   */\n      tag_75\n      jump\t// in\n    tag_107:\n        /* \"#utility.yul\":1899:1928   */\n      tag_108\n        /* \"#utility.yul\":1921:1927   */\n      dup2\n        /* \"#utility.yul\":1899:1928   */\n      tag_76\n      jump\t// in\n    tag_108:\n        /* \"#utility.yul\":1894:1897   */\n      dup5\n        /* \"#utility.yul\":1890:1929   */\n      add\n        /* \"#utility.yul\":1883:1929   */\n      swap2\n      pop\n        /* \"#utility.yul\":1650:1935   */\n      pop\n        /* \"#utility.yul\":1558:1935   */\n      swap3\n      swap2\n      pop\n      pop\n      jump\t// out\n        /* \"#utility.yul\":1941:2254   */\n    tag_9:\n        /* \"#utility.yul\":2054:2058   */\n      0x00\n        /* \"#utility.yul\":2092:2094   */\n      0x20\n        /* \"#utility.yul\":2081:2090   */\n      dup3\n        /* \"#utility.yul\":2077:2095   */\n      add\n        /* \"#utility.yul\":2069:2095   */\n      swap1\n      pop\n        /* \"#utility.yul\":2141:2150   */\n      dup2\n        /* \"#utility.yul\":2135:2139   */\n      dup2\n        /* \"#utility.yul\":2131:2151   */\n      sub\n        /* \"#utility.yul\":2127:2128   */\n      0x00\n        /* \"#utility.yul\":2116:2125   */\n      dup4\n        /* \"#utility.yul\":2112:2129   */\n      add\n        /* \"#utility.yul\":2105:2152   */\n      mstore\n        /* \"#utility.yul\":2169:2247   */\n      tag_110\n        /* \"#utility.yul\":2242:2246   */\n      dup2\n        /* \"#utility.yul\":2233:2239   */\n      dup5\n        /* \"#utility.yul\":2169:2247   */\n      tag_77\n      jump\t// in\n    tag_110:\n        /* \"#utility.yul\":2161:2247   */\n      swap1\n      pop\n        /* \"#utility.yul\":1941:2254   */\n      swap3\n      swap2\n      pop\n      pop\n      jump\t// out\n        /* \"#utility.yul\":2260:2480   */\n    tag_78:\n        /* \"#utility.yul\":2400:2434   */\n      0x4e756d626572206d757374206265206265747765656e203120616e6420333939\n        /* \"#utility.yul\":2396:2397   */\n      0x00\n        /* \"#utility.yul\":2388:2394   */\n      dup3\n        /* \"#utility.yul\":2384:2398   */\n      add\n        /* \"#utility.yul\":2377:2435   */\n      mstore\n        /* \"#utility.yul\":2469:2472   */\n      0x3900000000000000000000000000000000000000000000000000000000000000\n        /* \"#utility.yul\":2464:2466   */\n      0x20\n        /* \"#utility.yul\":2456:2462   */\n      dup3\n        /* \"#utility.yul\":2452:2467   */\n      add\n        /* \"#utility.yul\":2445:2473   */\n      mstore\n        /* \"#utility.yul\":2260:2480   */\n      pop\n      jump\t// out\n        /* \"#utility.yul\":2486:2852   */\n    tag_79:\n        /* \"#utility.yul\":2628:2631   */\n      0x00\n        /* \"#utility.yul\":2649:2716   */\n      tag_113\n        /* \"#utility.yul\":2713:2715   */\n      0x21\n        /* \"#utility.yul\":2708:2711   */\n      dup4\n        /* \"#utility.yul\":2649:2716   */\n      tag_74\n      jump\t// in\n    tag_113:\n        /* \"#utility.yul\":2642:2716   */\n      swap2\n      pop\n        /* \"#utility.yul\":2725:2818   */\n      tag_114\n        /* \"#utility.yul\":2814:2817   */\n      dup3\n        /* \"#utility.yul\":2725:2818   */\n      tag_78\n      jump\t// in\n    tag_114:\n        /* \"#utility.yul\":2843:2845   */\n      0x40\n        /* \"#utility.yul\":2838:2841   */\n      dup3\n        /* \"#utility.yul\":2834:2846   */\n      add\n        /* \"#utility.yul\":2827:2846   */\n      swap1\n      pop\n        /* \"#utility.yul\":2486:2852   */\n      swap2\n      swap1\n      pop\n      jump\t// out\n        /* \"#utility.yul\":2858:3277   */\n    tag_14:\n        /* \"#utility.yul\":3024:3028   */\n      0x00\n        /* \"#utility.yul\":3062:3064   */\n      0x20\n        /* \"#utility.yul\":3051:3060   */\n      dup3\n        /* \"#utility.yul\":3047:3065   */\n      add\n        /* \"#utility.yul\":3039:3065   */\n      swap1\n      pop\n        /* \"#utility.yul\":3111:3120   */\n      dup2\n        /* \"#utility.yul\":3105:3109   */\n      dup2\n        /* \"#utility.yul\":3101:3121   */\n      sub\n        /* \"#utility.yul\":3097:3098   */\n      0x00\n        /* \"#utility.yul\":3086:3095   */\n      dup4\n        /* \"#utility.yul\":3082:3099   */\n      add\n        /* \"#utility.yul\":3075:3122   */\n      mstore\n        /* \"#utility.yul\":3139:3270   */\n      tag_116\n        /* \"#utility.yul\":3265:3269   */\n      dup2\n        /* \"#utility.yul\":3139:3270   */\n      tag_79\n      jump\t// in\n    tag_116:\n        /* \"#utility.yul\":3131:3270   */\n      swap1\n      pop\n        /* \"#utility.yul\":2858:3277   */\n      swap2\n      swap1\n      pop\n      jump\t// out\n        /* \"#utility.yul\":3283:3463   */\n    tag_17:\n        /* \"#utility.yul\":3331:3408   */\n      0x4e487b7100000000000000000000000000000000000000000000000000000000\n        /* \"#utility.yul\":3328:3329   */\n      0x00\n        /* \"#utility.yul\":3321:3409   */\n      mstore\n        /* \"#utility.yul\":3428:3432   */\n      0x41\n        /* \"#utility.yul\":3425:3426   */\n      0x04\n        /* \"#utility.yul\":3418:3433   */\n      mstore\n        /* \"#utility.yul\":3452:3456   */\n      0x24\n        /* \"#utility.yul\":3449:3450   */\n      0x00\n        /* \"#utility.yul\":3442:3457   */\n      revert\n        /* \"#utility.yul\":3469:3649   */\n    tag_24:\n        /* \"#utility.yul\":3517:3594   */\n      0x4e487b7100000000000000000000000000000000000000000000000000000000\n        /* \"#utility.yul\":3514:3515   */\n      0x00\n        /* \"#utility.yul\":3507:3595   */\n      mstore\n        /* \"#utility.yul\":3614:3618   */\n      0x32\n        /* \"#utility.yul\":3611:3612   */\n      0x04\n        /* \"#utility.yul\":3604:3619   */\n      mstore\n        /* \"#utility.yul\":3638:3642   */\n      0x24\n        /* \"#utility.yul\":3635:3636   */\n      0x00\n        /* \"#utility.yul\":3628:3643   */\n      revert\n        /* \"#utility.yul\":3655:3753   */\n    tag_80:\n        /* \"#utility.yul\":3706:3712   */\n      0x00\n        /* \"#utility.yul\":3740:3745   */\n      dup2\n        /* \"#utility.yul\":3734:3746   */\n      mload\n        /* \"#utility.yul\":3724:3746   */\n      swap1\n      pop\n        /* \"#utility.yul\":3655:3753   */\n      swap2\n      swap1\n      pop\n      jump\t// out\n        /* \"#utility.yul\":3759:3906   */\n    tag_81:\n        /* \"#utility.yul\":3860:3871   */\n      0x00\n        /* \"#utility.yul\":3897:3900   */\n      dup2\n        /* \"#utility.yul\":3882:3900   */\n      swap1\n      pop\n        /* \"#utility.yul\":3759:3906   */\n      swap3\n      swap2\n      pop\n      pop\n      jump\t// out\n        /* \"#utility.yul\":3912:4298   */\n    tag_82:\n        /* \"#utility.yul\":4016:4019   */\n      0x00\n        /* \"#utility.yul\":4044:4082   */\n      tag_122\n        /* \"#utility.yul\":4076:4081   */\n      dup3\n        /* \"#utility.yul\":4044:4082   */\n      tag_80\n      jump\t// in\n    tag_122:\n        /* \"#utility.yul\":4098:4186   */\n      tag_123\n        /* \"#utility.yul\":4179:4185   */\n      dup2\n        /* \"#utility.yul\":4174:4177   */\n      dup6\n        /* \"#utility.yul\":4098:4186   */\n      tag_81\n      jump\t// in\n    tag_123:\n        /* \"#utility.yul\":4091:4186   */\n      swap4\n      pop\n        /* \"#utility.yul\":4195:4260   */\n      tag_124\n        /* \"#utility.yul\":4253:4259   */\n      dup2\n        /* \"#utility.yul\":4248:4251   */\n      dup6\n        /* \"#utility.yul\":4241:4245   */\n      0x20\n        /* \"#utility.yul\":4234:4239   */\n      dup7\n        /* \"#utility.yul\":4230:4246   */\n      add\n        /* \"#utility.yul\":4195:4260   */\n      tag_75\n      jump\t// in\n    tag_124:\n        /* \"#utility.yul\":4285:4291   */\n      dup1\n        /* \"#utility.yul\":4280:4283   */\n      dup5\n        /* \"#utility.yul\":4276:4292   */\n      add\n        /* \"#utility.yul\":4269:4292   */\n      swap2\n      pop\n        /* \"#utility.yul\":4020:4298   */\n      pop\n        /* \"#utility.yul\":3912:4298   */\n      swap3\n      swap2\n      pop\n      pop\n      jump\t// out\n        /* \"#utility.yul\":4304:4452   */\n    tag_83:\n        /* \"#utility.yul\":4406:4417   */\n      0x00\n        /* \"#utility.yul\":4443:4446   */\n      dup2\n        /* \"#utility.yul\":4428:4446   */\n      swap1\n      pop\n        /* \"#utility.yul\":4304:4452   */\n      swap3\n      swap2\n      pop\n      pop\n      jump\t// out\n        /* \"#utility.yul\":4458:4848   */\n    tag_84:\n        /* \"#utility.yul\":4564:4567   */\n      0x00\n        /* \"#utility.yul\":4592:4631   */\n      tag_127\n        /* \"#utility.yul\":4625:4630   */\n      dup3\n        /* \"#utility.yul\":4592:4631   */\n      tag_73\n      jump\t// in\n    tag_127:\n        /* \"#utility.yul\":4647:4736   */\n      tag_128\n        /* \"#utility.yul\":4729:4735   */\n      dup2\n        /* \"#utility.yul\":4724:4727   */\n      dup6\n        /* \"#utility.yul\":4647:4736   */\n      tag_83\n      jump\t// in\n    tag_128:\n        /* \"#utility.yul\":4640:4736   */\n      swap4\n      pop\n        /* \"#utility.yul\":4745:4810   */\n      tag_129\n        /* \"#utility.yul\":4803:4809   */\n      dup2\n        /* \"#utility.yul\":4798:4801   */\n      dup6\n        /* \"#utility.yul\":4791:4795   */\n      0x20\n        /* \"#utility.yul\":4784:4789   */\n      dup7\n        /* \"#utility.yul\":4780:4796   */\n      add\n        /* \"#utility.yul\":4745:4810   */\n      tag_75\n      jump\t// in\n    tag_129:\n        /* \"#utility.yul\":4835:4841   */\n      dup1\n        /* \"#utility.yul\":4830:4833   */\n      dup5\n        /* \"#utility.yul\":4826:4842   */\n      add\n        /* \"#utility.yul\":4819:4842   */\n      swap2\n      pop\n        /* \"#utility.yul\":4568:4848   */\n      pop\n        /* \"#utility.yul\":4458:4848   */\n      swap3\n      swap2\n      pop\n      pop\n      jump\t// out\n        /* \"#utility.yul\":4854:5285   */\n    tag_62:\n        /* \"#utility.yul\":5032:5035   */\n      0x00\n        /* \"#utility.yul\":5054:5147   */\n      tag_131\n        /* \"#utility.yul\":5143:5146   */\n      dup3\n        /* \"#utility.yul\":5134:5140   */\n      dup6\n        /* \"#utility.yul\":5054:5147   */\n      tag_82\n      jump\t// in\n    tag_131:\n        /* \"#utility.yul\":5047:5147   */\n      swap2\n      pop\n        /* \"#utility.yul\":5164:5259   */\n      tag_132\n        /* \"#utility.yul\":5255:5258   */\n      dup3\n        /* \"#utility.yul\":5246:5252   */\n      dup5\n        /* \"#utility.yul\":5164:5259   */\n      tag_84\n      jump\t// in\n    tag_132:\n        /* \"#utility.yul\":5157:5259   */\n      swap2\n      pop\n        /* \"#utility.yul\":5276:5279   */\n      dup2\n        /* \"#utility.yul\":5269:5279   */\n      swap1\n      pop\n        /* \"#utility.yul\":4854:5285   */\n      swap4\n      swap3\n      pop\n      pop\n      pop\n      jump\t// out\n        /* \"#utility.yul\":5291:5471   */\n    tag_85:\n        /* \"#utility.yul\":5339:5416   */\n      0x4e487b7100000000000000000000000000000000000000000000000000000000\n        /* \"#utility.yul\":5336:5337   */\n      0x00\n        /* \"#utility.yul\":5329:5417   */\n      mstore\n        /* \"#utility.yul\":5436:5440   */\n      0x11\n        /* \"#utility.yul\":5433:5434   */\n      0x04\n        /* \"#utility.yul\":5426:5441   */\n      mstore\n        /* \"#utility.yul\":5460:5464   */\n      0x24\n        /* \"#utility.yul\":5457:5458   */\n      0x00\n        /* \"#utility.yul\":5450:5465   */\n      revert\n        /* \"#utility.yul\":5477:5671   */\n    tag_66:\n        /* \"#utility.yul\":5517:5521   */\n      0x00\n        /* \"#utility.yul\":5537:5557   */\n      tag_135\n        /* \"#utility.yul\":5555:5556   */\n      dup3\n        /* \"#utility.yul\":5537:5557   */\n      tag_70\n      jump\t// in\n    tag_135:\n        /* \"#utility.yul\":5532:5557   */\n      swap2\n      pop\n        /* \"#utility.yul\":5571:5591   */\n      tag_136\n        /* \"#utility.yul\":5589:5590   */\n      dup4\n        /* \"#utility.yul\":5571:5591   */\n      tag_70\n      jump\t// in\n    tag_136:\n        /* \"#utility.yul\":5566:5591   */\n      swap3\n      pop\n        /* \"#utility.yul\":5615:5616   */\n      dup3\n        /* \"#utility.yul\":5612:5613   */\n      dup3\n        /* \"#utility.yul\":5608:5617   */\n      sub\n        /* \"#utility.yul\":5600:5617   */\n      swap1\n      pop\n        /* \"#utility.yul\":5639:5640   */\n      dup2\n        /* \"#utility.yul\":5633:5637   */\n      dup2\n        /* \"#utility.yul\":5630:5641   */\n      gt\n        /* \"#utility.yul\":5627:5664   */\n      iszero\n      tag_137\n      jumpi\n        /* \"#utility.yul\":5644:5662   */\n      tag_138\n      tag_85\n      jump\t// in\n    tag_138:\n        /* \"#utility.yul\":5627:5664   */\n    tag_137:\n        /* \"#utility.yul\":5477:5671   */\n      swap3\n      swap2\n      pop\n      pop\n      jump\t// out\n\n    auxdata: 0xa2646970667358221220bdaebfc58cdd0c58d826bdb3fd556af005e26c28e1173b7d15228e01f57484c264736f6c634300081e0033\n}\n",
				"bytecode": {
					"linkReferences": {},
					"object": "6080604052348015600e575f5ffd5b50610aa58061001c5f395ff3fe608060405234801561000f575f5ffd5b5060043610610029575f3560e01c80630cbc513a1461002d575b5f5ffd5b610047600480360381019061004291906107cb565b61005d565b6040516100549190610866565b60405180910390f35b6060600182101580156100725750610f9f8211155b6100b1576040517f08c379a00000000000000000000000000000000000000000000000000000000081526004016100a8906108f6565b60405180910390fd5b5f600d67ffffffffffffffff8111156100cd576100cc610914565b5b60405190808252806020026020018201604052801561010657816020015b6100f361077b565b8152602001906001900390816100eb5790505b50905060405180604001604052806103e881526020016040518060400160405280600181526020017f4d00000000000000000000000000000000000000000000000000000000000000815250815250815f8151811061016857610167610941565b5b6020026020010181905250604051806040016040528061038481526020016040518060400160405280600281526020017f434d000000000000000000000000000000000000000000000000000000000000815250815250816001815181106101d3576101d2610941565b5b602002602001018190525060405180604001604052806101f481526020016040518060400160405280600181526020017f44000000000000000000000000000000000000000000000000000000000000008152508152508160028151811061023e5761023d610941565b5b6020026020010181905250604051806040016040528061019081526020016040518060400160405280600281526020017f4344000000000000000000000000000000000000000000000000000000000000815250815250816003815181106102a9576102a8610941565b5b60200260200101819052506040518060400160405280606481526020016040518060400160405280600181526020017f43000000000000000000000000000000000000000000000000000000000000008152508152508160048151811061031357610312610941565b5b60200260200101819052506040518060400160405280605a81526020016040518060400160405280600281526020017f58430000000000000000000000000000000000000000000000000000000000008152508152508160058151811061037d5761037c610941565b5b60200260200101819052506040518060400160405280603281526020016040518060400160405280600181526020017f4c00000000000000000000000000000000000000000000000000000000000000815250815250816006815181106103e7576103e6610941565b5b60200260200101819052506040518060400160405280602881526020016040518060400160405280600281526020017f584c0000000000000000000000000000000000000000000000000000000000008152508152508160078151811061045157610450610941565b5b60200260200101819052506040518060400160405280600a81526020016040518060400160405280600181526020017f5800000000000000000000000000000000000000000000000000000000000000815250815250816008815181106104bb576104ba610941565b5b60200260200101819052506040518060400160405280600981526020016040518060400160405280600281526020017f49580000000000000000000000000000000000000000000000000000000000008152508152508160098151811061052557610524610941565b5b60200260200101819052506040518060400160405280600581526020016040518060400160405280600181526020017f560000000000000000000000000000000000000000000000000000000000000081525081525081600a8151811061058f5761058e610941565b5b60200260200101819052506040518060400160405280600481526020016040518060400160405280600281526020017f495600000000000000000000000000000000000000000000000000000000000081525081525081600b815181106105f9576105f8610941565b5b60200260200101819052506040518060400160405280600181526020016040518060400160405280600181526020017f490000000000000000000000000000000000000000000000000000000000000081525081525081600c8151811061066357610662610941565b5b60200260200101819052505f5f67ffffffffffffffff81111561068957610688610914565b5b6040519080825280601f01601f1916602001820160405280156106bb5781602001600182028036833780820191505090505b5090505f5f90505b8251811015610770575b8281815181106106e0576106df610941565b5b60200260200101515f01518510610763578183828151811061070557610704610941565b5b6020026020010151602001516040516020016107229291906109ec565b604051602081830303815290604052915082818151811061074657610745610941565b5b60200260200101515f01518561075c9190610a3c565b94506106cd565b80806001019150506106c3565b508092505050919050565b60405180604001604052805f8152602001606081525090565b5f5ffd5b5f819050919050565b6107aa81610798565b81146107b4575f5ffd5b50565b5f813590506107c5816107a1565b92915050565b5f602082840312156107e0576107df610794565b5b5f6107ed848285016107b7565b91505092915050565b5f81519050919050565b5f82825260208201905092915050565b8281835e5f83830152505050565b5f601f19601f8301169050919050565b5f610838826107f6565b6108428185610800565b9350610852818560208601610810565b61085b8161081e565b840191505092915050565b5f6020820190508181035f83015261087e818461082e565b905092915050565b7f4e756d626572206d757374206265206265747765656e203120616e64203339395f8201527f3900000000000000000000000000000000000000000000000000000000000000602082015250565b5f6108e0602183610800565b91506108eb82610886565b604082019050919050565b5f6020820190508181035f83015261090d816108d4565b9050919050565b7f4e487b71000000000000000000000000000000000000000000000000000000005f52604160045260245ffd5b7f4e487b71000000000000000000000000000000000000000000000000000000005f52603260045260245ffd5b5f81519050919050565b5f81905092915050565b5f61098c8261096e565b6109968185610978565b93506109a6818560208601610810565b80840191505092915050565b5f81905092915050565b5f6109c6826107f6565b6109d081856109b2565b93506109e0818560208601610810565b80840191505092915050565b5f6109f78285610982565b9150610a0382846109bc565b91508190509392505050565b7f4e487b71000000000000000000000000000000000000000000000000000000005f52601160045260245ffd5b5f610a4682610798565b9150610a5183610798565b9250828203905081811115610a6957610a68610a0f565b5b9291505056fea2646970667358221220bdaebfc58cdd0c58d826bdb3fd556af005e26c28e1173b7d15228e01f57484c264736f6c634300081e0033",
					"opcodes": "PUSH1 0x80 PUSH1 0x40 MSTORE CALLVALUE DUP1 ISZERO PUSH1 0xE JUMPI PUSH0 PUSH0 REVERT JUMPDEST POP PUSH2 0xAA5 DUP1 PUSH2 0x1C PUSH0 CODECOPY PUSH0 RETURN INVALID PUSH1 0x80 PUSH1 0x40 MSTORE CALLVALUE DUP1 ISZERO PUSH2 0xF JUMPI PUSH0 PUSH0 REVERT JUMPDEST POP PUSH1 0x4 CALLDATASIZE LT PUSH2 0x29 JUMPI PUSH0 CALLDATALOAD PUSH1 0xE0 SHR DUP1 PUSH4 0xCBC513A EQ PUSH2 0x2D JUMPI JUMPDEST PUSH0 PUSH0 REVERT JUMPDEST PUSH2 0x47 PUSH1 0x4 DUP1 CALLDATASIZE SUB DUP2 ADD SWAP1 PUSH2 0x42 SWAP2 SWAP1 PUSH2 0x7CB JUMP JUMPDEST PUSH2 0x5D JUMP JUMPDEST PUSH1 0x40 MLOAD PUSH2 0x54 SWAP2 SWAP1 PUSH2 0x866 JUMP JUMPDEST PUSH1 0x40 MLOAD DUP1 SWAP2 SUB SWAP1 RETURN JUMPDEST PUSH1 0x60 PUSH1 0x1 DUP3 LT ISZERO DUP1 ISZERO PUSH2 0x72 JUMPI POP PUSH2 0xF9F DUP3 GT ISZERO JUMPDEST PUSH2 0xB1 JUMPI PUSH1 0x40 MLOAD PUSH32 0x8C379A000000000000000000000000000000000000000000000000000000000 DUP2 MSTORE PUSH1 0x4 ADD PUSH2 0xA8 SWAP1 PUSH2 0x8F6 JUMP JUMPDEST PUSH1 0x40 MLOAD DUP1 SWAP2 SUB SWAP1 REVERT JUMPDEST PUSH0 PUSH1 0xD PUSH8 0xFFFFFFFFFFFFFFFF DUP2 GT ISZERO PUSH2 0xCD JUMPI PUSH2 0xCC PUSH2 0x914 JUMP JUMPDEST JUMPDEST PUSH1 0x40 MLOAD SWAP1 DUP1 DUP3 MSTORE DUP1 PUSH1 0x20 MUL PUSH1 0x20 ADD DUP3 ADD PUSH1 0x40 MSTORE DUP1 ISZERO PUSH2 0x106 JUMPI DUP2 PUSH1 0x20 ADD JUMPDEST PUSH2 0xF3 PUSH2 0x77B JUMP JUMPDEST DUP2 MSTORE PUSH1 0x20 ADD SWAP1 PUSH1 0x1 SWAP1 SUB SWAP1 DUP2 PUSH2 0xEB JUMPI SWAP1 POP JUMPDEST POP SWAP1 POP PUSH1 0x40 MLOAD DUP1 PUSH1 0x40 ADD PUSH1 0x40 MSTORE DUP1 PUSH2 0x3E8 DUP2 MSTORE PUSH1 0x20 ADD PUSH1 0x40 MLOAD DUP1 PUSH1 0x40 ADD PUSH1 0x40 MSTORE DUP1 PUSH1 0x1 DUP2 MSTORE PUSH1 0x20 ADD PUSH32 0x4D00000000000000000000000000000000000000000000000000000000000000 DUP2 MSTORE POP DUP2 MSTORE POP DUP2 PUSH0 DUP2 MLOAD DUP2 LT PUSH2 0x168 JUMPI PUSH2 0x167 PUSH2 0x941 JUMP JUMPDEST JUMPDEST PUSH1 0x20 MUL PUSH1 0x20 ADD ADD DUP2 SWAP1 MSTORE POP PUSH1 0x40 MLOAD DUP1 PUSH1 0x40 ADD PUSH1 0x40 MSTORE DUP1 PUSH2 0x384 DUP2 MSTORE PUSH1 0x20 ADD PUSH1 0x40 MLOAD DUP1 PUSH1 0x40 ADD PUSH1 0x40 MSTORE DUP1 PUSH1 0x2 DUP2 MSTORE PUSH1 0x20 ADD PUSH32 0x434D000000000000000000000000000000000000000000000000000000000000 DUP2 MSTORE POP DUP2 MSTORE POP DUP2 PUSH1 0x1 DUP2 MLOAD DUP2 LT PUSH2 0x1D3 JUMPI PUSH2 0x1D2 PUSH2 0x941 JUMP JUMPDEST JUMPDEST PUSH1 0x20 MUL PUSH1 0x20 ADD ADD DUP2 SWAP1 MSTORE POP PUSH1 0x40 MLOAD DUP1 PUSH1 0x40 ADD PUSH1 0x40 MSTORE DUP1 PUSH2 0x1F4 DUP2 MSTORE PUSH1 0x20 ADD PUSH1 0x40 MLOAD DUP1 PUSH1 0x40 ADD PUSH1 0x40 MSTORE DUP1 PUSH1 0x1 DUP2 MSTORE PUSH1 0x20 ADD PUSH32 0x4400000000000000000000000000000000000000000000000000000000000000 DUP2 MSTORE POP DUP2 MSTORE POP DUP2 PUSH1 0x2 DUP2 MLOAD DUP2 LT PUSH2 0x23E JUMPI PUSH2 0x23D PUSH2 0x941 JUMP JUMPDEST JUMPDEST PUSH1 0x20 MUL PUSH1 0x20 ADD ADD DUP2 SWAP1 MSTORE POP PUSH1 0x40 MLOAD DUP1 PUSH1 0x40 ADD PUSH1 0x40 MSTORE DUP1 PUSH2 0x190 DUP2 MSTORE PUSH1 0x20 ADD PUSH1 0x40 MLOAD DUP1 PUSH1 0x40 ADD PUSH1 0x40 MSTORE DUP1 PUSH1 0x2 DUP2 MSTORE PUSH1 0x20 ADD PUSH32 0x4344000000000000000000000000000000000000000000000000000000000000 DUP2 MSTORE POP DUP2 MSTORE POP DUP2 PUSH1 0x3 DUP2 MLOAD DUP2 LT PUSH2 0x2A9 JUMPI PUSH2 0x2A8 PUSH2 0x941 JUMP JUMPDEST JUMPDEST PUSH1 0x20 MUL PUSH1 0x20 ADD ADD DUP2 SWAP1 MSTORE POP PUSH1 0x40 MLOAD DUP1 PUSH1 0x40 ADD PUSH1 0x40 MSTORE DUP1 PUSH1 0x64 DUP2 MSTORE PUSH1 0x20 ADD PUSH1 0x40 MLOAD DUP1 PUSH1 0x40 ADD PUSH1 0x40 MSTORE DUP1 PUSH1 0x1 DUP2 MSTORE PUSH1 0x20 ADD PUSH32 0x4300000000000000000000000000000000000000000000000000000000000000 DUP2 MSTORE POP DUP2 MSTORE POP DUP2 PUSH1 0x4 DUP2 MLOAD DUP2 LT PUSH2 0x313 JUMPI PUSH2 0x312 PUSH2 0x941 JUMP JUMPDEST JUMPDEST PUSH1 0x20 MUL PUSH1 0x20 ADD ADD DUP2 SWAP1 MSTORE POP PUSH1 0x40 MLOAD DUP1 PUSH1 0x40 ADD PUSH1 0x40 MSTORE DUP1 PUSH1 0x5A DUP2 MSTORE PUSH1 0x20 ADD PUSH1 0x40 MLOAD DUP1 PUSH1 0x40 ADD PUSH1 0x40 MSTORE DUP1 PUSH1 0x2 DUP2 MSTORE PUSH1 0x20 ADD PUSH32 0x5843000000000000000000000000000000000000000000000000000000000000 DUP2 MSTORE POP DUP2 MSTORE POP DUP2 PUSH1 0x5 DUP2 MLOAD DUP2 LT PUSH2 0x37D JUMPI PUSH2 0x37C PUSH2 0x941 JUMP JUMPDEST JUMPDEST PUSH1 0x20 MUL PUSH1 0x20 ADD ADD DUP2 SWAP1 MSTORE POP PUSH1 0x40 MLOAD DUP1 PUSH1 0x40 ADD PUSH1 0x40 MSTORE DUP1 PUSH1 0x32 DUP2 MSTORE PUSH1 0x20 ADD PUSH1 0x40 MLOAD DUP1 PUSH1 0x40 ADD PUSH1 0x40 MSTORE DUP1 PUSH1 0x1 DUP2 MSTORE PUSH1 0x20 ADD PUSH32 0x4C00000000000000000000000000000000000000000000000000000000000000 DUP2 MSTORE POP DUP2 MSTORE POP DUP2 PUSH1 0x6 DUP2 MLOAD DUP2 LT PUSH2 0x3E7 JUMPI PUSH2 0x3E6 PUSH2 0x941 JUMP JUMPDEST JUMPDEST PUSH1 0x20 MUL PUSH1 0x20 ADD ADD DUP2 SWAP1 MSTORE POP PUSH1 0x40 MLOAD DUP1 PUSH1 0x40 ADD PUSH1 0x40 MSTORE DUP1 PUSH1 0x28 DUP2 MSTORE PUSH1 0x20 ADD PUSH1 0x40 MLOAD DUP1 PUSH1 0x40 ADD PUSH1 0x40 MSTORE DUP1 PUSH1 0x2 DUP2 MSTORE PUSH1 0x20 ADD PUSH32 0x584C000000000000000000000000000000000000000000000000000000000000 DUP2 MSTORE POP DUP2 MSTORE POP DUP2 PUSH1 0x7 DUP2 MLOAD DUP2 LT PUSH2 0x451 JUMPI PUSH2 0x450 PUSH2 0x941 JUMP JUMPDEST JUMPDEST PUSH1 0x20 MUL PUSH1 0x20 ADD ADD DUP2 SWAP1 MSTORE POP PUSH1 0x40 MLOAD DUP1 PUSH1 0x40 ADD PUSH1 0x40 MSTORE DUP1 PUSH1 0xA DUP2 MSTORE PUSH1 0x20 ADD PUSH1 0x40 MLOAD DUP1 PUSH1 0x40 ADD PUSH1 0x40 MSTORE DUP1 PUSH1 0x1 DUP2 MSTORE PUSH1 0x20 ADD PUSH32 0x5800000000000000000000000000000000000000000000000000000000000000 DUP2 MSTORE POP DUP2 MSTORE POP DUP2 PUSH1 0x8 DUP2 MLOAD DUP2 LT PUSH2 0x4BB JUMPI PUSH2 0x4BA PUSH2 0x941 JUMP JUMPDEST JUMPDEST PUSH1 0x20 MUL PUSH1 0x20 ADD ADD DUP2 SWAP1 MSTORE POP PUSH1 0x40 MLOAD DUP1 PUSH1 0x40 ADD PUSH1 0x40 MSTORE DUP1 PUSH1 0x9 DUP2 MSTORE PUSH1 0x20 ADD PUSH1 0x40 MLOAD DUP1 PUSH1 0x40 ADD PUSH1 0x40 MSTORE DUP1 PUSH1 0x2 DUP2 MSTORE PUSH1 0x20 ADD PUSH32 0x4958000000000000000000000000000000000000000000000000000000000000 DUP2 MSTORE POP DUP2 MSTORE POP DUP2 PUSH1 0x9 DUP2 MLOAD DUP2 LT PUSH2 0x525 JUMPI PUSH2 0x524 PUSH2 0x941 JUMP JUMPDEST JUMPDEST PUSH1 0x20 MUL PUSH1 0x20 ADD ADD DUP2 SWAP1 MSTORE POP PUSH1 0x40 MLOAD DUP1 PUSH1 0x40 ADD PUSH1 0x40 MSTORE DUP1 PUSH1 0x5 DUP2 MSTORE PUSH1 0x20 ADD PUSH1 0x40 MLOAD DUP1 PUSH1 0x40 ADD PUSH1 0x40 MSTORE DUP1 PUSH1 0x1 DUP2 MSTORE PUSH1 0x20 ADD PUSH32 0x5600000000000000000000000000000000000000000000000000000000000000 DUP2 MSTORE POP DUP2 MSTORE POP DUP2 PUSH1 0xA DUP2 MLOAD DUP2 LT PUSH2 0x58F JUMPI PUSH2 0x58E PUSH2 0x941 JUMP JUMPDEST JUMPDEST PUSH1 0x20 MUL PUSH1 0x20 ADD ADD DUP2 SWAP1 MSTORE POP PUSH1 0x40 MLOAD DUP1 PUSH1 0x40 ADD PUSH1 0x40 MSTORE DUP1 PUSH1 0x4 DUP2 MSTORE PUSH1 0x20 ADD PUSH1 0x40 MLOAD DUP1 PUSH1 0x40 ADD PUSH1 0x40 MSTORE DUP1 PUSH1 0x2 DUP2 MSTORE PUSH1 0x20 ADD PUSH32 0x4956000000000000000000000000000000000000000000000000000000000000 DUP2 MSTORE POP DUP2 MSTORE POP DUP2 PUSH1 0xB DUP2 MLOAD DUP2 LT PUSH2 0x5F9 JUMPI PUSH2 0x5F8 PUSH2 0x941 JUMP JUMPDEST JUMPDEST PUSH1 0x20 MUL PUSH1 0x20 ADD ADD DUP2 SWAP1 MSTORE POP PUSH1 0x40 MLOAD DUP1 PUSH1 0x40 ADD PUSH1 0x40 MSTORE DUP1 PUSH1 0x1 DUP2 MSTORE PUSH1 0x20 ADD PUSH1 0x40 MLOAD DUP1 PUSH1 0x40 ADD PUSH1 0x40 MSTORE DUP1 PUSH1 0x1 DUP2 MSTORE PUSH1 0x20 ADD PUSH32 0x4900000000000000000000000000000000000000000000000000000000000000 DUP2 MSTORE POP DUP2 MSTORE POP DUP2 PUSH1 0xC DUP2 MLOAD DUP2 LT PUSH2 0x663 JUMPI PUSH2 0x662 PUSH2 0x941 JUMP JUMPDEST JUMPDEST PUSH1 0x20 MUL PUSH1 0x20 ADD ADD DUP2 SWAP1 MSTORE POP PUSH0 PUSH0 PUSH8 0xFFFFFFFFFFFFFFFF DUP2 GT ISZERO PUSH2 0x689 JUMPI PUSH2 0x688 PUSH2 0x914 JUMP JUMPDEST JUMPDEST PUSH1 0x40 MLOAD SWAP1 DUP1 DUP3 MSTORE DUP1 PUSH1 0x1F ADD PUSH1 0x1F NOT AND PUSH1 0x20 ADD DUP3 ADD PUSH1 0x40 MSTORE DUP1 ISZERO PUSH2 0x6BB JUMPI DUP2 PUSH1 0x20 ADD PUSH1 0x1 DUP3 MUL DUP1 CALLDATASIZE DUP4 CALLDATACOPY DUP1 DUP3 ADD SWAP2 POP POP SWAP1 POP JUMPDEST POP SWAP1 POP PUSH0 PUSH0 SWAP1 POP JUMPDEST DUP3 MLOAD DUP2 LT ISZERO PUSH2 0x770 JUMPI JUMPDEST DUP3 DUP2 DUP2 MLOAD DUP2 LT PUSH2 0x6E0 JUMPI PUSH2 0x6DF PUSH2 0x941 JUMP JUMPDEST JUMPDEST PUSH1 0x20 MUL PUSH1 0x20 ADD ADD MLOAD PUSH0 ADD MLOAD DUP6 LT PUSH2 0x763 JUMPI DUP2 DUP4 DUP3 DUP2 MLOAD DUP2 LT PUSH2 0x705 JUMPI PUSH2 0x704 PUSH2 0x941 JUMP JUMPDEST JUMPDEST PUSH1 0x20 MUL PUSH1 0x20 ADD ADD MLOAD PUSH1 0x20 ADD MLOAD PUSH1 0x40 MLOAD PUSH1 0x20 ADD PUSH2 0x722 SWAP3 SWAP2 SWAP1 PUSH2 0x9EC JUMP JUMPDEST PUSH1 0x40 MLOAD PUSH1 0x20 DUP2 DUP4 SUB SUB DUP2 MSTORE SWAP1 PUSH1 0x40 MSTORE SWAP2 POP DUP3 DUP2 DUP2 MLOAD DUP2 LT PUSH2 0x746 JUMPI PUSH2 0x745 PUSH2 0x941 JUMP JUMPDEST JUMPDEST PUSH1 0x20 MUL PUSH1 0x20 ADD ADD MLOAD PUSH0 ADD MLOAD DUP6 PUSH2 0x75C SWAP2 SWAP1 PUSH2 0xA3C JUMP JUMPDEST SWAP5 POP PUSH2 0x6CD JUMP JUMPDEST DUP1 DUP1 PUSH1 0x1 ADD SWAP2 POP POP PUSH2 0x6C3 JUMP JUMPDEST POP DUP1 SWAP3 POP POP POP SWAP2 SWAP1 POP JUMP JUMPDEST PUSH1 0x40 MLOAD DUP1 PUSH1 0x40 ADD PUSH1 0x40 MSTORE DUP1 PUSH0 DUP2 MSTORE PUSH1 0x20 ADD PUSH1 0x60 DUP2 MSTORE POP SWAP1 JUMP JUMPDEST PUSH0 PUSH0 REVERT JUMPDEST PUSH0 DUP2 SWAP1 POP SWAP2 SWAP1 POP JUMP JUMPDEST PUSH2 0x7AA DUP2 PUSH2 0x798 JUMP JUMPDEST DUP2 EQ PUSH2 0x7B4 JUMPI PUSH0 PUSH0 REVERT JUMPDEST POP JUMP JUMPDEST PUSH0 DUP2 CALLDATALOAD SWAP1 POP PUSH2 0x7C5 DUP2 PUSH2 0x7A1 JUMP JUMPDEST SWAP3 SWAP2 POP POP JUMP JUMPDEST PUSH0 PUSH1 0x20 DUP3 DUP5 SUB SLT ISZERO PUSH2 0x7E0 JUMPI PUSH2 0x7DF PUSH2 0x794 JUMP JUMPDEST JUMPDEST PUSH0 PUSH2 0x7ED DUP5 DUP3 DUP6 ADD PUSH2 0x7B7 JUMP JUMPDEST SWAP2 POP POP SWAP3 SWAP2 POP POP JUMP JUMPDEST PUSH0 DUP2 MLOAD SWAP1 POP SWAP2 SWAP1 POP JUMP JUMPDEST PUSH0 DUP3 DUP3 MSTORE PUSH1 0x20 DUP3 ADD SWAP1 POP SWAP3 SWAP2 POP POP JUMP JUMPDEST DUP3 DUP2 DUP4 MCOPY PUSH0 DUP4 DUP4 ADD MSTORE POP POP POP JUMP JUMPDEST PUSH0 PUSH1 0x1F NOT PUSH1 0x1F DUP4 ADD AND SWAP1 POP SWAP2 SWAP1 POP JUMP JUMPDEST PUSH0 PUSH2 0x838 DUP3 PUSH2 0x7F6 JUMP JUMPDEST PUSH2 0x842 DUP2 DUP6 PUSH2 0x800 JUMP JUMPDEST SWAP4 POP PUSH2 0x852 DUP2 DUP6 PUSH1 0x20 DUP7 ADD PUSH2 0x810 JUMP JUMPDEST PUSH2 0x85B DUP2 PUSH2 0x81E JUMP JUMPDEST DUP5 ADD SWAP2 POP POP SWAP3 SWAP2 POP POP JUMP JUMPDEST PUSH0 PUSH1 0x20 DUP3 ADD SWAP1 POP DUP2 DUP2 SUB PUSH0 DUP4 ADD MSTORE PUSH2 0x87E DUP2 DUP5 PUSH2 0x82E JUMP JUMPDEST SWAP1 POP SWAP3 SWAP2 POP POP JUMP JUMPDEST PUSH32 0x4E756D626572206D757374206265206265747765656E203120616E6420333939 PUSH0 DUP3 ADD MSTORE PUSH32 0x3900000000000000000000000000000000000000000000000000000000000000 PUSH1 0x20 DUP3 ADD MSTORE POP JUMP JUMPDEST PUSH0 PUSH2 0x8E0 PUSH1 0x21 DUP4 PUSH2 0x800 JUMP JUMPDEST SWAP2 POP PUSH2 0x8EB DUP3 PUSH2 0x886 JUMP JUMPDEST PUSH1 0x40 DUP3 ADD SWAP1 POP SWAP2 SWAP1 POP JUMP JUMPDEST PUSH0 PUSH1 0x20 DUP3 ADD SWAP1 POP DUP2 DUP2 SUB PUSH0 DUP4 ADD MSTORE PUSH2 0x90D DUP2 PUSH2 0x8D4 JUMP JUMPDEST SWAP1 POP SWAP2 SWAP1 POP JUMP JUMPDEST PUSH32 0x4E487B7100000000000000000000000000000000000000000000000000000000 PUSH0 MSTORE PUSH1 0x41 PUSH1 0x4 MSTORE PUSH1 0x24 PUSH0 REVERT JUMPDEST PUSH32 0x4E487B7100000000000000000000000000000000000000000000000000000000 PUSH0 MSTORE PUSH1 0x32 PUSH1 0x4 MSTORE PUSH1 0x24 PUSH0 REVERT JUMPDEST PUSH0 DUP2 MLOAD SWAP1 POP SWAP2 SWAP1 POP JUMP JUMPDEST PUSH0 DUP2 SWAP1 POP SWAP3 SWAP2 POP POP JUMP JUMPDEST PUSH0 PUSH2 0x98C DUP3 PUSH2 0x96E JUMP JUMPDEST PUSH2 0x996 DUP2 DUP6 PUSH2 0x978 JUMP JUMPDEST SWAP4 POP PUSH2 0x9A6 DUP2 DUP6 PUSH1 0x20 DUP7 ADD PUSH2 0x810 JUMP JUMPDEST DUP1 DUP5 ADD SWAP2 POP POP SWAP3 SWAP2 POP POP JUMP JUMPDEST PUSH0 DUP2 SWAP1 POP SWAP3 SWAP2 POP POP JUMP JUMPDEST PUSH0 PUSH2 0x9C6 DUP3 PUSH2 0x7F6 JUMP JUMPDEST PUSH2 0x9D0 DUP2 DUP6 PUSH2 0x9B2 JUMP JUMPDEST SWAP4 POP PUSH2 0x9E0 DUP2 DUP6 PUSH1 0x20 DUP7 ADD PUSH2 0x810 JUMP JUMPDEST DUP1 DUP5 ADD SWAP2 POP POP SWAP3 SWAP2 POP POP JUMP JUMPDEST PUSH0 PUSH2 0x9F7 DUP3 DUP6 PUSH2 0x982 JUMP JUMPDEST SWAP2 POP PUSH2 0xA03 DUP3 DUP5 PUSH2 0x9BC JUMP JUMPDEST SWAP2 POP DUP2 SWAP1 POP SWAP4 SWAP3 POP POP POP JUMP JUMPDEST PUSH32 0x4E487B7100000000000000000000000000000000000000000000000000000000 PUSH0 MSTORE PUSH1 0x11 PUSH1 0x4 MSTORE PUSH1 0x24 PUSH0 REVERT JUMPDEST PUSH0 PUSH2 0xA46 DUP3 PUSH2 0x798 JUMP JUMPDEST SWAP2 POP PUSH2 0xA51 DUP4 PUSH2 0x798 JUMP JUMPDEST SWAP3 POP DUP3 DUP3 SUB SWAP1 POP DUP2 DUP2 GT ISZERO PUSH2 0xA69 JUMPI PUSH2 0xA68 PUSH2 0xA0F JUMP JUMPDEST JUMPDEST SWAP3 SWAP2 POP POP JUMP INVALID LOG2 PUSH5 0x6970667358 0x22 SLT KECCAK256 0xBD 0xAE 0xBF 0xC5 DUP13 0xDD 0xC PC 0xD8 0x26 0xBD 0xB3 REVERT SSTORE PUSH11 0xF005E26C28E1173B7D1522 DUP15 ADD CREATE2 PUSH21 0x84C264736F6C634300081E00330000000000000000 "
				},
				"gasEstimates": {
					"creation": {
						"codeDepositCost": "545000",
						"executionCost": "579",
						"totalCost": "545579"
					},
					"external": {
						"intToRoman(uint256)": "infinite"
					}
				},
				"methodIdentifiers": {
					"intToRoman(uint256)": "0cbc513a"
				}
			},
			"storageLayout": {
				"storage": [],
				"types": null
			},
			"userdoc": {
				"kind": "user",
				"methods": {},
				"version": 1
			}
		}
	}
}