{
	"homework1/homework01.sol": {
		"ReverseString": {
			"abi": [
				{
					"inputs": [
						{
							"internalType": "string",
							"name": "input",
							"type": "string"
						}
					],
					"name": "reverse",
					"outputs": [
						{
							"internalType": "string",
							"name": "",
							"type": "string"
						}
					],
					"stateMutability": "pure",
					"type": "function"
				}
			],
			"devdoc": {
				"kind": "dev",
				"methods": {},
				"version": 1
			},
			"evm": {
				"assembly": "    /* \"homework1/homework01.sol\":1024:1457  contract ReverseString {... */\n  mstore(0x40, 0x80)\n  callvalue\n  dup1\n  iszero\n  tag_1\n  jumpi\n  revert(0x00, 0x00)\ntag_1:\n  pop\n  dataSize(sub_0)\n  dup1\n  dataOffset(sub_0)\n  0x00\n  codecopy\n  0x00\n  return\nstop\n\nsub_0: assembly {\n        /* \"homework1/homework01.sol\":1024:1457  contract ReverseString {... */\n      mstore(0x40, 0x80)\n      callvalue\n      dup1\n      iszero\n      tag_1\n      jumpi\n      revert(0x00, 0x00)\n    tag_1:\n      pop\n      jumpi(tag_2, lt(calldatasize, 0x04))\n      shr(0xe0, calldataload(0x00))\n      dup1\n      0x064767aa\n      eq\n      tag_3\n      jumpi\n    tag_2:\n      revert(0x00, 0x00)\n        /* \"homework1/homework01.sol\":1054:1454  function reverse(string calldata input) public pure returns (string memory) {... */\n    tag_3:\n      tag_4\n      0x04\n      dup1\n      calldatasize\n      sub\n      dup2\n      add\n      swap1\n      tag_5\n      swap2\n      swap1\n      tag_6\n      jump\t// in\n    tag_5:\n      tag_7\n      jump\t// in\n    tag_4:\n      mload(0x40)\n      tag_8\n      swap2\n      swap1\n      tag_9\n      jump\t// in\n    tag_8:\n      mload(0x40)\n      dup1\n      swap2\n      sub\n      swap1\n      return\n    tag_7:\n        /* \"homework1/homework01.sol\":1115:1128  string memory */\n      0x60\n        /* \"homework1/homework01.sol\":1141:1166  bytes calldata inputBytes */\n      calldatasize\n      0x00\n        /* \"homework1/homework01.sol\":1175:1180  input */\n      dup5\n      dup5\n        /* \"homework1/homework01.sol\":1141:1181  bytes calldata inputBytes = bytes(input) */\n      swap2\n      pop\n      swap2\n      pop\n        /* \"homework1/homework01.sol\":1192:1218  bytes memory reversedBytes */\n      0x00\n        /* \"homework1/homework01.sol\":1231:1241  inputBytes */\n      dup3\n      dup3\n        /* \"homework1/homework01.sol\":1231:1248  inputBytes.length */\n      swap1\n      pop\n        /* \"homework1/homework01.sol\":1221:1249  new bytes(inputBytes.length) */\n      0xffffffffffffffff\n      dup2\n      gt\n      iszero\n      tag_11\n      jumpi\n      tag_12\n      tag_13\n      jump\t// in\n    tag_12:\n    tag_11:\n      mload(0x40)\n      swap1\n      dup1\n      dup3\n      mstore\n      dup1\n      0x1f\n      add\n      not(0x1f)\n      and\n      0x20\n      add\n      dup3\n      add\n      0x40\n      mstore\n      dup1\n      iszero\n      tag_14\n      jumpi\n      dup2\n      0x20\n      add\n      0x01\n      dup3\n      mul\n      dup1\n      calldatasize\n      dup4\n      calldatacopy\n      dup1\n      dup3\n      add\n      swap2\n      pop\n      pop\n      swap1\n      pop\n    tag_14:\n      pop\n        /* \"homework1/homework01.sol\":1192:1249  bytes memory reversedBytes = new bytes(inputBytes.length) */\n      swap1\n      pop\n        /* \"homework1/homework01.sol\":1275:1281  uint i */\n      0x00\n        /* \"homework1/homework01.sol\":1284:1285  0 */\n      0x00\n        /* \"homework1/homework01.sol\":1275:1285  uint i = 0 */\n      swap1\n      pop\n        /* \"homework1/homework01.sol\":1270:1398  for (uint i = 0; i < inputBytes.length; i++) {... */\n    tag_15:\n        /* \"homework1/homework01.sol\":1291:1301  inputBytes */\n      dup4\n      dup4\n        /* \"homework1/homework01.sol\":1291:1308  inputBytes.length */\n      swap1\n      pop\n        /* \"homework1/homework01.sol\":1287:1288  i */\n      dup2\n        /* \"homework1/homework01.sol\":1287:1308  i < inputBytes.length */\n      lt\n        /* \"homework1/homework01.sol\":1270:1398  for (uint i = 0; i < inputBytes.length; i++) {... */\n      iszero\n      tag_16\n      jumpi\n        /* \"homework1/homework01.sol\":1349:1359  inputBytes */\n      dup4\n      dup4\n        /* \"homework1/homework01.sol\":1384:1385  i */\n      dup3\n        /* \"homework1/homework01.sol\":1380:1381  1 */\n      0x01\n        /* \"homework1/homework01.sol\":1360:1370  inputBytes */\n      dup8\n      dup8\n        /* \"homework1/homework01.sol\":1360:1377  inputBytes.length */\n      swap1\n      pop\n        /* \"homework1/homework01.sol\":1360:1381  inputBytes.length - 1 */\n      tag_18\n      swap2\n      swap1\n      tag_19\n      jump\t// in\n    tag_18:\n        /* \"homework1/homework01.sol\":1360:1385  inputBytes.length - 1 - i */\n      tag_20\n      swap2\n      swap1\n      tag_19\n      jump\t// in\n    tag_20:\n        /* \"homework1/homework01.sol\":1349:1386  inputBytes[inputBytes.length - 1 - i] */\n      dup2\n      dup2\n      lt\n      tag_21\n      jumpi\n      tag_22\n      tag_23\n      jump\t// in\n    tag_22:\n    tag_21:\n      swap1\n      pop\n      add\n      calldataload\n      0xf8\n      shr\n      0xf8\n      shl\n        /* \"homework1/homework01.sol\":1330:1343  reversedBytes */\n      dup3\n        /* \"homework1/homework01.sol\":1344:1345  i */\n      dup3\n        /* \"homework1/homework01.sol\":1330:1346  reversedBytes[i] */\n      dup2\n      mload\n      dup2\n      lt\n      tag_24\n      jumpi\n      tag_25\n      tag_23\n      jump\t// in\n    tag_25:\n    tag_24:\n      0x20\n      add\n      add\n        /* \"homework1/homework01.sol\":1330:1386  reversedBytes[i] = inputBytes[inputBytes.length - 1 - i] */\n      swap1\n      not(0xffffffffffffffffffffffffffffffffffffffffffffffffffffffffffffff)\n      and\n      swap1\n      dup2\n      0x00\n      byte\n      swap1\n      mstore8\n      pop\n        /* \"homework1/homework01.sol\":1310:1313  i++ */\n      dup1\n      dup1\n      0x01\n      add\n      swap2\n      pop\n      pop\n        /* \"homework1/homework01.sol\":1270:1398  for (uint i = 0; i < inputBytes.length; i++) {... */\n      jump(tag_15)\n    tag_16:\n      pop\n        /* \"homework1/homework01.sol\":1432:1445  reversedBytes */\n      dup1\n        /* \"homework1/homework01.sol\":1418:1446  return string(reversedBytes) */\n      swap4\n      pop\n      pop\n      pop\n      pop\n        /* \"homework1/homework01.sol\":1054:1454  function reverse(string calldata input) public pure returns (string memory) {... */\n      swap3\n      swap2\n      pop\n      pop\n      jump\t// out\n        /* \"#utility.yul\":88:205   */\n    tag_27:\n        /* \"#utility.yul\":197:198   */\n      0x00\n        /* \"#utility.yul\":194:195   */\n      0x00\n        /* \"#utility.yul\":187:199   */\n      revert\n        /* \"#utility.yul\":211:328   */\n    tag_28:\n        /* \"#utility.yul\":320:321   */\n      0x00\n        /* \"#utility.yul\":317:318   */\n      0x00\n        /* \"#utility.yul\":310:322   */\n      revert\n        /* \"#utility.yul\":334:451   */\n    tag_29:\n        /* \"#utility.yul\":443:444   */\n      0x00\n        /* \"#utility.yul\":440:441   */\n      0x00\n        /* \"#utility.yul\":433:445   */\n      revert\n        /* \"#utility.yul\":457:574   */\n    tag_30:\n        /* \"#utility.yul\":566:567   */\n      0x00\n        /* \"#utility.yul\":563:564   */\n      0x00\n        /* \"#utility.yul\":556:568   */\n      revert\n        /* \"#utility.yul\":580:697   */\n    tag_31:\n        /* \"#utility.yul\":689:690   */\n      0x00\n        /* \"#utility.yul\":686:687   */\n      0x00\n        /* \"#utility.yul\":679:691   */\n      revert\n        /* \"#utility.yul\":717:1270   */\n    tag_32:\n        /* \"#utility.yul\":775:783   */\n      0x00\n        /* \"#utility.yul\":785:791   */\n      0x00\n        /* \"#utility.yul\":835:838   */\n      dup4\n        /* \"#utility.yul\":828:832   */\n      0x1f\n        /* \"#utility.yul\":820:826   */\n      dup5\n        /* \"#utility.yul\":816:833   */\n      add\n        /* \"#utility.yul\":812:839   */\n      slt\n        /* \"#utility.yul\":802:924   */\n      tag_48\n      jumpi\n        /* \"#utility.yul\":843:922   */\n      tag_49\n      tag_29\n      jump\t// in\n    tag_49:\n        /* \"#utility.yul\":802:924   */\n    tag_48:\n        /* \"#utility.yul\":956:962   */\n      dup3\n        /* \"#utility.yul\":943:963   */\n      calldataload\n        /* \"#utility.yul\":933:963   */\n      swap1\n      pop\n        /* \"#utility.yul\":986:1004   */\n      0xffffffffffffffff\n        /* \"#utility.yul\":978:984   */\n      dup2\n        /* \"#utility.yul\":975:1005   */\n      gt\n        /* \"#utility.yul\":972:1089   */\n      iszero\n      tag_50\n      jumpi\n        /* \"#utility.yul\":1008:1087   */\n      tag_51\n      tag_30\n      jump\t// in\n    tag_51:\n        /* \"#utility.yul\":972:1089   */\n    tag_50:\n        /* \"#utility.yul\":1122:1126   */\n      0x20\n        /* \"#utility.yul\":1114:1120   */\n      dup4\n        /* \"#utility.yul\":1110:1127   */\n      add\n        /* \"#utility.yul\":1098:1127   */\n      swap2\n      pop\n        /* \"#utility.yul\":1176:1179   */\n      dup4\n        /* \"#utility.yul\":1168:1172   */\n      0x01\n        /* \"#utility.yul\":1160:1166   */\n      dup3\n        /* \"#utility.yul\":1156:1173   */\n      mul\n        /* \"#utility.yul\":1146:1154   */\n      dup4\n        /* \"#utility.yul\":1142:1174   */\n      add\n        /* \"#utility.yul\":1139:1180   */\n      gt\n        /* \"#utility.yul\":1136:1264   */\n      iszero\n      tag_52\n      jumpi\n        /* \"#utility.yul\":1183:1262   */\n      tag_53\n      tag_31\n      jump\t// in\n    tag_53:\n        /* \"#utility.yul\":1136:1264   */\n    tag_52:\n        /* \"#utility.yul\":717:1270   */\n      swap3\n      pop\n      swap3\n      swap1\n      pop\n      jump\t// out\n        /* \"#utility.yul\":1276:1805   */\n    tag_6:\n        /* \"#utility.yul\":1347:1353   */\n      0x00\n        /* \"#utility.yul\":1355:1361   */\n      0x00\n        /* \"#utility.yul\":1404:1406   */\n      0x20\n        /* \"#utility.yul\":1392:1401   */\n      dup4\n        /* \"#utility.yul\":1383:1390   */\n      dup6\n        /* \"#utility.yul\":1379:1402   */\n      sub\n        /* \"#utility.yul\":1375:1407   */\n      slt\n        /* \"#utility.yul\":1372:1491   */\n      iszero\n      tag_55\n      jumpi\n        /* \"#utility.yul\":1410:1489   */\n      tag_56\n      tag_27\n      jump\t// in\n    tag_56:\n        /* \"#utility.yul\":1372:1491   */\n    tag_55:\n        /* \"#utility.yul\":1558:1559   */\n      0x00\n        /* \"#utility.yul\":1547:1556   */\n      dup4\n        /* \"#utility.yul\":1543:1560   */\n      add\n        /* \"#utility.yul\":1530:1561   */\n      calldataload\n        /* \"#utility.yul\":1588:1606   */\n      0xffffffffffffffff\n        /* \"#utility.yul\":1580:1586   */\n      dup2\n        /* \"#utility.yul\":1577:1607   */\n      gt\n        /* \"#utility.yul\":1574:1691   */\n      iszero\n      tag_57\n      jumpi\n        /* \"#utility.yul\":1610:1689   */\n      tag_58\n      tag_28\n      jump\t// in\n    tag_58:\n        /* \"#utility.yul\":1574:1691   */\n    tag_57:\n        /* \"#utility.yul\":1723:1788   */\n      tag_59\n        /* \"#utility.yul\":1780:1787   */\n      dup6\n        /* \"#utility.yul\":1771:1777   */\n      dup3\n        /* \"#utility.yul\":1760:1769   */\n      dup7\n        /* \"#utility.yul\":1756:1778   */\n      add\n        /* \"#utility.yul\":1723:1788   */\n      tag_32\n      jump\t// in\n    tag_59:\n        /* \"#utility.yul\":1705:1788   */\n      swap3\n      pop\n      swap3\n      pop\n        /* \"#utility.yul\":1501:1798   */\n      pop\n        /* \"#utility.yul\":1276:1805   */\n      swap3\n      pop\n      swap3\n      swap1\n      pop\n      jump\t// out\n        /* \"#utility.yul\":1811:1910   */\n    tag_33:\n        /* \"#utility.yul\":1863:1869   */\n      0x00\n        /* \"#utility.yul\":1897:1902   */\n      dup2\n        /* \"#utility.yul\":1891:1903   */\n      mload\n        /* \"#utility.yul\":1881:1903   */\n      swap1\n      pop\n        /* \"#utility.yul\":1811:1910   */\n      swap2\n      swap1\n      pop\n      jump\t// out\n        /* \"#utility.yul\":1916:2085   */\n    tag_34:\n        /* \"#utility.yul\":2000:2011   */\n      0x00\n        /* \"#utility.yul\":2034:2040   */\n      dup3\n        /* \"#utility.yul\":2029:2032   */\n      dup3\n        /* \"#utility.yul\":2022:2041   */\n      mstore\n        /* \"#utility.yul\":2074:2078   */\n      0x20\n        /* \"#utility.yul\":2069:2072   */\n      dup3\n        /* \"#utility.yul\":2065:2079   */\n      add\n        /* \"#utility.yul\":2050:2079   */\n      swap1\n      pop\n        /* \"#utility.yul\":1916:2085   */\n      swap3\n      swap2\n      pop\n      pop\n      jump\t// out\n        /* \"#utility.yul\":2091:2230   */\n    tag_35:\n        /* \"#utility.yul\":2180:2186   */\n      dup3\n        /* \"#utility.yul\":2175:2178   */\n      dup2\n        /* \"#utility.yul\":2170:2173   */\n      dup4\n        /* \"#utility.yul\":2164:2187   */\n      mcopy\n        /* \"#utility.yul\":2221:2222   */\n      0x00\n        /* \"#utility.yul\":2212:2218   */\n      dup4\n        /* \"#utility.yul\":2207:2210   */\n      dup4\n        /* \"#utility.yul\":2203:2219   */\n      add\n        /* \"#utility.yul\":2196:2223   */\n      mstore\n        /* \"#utility.yul\":2091:2230   */\n      pop\n      pop\n      pop\n      jump\t// out\n        /* \"#utility.yul\":2236:2338   */\n    tag_36:\n        /* \"#utility.yul\":2277:2283   */\n      0x00\n        /* \"#utility.yul\":2328:2330   */\n      0x1f\n        /* \"#utility.yul\":2324:2331   */\n      not\n        /* \"#utility.yul\":2319:2321   */\n      0x1f\n        /* \"#utility.yul\":2312:2317   */\n      dup4\n        /* \"#utility.yul\":2308:2322   */\n      add\n        /* \"#utility.yul\":2304:2332   */\n      and\n        /* \"#utility.yul\":2294:2332   */\n      swap1\n      pop\n        /* \"#utility.yul\":2236:2338   */\n      swap2\n      swap1\n      pop\n      jump\t// out\n        /* \"#utility.yul\":2344:2721   */\n    tag_37:\n        /* \"#utility.yul\":2432:2435   */\n      0x00\n        /* \"#utility.yul\":2460:2499   */\n      tag_65\n        /* \"#utility.yul\":2493:2498   */\n      dup3\n        /* \"#utility.yul\":2460:2499   */\n      tag_33\n      jump\t// in\n    tag_65:\n        /* \"#utility.yul\":2515:2586   */\n      tag_66\n        /* \"#utility.yul\":2579:2585   */\n      dup2\n        /* \"#utility.yul\":2574:2577   */\n      dup6\n        /* \"#utility.yul\":2515:2586   */\n      tag_34\n      jump\t// in\n    tag_66:\n        /* \"#utility.yul\":2508:2586   */\n      swap4\n      pop\n        /* \"#utility.yul\":2595:2660   */\n      tag_67\n        /* \"#utility.yul\":2653:2659   */\n      dup2\n        /* \"#utility.yul\":2648:2651   */\n      dup6\n        /* \"#utility.yul\":2641:2645   */\n      0x20\n        /* \"#utility.yul\":2634:2639   */\n      dup7\n        /* \"#utility.yul\":2630:2646   */\n      add\n        /* \"#utility.yul\":2595:2660   */\n      tag_35\n      jump\t// in\n    tag_67:\n        /* \"#utility.yul\":2685:2714   */\n      tag_68\n        /* \"#utility.yul\":2707:2713   */\n      dup2\n        /* \"#utility.yul\":2685:2714   */\n      tag_36\n      jump\t// in\n    tag_68:\n        /* \"#utility.yul\":2680:2683   */\n      dup5\n        /* \"#utility.yul\":2676:2715   */\n      add\n        /* \"#utility.yul\":2669:2715   */\n      swap2\n      pop\n        /* \"#utility.yul\":2436:2721   */\n      pop\n        /* \"#utility.yul\":2344:2721   */\n      swap3\n      swap2\n      pop\n      pop\n      jump\t// out\n        /* \"#utility.yul\":2727:3040   */\n    tag_9:\n        /* \"#utility.yul\":2840:2844   */\n      0x00\n        /* \"#utility.yul\":2878:2880   */\n      0x20\n        /* \"#utility.yul\":2867:2876   */\n      dup3\n        /* \"#utility.yul\":2863:2881   */\n      add\n        /* \"#utility.yul\":2855:2881   */\n      swap1\n      pop\n        /* \"#utility.yul\":2927:2936   */\n      dup2\n        /* \"#utility.yul\":2921:2925   */\n      dup2\n        /* \"#utility.yul\":2917:2937   */\n      sub\n        /* \"#utility.yul\":2913:2914   */\n      0x00\n        /* \"#utility.yul\":2902:2911   */\n      dup4\n        /* \"#utility.yul\":2898:2915   */\n      add\n        /* \"#utility.yul\":2891:2938   */\n      mstore\n        /* \"#utility.yul\":2955:3033   */\n      tag_70\n        /* \"#utility.yul\":3028:3032   */\n      dup2\n        /* \"#utility.yul\":3019:3025   */\n      dup5\n        /* \"#utility.yul\":2955:3033   */\n      tag_37\n      jump\t// in\n    tag_70:\n        /* \"#utility.yul\":2947:3033   */\n      swap1\n      pop\n        /* \"#utility.yul\":2727:3040   */\n      swap3\n      swap2\n      pop\n      pop\n      jump\t// out\n        /* \"#utility.yul\":3046:3226   */\n    tag_13:\n        /* \"#utility.yul\":3094:3171   */\n      0x4e487b7100000000000000000000000000000000000000000000000000000000\n        /* \"#utility.yul\":3091:3092   */\n      0x00\n        /* \"#utility.yul\":3084:3172   */\n      mstore\n        /* \"#utility.yul\":3191:3195   */\n      0x41\n        /* \"#utility.yul\":3188:3189   */\n      0x04\n        /* \"#utility.yul\":3181:3196   */\n      mstore\n        /* \"#utility.yul\":3215:3219   */\n      0x24\n        /* \"#utility.yul\":3212:3213   */\n      0x00\n        /* \"#utility.yul\":3205:3220   */\n      revert\n        /* \"#utility.yul\":3232:3309   */\n    tag_38:\n        /* \"#utility.yul\":3269:3276   */\n      0x00\n        /* \"#utility.yul\":3298:3303   */\n      dup2\n        /* \"#utility.yul\":3287:3303   */\n      swap1\n      pop\n        /* \"#utility.yul\":3232:3309   */\n      swap2\n      swap1\n      pop\n      jump\t// out\n        /* \"#utility.yul\":3315:3495   */\n    tag_39:\n        /* \"#utility.yul\":3363:3440   */\n      0x4e487b7100000000000000000000000000000000000000000000000000000000\n        /* \"#utility.yul\":3360:3361   */\n      0x00\n        /* \"#utility.yul\":3353:3441   */\n      mstore\n        /* \"#utility.yul\":3460:3464   */\n      0x11\n        /* \"#utility.yul\":3457:3458   */\n      0x04\n        /* \"#utility.yul\":3450:3465   */\n      mstore\n        /* \"#utility.yul\":3484:3488   */\n      0x24\n        /* \"#utility.yul\":3481:3482   */\n      0x00\n        /* \"#utility.yul\":3474:3489   */\n      revert\n        /* \"#utility.yul\":3501:3695   */\n    tag_19:\n        /* \"#utility.yul\":3541:3545   */\n      0x00\n        /* \"#utility.yul\":3561:3581   */\n      tag_75\n        /* \"#utility.yul\":3579:3580   */\n      dup3\n        /* \"#utility.yul\":3561:3581   */\n      tag_38\n      jump\t// in\n    tag_75:\n        /* \"#utility.yul\":3556:3581   */\n      swap2\n      pop\n        /* \"#utility.yul\":3595:3615   */\n      tag_76\n        /* \"#utility.yul\":3613:3614   */\n      dup4\n        /* \"#utility.yul\":3595:3615   */\n      tag_38\n      jump\t// in\n    tag_76:\n        /* \"#utility.yul\":3590:3615   */\n      swap3\n      pop\n        /* \"#utility.yul\":3639:3640   */\n      dup3\n        /* \"#utility.yul\":3636:3637   */\n      dup3\n        /* \"#utility.yul\":3632:3641   */\n      sub\n        /* \"#utility.yul\":3624:3641   */\n      swap1\n      pop\n        /* \"#utility.yul\":3663:3664   */\n      dup2\n        /* \"#utility.yul\":3657:3661   */\n      dup2\n        /* \"#utility.yul\":3654:3665   */\n      gt\n        /* \"#utility.yul\":3651:3688   */\n      iszero\n      tag_77\n      jumpi\n        /* \"#utility.yul\":3668:3686   */\n      tag_78\n      tag_39\n      jump\t// in\n    tag_78:\n        /* \"#utility.yul\":3651:3688   */\n    tag_77:\n        /* \"#utility.yul\":3501:3695   */\n      swap3\n      swap2\n      pop\n      pop\n      jump\t// out\n        /* \"#utility.yul\":3701:3881   */\n    tag_23:\n        /* \"#utility.yul\":3749:3826   */\n      0x4e487b7100000000000000000000000000000000000000000000000000000000\n        /* \"#utility.yul\":3746:3747   */\n      0x00\n        /* \"#utility.yul\":3739:3827   */\n      mstore\n        /* \"#utility.yul\":3846:3850   */\n      0x32\n        /* \"#utility.yul\":3843:3844   */\n      0x04\n        /* \"#utility.yul\":3836:3851   */\n      mstore\n        /* \"#utility.yul\":3870:3874   */\n      0x24\n        /* \"#utility.yul\":3867:3868   */\n      0x00\n        /* \"#utility.yul\":3860:3875   */\n      revert\n\n    auxdata: 0xa2646970667358221220b62f769e3fdb52dafb580aa1539c03e24be15481f68bba3e92e8cb2c8af7e31864736f6c634300081e0033\n}\n",
				"bytecode": {
					"linkReferences": {},
					"object": "6080604052348015600e575f5ffd5b506103998061001c5f395ff3fe608060405234801561000f575f5ffd5b5060043610610029575f3560e01c8063064767aa1461002d575b5f5ffd5b610047600480360381019061004291906101c5565b61005d565b6040516100549190610280565b60405180910390f35b6060365f8484915091505f8282905067ffffffffffffffff811115610085576100846102a0565b5b6040519080825280601f01601f1916602001820160405280156100b75781602001600182028036833780820191505090505b5090505f5f90505b8383905081101561014f578383826001878790506100dd9190610303565b6100e79190610303565b8181106100f7576100f6610336565b5b9050013560f81c60f81b82828151811061011457610113610336565b5b60200101907effffffffffffffffffffffffffffffffffffffffffffffffffffffffffffff191690815f1a90535080806001019150506100bf565b5080935050505092915050565b5f5ffd5b5f5ffd5b5f5ffd5b5f5ffd5b5f5ffd5b5f5f83601f84011261018557610184610164565b5b8235905067ffffffffffffffff8111156101a2576101a1610168565b5b6020830191508360018202830111156101be576101bd61016c565b5b9250929050565b5f5f602083850312156101db576101da61015c565b5b5f83013567ffffffffffffffff8111156101f8576101f7610160565b5b61020485828601610170565b92509250509250929050565b5f81519050919050565b5f82825260208201905092915050565b8281835e5f83830152505050565b5f601f19601f8301169050919050565b5f61025282610210565b61025c818561021a565b935061026c81856020860161022a565b61027581610238565b840191505092915050565b5f6020820190508181035f8301526102988184610248565b905092915050565b7f4e487b71000000000000000000000000000000000000000000000000000000005f52604160045260245ffd5b5f819050919050565b7f4e487b71000000000000000000000000000000000000000000000000000000005f52601160045260245ffd5b5f61030d826102cd565b9150610318836102cd565b92508282039050818111156103305761032f6102d6565b5b92915050565b7f4e487b71000000000000000000000000000000000000000000000000000000005f52603260045260245ffdfea2646970667358221220b62f769e3fdb52dafb580aa1539c03e24be15481f68bba3e92e8cb2c8af7e31864736f6c634300081e0033",
					"opcodes": "PUSH1 0x80 PUSH1 0x40 MSTORE CALLVALUE DUP1 ISZERO PUSH1 0xE JUMPI PUSH0 PUSH0 REVERT JUMPDEST POP PUSH2 0x399 DUP1 PUSH2 0x1C PUSH0 CODECOPY PUSH0 RETURN INVALID PUSH1 0x80 PUSH1 0x40 MSTORE CALLVALUE DUP1 ISZERO PUSH2 0xF JUMPI PUSH0 PUSH0 REVERT JUMPDEST POP PUSH1 0x4 CALLDATASIZE LT PUSH2 0x29 JUMPI PUSH0 CALLDATALOAD PUSH1 0xE0 SHR DUP1 PUSH4 0x64767AA EQ PUSH2 0x2D JUMPI JUMPDEST PUSH0 PUSH0 REVERT JUMPDEST PUSH2 0x47 PUSH1 0x4 DUP1 CALLDATASIZE SUB DUP2 ADD SWAP1 PUSH2 0x42 SWAP2 SWAP1 PUSH2 0x1C5 JUMP JUMPDEST PUSH2 0x5D JUMP JUMPDEST PUSH1 0x40 MLOAD PUSH2 0x54 SWAP2 SWAP1 PUSH2 0x280 JUMP JUMPDEST PUSH1 0x40 MLOAD DUP1 SWAP2 SUB SWAP1 RETURN JUMPDEST PUSH1 0x60 CALLDATASIZE PUSH0 DUP5 DUP5 SWAP2 POP SWAP2 POP PUSH0 DUP3 DUP3 SWAP1 POP PUSH8 0xFFFFFFFFFFFFFFFF DUP2 GT ISZERO PUSH2 0x85 JUMPI PUSH2 0x84 PUSH2 0x2A0 JUMP JUMPDEST JUMPDEST PUSH1 0x40 MLOAD SWAP1 DUP1 DUP3 MSTORE DUP1 PUSH1 0x1F ADD PUSH1 0x1F NOT AND PUSH1 0x20 ADD DUP3 ADD PUSH1 0x40 MSTORE DUP1 ISZERO PUSH2 0xB7 JUMPI DUP2 PUSH1 0x20 ADD PUSH1 0x1 DUP3 MUL DUP1 CALLDATASIZE DUP4 CALLDATACOPY DUP1 DUP3 ADD SWAP2 POP POP SWAP1 POP JUMPDEST POP SWAP1 POP PUSH0 PUSH0 SWAP1 POP JUMPDEST DUP4 DUP4 SWAP1 POP DUP2 LT ISZERO PUSH2 0x14F JUMPI DUP4 DUP4 DUP3 PUSH1 0x1 DUP8 DUP8 SWAP1 POP PUSH2 0xDD SWAP2 SWAP1 PUSH2 0x303 JUMP JUMPDEST PUSH2 0xE7 SWAP2 SWAP1 PUSH2 0x303 JUMP JUMPDEST DUP2 DUP2 LT PUSH2 0xF7 JUMPI PUSH2 0xF6 PUSH2 0x336 JUMP JUMPDEST JUMPDEST SWAP1 POP ADD CALLDATALOAD PUSH1 0xF8 SHR PUSH1 0xF8 SHL DUP3 DUP3 DUP2 MLOAD DUP2 LT PUSH2 0x114 JUMPI PUSH2 0x113 PUSH2 0x336 JUMP JUMPDEST JUMPDEST PUSH1 0x20 ADD ADD SWAP1 PUSH31 0xFFFFFFFFFFFFFFFFFFFFFFFFFFFFFFFFFFFFFFFFFFFFFFFFFFFFFFFFFFFFFF NOT AND SWAP1 DUP2 PUSH0 BYTE SWAP1 MSTORE8 POP DUP1 DUP1 PUSH1 0x1 ADD SWAP2 POP POP PUSH2 0xBF JUMP JUMPDEST POP DUP1 SWAP4 POP POP POP POP SWAP3 SWAP2 POP POP JUMP JUMPDEST PUSH0 PUSH0 REVERT JUMPDEST PUSH0 PUSH0 REVERT JUMPDEST PUSH0 PUSH0 REVERT JUMPDEST PUSH0 PUSH0 REVERT JUMPDEST PUSH0 PUSH0 REVERT JUMPDEST PUSH0 PUSH0 DUP4 PUSH1 0x1F DUP5 ADD SLT PUSH2 0x185 JUMPI PUSH2 0x184 PUSH2 0x164 JUMP JUMPDEST JUMPDEST DUP3 CALLDATALOAD SWAP1 POP PUSH8 0xFFFFFFFFFFFFFFFF DUP2 GT ISZERO PUSH2 0x1A2 JUMPI PUSH2 0x1A1 PUSH2 0x168 JUMP JUMPDEST JUMPDEST PUSH1 0x20 DUP4 ADD SWAP2 POP DUP4 PUSH1 0x1 DUP3 MUL DUP4 ADD GT ISZERO PUSH2 0x1BE JUMPI PUSH2 0x1BD PUSH2 0x16C JUMP JUMPDEST JUMPDEST SWAP3 POP SWAP3 SWAP1 POP JUMP JUMPDEST PUSH0 PUSH0 PUSH1 0x20 DUP4 DUP6 SUB SLT ISZERO PUSH2 0x1DB JUMPI PUSH2 0x1DA PUSH2 0x15C JUMP JUMPDEST JUMPDEST PUSH0 DUP4 ADD CALLDATALOAD PUSH8 0xFFFFFFFFFFFFFFFF DUP2 GT ISZERO PUSH2 0x1F8 JUMPI PUSH2 0x1F7 PUSH2 0x160 JUMP JUMPDEST JUMPDEST PUSH2 0x204 DUP6 DUP3 DUP7 ADD PUSH2 0x170 JUMP JUMPDEST SWAP3 POP SWAP3 POP POP SWAP3 POP SWAP3 SWAP1 POP JUMP JUMPDEST PUSH0 DUP2 MLOAD SWAP1 POP SWAP2 SWAP1 POP JUMP JUMPDEST PUSH0 DUP3 DUP3 MSTORE PUSH1 0x20 DUP3 ADD SWAP1 POP SWAP3 SWAP2 POP POP JUMP JUMPDEST DUP3 DUP2 DUP4 MCOPY PUSH0 DUP4 DUP4 ADD MSTORE POP POP POP JUMP JUMPDEST PUSH0 PUSH1 0x1F NOT PUSH1 0x1F DUP4 ADD AND SWAP1 POP SWAP2 SWAP1 POP JUMP JUMPDEST PUSH0 PUSH2 0x252 DUP3 PUSH2 0x210 JUMP JUMPDEST PUSH2 0x25C DUP2 DUP6 PUSH2 0x21A JUMP JUMPDEST SWAP4 POP PUSH2 0x26C DUP2 DUP6 PUSH1 0x20 DUP7 ADD PUSH2 0x22A JUMP JUMPDEST PUSH2 0x275 DUP2 PUSH2 0x238 JUMP JUMPDEST DUP5 ADD SWAP2 POP POP SWAP3 SWAP2 POP POP JUMP JUMPDEST PUSH0 PUSH1 0x20 DUP3 ADD SWAP1 POP DUP2 DUP2 SUB PUSH0 DUP4 ADD MSTORE PUSH2 0x298 DUP2 DUP5 PUSH2 0x248 JUMP JUMPDEST SWAP1 POP SWAP3 SWAP2 POP POP JUMP JUMPDEST PUSH32 0x4E487B7100000000000000000000000000000000000000000000000000000000 PUSH0 MSTORE PUSH1 0x41 PUSH1 0x4 MSTORE PUSH1 0x24 PUSH0 REVERT JUMPDEST PUSH0 DUP2 SWAP1 POP SWAP2 SWAP1 POP JUMP JUMPDEST PUSH32 0x4E487B7100000000000000000000000000000000000000000000000000000000 PUSH0 MSTORE PUSH1 0x11 PUSH1 0x4 MSTORE PUSH1 0x24 PUSH0 REVERT JUMPDEST PUSH0 PUSH2 0x30D DUP3 PUSH2 0x2CD JUMP JUMPDEST SWAP2 POP PUSH2 0x318 DUP4 PUSH2 0x2CD JUMP JUMPDEST SWAP3 POP DUP3 DUP3 SUB SWAP1 POP DUP2 DUP2 GT ISZERO PUSH2 0x330 JUMPI PUSH2 0x32F PUSH2 0x2D6 JUMP JUMPDEST JUMPDEST SWAP3 SWAP2 POP POP JUMP JUMPDEST PUSH32 0x4E487B7100000000000000000000000000000000000000000000000000000000 PUSH0 MSTORE PUSH1 0x32 PUSH1 0x4 MSTORE PUSH1 0x24 PUSH0 REVERT INVALID LOG2 PUSH5 0x6970667358 0x22 SLT KECCAK256 0xB6 0x2F PUSH23 0x9E3FDB52DAFB580AA1539C03E24BE15481F68BBA3E92E8 0xCB 0x2C DUP11 0xF7 CALLF 0x1864 PUSH20 0x6F6C634300081E00330000000000000000000000 "
				},
				"gasEstimates": {
					"creation": {
						"codeDepositCost": "184200",
						"executionCost": "224",
						"totalCost": "184424"
					},
					"external": {
						"reverse(string)": "infinite"
					}
				},
				"methodIdentifiers": {
					"reverse(string)": "064767aa"
				}
			},
			"storageLayout": {
				"storage": [],
				"types": null
			},
			"userdoc": {
				"kind": "user",
				"methods": {},
				"version": 1
			}
		}
	}
}