{
	"data": {
		"bytecode": {
			"linkReferences": {},
			"object": "6080604052348015600e575f5ffd5b5061059e8061001c5f395ff3fe608060405234801561000f575f5ffd5b5060043610610029575f3560e01c8063088b9bf61461002d575b5f5ffd5b61004760048036038101906100429190610309565b61005d565b6040516100549190610447565b60405180910390f35b60605f8585905090505f8484905090505f818361007a9190610494565b90505f8167ffffffffffffffff811115610097576100966104c7565b5b6040519080825280602002602001820160405280156100c55781602001602082028036833780820191505090505b5090505f5f90505f5f90505f5f90505b86831080156100e357508582105b156101c8578989838181106100fb576100fa6104f4565b5b905060200201358c8c85818110610115576101146104f4565b5b905060200201351161016d578b8b84818110610134576101336104f4565b5b9050602002013584828151811061014e5761014d6104f4565b5b602002602001018181525050828061016590610521565b9350506101b5565b8989838181106101805761017f6104f4565b5b9050602002013584828151811061019a576101996104f4565b5b60200260200101818152505081806101b190610521565b9250505b80806101c090610521565b9150506100d5565b5b8683101561022b578b8b848181106101e4576101e36104f4565b5b905060200201358482815181106101fe576101fd6104f4565b5b602002602001018181525050828061021590610521565b935050808061022390610521565b9150506101c9565b5b8582101561028e57898983818110610247576102466104f4565b5b90506020020135848281518110610261576102606104f4565b5b602002602001018181525050818061027890610521565b925050808061028690610521565b91505061022c565b83975050505050505050949350505050565b5f5ffd5b5f5ffd5b5f5ffd5b5f5ffd5b5f5ffd5b5f5f83601f8401126102c9576102c86102a8565b5b8235905067ffffffffffffffff8111156102e6576102e56102ac565b5b602083019150836020820283011115610302576103016102b0565b5b9250929050565b5f5f5f5f60408587031215610321576103206102a0565b5b5f85013567ffffffffffffffff81111561033e5761033d6102a4565b5b61034a878288016102b4565b9450945050602085013567ffffffffffffffff81111561036d5761036c6102a4565b5b610379878288016102b4565b925092505092959194509250565b5f81519050919050565b5f82825260208201905092915050565b5f819050602082019050919050565b5f819050919050565b6103c2816103b0565b82525050565b5f6103d383836103b9565b60208301905092915050565b5f602082019050919050565b5f6103f582610387565b6103ff8185610391565b935061040a836103a1565b805f5b8381101561043a57815161042188826103c8565b975061042c836103df565b92505060018101905061040d565b5085935050505092915050565b5f6020820190508181035f83015261045f81846103eb565b905092915050565b7f4e487b71000000000000000000000000000000000000000000000000000000005f52601160045260245ffd5b5f61049e826103b0565b91506104a9836103b0565b92508282019050808211156104c1576104c0610467565b5b92915050565b7f4e487b71000000000000000000000000000000000000000000000000000000005f52604160045260245ffd5b7f4e487b71000000000000000000000000000000000000000000000000000000005f52603260045260245ffd5b5f61052b826103b0565b91507fffffffffffffffffffffffffffffffffffffffffffffffffffffffffffffffff820361055d5761055c610467565b5b60018201905091905056fea2646970667358221220d936aa600d7fd6047ae18678f4cd212535894e4e82b1386cb9e227f4a2b962c264736f6c634300081e0033",
			"opcodes": "PUSH1 0x80 PUSH1 0x40 MSTORE CALLVALUE DUP1 ISZERO PUSH1 0xE JUMPI PUSH0 PUSH0 REVERT JUMPDEST POP PUSH2 0x59E DUP1 PUSH2 0x1C PUSH0 CODECOPY PUSH0 RETURN INVALID PUSH1 0x80 PUSH1 0x40 MSTORE CALLVALUE DUP1 ISZERO PUSH2 0xF JUMPI PUSH0 PUSH0 REVERT JUMPDEST POP PUSH1 0x4 CALLDATASIZE LT PUSH2 0x29 JUMPI PUSH0 CALLDATALOAD PUSH1 0xE0 SHR DUP1 PUSH4 0x88B9BF6 EQ PUSH2 0x2D JUMPI JUMPDEST PUSH0 PUSH0 REVERT JUMPDEST PUSH2 0x47 PUSH1 0x4 DUP1 CALLDATASIZE SUB DUP2 ADD SWAP1 PUSH2 0x42 SWAP2 SWAP1 PUSH2 0x309 JUMP JUMPDEST PUSH2 0x5D JUMP JUMPDEST PUSH1 0x40 MLOAD PUSH2 0x54 SWAP2 SWAP1 PUSH2 0x447 JUMP JUMPDEST PUSH1 0x40 MLOAD DUP1 SWAP2 SUB SWAP1 RETURN JUMPDEST PUSH1 0x60 PUSH0 DUP6 DUP6 SWAP1 POP SWAP1 POP PUSH0 DUP5 DUP5 SWAP1 POP SWAP1 POP PUSH0 DUP2 DUP4 PUSH2 0x7A SWAP2 SWAP1 PUSH2 0x494 JUMP JUMPDEST SWAP1 POP PUSH0 DUP2 PUSH8 0xFFFFFFFFFFFFFFFF DUP2 GT ISZERO PUSH2 0x97 JUMPI PUSH2 0x96 PUSH2 0x4C7 JUMP JUMPDEST JUMPDEST PUSH1 0x40 MLOAD SWAP1 DUP1 DUP3 MSTORE DUP1 PUSH1 0x20 MUL PUSH1 0x20 ADD DUP3 ADD PUSH1 0x40 MSTORE DUP1 ISZERO PUSH2 0xC5 JUMPI DUP2 PUSH1 0x20 ADD PUSH1 0x20 DUP3 MUL DUP1 CALLDATASIZE DUP4 CALLDATACOPY DUP1 DUP3 ADD SWAP2 POP POP SWAP1 POP JUMPDEST POP SWAP1 POP PUSH0 PUSH0 SWAP1 POP PUSH0 PUSH0 SWAP1 POP PUSH0 PUSH0 SWAP1 POP JUMPDEST DUP7 DUP4 LT DUP1 ISZERO PUSH2 0xE3 JUMPI POP DUP6 DUP3 LT JUMPDEST ISZERO PUSH2 0x1C8 JUMPI DUP10 DUP10 DUP4 DUP2 DUP2 LT PUSH2 0xFB JUMPI PUSH2 0xFA PUSH2 0x4F4 JUMP JUMPDEST JUMPDEST SWAP1 POP PUSH1 0x20 MUL ADD CALLDATALOAD DUP13 DUP13 DUP6 DUP2 DUP2 LT PUSH2 0x115 JUMPI PUSH2 0x114 PUSH2 0x4F4 JUMP JUMPDEST JUMPDEST SWAP1 POP PUSH1 0x20 MUL ADD CALLDATALOAD GT PUSH2 0x16D JUMPI DUP12 DUP12 DUP5 DUP2 DUP2 LT PUSH2 0x134 JUMPI PUSH2 0x133 PUSH2 0x4F4 JUMP JUMPDEST JUMPDEST SWAP1 POP PUSH1 0x20 MUL ADD CALLDATALOAD DUP5 DUP3 DUP2 MLOAD DUP2 LT PUSH2 0x14E JUMPI PUSH2 0x14D PUSH2 0x4F4 JUMP JUMPDEST JUMPDEST PUSH1 0x20 MUL PUSH1 0x20 ADD ADD DUP2 DUP2 MSTORE POP POP DUP3 DUP1 PUSH2 0x165 SWAP1 PUSH2 0x521 JUMP JUMPDEST SWAP4 POP POP PUSH2 0x1B5 JUMP JUMPDEST DUP10 DUP10 DUP4 DUP2 DUP2 LT PUSH2 0x180 JUMPI PUSH2 0x17F PUSH2 0x4F4 JUMP JUMPDEST JUMPDEST SWAP1 POP PUSH1 0x20 MUL ADD CALLDATALOAD DUP5 DUP3 DUP2 MLOAD DUP2 LT PUSH2 0x19A JUMPI PUSH2 0x199 PUSH2 0x4F4 JUMP JUMPDEST JUMPDEST PUSH1 0x20 MUL PUSH1 0x20 ADD ADD DUP2 DUP2 MSTORE POP POP DUP2 DUP1 PUSH2 0x1B1 SWAP1 PUSH2 0x521 JUMP JUMPDEST SWAP3 POP POP JUMPDEST DUP1 DUP1 PUSH2 0x1C0 SWAP1 PUSH2 0x521 JUMP JUMPDEST SWAP2 POP POP PUSH2 0xD5 JUMP JUMPDEST JUMPDEST DUP7 DUP4 LT ISZERO PUSH2 0x22B JUMPI DUP12 DUP12 DUP5 DUP2 DUP2 LT PUSH2 0x1E4 JUMPI PUSH2 0x1E3 PUSH2 0x4F4 JUMP JUMPDEST JUMPDEST SWAP1 POP PUSH1 0x20 MUL ADD CALLDATALOAD DUP5 DUP3 DUP2 MLOAD DUP2 LT PUSH2 0x1FE JUMPI PUSH2 0x1FD PUSH2 0x4F4 JUMP JUMPDEST JUMPDEST PUSH1 0x20 MUL PUSH1 0x20 ADD ADD DUP2 DUP2 MSTORE POP POP DUP3 DUP1 PUSH2 0x215 SWAP1 PUSH2 0x521 JUMP JUMPDEST SWAP4 POP POP DUP1 DUP1 PUSH2 0x223 SWAP1 PUSH2 0x521 JUMP JUMPDEST SWAP2 POP POP PUSH2 0x1C9 JUMP JUMPDEST JUMPDEST DUP6 DUP3 LT ISZERO PUSH2 0x28E JUMPI DUP10 DUP10 DUP4 DUP2 DUP2 LT PUSH2 0x247 JUMPI PUSH2 0x246 PUSH2 0x4F4 JUMP JUMPDEST JUMPDEST SWAP1 POP PUSH1 0x20 MUL ADD CALLDATALOAD DUP5 DUP3 DUP2 MLOAD DUP2 LT PUSH2 0x261 JUMPI PUSH2 0x260 PUSH2 0x4F4 JUMP JUMPDEST JUMPDEST PUSH1 0x20 MUL PUSH1 0x20 ADD ADD DUP2 DUP2 MSTORE POP POP DUP2 DUP1 PUSH2 0x278 SWAP1 PUSH2 0x521 JUMP JUMPDEST SWAP3 POP POP DUP1 DUP1 PUSH2 0x286 SWAP1 PUSH2 0x521 JUMP JUMPDEST SWAP2 POP POP PUSH2 0x22C JUMP JUMPDEST DUP4 SWAP8 POP POP POP POP POP POP POP POP SWAP5 SWAP4 POP POP POP POP JUMP JUMPDEST PUSH0 PUSH0 REVERT JUMPDEST PUSH0 PUSH0 REVERT JUMPDEST PUSH0 PUSH0 REVERT JUMPDEST PUSH0 PUSH0 REVERT JUMPDEST PUSH0 PUSH0 REVERT JUMPDEST PUSH0 PUSH0 DUP4 PUSH1 0x1F DUP5 ADD SLT PUSH2 0x2C9 JUMPI PUSH2 0x2C8 PUSH2 0x2A8 JUMP JUMPDEST JUMPDEST DUP3 CALLDATALOAD SWAP1 POP PUSH8 0xFFFFFFFFFFFFFFFF DUP2 GT ISZERO PUSH2 0x2E6 JUMPI PUSH2 0x2E5 PUSH2 0x2AC JUMP JUMPDEST JUMPDEST PUSH1 0x20 DUP4 ADD SWAP2 POP DUP4 PUSH1 0x20 DUP3 MUL DUP4 ADD GT ISZERO PUSH2 0x302 JUMPI PUSH2 0x301 PUSH2 0x2B0 JUMP JUMPDEST JUMPDEST SWAP3 POP SWAP3 SWAP1 POP JUMP JUMPDEST PUSH0 PUSH0 PUSH0 PUSH0 PUSH1 0x40 DUP6 DUP8 SUB SLT ISZERO PUSH2 0x321 JUMPI PUSH2 0x320 PUSH2 0x2A0 JUMP JUMPDEST JUMPDEST PUSH0 DUP6 ADD CALLDATALOAD PUSH8 0xFFFFFFFFFFFFFFFF DUP2 GT ISZERO PUSH2 0x33E JUMPI PUSH2 0x33D PUSH2 0x2A4 JUMP JUMPDEST JUMPDEST PUSH2 0x34A DUP8 DUP3 DUP9 ADD PUSH2 0x2B4 JUMP JUMPDEST SWAP5 POP SWAP5 POP POP PUSH1 0x20 DUP6 ADD CALLDATALOAD PUSH8 0xFFFFFFFFFFFFFFFF DUP2 GT ISZERO PUSH2 0x36D JUMPI PUSH2 0x36C PUSH2 0x2A4 JUMP JUMPDEST JUMPDEST PUSH2 0x379 DUP8 DUP3 DUP9 ADD PUSH2 0x2B4 JUMP JUMPDEST SWAP3 POP SWAP3 POP POP SWAP3 SWAP6 SWAP2 SWAP5 POP SWAP3 POP JUMP JUMPDEST PUSH0 DUP2 MLOAD SWAP1 POP SWAP2 SWAP1 POP JUMP JUMPDEST PUSH0 DUP3 DUP3 MSTORE PUSH1 0x20 DUP3 ADD SWAP1 POP SWAP3 SWAP2 POP POP JUMP JUMPDEST PUSH0 DUP2 SWAP1 POP PUSH1 0x20 DUP3 ADD SWAP1 POP SWAP2 SWAP1 POP JUMP JUMPDEST PUSH0 DUP2 SWAP1 POP SWAP2 SWAP1 POP JUMP JUMPDEST PUSH2 0x3C2 DUP2 PUSH2 0x3B0 JUMP JUMPDEST DUP3 MSTORE POP POP JUMP JUMPDEST PUSH0 PUSH2 0x3D3 DUP4 DUP4 PUSH2 0x3B9 JUMP JUMPDEST PUSH1 0x20 DUP4 ADD SWAP1 POP SWAP3 SWAP2 POP POP JUMP JUMPDEST PUSH0 PUSH1 0x20 DUP3 ADD SWAP1 POP SWAP2 SWAP1 POP JUMP JUMPDEST PUSH0 PUSH2 0x3F5 DUP3 PUSH2 0x387 JUMP JUMPDEST PUSH2 0x3FF DUP2 DUP6 PUSH2 0x391 JUMP JUMPDEST SWAP4 POP PUSH2 0x40A DUP4 PUSH2 0x3A1 JUMP JUMPDEST DUP1 PUSH0 JUMPDEST DUP4 DUP2 LT ISZERO PUSH2 0x43A JUMPI DUP2 MLOAD PUSH2 0x421 DUP9 DUP3 PUSH2 0x3C8 JUMP JUMPDEST SWAP8 POP PUSH2 0x42C DUP4 PUSH2 0x3DF JUMP JUMPDEST SWAP3 POP POP PUSH1 0x1 DUP2 ADD SWAP1 POP PUSH2 0x40D JUMP JUMPDEST POP DUP6 SWAP4 POP POP POP POP SWAP3 SWAP2 POP POP JUMP JUMPDEST PUSH0 PUSH1 0x20 DUP3 ADD SWAP1 POP DUP2 DUP2 SUB PUSH0 DUP4 ADD MSTORE PUSH2 0x45F DUP2 DUP5 PUSH2 0x3EB JUMP JUMPDEST SWAP1 POP SWAP3 SWAP2 POP POP JUMP JUMPDEST PUSH32 0x4E487B7100000000000000000000000000000000000000000000000000000000 PUSH0 MSTORE PUSH1 0x11 PUSH1 0x4 MSTORE PUSH1 0x24 PUSH0 REVERT JUMPDEST PUSH0 PUSH2 0x49E DUP3 PUSH2 0x3B0 JUMP JUMPDEST SWAP2 POP PUSH2 0x4A9 DUP4 PUSH2 0x3B0 JUMP JUMPDEST SWAP3 POP DUP3 DUP3 ADD SWAP1 POP DUP1 DUP3 GT ISZERO PUSH2 0x4C1 JUMPI PUSH2 0x4C0 PUSH2 0x467 JUMP JUMPDEST JUMPDEST SWAP3 SWAP2 POP POP JUMP JUMPDEST PUSH32 0x4E487B7100000000000000000000000000000000000000000000000000000000 PUSH0 MSTORE PUSH1 0x41 PUSH1 0x4 MSTORE PUSH1 0x24 PUSH0 REVERT JUMPDEST PUSH32 0x4E487B7100000000000000000000000000000000000000000000000000000000 PUSH0 MSTORE PUSH1 0x32 PUSH1 0x4 MSTORE PUSH1 0x24 PUSH0 REVERT JUMPDEST PUSH0 PUSH2 0x52B DUP3 PUSH2 0x3B0 JUMP JUMPDEST SWAP2 POP PUSH32 0xFFFFFFFFFFFFFFFFFFFFFFFFFFFFFFFFFFFFFFFFFFFFFFFFFFFFFFFFFFFFFFFF DUP3 SUB PUSH2 0x55D JUMPI PUSH2 0x55C PUSH2 0x467 JUMP JUMPDEST JUMPDEST PUSH1 0x1 DUP3 ADD SWAP1 POP SWAP2 SWAP1 POP JUMP INVALID LOG2 PUSH5 0x6970667358 0x22 SLT KECCAK256 0xD9 CALLDATASIZE 0xAA PUSH1 0xD PUSH32 0xD6047AE18678F4CD212535894E4E82B1386CB9E227F4A2B962C264736F6C6343 STOP ADDMOD 0x1E STOP CALLER "
		},
		"gasEstimates": {
			"creation": {
				"codeDepositCost": "287600",
				"executionCost": "322",
				"totalCost": "287922"
			},
			"external": {
				"merge(uint256[],uint256[])": "infinite"
			}
		},
		"methodIdentifiers": {
			"merge(uint256[],uint256[])": "088b9bf6"
		}
	},
	"abi": [
		{
			"inputs": [
				{
					"internalType": "uint256[]",
					"name": "arr1",
					"type": "uint256[]"
				},
				{
					"internalType": "uint256[]",
					"name": "arr2",
					"type": "uint256[]"
				}
			],
			"name": "merge",
			"outputs": [
				{
					"internalType": "uint256[]",
					"name": "",
					"type": "uint256[]"
				}
			],
			"stateMutability": "pure",
			"type": "function"
		}
	]
}